:0600000002008B021E62EB
:01000B0032C2
:0100130032BA
:03001B00020F5D74
:0100230032AA
:01002B0032A2
:01003300329A
:01003B003292
:01004300328A
:03004B000225C3C8
:030053000206B9E9
:03005B0002099007
:01006300326A
:01006B003262
:0300730002108DEB
:01007B003252
:03008300022177E0
:030108000200866C
:03008600020F2B3B
:10010B00AF83E58290F554F0EFA3F075E10490DF37
:10011B003BE0FFBF01F890F554E0FEA3E0FF90DF5A
:10012B0006EEF075E10290DF3BE0FFBF0DF8227E9B
:10013B00007F0090FDE2E0FCA3E0FD8E028F03C385
:10014B00EA9CEB9D5038EE2400FCEF34F0FD90FD63
:10015B00E0E0F510A3E0F5118A828B83C007C0069F
:10016B00C005C004122B42AA82D004D005D006D001
:10017B00078C828D83EAF00EBE00B80F80B522E5A6
:10018B008290F556F0E0FFE59CC39FF59CE59C241F
:10019B00FAF59C439E10D2BA22539EEF22AF83E511
:1001AB008290F55AF0EFA3F090FDDBE06013902DF9
:1001BB000412180B90FDDBE0F58212184D7582EFDF
:1001CB002290FDDB7406F090DF3BE0FFBF13028053
:1001DB00F6C28290F557E0FEA3E0FF90FE42EEF0F0
:1001EB00EFA3F090FE3C74F1F0E4A3F090FDD27419
:1001FB0072F074F3A3F090FE3AE4F0A3F090FDEDEF
:10020B00F090FE36F090FDECF090FE3804F0E4A395
:10021B00F090FE377402F090F55CE4F09000001261
:10022B00034F90F55AE0FEA3E0FF90F559E0FD7BFC
:10023B00007C008D017A00C3EB99EC9A50548B0231
:10024B00EA75F0F0A42EF9E43FFA90F55C74F0F047
:10025B0089828A83C007C006C005C004C00312038D
:10026B004FAA82D003D004D005D006D007EA601B7A
:10027B00902D56C00212180BD00290FDDBE4F08AD1
:10028B0082C00212184DD0028A82220BBB00A40C32
:10029B0080A190FE45E030E33390FE42E0FEA3E008
:1002AB00FFEE540F602690FE42E0FEA3E053060FD4
:1002BB007F007410C39EFEE49FFF90FE42E0FCA300
:1002CB00E0FD90FE42EE2CF0EF3DA3F090FE42E0FD
:1002DB00FEA3E0FFC374FF9EE49F502690FE42E016
:1002EB00FEA3E07F0090DF02EEF090DF04E053E02E
:1002FB00FCF090DF04E043E002F090FE447401F068
:10030B00801290FE42E0FEA3E0FF90DF02EEF09041
:10031B00FE44E4F075E1037E607FEA90DF3BE0FD95
:10032B00BD130280091EBEFF011FEE4F70EDD2827E
:10033B00EE4F700C90FE007413F0902D6E12180B94
:10034B0075820022AF83E58290F55DF0EFA3F0900C
:10035B00F55CE0FF240F500A902D7F12180B75826D
:10036B00FF22EF703E90FDECE4F090FDECE0FE9090
:10037B00FE37E0FDC3EE9D502190FDECE075F0F1F2
:10038B00A42472F58274F335F0F583E4F090FDEC60
:10039B00E0FE0E90FDECEEF080D090FDECE4F075FD
:1003AB0082002290FDDBE0FE601DBE061E90FDEC80
:1003BB00E0601890DF3BE0FEBE1302800E90FDDB89
:1003CB007407F07582ED227582ED2290FDECE075DD
:1003DB00F0F1A42472FD74F335F0FE8D828E83E070
:1003EB00600A90FE007418F07582FE228D828E8357
:1003FB0074FFF090FDECE075F0F1A42472FD74F342
:10040B0035F0FE0DBD00010E7C0090F55DE0FAA30A
:10041B00E0FB8A108B118C128F037F008B138F14D0
:10042B008D828E838CF0C007C003122A17D003D0A5
:10043B000790FE45E020E3030204F990FDECE07524
:10044B00F0F1A42472FD74F335F0FE0DBD00010E26
:10045B0090FE17EBF0EFA3F08D828E8312278EAEFA
:10046B008290F55CEEF090FE45E0FF5307047D00B3
:10047B00BF0441BD003E90FDECE075F0F1A4247289
:10048B00FD74F335F0FF0DBD00010F8E037C009062
:10049B00FE45E054F0FA90FE1BEDF0EFA3F090FE5A
:1004AB001DEBF0ECA3F090FE1FEAF08D828F831210
:1004BB0027C4803A90FDECE075F0F1A42472FD7432
:1004CB00F335F0FF0DBD00010F7C0090FE45E054AD
:1004DB00F0FB90FE22EDF0EFA3F090FE24EEF0EC9B
:1004EB00A3F090FE26EBF08D828F8312280D90FDEA
:1004FB00ECE075F0F1A42472FE74F335F0FF90F587
:10050B005CE08E828F83F090FDECE0FF0F90FDECB2
:10051B00EFF090FE37E0FEEFB5060590FDECE4F052
:10052B0075820022AF83E58290F55FF0EFA3F09028
:10053B00FDDBE0FF6014BF0102800F902D991218B4
:10054B000B90FDDBE0F58212184D1201A490FDE437
:10055B00E4F0A3F090FDE4E0FEA3E0FF8E828F8336
:10056B0012063990DF3BE0FFBF0DF890DF3AE0FF5A
:10057B0053077F7E00C3EF9460EE64809480402726
:10058B0090FDE4E0FEA3E0FF0EBE00010F90FDE442
:10059B00EEF0EFA3F0D28290000A12246EC282908A
:1005AB00000A12246E80AD90FDDB7402F090FE0108
:1005BB00E0FCA3E0FDA3E0A3E090FDE6ECF0EDA3EF
:1005CB00F090F55FE0FEA3E0FF90FDEAEEF0EFA305
:1005DB00F02290FDDBE4F090FE01E0FCA3E0FDA334
:1005EB00E0A3E090FDE6ECF0EDA3F02290FDDB74D0
:1005FB0004F090FE01E0FCA3E0FDA3E0A3E090FD7E
:10060B00E6ECF0EDA3F02290FDDB7405F090FDEE2F
:10061B00E4F0A3F090FE01E0FCA3E0FDA3E0A3E077
:10062B0090FDE6ECF0EDA3F075820002018AAF833A
:10063B00E58290F561F0EFA3F090F561E0FEA3E0A9
:10064B00FFEE2400F582EF34F0F583E0FF7E008FA0
:10065B00828E8302010BAF83E58290F563F0EFA3EB
:10066B00F090F563E0FEA3E0FF90F370EEF0EFA3E4
:10067B00F0222290FDE4E0FEA3E0FF0EBE00010F8E
:10068B0090FDE4EEF0EFA3F0C3EE9470EF94034013
:10069B000790FDE4E4F0A3F090FDE4E0FEA3E0FF9F
:1006AB00EE2400F582EF34F0F583E0F58222C021D1
:1006BB00C0E0C0F0C082C083C007C006C005C00444
:1006CB00C003C002C001C000C0D075D00090FDD7E0
:1006DB00E02401FEA3E03400FF90FDD7EEF0EFA382
:1006EB00F090FDDCE0FCA3E0FDEEB5040BEFB505EF
:1006FB000790FDD7E4F0A3F090FDD7E0FEA3E0FF59
:10070B00BE0005BF0002800BBE0105BF0002806862
:10071B0002087790FDD7E0FEA3E08E077E00AC9C2D
:10072B007D00EC4206ED420790FDE8EEF0EFA3F002
:10073B0090FDE4E0FEA3E0FF0EBE00010F90FDE490
:10074B00EEF0EFA3F090FDE2E0FCA3E0FDC3EE9C26
:10075B00EF9D400790FDE4E4F0A3F090DF3BE0FF5A
:10076B00BF130302097390FDE4E0FEA3E0FF8E824A
:10077B008F8312063902097390FDDBE0FFBF050280
:10078B00800302097390001912246E90F567741C94
:10079B00F090FDE4E090F568F090FDE4E0A3E090CC
:1007AB00F569F090F56A7442F090F56B744CF0902B
:1007BB00F56C7441F090F56D7448F090F56E7442E1
:1007CB00F090F56F744CF090F5707441F090F571FA
:1007DB007448F090F5727442F090F573744CF0908D
:1007EB00F5747441F090F5757448F090F576744299
:1007FB00F090F577744CF090F5787441F090F579B2
:10080B007448F090F57A7442F090F57B744CF0904C
:10081B00F57C7441F090F57D7448F090F57E744250
:10082B00F090F57F744CF090F5807441F090F58169
:10083B007448F090F5827420F090FDF0741CF0E495
:10084B00A3F090FDF2F0A3F090FDF4F0A3F090F57F
:10085B0068121A7D90FDEEE0FEA3E0FF0EBE0001D4
:10086B000F90FDEEEEF0EFA3F002097390FDDBE0CD
:10087B00FFBF03028065BF04028008BF050280032F
:10088B0002097390FDE6E0FEA3E0FF90FE01E0FAA3
:10089B00A3E0FBA3E0FCA3E0FD8E008F01E4FEFFD1
:1008AB00EAC398FAEB99FBEC9EFCED9FFDC37464D5
:1008BB009AE49BE49CE49D5022902DC712180B9058
:1008CB00FDDB7405F090FE01E0FCA3E0FDA3E0FE70
:1008DB00A3E0FF90FDE6ECF0EDA3F090FDEDE075ED
:1008EB00F0F1A42472FE74F335F0FF8E828F83E057
:1008FB00607690001912246E90FDEDE075F0F1A476
:10090B002472FE74F335F0FF90DF04E05401B40160
:10091B00009200E4332EFDE43FFC8E828F83E09047
:10092B00FDF0F0E4A3F090FDF2F0A3F090FDF4F0F5
:10093B00A3F08D828C83121A7D90FDEDE075F0F1A2
:10094B00A42472F58274F335F0F583E4F090FDED99
:10095B00E0FF0F90FDEDEFF0BF0200400590FDEDC5
:10096B00E4F0902DE512180BD0D0D000D001D002BE
:10097B00D003D004D005D006D007D083D082D0F0DE
:10098B00D0E0D021323290FDDBE4F090FDECF09022
:10099B00FDEDF090FDE4F0A3F090FDE07453F0E476
:1009AB00A3F090FDE27453F0E4A3F090FDE8F0A304
:1009BB00F090FDE6F0A3F090FDDC7406F0E4A3F0FC
:1009CB0090FDDEF0A3F090FDEAF0A3F090FDEEF0C9
:1009DB00A3F012013A90FDDBE4F0759DDC859E9E41
:1009EB00439E0443CB1022020991900E0312130174
:1009FB0090FE01E4F0A3F0A3F0A3F01209F290F53E
:100A0B0083E4F090F58474CCF074F9A3F02290FD9C
:100A1B00DBE0FFBF0003020D3EBF0103020C14BF5E
:100A2B000203020B1ABF0303020D3EBF0403020DA8
:100A3B003EBF0503020D1FBF060122BF4002800609
:100A4B00BF410280412275E10490DF3BE0FFBF0113
:100A5B00F890DF0374E5F090DF047404F090DF0787
:100A6B007412F090DF08E4F090DF147410F090DF54
:100A7B0017E043E0C0F090FDDB7441F090F5847417
:100A8B00CCF074F9A3F090F583E4F090FDEEE0FE6A
:100A9B00A3E0FF90F583E0FDFB7C00C3EB9EEC9F96
:100AAB00504590DF06EDF075E10490DF3BE0FFBFB2
:100ABB0001F875E10290DF3BE0FFBF0DF8900002FB
:100ACB0012246E90F584E0FEA3E0FF90F583E02EF8
:100ADB00FEE43FFF90DF3AE0FD8E828F83F090F5CE
:100AEB0083E02401F080A475E10490DF3BE0FFBFBD
:100AFB0001F890FDEEE0FF8F3875390090F584E03A
:100B0B00F53AA3E0F53B7537017582430212A9E56F
:100B1B00097003020C0290FDFF740DF0539AFEE571
:100B2B000920E403020C0290FDDB7403F090FDD965
:100B3B00E0FEA3E08E8212018A902DF312180B9027
:100B4B00FDD9E0FEA3E0FF8E828F8312186890F927
:100B5B00CBE07E0025E0CEE424CCFFEE34F9FE8F13
:100B6B00828E8312180B90F9CBE0B401009201E452
:100B7B0033FF90F583F0EF24D0FDE434FDFE8D823E
:100B8B008E83E0706F90DF04E030E0348F057E00E1
:100B9B00ED2DCEE4FD24CCF582EE34F9F583E0FCAB
:100BAB008C38EDF53924CCFDEE34F9FE74012DF5BE
:100BBB003AE43EF53B7537017582421212A9802348
:100BCB0090DF02E0FE8E38E4F539FEEF2FCEE42401
:100BDB00CCFFEE34F9FE8F3A8E3B753701758242AE
:100BEB001212A990F583E0FF24D0F582E434FDF5D1
:100BFB00837401F05309EFD20110AF02C2017509E2
:100C0B0000A20192AF439A0122E5097003020D0D78
:100C1B0090FDFF740DF0539AFEE50920E403020DDD
:100C2B000D90F9CBE0B40100920190F583E433F021
:100C3B00902E0812180B90F583E07E0025E0CEE491
:100C4B0024CCFFEE34F9FE8F828E8312186890F558
:100C5B0083E07E0025E0CEE424CCFFEE34F9FE8F5A
:100C6B00828E8312180B90F9CBE0B401009201E451
:100C7B0033FF90F583F0EF24D0FDE434FDFE8D823D
:100C8B008E83E0706F90DF04E030E0348F057E00E0
:100C9B00ED2DCEE4FD24CCF582EE34F9F583E0FCAA
:100CAB008C38EDF53924CCFDEE34F9FE74012DF5BD
:100CBB003AE43EF53B7537017582421212A9802347
:100CCB0090DF02E0FE8E38E4F539FEEF2FCEE42400
:100CDB00CCFFEE34F9FE8F3A8E3B753701758242AD
:100CEB001212A990F583E0FF24D0F582E434FDF5D0
:100CFB00837401F0D20110AF02C2015309EFA201BC
:100D0B0092AFD20110AF02C201750900A20192AFDE
:100D1B00439A012290FDEEE0FEA3E0FF90FDE2E09E
:100D2B00FCA3E0FDC3EE9CEF9D50012290FDDB7414
:100D3B0004F022E50970012290FDFF740DF0E50926
:100D4B00543070012290F9CBE0B401009201E433EE
:100D5B00FF90F583F0EF24D0FDE434FDFE8D828E01
:100D6B0083E06003020DF490DF04E030E0348F0584
:100D7B007E00ED2DCEE4FD24CCF582EE34F9F58327
:100D8B00E0FC8C38EDF53924CCFDEE34F9FE740122
:100D9B002DF53AE43EF53B7537017582421212A9E7
:100DAB00803690FE31E0600A90FE34E0FDA3E0FE59
:100DBB00800890DF02E0FCFD7E007C00EF2FCCE48E
:100DCB0024CCFFEC34F9FC8F3A8C3B7537018D3812
:100DDB008E397582421212A990F583E0FF24D0F56B
:100DEB0082E434FDF5837401F0D20110AF02C2012D
:100DFB005309CFA20192AF22900000222222900031
:100E0B00002290DF2FE4F090DF30F090DF31F09094
:100E1B00DF00740CF090DF01744EF090DF0274FF72
:100E2B00F090DF037440F090DF04E4F090DF05F006
:100E3B0090DF06F090DF077406F090DF08E4F09087
:100E4B00DF097424F090DF0A743AF090DF0B74F131
:100E5B00F090DF0C74CAF090DF0D74A3F090DF0EEE
:100E6B007401F090DF0F7423F090DF107411F09089
:100E7B00DF117436F090DF127407F090DF13740FEC
:100E8B00F090DF147418F090DF1514F090DF1674E7
:100E9B006CF090DF177403F090DF187440F090DF64
:100EAB00197491F090DF1A7456F090DF1B7410F0E8
:100EBB0090DF1C74E9F090DF1D742AF090DF1EE4C4
:100ECB00F090DF1F741FF090DF237488F090DF2405
:100EDB007431F090DF257409F090DF2E74C0F09020
:100EEB00DF07C4F090DF097425F090DF0A7495F0EA
:100EFB0090DF0B7455F090DF1A74B6F090DF1B7413
:100F0B0010F090DF1C74EAF090DF1D742AF090DF74
:100F1B001EE4F090DF1F741FF0221225990225BDED
:100F2B00120F251218B21225EA1211D81219F0124B
:100F3B0009F51212A3D2AF121300D2829000021243
:100F4B00246EC28290000A12246E121211120A1918
:020F5B0080F81C
:102D040043616E6E6F742063616C6C207472616ECB
:102D1400736D69745F6C6F6E67207768696C65208A
:102D24004648535320486F7070696E67206F722055
:102D3400616C72656164792070726F636573736925
:102D44006E67207472616E736D69745F6C6F6E6709
:102D540021004D41435F747828292072657475728F
:102D64006E6564206572726F72006E65766572209E
:102D7400656E7465726564205458004648535378F0
:102D84006D6974206D65737361676520746F6F205E
:102D94006C6F6E67004648535320737461746520EA
:102DA400656E746572696E672053594E4348494E87
:102DB400472066726F6D2077726F6E67207374613F
:102DC40074650053594E43485F4D41535445522056
:102DD4002D3E2053594E43494E474D41535445527D
:102DE4000046485353786D697420646F6E65006EB5
:102DF4006574776F726B207061636B657428737987
:102E04006E6329006E6574776F726B207061636BFB
:0E2E1400657428646973636F766572792900AE
:1000E400E4F522F523F524F525F526F527F528F57D
:1000F40029F52AF52BF52CF52DF531F532F533F5E7
:0101040034C6
:100F5D00C021C0E0C0F0C082C083C007C006C0057C
:100F6D00C004C003C002C001C000C0D075D000AF26
:100F7D00F9E5307012BF990F852833852934753006
:100F8D00018533F90210707401B530348F31E4F5F9
:100F9D0032F522F5238F057E00ED24FEFDEE34FFA4
:100FAD00FE90F996EDF0EEA3F0E53145327006E5D1
:100FBD0033453460057530028003753000021070C2
:100FCD007402B530028003021070C3E5229531E53D
:100FDD002395324003021070E5224523700790F9E6
:100FED0098EFF08038AD22AE23BD010ABE00079008
:100FFD00F999EFF0802790F993E0FCA3E0FDA3E0D1
:10100D00FEAA22AB23EA24FEFAEB34FFFBEA2CFC0A
:10101D00EB3DFD8C828D838EF0EF122B0AAE22AF4D
:10102D002374012EF522E43FF523E531B5220FE5BA
:10103D0032B5230AE4F531F532752E01F52FE5337E
:10104D0045347008E53145327002F530E52E452FF7
:10105D00601190F99CE04402F0D294121339E4F53A
:10106D002EF52FD0D0D000D001D002D003D004D097
:10107D0005D006D007D083D082D0F0D0E0D0213279
:10108D00C0E0C082C083C007C006C0D075D0005379
:10109D00E8FB7401B53002800A7402B5300280039A
:1010AD00021129E5334534606EE52845296068AEA7
:1010BD0033AF34EE24FFF533EF34FFF534E533452C
:1010CD00347008E53145327002F530E52C2486F593
:1010DD0082E52D34F5F583E0F5F9AE28AF29EE2440
:1010ED00FFF528EF34FFF529E5284529700890F91B
:1010FD009CE054FEFFF0AE2CAF2D74012EF52CE4C8
:10110D003FF52DAE2CAF2DC3EE9404EF9402400F9E
:10111D00E4F52CF52D800875F999800375F999D0B2
:10112D00D0D006D007D083D082D0E03222AF82ADAE
:10113D0028AE29C3ED9404EE9402402DAD28AE29BE
:10114D00ED24FFF528EE34FFF529AD2CAE2D7401FD
:10115D002DF52CE43EF52DAD2CAE2DC3ED9404EE06
:10116D0094024005E4F52CF52DE52A2486F582E55B
:10117D002B34F5F583EFF0AE2AAF2B74012EF52A43
:10118D00E43FF52BAE2AAF2BC3EE9404EF9402404F
:10119D0005E4F52AF52BAE28AF2974012EF528E4C8
:1011AD003FF52990F99CE04401F0227582FF2275EC
:1011BD0082FF225388F7D2AB53E8FB439A082253A0
:1011CD0088F7C2AB53E8FB539AF72274FD55F144EF
:1011DD0001F5F143F33C53FDC3747F55F84420F5FD
:1011ED00F875FA3BE5FC75FC0B5388F7D2AB53E869
:1011FD00FB439A0890F993748AF074F7A3F0E4A373
:10120D00F0F5302222AD82AE83AFF0C007C006C02C
:10121D00051211BCAC82D005D006D0078C03BC0AD8
:10122D000280118D828E838FF0EB122B0AA3AD827B
:10123D00AE8380D78D828E838FF0E4022B0AAFF0C0
:10124D00AE83E58290F9A0F0EEA3F0EFA3F090F954
:10125D00A0E0FDA3E0FEA3E0FF8D828E838FF01250
:10126D002CA1FC60230DBD00010E90F9A0EDF0EE58
:10127D00A3F0EFA3F08C82C007C006C00512113A8F
:10128D00D005D006D00780D190F9A0EDF0EEA3F0F7
:10129D00EFA3F00211390211C00211CC12113A85DF
:1012AD00378212113A85388212113A758200121165
:1012BD003AAE3AAF3BAC38AD39EC4D60278E828FEC
:1012CD0083E0FBA3AE82AF838B82C007C006C0054F
:1012DD00C00412113AD004D005D006D0071CBCFFB3
:1012ED00011D80D575820012113A1211399000003E
:1012FD002232322285823585833622E58290F9A508
:10130D00F090F99CE054FDF090F998E0FF90F99978
:10131D00E0F53790F9A5E0FE8E3875390090F9A308
:10132D00E0F53AA3E0F53B8F820212A990F99CE01B
:10133D0020E1012290F993E0FDA3E0FEA3E0FF740C
:10134D00022DFDE43EFE90F9A6EDF0EEA3F090F92E
:10135D0096E0FBA3E0FCEB24FEFBEC34FFFC90F9E4
:10136D0096EBF0ECA3F090F998E0F54074FFB540E2
:10137D000280030217A290F999E0FBBB8000500395
:10138D00021784EB246F5003021784EB2480FA2498
:10139D000A83F582EA241583F583E473CB59D10EC4
:1013AD00FE254684745D84848484DC0F6B131415D0
:1013BD0016141616171616171717171617178D82D8
:1013CD008E838FF0122CA1FA74012DF53CE43EF5BD
:1013DD003D8A3E753F0090F99AE53EF0E53FA3F05A
:1013ED00853C82853D83E0F53C74022DF540E43E5D
:1013FD00F541A93C8902E4F9253EF53EEA353FF574
:10140D003F90F99AE53EF0E53FA3F0854082854196
:10141D0083E0F88D828E83A3A3A388408941E0FAEF
:10142D00E42540F9EA3541FA893A8A3B90F998E08A
:10143D00FA90F999E0F537853E38853F398A821261
:10144D0012A990F99AE4F0A3F002179A8D828E8377
:10145D008FF0122CA1FA8D828E83A38A3E753F00E8
:10146D00E0F874022DF540E43EF5418802E4253E96
:10147D00F8EA353FFA90F99EE8F0EAA3F090F99674
:10148D00E0F9A3E0FAE924FEF53EEA34FFF53FE585
:10149D003E453F603D90F99EE0F53CA3E0F53D747F
:1014AD0001253CF9E4353DFA90F99EE9F0EAA3F007
:1014BD00854082854183E0FAA385824085834185FD
:1014CD003C82853D83EAF0153E74FFB53E02153F23
:1014DD0080BD90F998E0FA90F999E0F537753A9A50
:1014ED00753BF97538027539008A821212A90217F7
:1014FD009A90F99CE020E2338D828E838FF0122C2E
:10150D00A1FA8D828E83A38A40754100E0F890F98F
:10151D00A674022DF0E43EA3F08802E42540F8EA1B
:10152D003541FA90F99EE8F0EAA3F090F99AE0F9C6
:10153D00A3E0FA89408A41C374409540E495415037
:10154D0006754040754100E9C39540F9EA9541FAA9
:10155D0090F99AE9F0EAA3F090F9A6E0F53EA3E040
:10156D00F53FE5404541603D90F99EE0F53CA3E037
:10157D00F53D7401253CF9E4353DFA90F99EE9F00D
:10158D00EAA3F0853E82853F83E0FAA385823E85FE
:10159D00833F853C82853D83EAF0154074FFB5405D
:1015AD0002154180BD90F998E0FA90F999E0F53770
:1015BD00753A9A753BF97538027539008A8212129F
:1015CD00A902179AD282900002C007C006C0051268
:1015DD00246EC28290000212246ED005D006D00770
:1015ED0090F998E0FA90F999E0F53790F996E0F5D1
:1015FD0038A3E0F5398D3A8E3B8A821212A9021773
:10160D009A753A3A753B2E8B3775380D75390085BD
:10161D0040821212A902179A90FE01E0F8A3E0F998
:10162D00A3E0A3E0883A893B8B3775380475390000
:10163D008540821212A902179A753A2B753B2E8B93
:10164D003775380F7539008540821212A902179A25
:10165D00753A22753B2E8B377538097539008540E3
:10166D00821212A902179A8D828E838FF0122CA1ED
:10167D00FC74012DF9E43EFABC0202800ABC03029F
:10168D008021BC0429800DC002C001121978D0013F
:10169D00D002801AC282C002C0011219C4D001D07A
:1016AD0002800BC002C00112199AD001D00290F92C
:1016BD0098E0FC90F999E0F53790F996E0F538A3AC
:1016CD00E0F539893A8A3B8C821212A902179A9059
:1016DD00F99A7401F0E4A3F0753A36753BDF90F991
:1016ED0098E0FC90F999E0F53790F99AE0F538A378
:1016FD00E0F5398C821212A990F99AE4F0A3F00268
:10170D00179A8D028E048C017C0090FE057448F0B2
:10171D00742EA3F07480A3F07510098C118A828940
:10172D00838CF0C007C006C00512251AE58285839B
:10173D00F0D005D006D00745F0705275C98090F9EC
:10174D0098E0FC90F999E0F53790F996E0F538A31B
:10175D00E0F5398D3A8E3B8C821212A9802F90FDC7
:10176D00FFE4F090FE00F090F9A3EDF0EEA3F0751C
:10177D008202121308801690F996E0F538A3E0F571
:10178D00398B378D3A8E3B8540821212A990F99C88
:10179D00E054FDF022E535453660198535828536F4
:1017AD0083120089AE82AF83EE4F701090F99CE0EA
:0D17BD0054FDF02290F99CE054FDFFF02255
:102E220053444343763432300041555241323120CB
:102E32002020723035353600554E494D504C454DA7
:102E4200454E5445440052455345545F4E4F57003A
:1017CA00AF83E58290F9A8F0EFA3F090F9A8E0FEC4
:1017DA00A3E0FF7C007D008E028F038A828B83E068
:1017EA00F9A3AA82AB83E960070CBC00EE0D80EB7B
:1017FA007537F08C388D398E3A8F3B7582FE02121E
:10180A00A9AF83E58290F9AAF0EFA3F090F9AAE0D4
:10181A00FEA3E0FF7C007D008E028F038A828B8309
:10182A00E493F9A3AA82AB83E960070CBC00ED0D2F
:10183A0080EA8E3A8F3B7537F08C388D397582FE87
:10184A000212A9E58290F9ACF0753AAC753BF975CC
:10185A0037F17538017539007582FE0212A9AF8316
:10186A00E58290F9ADF0EFA3F0753AAD753BF975E5
:10187A0037F27538027539007582FE0212A9AF82F5
:10188A00AE83ADF0FC90F9AFEFF0EEA3F0EDA3F06C
:10189A00ECA3F0753AAF753BF97537F375380475F3
:0818AA0039007582FE0212A94B
:030105007508007A
:1018B2007EB37FF98FD575D4B37EBB7FF98FD37595
:1018C200D2BB75100075111875120090F9B375F03E
:1018D20000022A9F7403B508047582FF22850882DC
:1018E200050822122ABEAC82AD83AEF0FFC004C04E
:1018F20005C006C0079037BD75F086743D122946B3
:10190200AC82AD83AEF0FFE58124FCF581E4C0E05A
:10191200C0E074C0C0E07441C0E08C828D838EF060
:10192200EF122BDEAC82AD83AEF0FFE58124FCF535
:10193200818C828D838EF0EF122AD1AC82AD83AE80
:10194200F090DF09EEF090DF0AEDF090DF0BECF0A3
:101952002275E10490DF3BE0FFBF01F890FDD6E085
:10196200F5E190FDD6E0FFBF04012290DF3BE0FFEE
:10197200BF010280ED2290FDD6E0FFBF020122905E
:10198200DF13E053E0F0F090DF13E043E00FF0905C
:10199200FDD67402F0021E1190FDD6E0FFBF0301D6
:1019A2002290DF13E053E0F0F090DF13E043E00A0F
:1019B200F090FDD67403F0F5E190DF3BE0FFBF133A
:1019C200F82290FDD6E0FFBF04012290DF13E0531E
:1019D200E0F0F05391EF75E10490DF3BE0FFBF01CF
:1019E200F8539BFC53E9EF90FDD67404F02290FD6E
:1019F200D9E4F0A3F090FDCCF0A3F090FDCEF0A3DB
:101A0200F053C6C7759D00859E9E439E0485A9A975
:101A120043B90190FDD67404F0751000751100F5FC
:101A22001290F9CC75F000122A9F120E0DD2A875F1
:101A320091D175E900750900439A0175E10490DFBF
:101A42003BE0FFBF01F8227E007F00C3EE94DCEF93
:101A52009405502390DF3CE0545060049000012232
:101A6200900032C007C006122495D006D007743207
:101A72002EFEE43FFF80D490000022AF83E58290E7
:101A8200FDF6F0EFA3F090FDF8E4F090DF02E0FF46
:101A920090DF3BE0FEBE131EA290B3920290FE487E
:101AA200E0FEA202E4335206EE24FF9290C0071237
:101AB2001211D00780DAC29090FE44E4F090FDF259
:101AC200E0FDA3E0FE90FE3AEDF0EEA3F090FDF40F
:101AD200E0FBA3E0FC90FE40EBF0ECA3F090FDF005
:101AE200E0F9A3E0FA90FE3CE9F0EAA3F090FE3EB2
:101AF200E9C39BF0EA9CA3F090FE3EE0FBA3E0FC6E
:101B02008D108E118B828C83C007C006C005C00267
:101B1200C001122B25AB82AC83D001D002D005D0FC
:101B220006D00790FE42EB29F0EC3AA3F0E94A70A6
:101B320073C00790FDF6E0FBA3E0FC8B828C83E090
:101B4200F8880A750B0090FDF0E50AF0E50BA3F0AA
:101B520090DF04E0F87F00740358F50C8F0DE4B5B4
:101B62000C07B50D04D0078020D0077401B50C0610
:101B720014B50D028003021C3E90FDF07401250A8B
:101B8200F0E4350BA3F0021C3E90FDF674012BF03D
:101B9200E43CA3F090FDF0E0FBA3E0FC90DF02EB5D
:101BA200F0021C3E90DF04E0FC5304037B00BC0007
:101BB20005BB00028049BC0105BB00028003021C78
:101BC2003E90FDF6E0FBA3E0FC90FDF9E9F0EAA30C
:101BD200F090FDFB7401F0E4A3F08B828C83C007CC
:101BE200C002C001122419D001D002D00790FDF624
:101BF200E0FBA3E0FC89008B828C83E8F0803DED62
:101C02004E603490FE42E0FDA3E090DF02EDF090E2
:101C1200DF04E053E0FCF090FE42E0FDA3E0FEC3EF
:101C220074FF9DE49E500890DF04E043E002F090D0
:101C3200FE447401F0800590DF02E9F0D2A890FE24
:101C420045E020E303021D7490DF04E0FE53060327
:101C52007D00BE0109BD000690FDF87401F090FD03
:101C6200F8E0FE90FDF6E0FCA3E0FDEE2CFAE43D88
:101C7200FB90FDF0E0F8A3E0F990FE17E8F0E9A38D
:101C8200F08A828B83C007C006C005C00412278E6B
:101C9200AA82AB83D004D005D006D00790FE45E0DF
:101CA200F85300047900B8043EB9003BC007EE2C9B
:101CB200F8E43DF990FE45E054F0FF90FE1BE8F099
:101CC200E9A3F090FE1DEAF0EBA3F090FE1FEFF007
:101CD20088828983C007C003C0021227C4D002D001
:101CE20003D007D0078035EE2CFCE43DFD90FE4585
:101CF200E054F0FE90FE22ECF0EDA3F090FE24EA18
:101D0200F0EBA3F090FE26EEF08C828D83C007C02C
:101D120003C00212280DD002D003D00790FDF8E0D4
:101D2200603390FE45E0FE5306F07D00BE5014BDC8
:101D3200001190FDF6E0FDA3E0FE8D828E8374100B
:101D4200F0802F90FDF6E0FDA3E0FE8A048D828EE6
:101D520083ECF0801D90FE45E0FE5306F07D00BE50
:101D6200500BBD000890DF027410F0800590DF0276
:101D7200EAF090FDF6E0FDA3E0FE90FDD2EDF0EE7C
:101D8200A3F090FE38E4F0A3F075E1037D607EEAF3
:101D920090DF3BE0FCBC1302802F1DBDFF011EED56
:101DA2004E6026A290B3920290FE48E0FCA202E4AA
:101DB200335204EC24FF9290C007C006C0051212F1
:101DC20011D005D006D00780C790FE48E05401FC30
:101DD20024FF9290ED4E700690FE007413F090DF97
:101DE2003BE0FEBE131EA290B3920290FE48E0FEBC
:101DF200A202E4335206EE24FF9290C0071212119F
:101E0200D00780DAC29090DF02EFF075820122D211
:101E1200A875100075110075120290F9CC75F000CA
:101E2200122A9F90FDCCE4F0A3F090FDCEF0A3F037
:101E320090FDD0F090FDD104F090F9CBE4F0539BEB
:101E4200FC53E9EF75E10290DF3BE0FFBF0DF84381
:101E520091102290FE477401F02290FE47E4F02296
:101E6200C021C0E0C0F0C082C083C007C006C00568
:101E7200C004C003C002C001C000C0D075D0009031
:101E8200FDFF7411F0C28990DF3BE0FFBF0D0280BD
:101E920003021FAB90FE48E05401FF24FF92909092
:101EA200FE31E0602590FE32E0FEA3E0FFEE24FF6B
:101EB200FCEF34FFFD90FE32ECF0EDA3F074FF2F47
:101EC200400890DF04E053E0FCF090FDD67402F08D
:101ED20090F9CBE07E0025E0CEE424CCFFEE34F98D
:101EE200FEE075F002A424CCFC74FD35F0FD8C827A
:101EF2008D83E0FAA3E0FB74012AF8E43BF98C82BB
:101F02008D83E8F0E9A3F0EA2FF582EB3EF583E555
:101F1200D9F090F9CBE075F002A424CCF58274FDDF
:101F220035F0F583E0FEA3E0FFC39402501A90F966
:101F3200CBE075F002A424CCF58274FD35F0F58374
:101F4200E0FEA3E0FF4E701990F9CBE075F002A419
:101F520024CCF58274FD35F0F58374FFF07401A38F
:101F6200F090FE32E0FEA3E0FF4E600302215A90A1
:101F7200FE31E0700302215A90FE34E0FEA3E0FF3E
:101F820090FE32EEF0EFA3F090FE32E0FEA3E07F8F
:101F92000090DF02EEF090DF04E053E0FCF090DF0F
:101FA20004E043E002F002215A90DF3BE0FFBF135E
:101FB20002800302215A90FE44E070030220EB905B
:101FC200FDE8E0FEA3E0FF0EBE00010F90FDE8EE8B
:101FD200F0EFA3F090FE38E0FEA3E0FF90FE3CE0BD
:101FE200FCA3E0FDEEB50406EFB505028003022076
:101FF200C390FE3AE0FEA3E04E603890FE3AE0FE67
:10200200A3E0FFBEFF05BF0002801590FE3AE0FE8E
:10201200A3E0FF1EBEFF011F90FE3AEEF0EFA3F019
:1020220090FE40E0FEA3E0FF90FE38EEF0EFA3F05A
:102032000220C390FE3CE0F510A3E0F51190FE36BD
:10204200E0FF7E008F828E83122B25AE82AF8390BB
:10205200FDD2E0FCA3E0FDEE2CF582EF3DF583E43A
:10206200F090FE36E02401FFF090FE37E0FEEFB57F
:10207200060590FE36E4F090FE3CE0F510A3E0F594
:102082001190FE36E0FF7E008F828E83122B25AEEA
:1020920082AF8390FDD2E0FCA3E0FDEE2CFEEF3D8B
:1020A200FF8E828F83E0701090FDDBE4F090FE00E3
:1020B2007412F0121953C29090FE387401F0E4A326
:1020C200F090FE42E0FEA3E0FFEE24FFFCEF34FFBF
:1020D200FD90FE42ECF0EDA3F0BEFF22BF001F9088
:1020E200DF04E053E0FCF0801590FE42E0FEA3E046
:1020F200FF1EBEFF011F90FE42EEF0EFA3F090FD27
:10210200D67403F090FE3CE0F510A3E0F51190FECA
:1021120036E0FF7E008F828E83122B25AE82AF8344
:1021220090FE38E0FCA3E0FD90FE3874012CF0E450
:102132003DA3F0EC2EFEED3FFF90FDD2E0FCA3E0CC
:10214200FDEE2CF582EF3DF583E0F5D990FDD4E06C
:102152002401F0A3E03400F0D0D0D000D001D002AE
:10216200D003D004D005D006D007D083D082D0F0DF
:10217200D0E0D02132C021C0E0C0F0C082C083C014
:1021820007C006C005C004C003C002C001C000C031
:10219200D075D000750E0090FDFF7410F0539BFCBB
:1021A200E5E94209E5E930E01C90FDD7E0FDA3E056
:1021B2008D067D00AB9C7C0090FDD9ED4BF0EE4C82
:1021C200A3F053E9FEE5E95470700302238490FD05
:1021D200D6E0FEBE030653098F02238190F9CBE0BD
:1021E200B401009203E433FD7E0024D0F582EE3484
:1021F200FDF583E0FEBE0102800302233890FE4516
:10220200E020E10302231090DF04E0FE5306037D89
:1022120000BE0106BD0003750E0190FE45E0FE53AF
:1022220006017D00BE0176BD007390F9CBE07D0012
:1022320025E0CDE424CCFEED34F9FDAB0E7C00EBC1
:102242002EFEEC3DFDE0F97A0029CAE424CCF9EA3D
:1022520034F9FAEB29FBEC3AFCE075F002A424CC49
:10226200F58274FD35F0F583E0F9A3E0FAA80E7F5C
:1022720000E9C398F9EA9FFA90FE45E054F0FF9016
:10228200FE1BEBF0ECA3F090FE1DE9F0EAA3F09048
:10229200FE1FEFF08E828D831227C4807190F9CBDE
:1022A200E07E0025E0CEE424CCFFEE34F9FEAC0E55
:1022B2007D00EC2FFFED3EFEE07A0025E0CAE4242B
:1022C200CCFBEA34F9FAEC2BFCED3AFDE075F002B6
:1022D200A424CCF58274FD35F0F583E0FAA3E0FB8B
:1022E200A80E7900EAC398FAEB99FB90FE45E054F8
:1022F200F0F990FE22ECF0EDA3F090FE24EAF0EB70
:10230200A3F090FE26E9F08F828E8312280D90F9B9
:10231200CBE063E001F090F9CBE075F002A424CCAD
:10232200F58274FD35F0F583E4F0A3F090FDD0F072
:1023320090FDD1F0804790FE007412F0A290B3920B
:102342000390FE48E0FFA203E4335207EF24FF921A
:102352009090F9CBE075F002A424CCF58274FD359F
:10236200F0F583E4F0A3F0A290B3920390FE48E06C
:10237200FFA203E433FE5207EF24FF9290C2905370
:10238200E9CFE5E930E63790FE007410F0A290B391
:10239200920390FE48E0FFA203E4335207EF24FFCA
:1023A2009290121953A290B3920390FE48E0FFA2BA
:1023B20003E433FE5207EF24FF929053E9BFE5E9AD
:1023C20030E73790FE007411F0A290B3920390FEB2
:1023D20048E0FFA203E4335207EF24FF9290121960
:1023E20053A290B3920390FE48E0FFA203E433FEAF
:1023F2005207EF24FF929053E97FD0D0D000D00152
:10240200D002D003D004D005D006D007D083D0822A
:10241200D0F0D0E0D02132AF83E58290FDFDF0EF25
:10242200A3F090FDFBE0FEA3E0FF90FDFDE0FCA326
:10243200E0FD90FDF9E0FAA3E0FB8A008B011ABAF5
:10244200FF011BE8496024EE2AF8EF3BF9E82CF87B
:10245200E93DF9EA2CF582EB3DF583C006C007E0C1
:0C24620088828983F0D007D00680CF224A
:102E5200000000000000010000000000000000006F
:072E62000000000000000069
:10246E00AE82AF831EBEFF011FC3E49E74808FF049
:10247E0063F08095F0500F7C4C7D041CBCFF011D59
:10248E00EC4D70F780DE22AE82AF83EE2EFEEF3380
:10249E00FF1EBEFF011FC3E49E74808FF063F080A9
:1024AE0095F040ED22AE82AF83D2909003E8C00744
:1024BE00C00612246EC2909001F412246ED006D083
:1024CE0007EE30E020900019C007C00612246ED22D
:1024DE009090022612246EC29090001912246ED093
:1024EE0006D007801E900113C007C00612246ED2BC
:1024FE009090003212246EC29090011312246ED06E
:10250E0006D007EFC313CE13CEFF80B5AFF0AE8368
:10251E00E58290FE08F0EEA3F0EFA3F090FE08E047
:10252E00FDA3E0FEA3E0FF90FE05E0FAA3E0FBA30F
:10253E00E0FCA810A911E849604DC000C0018D82D1
:10254E008E838FF0122CA1F98A828B838CF0122C41
:10255E00A1F8E9C398F98912D001D000600D851257
:10256E0013751400851382851483220DBD00010E90
:10257E0090FE08EDF0EEA3F0EFA3F00ABA00010B07
:10258E0018B8FF011980AF9000002253BEFBE5BEC4
:10259E0030E6FB53C6B8E5C620E6FB43BE04E5BEF7
:1025AE0030E6FB53C6C743E40C43E401D2B92243E1
:1025BE00FE03C29022C0E0C082C083C0D090FE0154
:1025CE00E02401F0A3E03400F0A3E03400F0A3E037
:0C25DE003400F0D0D0D083D082D0E032A6
:012E69000167
:1025EA001218D6AF8290FE0FEFF08F068EF005F02C
:1025FA007401800225E0D5F0FB90FE10F0EF75F033
:10260A0008A424B3FE74F935F0FF90FE0BEEF0EF48
:10261A00A3F08E828F83A3A374DFF090FE0BE0FEFB
:10262A00A3E0FF8E828F83A3A3A374B1F090FE0B65
:10263A00E0FEA3E0FF8E828F83A3A3A3A3A374105B
:10264A00F090FE0BE0FEA3E0FF74062EF582E43F55
:10265A00F583E054E0441DF090FE0BE0FEA3E0FF9A
:10266A0074072EF582E43FF583E0543F4440F0902E
:10267A00FE0BE0FEA3E0FF74072EF582E43FF5832C
:10268A00E054FC4401F01218D6AF8290FE11EFF02C
:10269A008F068EF005F07401800225E0D5F0FB90DC
:1026AA00FE12F0EF75F008A424B3FE74F935F0FFBA
:1026BA0090FE0DEEF0EFA3F08E828F8374DFF09020
:1026CA00FE0DE0FEA3E0FF8E828F83A374B2F0902A
:1026DA00FE0DE0FEA3E0FF8E828F83A3A3A3A3A334
:1026EA007410F090FE0DE0FEA3E0FF74062EF58252
:1026FA00E43FF583E054E0441EF090FE0DE0FEA3B3
:10270A00E0FF74072EF582E43FF583E054CF4410CE
:10271A00F090FE0DE0FEA3E0FF74072EF582E43F81
:10272A00F583E054FC4401F043A91043B91022AFE9
:10273A0083E58290FE15F0EFA3F0E5B330E3FB905A
:10274A00FE0BE0FEA3E0FF90FE15E0FCA3E0FD8D8A
:10275A00038B028E828F83EAF090FE0BE0FEA3E0E9
:10276A00FF8E828F83A3ECF090FE10E0FF42D6002A
:10277A0090FE13E0FF90FE14E04F4401F5B3E5B379
:10278A0030E3FB22AF83E58290FE19F0EFA3F090CD
:10279A00FE19E0FEA3E0FF90FE17E0FCA3E0FDECCB
:1027AA00540F6011EC2EF582ED3FF5830CBC00014D
:1027BA000DE4F080EA8C828D8322AF83E58290FE5D
:1027CA0020F0EFA3F090FE20E0FEA3E0FF90FE1BB6
:1027DA00E0FCA3E0FD90FE1DE0FAA3E0FB90FE1FE3
:1027EA00E0F990FE29ECF0EDA3F090FE2BEAF0EB75
:1027FA00A3F090FE2DE4F090FE2EE9F08E828F83F6
:10280A00022857AF83E58290FE27F0EFA3F090FEEF
:10281A0027E0FEA3E0FF90FE22E0FCA3E0FD90FE8D
:10282A0024E0FAA3E0FB90FE26E0F990FE29ECF002
:10283A00EDA3F090FE2BEAF0EBA3F090FE2D7402CC
:10284A00F090FE2EE9F08E828F83022857AF83E53F
:10285A008290FE2FF0EFA3F0E5B330E3FB90FE2F5A
:10286A00E0FEA3E0FF90FE29E0F516A3E0F517903D
:10287A00FE2EE0FB74505BF51590FE2DE0F94B44FB
:10288A0001FB740149F51490FE2BE0F510A3E0F565
:10289A0011E4F512F513C3E5129510E513951140ED
:1028AA000122C00390FE0BE0F8A3E0FBE5122EF92B
:1028BA00E5133FFA8A058D0488828B83ECF090FE3B
:1028CA000BE0FCA3E0FD8C828D83A3E9F090FE0D62
:1028DA00E0FCA3E0FD8C828D83A3A3E5122516FC00
:1028EA00E5133517FD8D038B02EAF090FE0DE0FA31
:1028FA00A3E0FB8A828B83A3A3A3ECF090FE12E0F1
:10290A00FD90FE10E04D42D60000D003E515601799
:10291A00E51024F0FCE51134FFFDECB51209EDB524
:10292A0013058514B380028BB3E5B330E3FB74104F
:10293A002512F512E43513F5130228A01229E9BC71
:10294A000003022BB0EF60FA30D502B2D1E583B4AE
:10295A00FF03022BC6E582B4FF03022BC625834080
:10296A00072482400B022BB02483145003022BC687
:10297A00F582EA8DF0A4A8F0EA8EF0A428F8E435EE
:10298A00F0F9EB8DF0A428E935F0F9E433CA8FF0B9
:10299A00A429F9EA35F0FAEBF88EF0A429F9EA3518
:1029AA00F0FAE433FBEC8DF0A429F9EA35F0FAE405
:1029BA003BFBE88FF0A42AFAEB35F0FBE433CCFDBD
:1029CA008EF0A42AFAEB35F0FBE43CFCED8FF0A480
:1029DA002BFBEC35F0FC20E703122A6C022B8FAAA2
:1029EA0082AB83A2F73392D1F5826002D2F7ACF0C0
:1029FA00E58124F9F8E6FD08E6FE0886F008E6A275
:0D2A0A00F73392D5F5836002D2F7AFF022CA
:0600BA00E478FFF6D8FD1A
:102A1700AD82AE83AFF08D158E168F178510188592
:102A2700111985121AA813A9148803890418B8FF65
:102A37000119EB4C6025851882851983851AF012D8
:102A47002CA1FCA38582188583198D828E838FF034
:102A5700EC122B0AA3AD82AE8380CE851582851634
:102A6700838517F0227804EC7011E58224F8500A68
:102A7700F582E4C9CACBFCD8EF22EC782005822086
:102A8700E713D5820122C3E933F9EA33FAEB33FBC3
:102A9700EC33FCD8EA158222AC82AD83AE11AF12BB
:102AA700BE0004EF600C1F0FE510122B0AA3DEFA1D
:072AB700DFF88C828D832201
:100098007918E94400601B7A01902E5278317593E3
:1000A800FEE493F2A308B800020593D9F4DAF275D6
:0200B80093FFB4
:102ABE00FCABF0AA83A982749EC2D1F582122A6C55
:102ACE00022B8F7F9E122AF830D103022BB0C3EF58
:102ADE009582500974FFF5F0F583F5822279001284
:102AEE002CBD89828A838BF0EC22AA82AB83A2F75B
:102AFE003392D1F5826002D2F7ACF02220F711307A
:102B0E00F6138883A88220F509F6A8837583002220
:102B1E0080FEF280F5F022E5828510F0A4C582C019
:102B2E00F08511F0A4D0F025F0C5838510F0A42512
:102B3E0083F58322E510451160467A01E51025E004
:102B4E00F510E511334012F511E5829510E58395E8
:102B5E001140030A80E6C3E51113F511E51013F5D4
:102B6E0010C3E5829510F5F0E58395114005F583C8
:102B7E0085F082C3E51113F511E51013F510DAE1B6
:012B8E002224
:1000C0007800E84400600A79007593F0E4F309D8F9
:1000D000FC7831E8440E600C790F90F000E4F0A356
:0400E000D8FCD9FA75
:02008900E4731E
:102B8F00B98003EA13B34010EA2401FAE43BFBE4F3
:102B9F003CFC50047C800582BC000EBB000BBA00CD
:102BAF0008E4F5F0F583F58222A2D1E582138CF0CB
:102BBF0092F78B838A8222E4F583F58275F080F495
:102BCF00A2D11322E4F583F58275F0C0747F22122F
:102BDF0029E930D502B2D1BF0009BC0003022BD3C3
:102BEF00022BC6BC0003022BB0E583B4FF0BE582BA
:102BFF00B4FF03022BD3022BB0E582B4FF03022BE9
:102C0F00C6C395835007247F400B022BB02480143A
:102C1F005003022BC6F582C3ED9AEE9BEF9C401139
:102C2F001582C3EA33F9EB33FAEC33FBE433FC8060
:102C3F0005E4CCCBCAF9C08275F019C3E99DEA9EB1
:102C4F00EB9FEC9400D5F002802D400EE99DF9EA40
:102C5F009EFAEB9FFBEC9400FCC3B3E833F8E582DC
:102C6F0033F582E58333F583C3E933F9EA33FAEBBE
:102C7F0033FBEC33FC80C4B3E4F938FAE43582FB60
:102C8F00E43583FCD082500405827C80122A6C02CA
:022C9F002BA761
:0D008B00758141122D00E5826003020086A0
:102CA10020F71430F6148883A88220F507E6A8835C
:102CB10075830022E280F7E49322E0226040F82548
:102CC10082500274FFF582E824F8501ECCCBCAF979
:102CD100E4CC24F85014CBCAF9E4CB24F8500BCA45
:102CE100F9E4CA24F8500379002224086010F8C3DB
:102CF100EC13FCEB13FBEA13FAE913F9D8F1227593
:032D01008200222B
:00000001FF
