:060000000200890207FE68
:01000B0032C2
:0100130032BA
:01001B0032B2
:0100230032AA
:01002B0032A2
:01003300329A
:01003B003292
:01004300328A
:03004B00020F920F
:01005300327A
:01005B003272
:01006300326A
:01006B003262
:01007300325A
:01007B003252
:03008300020B135A
:0300F40002008681
:0300860002026D06
:1000F70090F000E4F0A3F0A3F0A3F002032F121B8B
:1001070020E508605490F438740DF0E50830E446B3
:1001170090F004E0B401009200E433FF2409FDE409
:1001270034F4FE8D828E83E0702CB2A390F000E051
:100137002401F0A3E03400F0A3E03400F0A3E0349E
:1001470000F0C007121D15D007EF2409F582E4342B
:10015700F4F5837401F075080022752A04752B32B3
:10016700752C8075290075820002141390DF2FE427
:10017700F090DF30F090DF31F090DF00740CF090FA
:10018700DF01744EF090DF0274FFF090DF037420FC
:10019700F090DF04E4F090DF05F090DF06F090DFE9
:1001A700097421F090DF0A7465F090DF0B746AF030
:1001B70090DF077406F090DF08E4F090DF0C74CA54
:1001C700F090DF0D7483F090DF0E7404F090DF0F72
:1001D7007423F090DF107411F090DF117435F090F4
:1001E700DF127407F090DF13743FF090DF14741878
:1001F700F090DF157416F090DF16746CF090DF172F
:100207007443F090DF187440F090DF197491F09008
:10021700DF1A7456F090DF1B7410F090DF1C74E93E
:10022700F090DF1D742AF090DF1EE4F090DF1F745A
:100237001FF090DF237481F090DF247435F090DF96
:10024700257409F090DF2E7450F0748EF090DF095A
:100257007422F090DF0A74B1F090DF0B743BF02248
:10026700120F35020F59120267122BB7120FB9126C
:100277001315D2A490012C120E0AC2A490012C12BD
:100287000E0A1203A71200F71216EFD2AF121FA51C
:0502970012010580F8D2
:10320400494D4D4520534E4946462076302E3100D7
:10029C00122E1EAC82AD83AEF0FFC004C005C006AA
:1002AC00C0079037BD75F086743D122CFBAC82AD47
:1002BC0083AEF0FFE58124FCF581E4C0E0C0E0747E
:1002CC00D0C0E07441C0E08C828D838EF0EF123090
:1002DC00A0AC82AD83AEF0FFE58124FCF5818C826D
:1002EC008D838EF0EF122E31AC82AD83AEF090DFA9
:1002FC0009EEF090DF0AEDF090DF0BECF02275E1E7
:10030C000490DF3BE0FFBF01F890F40FE0F5E190C3
:10031C00F40FE0FFBF04012290DF3BE0FFBF0102BE
:10032C0080ED2290F40FE0FFBF02012290DF13E07A
:10033C0053E0F0F090DF13E043E00FF090F40F7413
:10034C0002F00207AD90F40FE0FFBF03012290DF33
:10035C0013E053E0F0F090DF13E043E00AF090F488
:10036C000F7403F0F5E190DF3BE0FFBF13F8229030
:10037C00F40FE0FFBF04012290DF13E053E0F0F034
:10038C005391EF75E10490DF3BE0FFBF01F8539B05
:10039C00FC53E9EF90F40F7404F02290F412E4F0A3
:1003AC00A3F090F405F0A3F090F407F0A3F053C67B
:1003BC00C7759D00859E9E439E0485A9A943B901DE
:1003CC0090F40F7404F0751100751200F51390F091
:1003DC000575F000122DFF120173D2A87591D1751D
:1003EC00E900750800439A0175E10490DF3BE0FFDA
:1003FC00BF01F8227E007F00C3EE94DCEF94055021
:10040C002390DF3CE05450600490000122900032B5
:10041C00C007C006120E31D006D00774322EFEE48F
:10042C003FFF80D490000022AF83E58290F42FF040
:10043C00EFA3F090F431E4F090DF02E0FF90DF3BAB
:10044C00E0FEBE1318A2A4B3920190F4BBE0FEA28E
:10045C0001E433FD5206EE24FF92A480E0C2A49086
:10046C00F4B7E4F090F42BE0FDA3E0FE90F4ADEDD6
:10047C00F0EEA3F090F42DE0FBA3E0FC90F4B3EBD2
:10048C00F0ECA3F090F429E0F9A3E0FA90F4AFE9D2
:10049C00F0EAA3F090F4B1E9C39BF0EA9CA3F090CE
:1004AC00F4B1E0FBA3E0FC8D118E128B828C83C027
:1004BC0007C006C005C002C001122E85AB82AC83FA
:1004CC00D001D002D005D006D00790F4B5EB29F0BE
:1004DC00EC3AA3F0E94A7073C00790F42FE0FBA349
:1004EC00E0FC8B828C83E0F88809750A0090F42973
:1004FC00E509F0E50AA3F090DF04E0F87F0074034F
:10050C0058F50B8F0CE4B50B07B50C04D007802005
:10051C00D0077401B50B0614B50C0280030205EF6D
:10052C0090F42974012509F0E4350AA3F00205EFD3
:10053C0090F42F74012BF0E43CA3F090F429E0FB31
:10054C00A3E0FC90DF02EBF00205EF90DF04E0FC8F
:10055C005304037B00BC0005BB00028049BC0105B1
:10056C00BB000280030205EF90F42FE0FBA3E0FC3C
:10057C0090F432E9F0EAA3F090F4347401F0E4A3BF
:10058C00F08B828C83C007C002C001120DB5D00164
:10059C00D002D00790F42FE0FBA3E0FC89008B8203
:1005AC008C83E8F0803DED4E603490F4B5E0FDA313
:1005BC00E090DF02EDF090DF04E053E0FCF090F40B
:1005CC00B5E0FDA3E0FEC374FF9DE49E500890DFF0
:1005DC0004E043E002F090F4B77401F0800590DF82
:1005EC0002E9F0D2A890F4B8E020E30302072590CA
:1005FC00DF04E0FE5306037D00BE0109BD0006903A
:10060C00F4317401F090F431E0FE90F42FE0FCA38F
:10061C00E0FDEE2CFAE43DFB90F429E0F8A3E0F9C0
:10062C0090F450E8F0E9A3F08A828B83C007C006EF
:10063C00C005C00412115DAA82AB83D004D005D0D2
:10064C0006D00790F4B8E0F85300047900B8043EE3
:10065C00B9003BC007EE2CF8E43DF990F4B8E05437
:10066C00F0FF90F454E8F0E9A3F090F456EAF0EBC4
:10067C00A3F090F458EFF088828983C007C003C0C0
:10068C0002121193D002D003D007D0078035EE2C84
:10069C00FCE43DFD90F4B8E054F0FE90F45BECF01B
:1006AC00EDA3F090F45DEAF0EBA3F090F45FEEF0C4
:1006BC008C828D83C007C003C0021211DCD002D023
:1006CC0003D00790F431E0603390F4B8E0FE5306A9
:1006DC00F07D00BE5014BD001190F42FE0FDA3E09E
:1006EC00FE8D828E837410F0802F90F42FE0FDA38A
:1006FC00E0FE8A048D828E83ECF0801D90F4B8E0CD
:10070C00FE5306F07D00BE500BBD000890DF027456
:10071C0010F0800590DF02EAF090F42FE0FDA3E0EA
:10072C00FE90F40BEDF0EEA3F090F4ABE4F0A3F03C
:10073C0075E1037D607EEA90DF3BE0FCBC13028038
:10074C00211DBDFF011EED4E6018A2A4B3920190B5
:10075C00F4BBE0FCA201E433FB5204EC24FF92A4B2
:10076C0080D590F4BBE0540124FF92A4ED4E7006AA
:10077C0090F4397413F090DF3BE0FEBE1318A2A482
:10078C00B3920190F4BBE0FEA201E433FD5206EEFD
:10079C0024FF92A480E0C2A490DF02EFF0758201E6
:1007AC0022D2A875110075120075130290F0057510
:1007BC00F000122DFF90F405E4F0A3F090F407F094
:1007CC00A3F090F409F090F40A04F090F004E4F033
:1007DC00539BFC53E9EF75E10290DF3BE0FFBF0D4B
:1007EC00F84391102290F4BA7401F02290F4BAE418
:1007FC00F022C021C0E0C0F0C082C083C007C00698
:10080C00C005C004C003C002C001C000C0D075D078
:10081C000090F4387411F0C28990DF3BE0FFBF0DFB
:10082C0002800302094790F4BBE05401FF24FF92BD
:10083C00A490F4A4E0602590F4A5E0FEA3E0FFEE04
:10084C0024FFFCEF34FFFD90F4A5ECF0EDA3F07465
:10085C00FF2F400890DF04E053E0FCF090F40F749D
:10086C0002F090F004E07E0025E0CEE42405FFEEDB
:10087C0034F0FEE075F002A42405FC74F435F0FDB0
:10088C008C828D83E0FAA3E0FB74012AF8E43BF937
:10089C008C828D83E8F0E9A3F0EA2FF582EB3EF52C
:1008AC0083E5D9F090F004E075F002A42405F582FC
:1008BC0074F435F0F583E0FEA3E0FFC39402501A04
:1008CC0090F004E075F002A42405F58274F435F080
:1008DC00F583E0FEA3E0FF4E701990F004E075F094
:1008EC0002A42405F58274F435F0F58374FFF074DA
:1008FC0001A3F090F4A5E0FEA3E0FF4E6003020A12
:10090C00F690F4A4E07003020AF690F4A7E0FEA3BC
:10091C00E0FF90F4A5EEF0EFA3F090F4A5E0FEA3B9
:10092C00E07F0090DF02EEF090DF04E053E0FCF09B
:10093C0090DF04E043E002F0020AF690DF3BE0FFB8
:10094C00BF13028003020AF690F4B7E07003020AA8
:10095C008790F421E0FEA3E0FF0EBE00010F90F49F
:10096C0021EEF0EFA3F090F4ABE0FEA3E0FF90F4E7
:10097C00AFE0FCA3E0FDEEB50406EFB50502800385
:10098C00020A5F90F4ADE0FEA3E04E603890F4AD47
:10099C00E0FEA3E0FFBEFF05BF0002801590F4ADA2
:1009AC00E0FEA3E0FF1EBEFF011F90F4ADEEF0EFE2
:1009BC00A3F090F4B3E0FEA3E0FF90F4ABEEF0EF05
:1009CC00A3F0020A5F90F4AFE0F511A3E0F51290EA
:1009DC00F4A9E0FF7E008F828E83122E85AE82AF4B
:1009EC008390F40BE0FCA3E0FDEE2CF582EF3DF5DB
:1009FC0083E4F090F4A9E02401FFF090F4AAE0FE67
:100A0C00EFB5060590F4A9E4F090F4AFE0F511A36E
:100A1C00E0F51290F4A9E0FF7E008F828E83122EF7
:100A2C0085AE82AF8390F40BE0FCA3E0FDEE2CFED0
:100A3C00EF3DFF8E828F83E0701090F414E4F09001
:100A4C00F4397412F012030AC2A490F4AB7401F0DE
:100A5C00E4A3F090F4B5E0FEA3E0FFEE24FFFCEF7E
:100A6C0034FFFD90F4B5ECF0EDA3F0BEFF22BF0017
:100A7C001F90DF04E053E0FCF0801590F4B5E0FE2D
:100A8C00A3E0FF1EBEFF011F90F4B5EEF0EFA3F044
:100A9C0090F40F7403F090F4AFE0F511A3E0F512AD
:100AAC0090F4A9E0FF7E008F828E83122E85AE8299
:100ABC00AF8390F4ABE0FCA3E0FD90F4AB74012C9D
:100ACC00F0E43DA3F0EC2EFEED3FFF90F40BE0FCC8
:100ADC00A3E0FDEE2CF582EF3DF583E0F5D990F423
:100AEC000DE02401F0A3E03400F0D0D0D000D00110
:100AFC00D002D003D004D005D006D007D083D0824A
:100B0C00D0F0D0E0D02132C021C0E0C0F0C082C013
:100B1C0083C007C006C005C004C003C002C001C02A
:100B2C0000C0D075D000750D0090F4387410F053DF
:100B3C009BFCE5E94208E5E930E01C90F410E0FD8F
:100B4C00A3E08D067D00AB9C7C0090F412ED4BF085
:100B5C00EE4CA3F053E9FEE5E954707003020D204E
:100B6C0090F40FE0FEBE030653088F020D1D90F0AB
:100B7C0004E0B401009202E433FD7E002409F58206
:100B8C00EE34F4F583E0FEBE01028003020CD49037
:100B9C00F4B8E020E103020CAC90DF04E0FE530655
:100BAC00037D00BE0106BD0003750D0190F4B8E095
:100BBC00FE5306017D00BE0176BD007390F004E08B
:100BCC007D0025E0CDE42405FEED34F0FDAB0D7C7D
:100BDC0000EB2EFEEC3DFDE0F97A0029CAE4240579
:100BEC00F9EA34F0FAEB29FBEC3AFCE075F002A4DC
:100BFC002405F58274F435F0F583E0F9A3E0FAA846
:100C0C000D7F00E9C398F9EA9FFA90F4B8E054F02C
:100C1C00FF90F454EBF0ECA3F090F456E9F0EAA357
:100C2C00F090F458EFF08E828D83121193807190B6
:100C3C00F004E07E0025E0CEE42405FFEE34F0FE67
:100C4C00AC0D7D00EC2FFFED3EFEE07A0025E0CAF6
:100C5C00E42405FBEA34F0FAEC2BFCED3AFDE075EC
:100C6C00F002A42405F58274F435F0F583E0FAA3C0
:100C7C00E0FBA80D7900EAC398FAEB99FB90F4B865
:100C8C00E054F0F990F45BECF0EDA3F090F45DEA35
:100C9C00F0EBA3F090F45FE9F08F828E831211DCFD
:100CAC0090F004E063E001F090F004E075F002A431
:100CBC002405F58274F435F0F583E4F0A3F090F498
:100CCC0009F090F40AF0804790F4397412F0A2A461
:100CDC00B3920290F4BBE0FFA202E4335207EF247C
:100CEC00FF92A490F004E075F002A42405F5827440
:100CFC00F435F0F583E4F0A3F0A2A4B3920290F4DF
:100D0C00BBE0FFA202E433FE5207EF24FF92A4C221
:100D1C00A453E9CFE5E930E63790F4397410F0A22A
:100D2C00A4B3920290F4BBE0FFA202E4335207EFAB
:100D3C0024FF92A412030AA2A4B3920290F4BBE083
:100D4C00FFA202E433FE5207EF24FF92A453E9BF43
:100D5C00E5E930E73790F4397411F0A2A4B39202AC
:100D6C0090F4BBE0FFA202E4335207EF24FF92A4FD
:100D7C0012030AA2A4B3920290F4BBE0FFA202E415
:100D8C0033FE5207EF24FF92A453E97FD0D0D0005A
:100D9C00D001D002D003D004D005D006D007D08328
:100DAC00D082D0F0D0E0D02132AF83E58290F436FF
:100DBC00F0EFA3F090F434E0FEA3E0FF90F436E003
:100DCC00FCA3E0FD90F432E0FAA3E0FB8A008B0177
:100DDC001ABAFF011BE8496024EE2AF8EF3BF9E848
:100DEC002CF8E93DF9EA2CF582EB3DF583C006C001
:0E0DFC0007E088828983F0D007D00680CF22DE
:1037DC0000000000000001000000000000000000DC
:0737EC0000000000000000D6
:100E0A00AE82AF831EBEFF011FC3E49E74808FF0C3
:100E1A0063F08095F0500F7CB07D041CBCFF011D6F
:100E2A00EC4D70F780DE22AE82AF83EE2EFEEF33FA
:100E3A00FF1EBEFF011FC3E49E74808FF063F08023
:100E4A0095F040ED22AE82AF83D2A49003E8C007AA
:100E5A00C006120E0AC2A49001F4120E0AD006D0DD
:100E6A0007EE30E020900019C007C006120E0AD221
:100E7A00A4900226120E0AC2A4900019120E0AD0D9
:100E8A0006D007801E900113C007C006120E0AD2B0
:100E9A00A4900032120E0AC2A4900113120E0AD0B4
:100EAA0006D007EFC313CE13CEFF80B5AFF0AE83E3
:100EBA00E58290F441F0EEA3F0EFA3F090F441E064
:100ECA00FDA3E0FEA3E0FF90F43EE0FAA3E0FBA35B
:100EDA00E0FCA811A912E849604DC000C0018D824A
:100EEA008E838FF012316BF98A828B838CF01231E8
:100EFA006BF8E9C398F98913D001D000600D851306
:100F0A0014751500851482851583220DBD00010E06
:100F1A0090F441EDF0EEA3F0EFA3F00ABA00010B52
:100F2A0018B8FF011980AF9000002253BEFBE5BE3E
:100F3A0030E6FB53C6B8E5C620E6FB43BE04E5BE71
:100F4A0030E6FB53C6C743E40C43E401D2B922534B
:100F5A009ADFA2AFE433F452A812132012132D120F
:100F6A00134D7582001213D0C2847582001213DCED
:100F7A00121401752A14752B32752C807529007587
:100F8A008200121413D28422C0E0C082C083C0D06F
:100F9A0090F43AE02401F0A3E03400F0A3E0340036
:0F0FAA00F0A3E03400F0D0D0D083D082D0E0327A
:10321400494D4D4520534E4946462076302E3100C7
:0137F30001D4
:100FB900122BDBAF8290F448EFF08F068EF005F02C
:100FC9007401800225E0D5F0FB90F449F0EF75F04B
:100FD90008A4248CFE74F435F0FF90F444EEF0EF8D
:100FE900A3F08E828F83A3A374DFF090F444E0FE14
:100FF900A3E0FF8E828F83A3A3A374B1F090F4447E
:10100900E0FEA3E0FF8E828F83A3A3A3A3A37410A2
:10101900F090F444E0FEA3E0FF74062EF582E43F6D
:10102900F583E054E0441DF090F444E0FEA3E0FFB2
:1010390074072EF582E43FF583E0543F4440F09075
:10104900F444E0FEA3E0FF74072EF582E43FF58344
:10105900E054FC4401F0122BDBAF8290F44AEFF02C
:101069008F068EF005F07401800225E0D5F0FB9023
:10107900F44BF0EF75F008A4248CFE74F435F0FFFE
:1010890090F446EEF0EFA3F08E828F8374DFF09038
:10109900F446E0FEA3E0FF8E828F83A374B2F09042
:1010A900F446E0FEA3E0FF8E828F83A3A3A3A3A34C
:1010B9007410F090F446E0FEA3E0FF74062EF5826A
:1010C900E43FF583E054E0441EF090F446E0FEA3CB
:1010D900E0FF74072EF582E43FF583E054CF441016
:1010E900F090F446E0FEA3E0FF74072EF582E43F9A
:1010F900F583E054FC4401F043A91043B91022AF31
:1011090083E58290F44EF0EFA3F0E5B330E3FB9072
:10111900F444E0FEA3E0FF90F44EE0FCA3E0FD8D73
:10112900038B028E828F83EAF090F444E0FEA3E001
:10113900FF8E828F83A3ECF090F449E0FF42D60042
:1011490090F44CE0FF90F44DE04F4401F5B3E5B362
:1011590030E3FB22AF83E58290F452F0EFA3F090E5
:10116900F452E0FEA3E0FF90F450E0FCA3E0FDECB4
:10117900540F6011EC2EF582ED3FF5830CBC000194
:101189000DE4F080EA8C828D8322AF83E58290F4AE
:1011990059F0EFA3F090F459E0FEA3E0FF90F45466
:1011A900E0FCA3E0FD90F456E0FAA3E0FB90F458CC
:1011B900E0F990F462ECF0EDA3F090F464EAF0EB5E
:1011C900A3F090F466E4F090F467E9F08E828F83DF
:1011D900021226AF83E58290F460F0EFA3F090F459
:1011E90060E0FEA3E0FF90F45BE0FCA3E0FD90F477
:1011F9005DE0FAA3E0FB90F45FE0F990F462ECF0B3
:10120900EDA3F090F464EAF0EBA3F090F4667402B5
:10121900F090F467E9F08E828F83021226AF83E59E
:101229008290F468F0EFA3F0E5B330E3FB90F46843
:10123900E0FEA3E0FF90F462E0F517A3E0F5189053
:10124900F467E0FB74505BF51690F466E0F94B44E3
:1012590001FB740149F51590F464E0F511A3E0F57B
:1012690012E4F513F514C3E5139511E5149512402D
:101279000122C00390F444E0F8A3E0FBE5132EF942
:10128900E5143FFA8A058D0488828B83ECF090F48B
:1012990044E0FCA3E0FD8C828D83A3E9F090F44641
:1012A900E0FCA3E0FD8C828D83A3A3E5132517FC45
:1012B900E5143518FD8D038B02EAF090F446E0FA47
:1012C900A3E0FB8A828B83A3A3A3ECF090F44BE009
:1012D900FD90F449E04D42D60000D003E5166017B1
:1012E900E51124F0FCE51234FFFDECB51309EDB569
:1012F90014058515B380028BB3E5B330E3FB741095
:0C1309002513F513E43514F51402126FDF
:0F00E20075220075230175240475250375260703
:1013150090F46BE4F0A3F02202000043F32843FDB0
:101325001443FE0275FF182275860075C2AA75C59D
:1013350030228582C1E58630E1FB5386FD22D282CB
:10134500021337C282021337C291900001120E0AAE
:10135500D291C2847582E212134875822412134811
:101365007582811213487582601213487582E612E0
:10137500134875820012134875822F12134875821F
:10138500A11213487582AF1213487582A41213482F
:101395007582001213DCD284227582AC1213487553
:1013A50082AE1213487582A5021348AF8274B02F1E
:1013B500F582121348AF28740F5FF582121348E5C2
:1013C50028C4540F2410F582021348AF82743F5F7E
:1013D5004440F582021348AF8274015F44A6F5824A
:1013E5000213487528001213B07F00758200C007EC
:1013F500121343D0070FBF840040F0227F008F8275
:10140500C0071213E8D0070FBF090040F122AF82D1
:10141500852A82852B83852CF0C007123088AD8202
:10142500D007EF24F7500122E52975F006A4F52829
:101435008F82C0051213B0D005AC2AAE2BAF2C8D10
:10144500031DEB60268C828E838FF012316BFBA31C
:10145500AC82AE838B82C007C006C005C004122BC8
:101465004AD004D005D006D00780D422AF82E4FB51
:10147500FCFDFEEF24F7500122E52D75F006A4F5DD
:10148500288F82C006C005C004C0031213B0D00364
:10149500D004D005D006753200E52E452F453045E0
:1014A50031700302152E8B118C128D138E14900042
:1014B5000AE4F5F0122EA285823385833485F03552
:1014C500F53675110AE4F512F513F514852E8285A6
:1014D5002F838530F0E531122C13A882A983AAF059
:1014E500FFE82533FBE93534FCEA3535FDEF3536C4
:1014F500FE75110AE4F512F513F514852E82852F74
:10150500838530F0E531C006C005C004C003122C48
:101515009685822E85832F85F030F531D003D00452
:10152500D005D006053202149EE532604D75110ACC
:10153500E4F512F513F5148B828C838DF0EEC0065D
:10154500C005C004C003122C13A882743028F5828C
:10155500122B4AD003D004D005D00675110AE4F544
:1015650012F513F5148B828C838DF0EE122C96AB4D
:1015750082AC83ADF0FE153280AF22AF82E4FDFE72
:10158500EF24F7500122E53775F006A4F5288F8280
:10159500C006C0051213B0D005D0067F00E538455A
:1015A5003960538D118E1290000AC007122E85AB3B
:1015B50082AC8375110A751200853882853983C01E
:1015C50004C003122F10A982AA83D003D004E92BEB
:1015D500FDEA3CFE75110A7512008538828539834E
:1015E500C006C005122BEA858238858339D005D01F
:1015F50006D0070F80A7EF603775110A7512008DA9
:10160500828E83C007C006C005122F10AB827430CE
:101615002BF582122B4AD005D00675110A751200DA
:101625008D828E83122BEAAD82AE83D0071F80C6D2
:1016350022E582FF24F7500122E53A75F006A4F56C
:10164500288F821213B07F048F061FEE604774F057
:10165500553CC4540FFD7E00C3ED940AEE94005032
:10166500108D0474302CF582C007122B4AD00780E8
:101675000C74372DF582C007122B4AD007E53CC400
:1016850054F0C53BC4C53B653BC53B54F0C53B6504
:101695003BF53C80B322AF8253077FBF2000404912
:1016A5007E008F047D00EC24E0F511ED34FFF5128A
:1016B500900005C007C006122E85AC82AD83D0060A
:1016C500EC2424FCED3432FDEE2CF582E43DF5836B
:1016D500E493F582C006121343D006D0070EBE056B
:1016E5000040BF7582000213432222AF8290DF0EB5
:1016F500E0548FFEEFC454F04EF022E52775F00359
:10170500A42413F582743435F0F583E493FDA3E442
:1017150093FEA3E493FF8D828E838FF022AF829098
:10172500DF0EE054F8FE74075F4EF02285823D859A
:10173500833E85F03FF5407B007A00BA0400400304
:101745000217FB8AF005F0780179008006E828F891
:10175500E933F9D5F0F78811E9F5123395E0F5137A
:10176500F514853D82853E83853FF0E540C0021234
:101775002EA2122E1EAC82AD83AEF0FFC004C005B2
:10178500C006C007900000E4F5F07441122CFBACD4
:1017950082AD83AEF0FFE58124FCF581C004C00570
:1017A500C006C007905D4075F0C6744B1230A0AC02
:1017B50082AD83AEF0FFE58124FCF581E4C0E0C095
:1017C500E07460C0E023C0E08C828D838EF0EF1260
:1017D5002F5DAC82AD83AEF0FFE58124FCF5818CF5
:1017E500828D838EF0EF123163AB82D002BB040091
:1017F50040040A02174090DF0CE0540FFFEA030390
:1018050054C04207EBC454F090DF0C4FF02290DF38
:101815000CE0FFE4A2E7CF33CF33A2E7CF33CF33DA
:10182500CF54035307037E0090DF0CE0FDE4CDC4E5
:10183500540F6DCD540FCD6DCD5305037C008D82B6
:101845008C83A3A3A3A3C007C006123008AA82AB4A
:1018550083ACF0FDC002C003C004C005900000E4E5
:10186500F5F07441122CFBAA82AB83ACF0FDE58147
:1018750024FCF581D006D0078FF005F0900001809B
:101885000BE5822582F582E58333F583D5F0F2C039
:1018950005C004C003C002123008A882A983AEF0B7
:1018A500FFD002D003D004D005C000C001C006C0DF
:1018B500078A828B838CF0ED122CFBAC82AD83AE54
:1018C500F0FFE58124FCF5818C828D838EF0EF128B
:1018D5003014AE82AF838E118F127513007514000C
:1018E50090BA8075F08C7401022FB685824185838C
:1018F5004285F043F544780079007A007B008B45FA
:1019050074F0254550030219AD8545F005F07D01BC
:101915007E008006ED2DFDEE33FED5F0F78D11EE40
:10192500F5123395E0F513F51485418285428385DB
:1019350043F0E544122C96122E1EAC82AD83AEF018
:10194500FFC004C005C006C0079030E975F02574D6
:1019550041122CFBAC82AD83AEF0FFE58124FCF592
:1019650081E4C0E07480C0E014C0E074C3C0E08CC2
:10197500828D838EF0EF122F5DAC82AD83AEF0FFCA
:10198500E58124FCF5818C828D838EF0EF122E315A
:10199500A882A983AAF0FBC3E99401EA9400EB9419
:1019A500004005054502190590DF0CE054F045455A
:1019B500F090DF0DE8F02290DF0CE0540FFF90DF90
:1019C5000DE0FE8FF005F07F017D008006EF2FFF13
:1019D500ED33FDD5F0F7ED3395E0FCFB7A007401AE
:1019E5002AFA8E11EAF5123395E0F513F5148F8274
:1019F5008D838CF0EB122EA2122E1EAC82AD83AE1F
:101A0500F0FFC004C005C006C007905D4075F0C674
:101A1500743D122CFBAC82AD83AEF0FFE58124FC56
:101A2500F5818C828D838EF0EF022E310527E52717
:101A350024FC5003752700E5272422F98782021626
:101A4500F0E527700575270380021527E527242271
:101A5500F987820216F0122E1EAC82AD83AEF0FF1E
:101A6500C004C005C006C0079030E975F025743B79
:101A7500122CFBAC82AD83AEF0FFE58124FCF58131
:101A85008C828D838EF0EF122E31AC82AD83AEF059
:101A950090DF09EEF090DF0AEDF090DF0BECF0221D
:101AA50090DF09E0FF7E007D008D048E058F067FA7
:101AB5000090DF0AE0F8E4F9FAFBE82FF8E93EF9CF
:101AC500EA3DFAEB3C8A0389028801780090DF0B36
:101AD500E0FFE4FEFDFCEF28F8EE39F9ED3AFAEC0B
:101AE5003B888289838AF0122E1EAC82AD83AEF0CC
:101AF500FFC004C005C006C007905D4075F0C67400
:101B050043122CFBAC82AD83AEF0FFE58124FCF5DE
:101B1500818C828D838EF0EF022E31C28490DF3B63
:101B2500E0FF8F3B753C00753A007582071216364B
:101B350085083B753C00753A0A758207121636D240
:101B45008422C284121401752A1F752B34752C80CA
:101B5500752900758201121413752A23752B3475A6
:101B65002C80752900758202121413752A26752B8F
:101B750034752C80752900758203121413752A2A71
:101B8500752B34752C807529007582041214137514
:101B95002A2F752B34752C80752900758205121432
:101BA50013752A36752B34752C80752900758206B8
:101BB500121413752A3C752B34752C8075290675FE
:101BC5008201121413121AA585822E85832F85F0A2
:101BD50030F531752D0675820112147190DF06E01E
:101BE500FF8F3B753C00753A067582021216361258
:101BF500170085822A85832B85F02C752906758229
:101C0500031214131219BCAC82AD83AEF0FF752A12
:101C150047752B34752C80752906758204C007C05D
:101C250006C005C004121413D004D005D006D00791
:101C3500752D068C2E8D2F8E308F317582041214E2
:101C450071752A47752B34752C80752908758205A1
:101C5500121413121813AC82AD83AEF0FF752A3C33
:101C6500752B34752C80752908758205C007C0064B
:101C7500C005C004121413D004D005D006D00775D2
:101C85002D088C2E8D2F8E308F3175820512147193
:101C950090DF0CE0FF8F3B753C00753A0F758204B1
:101CA50012163690DF0DE0FF8F3B753C00753A0F3D
:101CB50075820512163690DF0EE0FF8F3B753C00EE
:101CC500753A0F75820612163690DF0EE0540360E2
:101CD5001F90DF00E0FE7F0090DF01E07C004FF504
:101CE5003BEC4EF53C753A067582061216368012A7
:101CF500752A50752B34752C807529067582061248
:101D05001413D28422C284121401120161D28422D6
:101D150090F004E0B401009203E4337F0025E0CFA6
:101D2500E42405FEEF34F0FF90F004E0B4010092E6
:101D350003E4337D0025E0FCED33FDEC2405F5825D
:101D4500ED34F4F583E0FCA3E090F48BECF0C28471
:101D5500752A55752B34752C80752900758203C03D
:101D650007C006C004121413752A55752B34752C3B
:101D750080752900758204121413752A55752B3444
:101D8500752C80752900758205121413752A7675D0
:101D95002B34752C80752900758201121413D0041B
:101DA5008C3B753C00753A09758201C004121636E4
:101DB500752A7F752B34752C807529007582021262
:101DC500141390F004E0FD8D3B753C00753A0675E3
:101DD5008202121636752A86752B34752C80752964
:101DE5000C75820212141390F000E0F9A3E0FAA337
:101DF500E0A3E0893B8A3C753A11758202121636DA
:101E0500D004D006D007EC24E1500690F48B741E64
:101E1500F0752800758203C007C0061213B0D006FE
:101E2500D0077D037C0090F48BE0FB8B021BEA70EE
:101E350003021FA28E828F83E0FA24E05040BA7F0E
:101E450000503B758220C007C006C005C004C00312
:101E5500122B4AD003D004D005D006D0078E828F2E
:101E650083E0F582C007C006C005C004C003122B7D
:101E75004AD003D004D005D006D007021F4FC005B5
:101E85008E828F83E0F95301F0E4C9C4540F69C908
:101E9500540FC969C930E30244F0FA89008A05C3C1
:101EA500E8940AED9400D0055026C00589008A05FE
:101EB500743028F582C007C006C005C004C00312EF
:101EC5002B4AD003D004D005D006D007D005801CFE
:101ED500743729F582C007C006C005C004C00312C7
:101EE5002B4AD003D004D005D006D007C0058E827A
:101EF5008F83E0F953010F7A0089008A05C3E894BE
:101F05000AED9400D0055026C00589008A05743075
:101F150028F582C007C006C005C004C003122B4ABD
:101F2500D003D004D005D006D007D005801C743767
:101F350029F582C007C006C005C004C003122B4A9C
:101F4500D003D004D005D006D0070C8C017A0075DB
:101F5500110A8A1289828A83C007C006C005C00497
:101F6500C003123187E5828583F0D003D004D00504
:101F7500D006D00745F0701D0D7528008D82C0076D
:101F8500C006C005C004C0031213B0D003D004D0EE
:101F950005D006D0070EBE00010F021E30D28422E6
:101FA50090F46AE0FFBF012F90F46BE0FEA3E0FF21
:101FB500C3EE942CEF9401401390F46BE4F0A3F07E
:101FC50090F46AF0121D0A121D15800B90F46B74C3
:101FD500012EF0E43FA3F090F46BE4F0A3F0122B94
:101FE50036AF82BF0103022994BF02030223DCBF7F
:101FF50003030223A1BF0A030225F5BF200302291B
:10200500C6BF2C03022695BF3C0302253ABF3E03FB
:102015000224CABF4103022101BF440302226CBF4F
:10202500450302221DBF460302230ABF47030228B8
:10203500EDBF48030228A9BF49030226E8BF4A03AA
:10204500022865BF4B03022821BF4C030227DDBFD1
:102055004D03022729BF4E030227A5BF4F030226C2
:1020650043BF50030225ABBF5102803DBF5203025F
:1020750022BBBF53030221BABF5403022924BF5513
:102085000302276DBF560302295CBF570302215087
:10209500BF5A03022359BF5E03022472BF830302A2
:1020A50029A2BF870302241722A2A4A2A475E104D2
:1020B50090DF3BE0FFBF01F890DF0EE053E0F8F062
:1020C50090DF0EE043E005F090DF00E02410F01211
:1020D5001B4790F46A7401F090F46BE4F0A3F09060
:1020E5000032120E0A75E10190DF3BE0FFBF01F8F7
:1020F50075E10290DF3BE0FFBF0DF82275E104902A
:10210500DF3BE0FFBF01F890DF0EE053E0F8F09011
:10211500DF0EE043E005F090DF00E024F0F0121B55
:102125004790F46A7401F090F46BE4F0A3F090002A
:1021350032120E0A75E10190DF3BE0FFBF01F87531
:10214500E10290DF3BE0FFBF0DF82275E10490DF6F
:102155003BE0FFBF01F890DF0EE053E0F8F090DFC1
:102165000EE043E005F090DF00E0FF53070F7E002F
:10217500BF0F05BE0002800890DF00E004F0800874
:1021850090DF00E053E0F0F0121B4790F46A740111
:10219500F090F46BE4F0A3F0900032120E0A75E1B2
:1021A5000190DF3BE0FFBF01F875E10290DF3BE006
:1021B500FFBF0DF82275E10490DF3BE0FFBF01F89A
:1021C50090DF0EE053E0F8F090DF0EE043E005F01D
:1021D50090DF00E0540F600890DF00E014F0800B02
:1021E50090DF00E0FF74F05F2409F0121B4790F4C4
:1021F5006A7401F090F46BE4F0A3F0900032120ED3
:102205000A75E10190DF3BE0FFBF01F875E102903F
:10221500DF3BE0FFBF0DF82275E10490DF3BE0FFF7
:10222500BF01F890DF0EE053E0F8F090DF0EE043D9
:10223500E005F090DF01E02410F0121B4790F46AEE
:102245007401F090F46BE4F0A3F0900032120E0AE2
:1022550075E10190DF3BE0FFBF01F875E10290DF1A
:102265003BE0FFBF0DF82275E10490DF3BE0FFBFC7
:1022750001F890DF0EE053E0F8F090DF0EE043E068
:1022850005F090DF01E024F0F0121B4790F46A742A
:1022950001F090F46BE4F0A3F0900032120E0A7591
:1022A500E10190DF3BE0FFBF01F875E10290DF3B04
:1022B500E0FFBF0DF82275E10490DF3BE0FFBF01B1
:1022C500F890DF0EE053E0F8F090DF0EE043E00514
:1022D500F090DF01E0E004F0121B4790F46A74010E
:1022E500F090F46BE4F0A3F0900032120E0A75E161
:1022F5000190DF3BE0FFBF01F875E10290DF3BE0B5
:10230500FFBF0DF82275E10490DF3BE0FFBF01F848
:1023150090DF0EE053E0F8F090DF0EE043E005F0CB
:1023250090DF01E0E014F0121B4790F46A7401F0AD
:1023350090F46BE4F0A3F0900032120E0A75E101FF
:1023450090DF3BE0FFBF01F875E10290DF3BE0FF66
:10235500BF0DF82275E10490DF3BE0FFBF01F89067
:10236500DF0EE053E0F8F090DF0EE043E004F012FA
:102375001B4790F46A7401F090F46BE4F0A3F090BD
:102385000032120E0A75E10190DF3BE0FFBF01F854
:1023950075E10290DF3BE0FFBF0DF82275E1049087
:1023A500DF3BE0FFBF01F8121A31121B4790F46AB8
:1023B5007401F090F46BE4F0A3F0900032120E0A71
:1023C50075E10190DF3BE0FFBF01F875E10290DFA9
:1023D5003BE0FFBF0DF82275E10490DF3BE0FFBF56
:1023E50001F8121A46121B4790F46A7401F090F432
:1023F5006BE4F0A3F0900032120E0A75E10190DF54
:102405003BE0FFBF01F875E10290DF3BE0FFBF0D48
:10241500F82275E10490DF3BE0FFBF01F890DF0C87
:10242500E0FF7E0074102FFFE43EFEC374FF9FE4BF
:102435009E5008EF2410FFEE34FFFE90DF0CEFF006
:10244500121B4790F46A7401F090F46BE4F0A3F06A
:10245500900032120E0A75E10190DF3BE0FFBF01EB
:10246500F875E10290DF3BE0FFBF0DF82275E1044E
:1024750090DF3BE0FFBF01F890DF0CE0FE7F00C37B
:10248500EE9410EF9400500474012FFFEE24F0FE3B
:10249500EF34FF90DF0CEEF0121B4790F46A7401E5
:1024A500F090F46BE4F0A3F0900032120E0A75E19F
:1024B5000190DF3BE0FFBF01F875E10290DF3BE0F3
:1024C500FFBF0DF82275E10490DF3BE0FFBF01F887
:1024D50090DF0DE0C4540FFFBF0F2590DF0CE0FF28
:1024E50053070F7E00C3EF940FEE6480948050185D
:1024F50090DF0CE004F090DF0DE0FF2410F0800881
:1025050090DF0DE0FF2410F0121B4790F46A740170
:10251500F090F46BE4F0A3F0900032120E0A75E12E
:102525000190DF3BE0FFBF01F875E10290DF3BE082
:10253500FFBF0DF82275E10490DF3BE0FFBF01F816
:1025450090DF0DE0C4540F702890DF0CE0FF5307B7
:102555000F7E00C3E49F74808EF063F08095F05089
:102565001890DF0CE014F090DF0DE0FF24F0F08010
:102575000890DF0DE0FF24F0F0121B4790F46A7419
:1025850001F090F46BE4F0A3F0900032120E0A759E
:10259500E10190DF3BE0FFBF01F875E10290DF3B11
:1025A500E0FFBF0DF82275E10490DF3BE0FFBF01BE
:1025B500F890DF0BE004F0E0700F90DF0AE004F024
:1025C500E0700690DF09E004F0121B4790F46A748E
:1025D50001F090F46BE4F0A3F075E10190DF3BE0CE
:1025E500FFBF01F875E10290DF3BE0FFBF0DF82268
:1025F50075E10490DF3BE0FFBF01F890DF0BE014CD
:10260500F0E0FFBFFF1190DF0AE014F0E0FFBFFF2D
:102615000690DF09E014F0121B4790F46A7401F08C
:1026250090F46BE4F0A3F075E10190DF3BE0FFBFB0
:1026350001F875E10290DF3BE0FFBF0DF82275E17F
:102645000490DF3BE0FFBF01F890DF0BE0FFBFF038
:1026550000400F90DF0AE004F0E0700690DF09E02B
:1026650004F090DF0BE02410F0121B4790F46A741D
:1026750001F090F46BE4F0A3F075E10190DF3BE02D
:10268500FFBF01F875E10290DF3BE0FFBF0DF822C7
:1026950075E10490DF3BE0FFBF01F890DF0BE0241C
:1026A500EF401290DF0AE0700690DF09E014F09029
:1026B500DF0AE014F090DF0BE024F0F0121B4790E6
:1026C500F46A7401F090F46BE4F0A3F075E1019005
:1026D500DF3BE0FFBF01F875E10290DF3BE0FFBFA4
:1026E5000DF82275E10490DF3BE0FFBF01F890DFB4
:1026F5000AE004F0E0700690DF09E004F0121B47E1
:1027050090F46A7401F090F46BE4F0A3F075E101C4
:1027150090DF3BE0FFBF01F875E10290DF3BE0FF92
:10272500BF0DF82275E10490DF3BE0FFBF01F89093
:10273500DF0AE0700690DF09E014F090DF0AE0148C
:10274500F0121B4790F46A7401F090F46BE4F0A367
:10275500F075E10190DF3BE0FFBF01F875E1029004
:10276500DF3BE0FFBF0DF82275E10490DF3BE0FFA2
:10277500BF01F890DF09E004F0121B4790F46A747A
:1027850001F090F46BE4F0A3F075E10190DF3BE01C
:10279500FFBF01F875E10290DF3BE0FFBF0DF822B6
:1027A50075E10490DF3BE0FFBF01F890DF09E0141D
:1027B500F0121B4790F46A7401F090F46BE4F0A3F7
:1027C500F075E10190DF3BE0FFBF01F875E1029094
:1027D500DF3BE0FFBF0DF82275E10490DF3BE0FF32
:1027E500BF01F890DF097423F090DF0A7431F0908F
:1027F500DF0B743BF0121B4790F46A7401F090F400
:102805006BE4F0A3F075E10190DF3BE0FFBF01F859
:1028150075E10290DF3BE0FFBF0DF82275E1049002
:10282500DF3BE0FFBF01F890DF097421F090DF0A7C
:102835007462F090DF0B7476F0121B4790F46A74A3
:1028450001F090F46BE4F0A3F075E10190DF3BE05B
:10285500FFBF01F875E10290DF3BE0FFBF0DF822F5
:1028650075E10490DF3BE0FFBF01F890DF097410CC
:10287500F090DF0A74A7F090DF0B7462F0121B472B
:1028850090F46A7401F090F46BE4F0A3F075E10143
:1028950090DF3BE0FFBF01F875E10290DF3BE0FF11
:1028A500BF0DF82275E10490DF3BE0FFBF01F89012
:1028B500DF09740CF090DF0A741DF090DF0B74894A
:1028C500F0121B4790F46A7401F090F46BE4F0A3E6
:1028D500F075E10190DF3BE0FFBF01F875E1029083
:1028E500DF3BE0FFBF0DF82275E10490DF3BE0FF21
:1028F500BF01F890DF06E4F0121B4790F46A7401FB
:10290500F090F46BE4F0A3F075E10190DF3BE0FF9C
:10291500BF01F875E10290DF3BE0FFBF0DF82275BE
:10292500E10490DF3BE0FFBF01F890DF06E004F033
:10293500121B4790F46A7401F090F46BE4F0A3F075
:1029450075E10190DF3BE0FFBF01F875E10290DF23
:102955003BE0FFBF0DF82275E10490DF3BE0FFBFD0
:1029650001F890DF06E014F0121B4790F46A740139
:10297500F090F46BE4F0A3F075E10190DF3BE0FF2C
:10298500BF01F875E10290DF3BE0FFBF0DF82212B1
:10299500139E122B0CAF82BF01F802131D90DF3B73
:1029A500E0FFBF0D0E75E10490DF3BE0FFBF01F8CE
:1029B50002035175E10490DF3BE0FFBF01F802031C
:1029C5002F90F46AE0FFE0700990F46A7401F00258
:1029D5001B47BF010B90F46AE4F0121D0A021D1596
:0129E50022CF
:10322400000000000000005E0000000E000E0028F8
:103234007C287C2808547C542026100864002854D8
:1032440028400000000E0000003C42000000423C08
:103254000000005438540010107C101000806020CE
:10326400001010101000006060000020100804001E
:10327400003C423C0000447E40004462524C002228
:103284004A4A360018147E10002E4A4A32003C4A3C
:103294004A300002621A0600344A4A34000C525280
:1032A4003C00006C6C0000806C2C00000010284472
:1032B40000282828280000442810000004520C008C
:1032C4003C425A1C007C12127C007E4A4A34003C68
:1032D400424224007E42423C007E4A4A42007E0A28
:1032E4000A02003C425274007E08087E0000427EBE
:1032F40042002040403E007E182442007E40404070
:10330400007E0C0C7E007E0C307E003C42423C0071
:103314007E12120C003C6242BC007E12324C00242D
:103324004A52240000027E02003E40403E001E60DD
:10333400601E007E30307E006618186600000E7035
:103344000E0062524A4600007E42420004081020E9
:10335400000042427E00000402040040404040005D
:10336400000204000030482878007E4848300030CD
:10337400484800003048487E003068581000107CEF
:1033840012040050A8A898007E0808700000487A2B
:1033940040000040807A007E1028400000427E40B9
:1033A4000078101870007808087000304848300021
:1033B400F848483000304848F800780808100050B1
:1033C40058682800083E48400038404078000038DB
:1033D4004038007860607800483030480018A040D9
:1033E4003800486858480000083C420000007E004D
:1033F4000000423C08003246534B004746534B0002
:103404003446534B0041534B20004D534B2000FA9C
:103414003380FF33800934800E3480465251004398
:1034240048004D4F440042415544004348414E42F8
:10343400570053594E43570020202020202020209D
:103444002020002020202020202020002D2D2D2D84
:103454000020202020202020202020202020202088
:103464002020202020202020202020202020202058
:1034740020004C656E6774683A2000437572723A96
:083484002000436E743A2000A1
:1029E60053FD3D53FE034380C24390FC7F007E00AF
:1029F600EEFD24F85003022A53EE240A83F582EEF4
:102A0600240C83F583E473531D252D353D454D2A4E
:102A16002A2A2A2A2A2A2A43FD025380FD802E4387
:102A2600FE045390FB802643FE085390F7801E4316
:102A3600FE105390EF801643FE205390DF800E4326
:102A4600FE405390BF800643FE8053907FAB807C50
:102A560000EBF4FBECF4EB30E1027D01AB907C0083
:102A6600EBF4FBECF4EB30E2027D02AB907C00EB86
:102A7600F4FBECF4EB30E3027D03AB907C00EBF46B
:102A8600FBECF4EB30E4027D04AB907C00EBF4FB52
:102A9600ECF4EB30E5027D05AB907C00EBF4FBEC4F
:102AA600F4EB30E6027D06AB907C00EBF4FBECF435
:102AB600EB30E7027D07AB807C00EBF4FBECF4EB3C
:102AC60030E6027D08AB807C00EBF4FBECF4FCEB1B
:102AD60030E7027D09EDB50602801C8F04EC75F027
:102AE6000AA42DFC3395E0FDEC248CF582ED3434FC
:102AF600F583E493F582220E8E07BE08005003028A
:102B060029F6758200221229E6AF82C0071229E64D
:102B1600AE82D007EFB5060280071229E6AF8280A3
:102B2600EA53FD3D53FE034380C24390FC8F82224D
:102B3600122B0CE582FFB50F0280048F0F80027FF7
:042B4600008F822258
:10348C0000004F4B4E4D01500000000059474320A7
:10349C003C2C033E00000051574552545549000046
:1034AC00000041534446484A0000000000825A582C
:1034BC005642000000000000838485860000000056
:1034CC00000000025E5E00000000000000000A4CDC
:102B4A00E582FF7012FE758200C006121343D0069A
:102B5A000EBE070040F022BF6100400BEF24854003
:102B6A00068F06EE24E0FF7E00EF24E0F511EE3436
:102B7A00FFF512900006122E85AE82AF837D008D7E
:102B8A00037C00EB2EFBEC3FFCEB24DCF582EC34FF
:102B9A0034F583E493F582C007C006C005121343D7
:0D2BAA00D005D006D0070DBD060040D32297
:1034DC00000000000000005F5F000000000300031C
:1034EC000000147F147F1400000000000000231360
:1034FC0008646200000007000000000000000000EB
:10350C0000000000000000000000000000000000AF
:10351C00000000000000000000000000000000009F
:10352C00000000000000000000000000000000008F
:10353C003E5149453E0000427F40000042615149E6
:10354C0046002141454B31001814127F10002745CD
:10355C00454539003C4A49493000017109050300D1
:10356C00364949493600064949291E0000363600BD
:10357C00000000563600000008142241000014140C
:10358C001414140041221408000002015109060011
:10359C003E415D494F007E0909097E007F4949493A
:1035AC0036003E41414122007F4141413E007F496E
:1035BC00494941007F09090901003E414949790007
:1035CC007F0808087F0000417F41000030404040E8
:1035DC003F007F08142241007F40404040007F02A2
:1035EC000C027F007F0408107F003E4141413E00E9
:1035FC007F09090906003C42523C40007F09192909
:10360C00460046494949310001017F0101007F40D4
:10361C0040407F000718601807003F4038403F00CB
:10362C00631C081C630003047C04030061615149A2
:10363C00470002015109060002015109060002016E
:10364C005109060002015109060002015109060048
:10365C00020151090600020151090600020151093B
:10366C00060002015109060002015109060002017F
:10367C005109060002015109060002015109060018
:10368C00020151090600020151090600020151090B
:10369C00060002015109060002015109060002014F
:1036AC0051090600020151090600020151090600E8
:1036BC0002015109060002015109060002015109DB
:1036CC00060002015109060002015109060002011F
:1036DC0051090600020151090600020151090600B8
:1036EC0002015109060002015109060002015109AB
:1036FC0006000201510906000201510906000201EF
:10370C005109060002015109060002015109060087
:10371C00020151090600020151090600020151097A
:10372C0006000201510906000201510906000201BE
:10373C005109060002015109060002015109060057
:10374C00000000000000000000000000000000006D
:10375C00000000000000000000000000000000005D
:10376C00000000000000000000000000000000004D
:10377C00000000000000000000000000000000003D
:10378C00000000000000000000000000000000002D
:10379C00000000000000000000000000000000001D
:1037AC00000000000000000000000000000000000D
:1037BC0000000000000000000000000000000000FD
:1037CC0000000000000000000000000000000000ED
:0300F10075100087
:102BB7007E8C7FF48FD575D48C7E947FF48FD375FC
:102BC700D29475110075121875130090F48C75F076
:102BD70000022DFF7403B510047582FF2285108251
:102BE7000510227A10E4FBFCE58225E0F582E583F7
:102BF70033F583EB33FBEC33FCEB9511F5F0EC95F8
:102C0700124006FCABF0438201DADD22F9E51145FB
:102C1700124513451460777800C308E51420E73B95
:102C2700E51125E0F511E51233F512E51333F51338
:102C3700E51433F514E5829511E5839512E5F095D2
:102C470013E9951450D4C3E51413F514E51313F5DC
:102C570013E51213F512E51113F511E5829511FC31
:102C6700E5839512FDE5F09513FEE995144007F904
:102C77008EF08D838C82C3E51413F514E51313F5D9
:102C870013E51213F512E51113F511D8CEE922FB5E
:102C97007A20E4FCFDFEFFE5822582F582E5833399
:102CA700F583E5F033F5F0EB33FB4017DAE98042C3
:102CB700E5822582F582E58333F583E5F033F5F088
:102CC700EB33FBEC33FCED33FDEE33FEEF33FFEC80
:102CD7009511ED9512EE9513EF95144013EC9511A0
:102CE700FCED9512FDEE9513FEEF9514FF4382015F
:102CF700DABEEB22122D9EBC0003023040EF60FAD1
:102D070030D502B2D1E583B4FF03023056E582B471
:102D1700FF03023056258340072482400B023040D0
:102D27002483145003023056F582EA8DF0A4A8F0EC
:102D3700EA8EF0A428F8E435F0F9EB8DF0A428E941
:102D470035F0F9E433CA8FF0A429F9EA35F0FAEB44
:102D5700F88EF0A429F9EA35F0FAE433FBEC8DF0AC
:102D6700A429F9EA35F0FAE43BFBE88FF0A42AFA44
:102D7700EB35F0FBE433CCFD8EF0A42AFAEB35F00B
:102D8700FBE43CFCED8FF0A42BFBEC35F0FC20E7DB
:102D970003122DCC02301FAA82AB83A2F73392D144
:102DA700F5826002D2F7ACF0E58124F9F8E6FD0878
:102DB700E6FE0886F008E6A2F73392D5F5836002AF
:052DC700D2F7AFF0227D
:0600B800E478FFF6D8FD1C
:102DCC007804EC7011E58224F8500AF582E4C9CA43
:102DDC00CBFCD8EF22EC7820058220E713D58201BA
:102DEC0022C3E933F9EA33FAEB33FBEC33FCD8EAD0
:102DFC00158222AC82AD83AE12AF13BE0004EF601D
:102E0C000C1F0FE511122E6AA3DEFADFF88C828DEF
:022E1C0083220F
:100096007918E94400601B7A019037DC78A47593DF
:1000A600F4E493F2A308B800020593D9F4DAF275E2
:0200B60093FFB6
:102E1E00FCABF0AA83A982749EC2D1F582122DCC8E
:102E2E0002301F7F9E122E5830D103023040C3EF66
:102E3E009582500974FFF5F0F583F5822279001220
:102E4E0031BD89828A838BF0EC22AA82AB83A2F7F2
:102E5E003392D1F5826002D2F7ACF02220F7113016
:102E6E00F6138883A88220F509F6A88375830022BD
:102E7E0080FEF280F5F022E5828511F0A4C582C0B5
:102E8E00F08512F0A4D0F025F0C5838511F0A425AD
:102E9E0083F58322AAF0FBE5828511F0A4FCADF048
:102EAE00E5838511F0A42DFDE435F0FEE582851253
:102EBE00F0A42DFDE5F03EFEE433FFEA8511F0A40B
:102ECE002EFEE5F03FFFE5838512F0A42EFEE5F021
:102EDE003FFFE5828513F0A42EFEE5F03FFFEB8564
:102EEE0011F0A42FFFEA8512F0A42FFFE5838513BE
:102EFE00F0A42FFFE5828514F0A42F8EF08D838C25
:102F0E008222E511451260467A01E51125E0F511A0
:102F1E00E512334012F512E5829511E583951240C4
:102F2E00030A80E6C3E51213F512E51113F511C37A
:102F3E00E5829511F5F0E58395124005F58385F050
:102F4E0082C3E51213F512E51113F511DAE122121F
:102F5E002D9E7900E583B58202800D500312306EEE
:102F6E00E583C395821231BDE5D0C465D020E1174B
:102F7E00EA2DFAEB3EFBEC3FFC500974011231BD19
:102F8E00EC4480FC02301FC3EA9DFAEB9EFBEC9FE3
:102F9E00FC500FC3E499F9E49AFAE49BFBE49CFC21
:082FAE00B2D1122DCC02301F3C
:1000BE007800E84400600A79007593F0E4F309D8FB
:1000CE00FC78A4E84404600C790590F000E4F0A3F9
:0400DE00D8FCD9FA77
:102FB600FBC2D530E715D2D5E4C39582F582E495F8
:102FC60083F583E495F0F5F0E49BFBE51430E71711
:102FD600B2D5E4C39511F511E49512F512E49513F3
:102FE600F513E49514F514EB122C9630D513FBE487
:102FF600C39582F582E49583F583E495F0F5F0E4D4
:103006009B22E4AC83AB82FAF9748E022E277F8E64
:10301600122E33F58385F08222B98003EA13B3407A
:1030260010EA2401FAE43BFBE43CFC50047C8005F6
:1030360082BC000EBB000BBA0008E4F5F0F583F580
:103046008222A2D1E582138CF092F78B838A8222A8
:10305600E4F583F58275F080F4A2D11322E4F583BA
:10306600F58275F0C0747F22E582C583F582A2D110
:1030760033A2D592D11392D5ECCFFCEBCEFBEACDA1
:10308600FA22AA82AB8312316B6003A380F8C3E5F0
:10309600829AF582E5839BF58322122D9E30D50216
:1030A600B2D1BF0009BC0003023063023056BC0037
:1030B60003023040E583B4FF0BE582B4FF03023020
:1030C60063023040E582B4FF03023056C395835055
:1030D60007247F400B0230402480145003023056F0
:1030E600F582C3ED9AEE9BEF9C40111582C3EA333D
:1030F600F9EB33FAEC33FBE433FC8005E4CCCBCAC2
:10310600F9C08275F019C3E99DEA9EEB9FEC940025
:10311600D5F002802D400EE99DF9EA9EFAEB9FFB61
:10312600EC9400FCC3B3E833F8E58233F582E5831B
:1031360033F583C3E933F9EA33FAEB33FBEC33FCBB
:1031460080C4B3E4F938FAE43582FBE43583FCD075
:0D31560082500405827C80122DCC0230379F
:0D008900758145123200E582600302008699
:103163007F86122E33F5822220F71430F6148883DB
:10317300A88220F507E6A88375830022E280F7E49E
:103183009322E022C2D5E58330E70DD2D5E4C3957F
:1031930082F582E49583F583E51230E70BE4C3956A
:1031A30011F511E49512F512122F1030D50BE4C36B
:1031B3009582F582E49583F583226040F825825059
:1031C3000274FFF582E824F8501ECCCBCAF9E4CC94
:1031D30024F85014CBCAF9E4CB24F8500BCAF9E411
:1031E300CA24F8500379002224086010F8C3EC13B2
:1031F300FCEB13FBEA13FAE913F9D8F12275820009
:0132030022A8
:00000001FF
