:0600000002008B02374CE8
:01000B0032C2
:0100130032BA
:01001B0032B2
:0100230032AA
:01002B0032A2
:03003300022F3267
:01003B003292
:01004300328A
:03004B00023EADC5
:030053000206980A
:03005B0002096F28
:01006300326A
:03006B00022FB6AB
:01007300325A
:01007B003252
:03008300023A61DD
:0300E7000200868E
:030086000219C09C
:1000EA00AF83E58290F554F0EFA3F075E10490DF59
:1000FA003BE0FFBF01F890F554E0FEA3E0FF90DF7C
:10010A0006EEF075E10290DF3BE0FFBF0DF8227EBC
:10011A00007F0090FC28E0FCA3E0FD8E028F03C361
:10012A00EA9CEB9D5038EE2400FCEF34F0FD90FC85
:10013A0026E0F512A3E0F5138A828B83C007C00676
:10014A00C005C00412442CAA82D004D005D006D01F
:10015A00078C828D83EAF00EBE00B80F80B522E5C7
:10016A008290F556F0E0FFE59CC39FF59CE59C2440
:10017A00FAF59C439E10D2BA22539EEF22AF83E532
:10018A008290F55AF0EFA3F090FC21E060139045BD
:10019A00EE1230C590FC21E0F5821231077582EF2C
:1001AA002290FC217406F090DF3BE0FFBF1302802F
:1001BA00F6C29090F557E0FEA3E0FF90FC88EEF0BF
:1001CA00EFA3F090FC8274F1F0E4A3F090FC1874B1
:1001DA0072F074F3A3F090FC80E4F0A3F090FC3387
:1001EA00F090FC7CF090FC32F090FC7E04F0E4A3EA
:1001FA00F090FC7D7402F090F55CE4F0900000123F
:10020A00032E90F55AE0FEA3E0FF90F559E0FD7B3E
:10021A00007C008D017A00C3EB99EC9A50548B0252
:10022A00EA75F0F0A42EF9E43FFA90F55C74F0F068
:10023A0089828A83C007C006C005C004C0031203AE
:10024A002EAA82D003D004D005D006D007EA601BBC
:10025A00904640C0021230C5D00290FC21E4F08AD8
:10026A0082C002123107D0028A82220BBB00A40C80
:10027A0080A190FC8BE030E33390FC88E0FEA3E0A1
:10028A00FFEE540F602690FC88E0FEA3E053060FB1
:10029A007F007410C39EFEE49FFF90FC88E0FCA3DD
:1002AA00E0FD90FC88EE2CF0EF3DA3F090FC88E096
:1002BA00FEA3E0FFC374FF9EE49F502690FC88E0F3
:1002CA00FEA3E07F0090DF02EEF090DF04E053E04F
:1002DA00FCF090DF04E043E002F090FC8A7401F045
:1002EA00801290FC88E0FEA3E0FF90DF02EEF0901F
:1002FA00FC8AE4F075E1037E607FEA90DF3BE0FD73
:10030A00BD130280091EBEFF011FEE4F70EDD29091
:10031A00EE4F700C90FC467413F09046581230C59C
:10032A0075820022AF83E58290F55DF0EFA3F0902D
:10033A00F55CE0FF240F500A9046691230C57582B9
:10034A00FF22EF703E90FC32E4F090FC32E0FE9027
:10035A00FC7DE0FDC3EE9D502190FC32E075F0F18A
:10036A00A42472F58274F335F0F583E4F090FC323C
:10037A00E0FE0E90FC32EEF080D090FC32E4F07594
:10038A0082002290FC21E0FE601DBE061E90FC3217
:10039A00E0601890DF3BE0FEBE1302800E90FC2165
:1003AA007407F07582ED227582ED2290FC32E075B9
:1003BA00F0F1A42472FD74F335F0FE8D828E83E091
:1003CA00600A90FC467418F07582FE228D828E8334
:1003DA0074FFF090FC32E075F0F1A42472FD74F31E
:1003EA0035F0FE0DBD00010E7C0090F55DE0FAA32C
:1003FA00E0FB8A128B138C148F037F008B158F16E8
:10040A008D828E838CF0C007C003124301D003D0C3
:10041A000790FC8BE020E3030204D890FC32E075DD
:10042A00F0F1A42472FD74F335F0FE0DBD00010E47
:10043A0090FC5DEBF0EFA3F08D828E83124078AED4
:10044A008290F55CEEF090FC8BE0FF5307047D0090
:10045A00BF0441BD003E90FC32E075F0F1A4247265
:10046A00FD74F335F0FF0DBD00010F8E037C009083
:10047A00FC8BE054F0FA90FC61EDF0EFA3F090FCF5
:10048A0063EBF0ECA3F090FC65EAF08D828F8312A7
:10049A0040AE803A90FC32E075F0F1A42472FD740B
:1004AA00F335F0FF0DBD00010F7C0090FC8BE0548A
:1004BA00F0FB90FC68EDF0EFA3F090FC6AEEF0EC34
:1004CA00A3F090FC6CEBF08D828F831240F790FCC6
:1004DA0032E075F0F1A42472FE74F335F0FF90F562
:1004EA005CE08E828F83F090FC32E0FF0F90FC324A
:1004FA00EFF090FC7DE0FEEFB5060590FC32E4F0EB
:10050A0075820022AF83E58290F55FF0EFA3F09049
:10051A00FC21E0FF6014BF0102800F904683123075
:10052A00C590FC21E0F58212310712018390FC2A62
:10053A00E4F0A3F090FC2AE0FEA3E0FF8E828F8312
:10054A0012061890DF3BE0FFBF0DF890DF3AE0FF9C
:10055A0053077F7E00C3EF9460EE64809480402747
:10056A0090FC2AE0FEA3E0FF0EBE00010F90FC2AD9
:10057A00EEF0EFA3F0D29090000A123D58C290908C
:10058A00000A123D5880AD90FC217402F090FC479D
:10059A00E0FCA3E0FDA3E0A3E090FC2CECF0EDA3CB
:1005AA00F090F55FE0FEA3E0FF90FC30EEF0EFA3E1
:1005BA00F02290FC21E4F090FC47E0FCA3E0FDA3CC
:1005CA00E0A3E090FC2CECF0EDA3F02290FC217467
:1005DA0004F090FC47E0FCA3E0FDA3E0A3E090FC5C
:1005EA002CECF0EDA3F02290FC217405F090FC3481
:1005FA00E4F0A3F090FC47E0FCA3E0FDA3E0A3E055
:10060A0090FC2CECF0EDA3F0758200020169AF8337
:10061A00E58290F561F0EFA3F090F561E0FEA3E0CA
:10062A00FFEE2400F582EF34F0F583E0FF7E008FC1
:10063A00828E830200EAAF83E58290F563F0EFA32E
:10064A00F090F563E0FEA3E0FF90F370EEF0EFA305
:10065A00F0222290FC2AE0FEA3E0FF0EBE00010F6A
:10066A0090FC2AEEF0EFA3F0C3EE9470EF940340EF
:10067A000790FC2AE4F0A3F090FC2AE0FEA3E0FF36
:10068A00EE2400F582EF34F0F583E0F58222C021F2
:10069A00C0E0C0F0C082C083C007C006C005C00465
:1006AA00C003C002C001C000C0D075D00090FC1DBC
:1006BA00E02401FEA3E03400FF90FC1DEEF0EFA35E
:1006CA00F090FC22E0FCA3E0FDEEB5040BEFB505CB
:1006DA000790FC1DE4F0A3F090FC1DE0FEA3E0FFF0
:1006EA00BE0005BF0002800BBE0105BF0002806884
:1006FA0002085690FC1DE0FEA3E08E077E00AC9C2B
:10070A007D00EC4206ED420790FC2EEEF0EFA3F0DE
:10071A0090FC2AE0FEA3E0FF0EBE00010F90FC2A27
:10072A00EEF0EFA3F090FC28E0FCA3E0FDC3EE9C02
:10073A00EF9D400790FC2AE4F0A3F090DF3BE0FF36
:10074A00BF130302095290FC2AE0FEA3E0FF8E8247
:10075A008F8312061802095290FC21E0FFBF05029E
:10076A008003020952900019123D5890F567741CD3
:10077A00F090FC2AE090F568F090FC2AE0A3E09063
:10078A00F569F090F56A7442F090F56B744CF0904C
:10079A00F56C7441F090F56D7448F090F56E744202
:1007AA00F090F56F744CF090F5707441F090F5711B
:1007BA007448F090F5727442F090F573744CF090AE
:1007CA00F5747441F090F5757448F090F5767442BA
:1007DA00F090F577744CF090F5787441F090F579D3
:1007EA007448F090F57A7442F090F57B744CF0906E
:1007FA00F57C7441F090F57D7448F090F57E744272
:10080A00F090F57F744CF090F5807441F090F5818A
:10081A007448F090F5827420F090FC36741CF0E471
:10082A00A3F090FC38F0A3F090FC3AF0A3F090F516
:10083A006812336790FC34E0FEA3E0FF0EBE0001AD
:10084A000F90FC34EEF0EFA3F002095290FC21E085
:10085A00FFBF03028065BF04028008BF0502800350
:10086A0002095290FC2CE0FEA3E0FF90FC47E0FA5C
:10087A00A3E0FBA3E0FCA3E0FD8E008F01E4FEFFF2
:10088A00EAC398FAEB99FBEC9EFCED9FFDC37464F6
:10089A009AE49BE49CE49D50229046B11230C590A4
:1008AA00FC217405F090FC47E0FCA3E0FDA3E0FE08
:1008BA00A3E0FF90FC2CECF0EDA3F090FC33E07584
:1008CA00F0F1A42472FE74F335F0FF8E828F83E078
:1008DA006076900019123D5890FC33E075F0F1A44F
:1008EA002472FE74F335F0FF90DF04E05401B40182
:1008FA00009200E4332EFDE43FFC8E828F83E09069
:10090A00FC36F0E4A3F090FC38F0A3F090FC3AF047
:10091A00A3F08D828C8312336790FC33E075F0F17B
:10092A00A42472F58274F335F0F583E4F090FC3375
:10093A00E0FF0F90FC33EFF0BF0200400590FC335C
:10094A00E4F09046CF1230C5D0D0D000D001D0020A
:10095A00D003D004D005D006D007D083D082D0F0FF
:10096A00D0E0D021323290FC21E4F090FC32F090B9
:10097A00FC33F090FC2AF0A3F090FC267453F0E4C8
:10098A00A3F090FC287453F0E4A3F090FC2EF0A39B
:10099A00F090FC2CF0A3F090FC227406F0E4A3F093
:1009AA0090FC24F0A3F090FC30F0A3F090FC34F01B
:1009BA00A3F012011990FC21E4F0759DDC859E9E3E
:1009CA00439E0443CB1022020970900DE2121EF6D8
:1009DA0090FC47E4F0A3F0A3F0A3F01209D190F53C
:1009EA0083E4F090F5847412F074F8A3F02290FC7A
:1009FA0021E0FFBF0003020D1DBF0103020BF3BF7D
:100A0A000203020AF9BF0303020D1DBF0403020D0C
:100A1A001DBF0503020CFEBF060122BF400280066D
:100A2A00BF410280412275E10490DF3BE0FFBF0134
:100A3A00F890DF0374E5F090DF047404F090DF07A8
:100A4A007412F090DF08E4F090DF147410F090DF75
:100A5A0017E043E0C0F090FC217441F090F58474F3
:100A6A0012F074F8A3F090F583E4F090FC34E0FE01
:100A7A00A3E0FF90F583E0FDFB7C00C3EB9EEC9FB7
:100A8A00504590DF06EDF075E10490DF3BE0FFBFD3
:100A9A0001F875E10290DF3BE0FFBF0DF89000021C
:100AAA00123D5890F584E0FEA3E0FF90F583E02E16
:100ABA00FEE43FFF90DF3AE0FD8E828F83F090F5EF
:100ACA0083E02401F080A475E10490DF3BE0FFBFDE
:100ADA0001F890FC34E0FF8F3375340090F584E020
:100AEA00F535A3E0F5367532017582430219F2E550
:100AFA000B7003020BE190FC45740DF0539AFEE56E
:100B0A000B20E403020BE190FC217403F090FC1F1C
:100B1A00E0FEA3E08E821201699046DD1230C59094
:100B2A00FC1FE0FEA3E0FF8E828F8312312290F831
:100B3A0011E07E0025E0CEE42412FFEE34F8FE8FA9
:100B4A00828E831230C590F811E0B401009201E45C
:100B5A0033FF90F583F0EF2416FDE434FCFE8D821A
:100B6A008E83E0706F90DF04E030E0348F057E0002
:100B7A00ED2DCEE4FD2412F582EE34F8F583E0FC87
:100B8A008C33EDF5342412FDEE34F8FE74012DF5A4
:100B9A0035E43EF5367532017582421219F2802328
:100BAA0090DF02E0FE8E33E4F534FEEF2FCEE4242C
:100BBA0012FFEE34F8FE8F358E3675320175824299
:100BCA001219F290F583E0FF2416F582E434FCF55D
:100BDA00837401F0530BEFD20110AF02C201750BFF
:100BEA0000A20192AF439A0122E50B7003020CECBA
:100BFA0090FC45740DF0539AFEE50B20E403020CB9
:100C0A00EC90F811E0B40100920190F583E433F01E
:100C1A009046F21230C590F583E07E0025E0CEE4DE
:100C2A002412FFEE34F8FE8F828E8312312290F561
:100C3A0083E07E0025E0CEE42412FFEE34F8FE8F36
:100C4A00828E831230C590F811E0B401009201E45B
:100C5A0033FF90F583F0EF2416FDE434FCFE8D8219
:100C6A008E83E0706F90DF04E030E0348F057E0001
:100C7A00ED2DCEE4FD2412F582EE34F8F583E0FC86
:100C8A008C33EDF5342412FDEE34F8FE74012DF5A3
:100C9A0035E43EF5367532017582421219F2802327
:100CAA0090DF02E0FE8E33E4F534FEEF2FCEE4242B
:100CBA0012FFEE34F8FE8F358E3675320175824298
:100CCA001219F290F583E0FF2416F582E434FCF55C
:100CDA00837401F0D20110AF02C201530BEFA201DB
:100CEA0092AFD20110AF02C201750B00A20192AFFE
:100CFA00439A012290FC34E0FEA3E0FF90FC28E036
:100D0A00FCA3E0FDC3EE9CEF9D50012290FC2174F0
:100D1A0004F022E50B70012290FC45740DF0E50BFE
:100D2A00543070012290F811E0B401009201E433CA
:100D3A00FF90F583F0EF2416FDE434FCFE8D828EDD
:100D4A0083E06003020DD390DF04E030E0348F05C6
:100D5A007E00ED2DCEE4FD2412F582EE34F8F58303
:100D6A00E0FC8C33EDF5342412FDEE34F8FE740108
:100D7A002DF535E43EF5367532017582421219F2C7
:100D8A00803690FC77E0600A90FC7AE0FDA3E0FEF2
:100D9A00800890DF02E0FCFD7E007C00EF2FCCE4AF
:100DAA002412FFEC34F8FC8F358C367532018D3302
:100DBA008E347582421219F290F583E0FF2416F5FB
:100DCA0082E434FCF5837401F0D20110AF02C2014F
:100DDA00530BCFA20192AF2290F7C3E0FDA3E0FE2E
:100DEA00A3E0FF90F7C8E0FCBC4202800302174F61
:100DFA0090F7C9E0FC24BE5003021741EC240A8391
:100E0A00F582EC244683F583E4734141E81F419B54
:100E1A00486679B1E90C4FED41419F1C43B6DBEEC0
:100E2A005AD50541414141414141AD2F7D7396411A
:100E3A004141414141414141414141414141414198
:100E4A004141414141414141414198D217170E1157
:100E5A00170F10101010101111111717141515155E
:100E6A001515161315171717171717171617161517
:100E7A0015171717171717171717171717171717FA
:100E8A001717171717171717171717170E0EC00761
:100E9A00C006C005120183D005D006D00790FC21F8
:100EAA007440F08D828E838FF012458BFC7B00900C
:100EBA00FC34ECF0EBA3F090F7E9EDF0EEA3F0755B
:100ECA008201122D7E02174F90FC21E4F090F7E97F
:100EDA00EDF0EEA3F0758201122D7E02174F90FC01
:100EEA0021E0600990470C1230C502174F8D828E9F
:100EFA00838FF012458BFC7B0090F586ECF0EBA318
:100F0A00F08D828E83A3E0FAE4F92CFCEA3BFB9095
:100F1A00F586ECF0EBA3F08D828E83A3A3A3A3E066
:100F2A00FA8A0889098D828E83A3A3A3A3A3E0FA70
:100F3A00E42508F508EA3509F50990FC1AE4F0A356
:100F4A00F074062DF9E43EFA90FC36ECF0EBA3F0CF
:100F5A0090FC38E4F0A3F090FC3AE508F0E509A328
:100F6A00F089828A83C007C006C005123367AC8243
:100F7A00D005D006D0078D828E838FF0EC1243F411
:100F8A0090F7E9EDF0EEA3F0758201122D7E0217BB
:100F9A004F8D828E838FF012458B90FC7AF0E4A3FA
:100FAA00F08D828E83A3E0FB7C0090FC7AE0F9A3AB
:100FBA00E0FA90FC7AEC29F0EB3AA3F090FC7AE0A4
:100FCA00FBA3E04B604590FC777401F090FC78E05D
:100FDA00FBA3E0FC4B70481232AE90FC7AE0FBA314
:100FEA00E0FC90FC78EBF0ECA3F090FC78E0FBA33B
:100FFA00E090DF02EBF090DF04E053E0FCF090DFDA
:10100A0004E043E002F0123262801490FC77E4F0CC
:10101A0090FC78F0A3F090FC7AF0A3F01232AE9034
:10102A00F7C8E0FC90F7C9E0F53275357A7536FCF9
:10103A007533017534008C821219F202174F8D82B2
:10104A008E838FF012458B90FC8BF090F7E9EDF0D0
:10105A00EEA3F0758201122D7E02174F90F7E97404
:10106A008BF074FCA3F0758201122D7E02174F904B
:10107A00FC8BE054F0FC90FC597406F090FC5AEC9E
:10108A00F08D828E838FF0C007C006C00512402300
:10109A00D005D006D00790F7E9EDF0EEA3F07582FF
:1010AA0010122D7E02174F90FC8BE054F0FC90FC3E
:1010BA00597404F090FC5AECF08D828E838FF0C044
:1010CA0007C006C005124023D005D006D00790F706
:1010DA00E9EDF0EEA3F0758210122D7E02174F8D06
:1010EA00828E838FF012458B90FC8CF0E053E001E6
:1010FA00F090F7E9EDF0EEA3F0758201122D7E0271
:10110A00174F90F7E9748CF074FCA3F07582011202
:10111A002D7E02174F8D828E838FF012458BFC7BBA
:10112A00008C828B83C007C006C005120640D0051A
:10113A00D006D00790F7E9EDF0EEA3F07582011220
:10114A002D7E02174F90FC21E0601C8D828E838FCA
:10115A00F074EF1243F490F7E9EDF0EEA3F0758224
:10116A0001122D7E02174F8D828E838FF012458BCE
:10117A00FC7B0090F586ECF0EBA3F08D828E83A3C6
:10118A00E0FAE42CFCEA3BFB90F586ECF0EBA3F0EA
:10119A008D828E83A3A3E0FA90FC1AE4F0A3F07484
:1011AA00032DF8E43EF990F557ECF0EBA3F090F537
:1011BA0059EAF088828983C007C006C005120187F0
:1011CA00AC82D005D006D0078D828E838FF0EC12C8
:1011DA0043F490F7E9EDF0EEA3F0758201122D7E4B
:1011EA0002174F8D828E838FF012458BFB7C009005
:1011FA00F586EBF0ECA3F0EB4C60030212E690FCF0
:10120A0088E0F9A3E0FA49601C90DF3BE0FABA13E0
:10121A0014900028C007C006C005123D58D005D05A
:10122A0006D00780D990FC88E0F9A3E049606B906A
:10123A004731C007C006C0051230C590FC88E0F9E6
:10124A00A3E0FA89828A8312312290F372E0F5824E
:10125A0012310790F463E0F582123107D005D00607
:10126A00D00790FC467412F08D828E838FF074EC56
:10127A001243F4C290C007C006C00512323DD00521
:10128A00D006D00790FC21E4F090F7E9EDF0EEA348
:10129A00F0758201122D7E02174FC29090FC21E454
:1012AA00F08D828E838FF01243F4904745C007C0B9
:1012BA0006C0051230C590FC1AE0F9A3E0FA89824B
:1012CA008A83123122D005D006D00790F7E9EDF0D3
:1012DA00EEA3F0758201122D7E02174F90FC21E0D9
:1012EA00FABA06028061904755C007C006C00512C7
:1012FA0030C5D005D006D00790FC46E0FABA121BDA
:10130A008D828E838FF074EC1243F490F7E9EDF03E
:10131A00EEA3F0758201122D7E801F90FC46741791
:10132A00F08D828E838FF074EF1243F490F7E9ED1B
:10133A00F0EEA3F0758201122D7EC29012323D901A
:10134A00FC21E4F002174F74012DF9E43EFA90F5FE
:10135A005CEBF089828A83C007C006C00512032E9F
:10136A00AC82D005D006D0078D828E838FF0EC1226
:10137A0043F48D828E838FF012458BFBEC603BBB6E
:10138A00FE02803690475EC007C006C0051230C50F
:10139A00D005D006D0078D828E838FF012458BF54B
:1013AA0082C007C006C005123107C29012323DD072
:1013BA0005D006D00790FC21E4F090F7E9EDF0EEB5
:1013CA00A3F0758201122D7E02174F8D828E838FB4
:1013DA00F012458BFB7C0090F586EBF0ECA3F0C392
:1013EA0074F09BE49C50199046691230C590F7E955
:1013FA007486F074F5A3F0758201122D7E02174FE0
:10140A0090FC32E075F0F1A42472F974F335F0FA25
:10141A0089828A83E0601990476B1230C590F7E998
:10142A007486F074F5A3F0758201122D7E02174FAF
:10143A0089828A83EBF090FC32E075F0F1A4247281
:10144A00FB74F335F0FC0BBB00010C7A0074012D20
:10145A00F8E43EF9881289138A1490F586E0F515A6
:10146A00A3E0F5168B828C838AF012430190FC323A
:10147A00E0FC0C90FC32ECF0BC0200400590FC321F
:10148A00E4F090F7E97486F074F5A3F0758201121E
:10149A002D7E02174F8D828E838FF012458BFC7B37
:1014AA000090FC26ECF0EBA3F090FC26E0F9A3E018
:1014BA00FAC374709C74039B402E74022DFBE43EA5
:1014CA00FC8B128C1375140089158A1690F000751E
:1014DA00F00012430190F7E97426F074FCA3F0754A
:1014EA008202122D7E02174F90F7E9748CF074472E
:1014FA00A3F0758208122D7E02174F90FC26E0FC9D
:10150A0090F7E97400F074F0A3F08C82122D7E0239
:10151A00174F12065D7B008B8312061890FC2AE097
:10152A00FBA3E0FC90F7E9EB2400F0EC34F0A3F025
:10153A00758201122D7E02174F8D828E838FF012D3
:10154A00458BFC7B008C828B83C007C006C00512CA
:10155A0000EAD005D006D00790F7E9EDF0EEA3F047
:10156A00758201122D7E02174F758200C007C006D0
:10157A00C005120169D005D006D00790F7E9EDF051
:10158A00EEA3F0758201122D7E02174FC007C00626
:10159A00C005120183D005D006D00790F7E9EDF017
:1015AA00EEA3F0758201122D7E02174F8D828E8373
:1015BA008FF012458BFC7B0090FC22ECF0EBA3F041
:1015CA0090F7E9EDF0EEA3F0758201122D7E021775
:1015DA004F90F7E97422F074FCA3F0758204122D7F
:1015EA007E02174F8D828E838FF0C007C006C0051A
:1015FA00123084D005D006D0078D828E838FF012E8
:10160A00458BF582C007C006C005123107D005D048
:10161A0006D0078D828E838FF012458BFC7B008C5F
:10162A00128B138B147515158B1690FC2175F0000F
:10163A00C007C006C005124301D005D006D00790E6
:10164A00F7E9EDF0EEA3F0758215122D7E02174F21
:10165A0090FC1DE0FBA3E0FC90FC24EBF0ECA3F073
:10166A0090F7E97421F074FCA3F0758215122D7EAF
:10167A0002174F8D828E838FF012458BFC7B008C74
:10168A00828B83C007C006C00512050ED005D0069E
:10169A00D00790F7E9EDF0EEA3F0758201122D7EE6
:1016AA0002174F90FC47E0F9A3E0FAA3E0A3E09009
:1016BA00FC2CE9F0EAA3F08D828E838FF012458B21
:1016CA00FC90FC21F090FC21E0FBEC24FA4046EB74
:1016DA002B9016DF73800A8008800680268024807B
:1016EA0011C007C006C005120183D005D006D00775
:1016FA008023C007C006C0051205F1D005D006D068
:10170A00078012758200C007C006C005120169D0A1
:10171A0005D006D00790F7E9EDF0EEA3F075820147
:10172A00122D7E802090F7E97421F074FCA3F075E5
:10173A008201122D7E800E90F7E9EDF0EEA3F0758E
:10174A008201122D7E900000222290F7D1E0FFBF85
:10175A00013990F7B1E0FEA3E0FF90F7D4E0FCA3D3
:10176A00E0FD90F7B4E0FAA3E0FBEA4B601D8E823D
:10177A008F83E0F9A3AE82AF838C828D83E9F0A3D5
:10178A00AC82AD831ABAFF011B80DF90F7BAE0542E
:10179A00FDF090DE11E043E008F022AE82AF83E074
:1017AA00FD20E70302189E8E828F83A3E0FD601D51
:1017BA00BD0102802ABD0202803BBD0302805ABDE0
:1017CA0004028076BDFE0302186002189E75370275
:1017DA0075380090FC4575F000121C9D02189E9009
:1017EA00DE00E0FD7C007539288C3A8D828C8312EC
:1017FA001D1102189E8E828F83A3A3E0FCA3E0FD35
:10180A0074062EF582E43FF583E0F539A3E0F53A54
:10181A008C828D83121D11807B8E048F057B007450
:10182A00062EF582E43FF583E0F537A3E0F5388C20
:10183A00828D838BF0121C9D805A90F7B1E0FBA336
:10184A00E0FCA3E0FD753910753A008B828C838D1C
:10185A00F0121D11803E74022EFEE43FFF7D0075DA
:10186A004B94754C47754D807512048D138E828F7B
:10187A00838DF0123E04E5828583F045F06012D232
:10188A009090012C123D58C29090012C123D588024
:10189A000375C9839000002290DF2FE4F090DF30B7
:1018AA00F090DF31F090DF00740CF090DF01744E9D
:1018BA00F090DF0274FFF090DF037440F090DF04D1
:1018CA00E4F090DF05F090DF06F090DF077406F091
:1018DA0090DF08E4F090DF097424F090DF0A743A8C
:1018EA00F090DF0B74F1F090DF0C74CAF090DF0D0A
:1018FA0074A3F090DF0E7401F090DF0F7423F09060
:10190A00DF107411F090DF117436F090DF12740753
:10191A00F090DF13740FF090DF147418F090DF1555
:10192A0014F090DF16746CF090DF177403F090DFF8
:10193A00187440F090DF197491F090DF1A7456F021
:10194A0090DF1B7410F090DF1C74E9F090DF1D74B7
:10195A002AF090DF1EE4F090DF1F741FF090DF235F
:10196A007488F090DF247431F090DF257409F090C8
:10197A00DF2E74C0F090DF07C4F090DF097425F001
:10198A0090DF0A7495F090DF0B7455F090DF1A74AB
:10199A00B6F090DF1B7410F090DF1C74EAF090DF51
:1019AA001D742AF090DF1EE4F090DF1F741FF022EE
:1019BA00123E83023EA71219BA12316C123ED41299
:1019CA001C671232DA1209D4121C97D2AF121B44C6
:1019DA00D290900002123D58C29090000A123D58CF
:0819EA00122DAF1209F880F87C
:1045EE0043616E6E6F742063616C6C207472616EC9
:1045FE00736D69745F6C6F6E67207768696C652088
:10460E004648535320486F7070696E67206F722052
:10461E00616C72656164792070726F636573736922
:10462E006E67207472616E736D69745F6C6F6E6706
:10463E0021004D41435F747828292072657475728C
:10464E006E6564206572726F72006E65766572209B
:10465E00656E7465726564205458004648535378ED
:10466E006D6974206D65737361676520746F6F205B
:10467E006C6F6E67004648535320737461746520E7
:10468E00656E746572696E672053594E4348494E84
:10469E00472066726F6D2077726F6E67207374613C
:1046AE0074650053594E43485F4D41535445522053
:1046BE002D3E2053594E43494E474D41535445527A
:1046CE000046485353786D697420646F6E65006EB2
:1046DE006574776F726B207061636B657428737984
:1046EE006E6329006E6574776F726B207061636BF9
:1046FE00657428646973636F7665727929006372D5
:10470E0061702C20706C6561736520757365204631
:10471E00485353786D6974282920696E73746561E6
:10472E0064210064726F706F75742066696E616CBF
:10473E0020776169742100746F74616C20627974E2
:10474E0065732074783A00756E64657272756E00CA
:10475E00627566666572206572726F720073746937
:10476E006C6C2077616974696E67206F6E20746857
:10477E0065206C617374207061636B6574004E4FBD
:0B478E00204445414C005253544E00A3
:1019F200AF827E017D0090DE0E7405F090FC45748E
:101A020012F0EE7006ED7003021B3A7B107C2790F9
:101A1200DE11E030E00D90FC467401F01BBBFF01CB
:101A22001C80ECEB4C7014D2909003E8123D58C22B
:101A3200909003E8123D5890FFFF22BE012E7E00D7
:101A420090DE2A7440F0EFF0E532F0E533F0E53451
:101A5200F0C3E533943BE534940040087B3B7C00C3
:101A62007D018021AB33AC347D008019C3E5339412
:101A720040E534940040087B407C007D018006AB49
:101A820033AC347D00AA2974802A42D68526828509
:101A92002783AA368A01E9F0852682852783A3E572
:101AA20035F0852682852783A3A374DEF0852682FE
:101AB200852783A3A3A3742AF0852682852783A37F
:101AC200A3A3A3A3EBF0852682852783A3A3A3A3C5
:101AD200E054E0F0852682852783A3A3A3A3A3A3D2
:101AE200A3E0543F4440F0852682852783A3A3A325
:101AF200A3A3A3A3E054CFF0E52942D6E52942D718
:101B0200E52955D160FAE529F4FA52D190DE0E7436
:101B120005F090DE11E043E001F0E533C39BF533BD
:101B2200E5349CF534EB2535F535EC3536F5369054
:101B3200FC457413F0021A0490FC457414F09000F2
:101B42000022E5227005122DAF80F72253BE7F00DE
:101B520043BE8090DE0B74F7F090DE0774FFF090C6
:101B6200DE09F0438C10538CFED2BD439A02758974
:101B720000C2C5758B00C2E843A90243B90285269B
:101B820082852783A3A3A3A3E054E0F08526828560
:101B92002783A3A3A3A3A3A3E0549F4420F08526F5
:101BA20082852783A3A3A3A3A3A3A3E04408F0856C
:101BB2002682852783A3A3A3A3A3A3A3E054FC4463
:101BC20001F090DE01E053E0FEF0E4F525F523F5A7
:101BD20024F52290DE0EF090DE107404F090DE13F5
:101BE200F090F7BBE4F090F7BAF090F7AFF0A3F003
:101BF20090F7B17488F074F5A3F0E4A3F090F7B411
:101C0200F0A3F090F7B6F090F7B7F090F7B8F0A322
:101C1200F090DE0E7405F090DE107408F090DE1382
:101C2200F090DE12E043E001F090DE15E043E001C7
:101C3200F090F7CDE4F090F7CCF090F7C1F0A3F07C
:101C420090F7C374A8F074F5A3F0E4A3F090F7C67C
:101C5200F0A3F090F7C8F090F7C9F090F7CAF0A39C
:101C6200F0439A0222123190858228AF288FF00524
:101C7200F07401800225E0D5F0FBF529E52875F026
:101C820008A424F9F52674F735F0F52790FC45747D
:101C920002F0021B4ED29122C29122AFF0AE83E536
:101CA2008290F7D6F0EEA3F0EFA3F090F7BBE060DE
:101CB20034D2909003E8123D58C2909003E8123D4E
:101CC20058D2909003E8123D58C2909003E8123D1A
:101CD20058D2909003E8123D58C2909003E8123D0A
:101CE2005890FFFF2290F7D6E0FDA3E0FEA3E0FFAD
:101CF20090F7ACEDF0EEA3F0EFA3F090F7AFE5377D
:101D0200F0E538A3F090F7BB7401F090000022AF29
:101D120083E58290F7D9F0EFA3F090F7BBE060344F
:101D2200D2909003E8123D58C2909003E8123D58B9
:101D3200D2909003E8123D58C2909003E8123D58A9
:101D4200D2909003E8123D58C2909003E8123D5899
:101D520090FFFF2290F7D9E0FEA3E0FF7D0090F70D
:101D6200ACEEF0EFA3F0EDA3F090F7AFE539F0E5BC
:101D72003AA3F090F7BB7401F0900000227F007E3E
:101D82000290DE0EE4F090F7AFE0FCA3E0FDC3ECBE
:101D92009420ED940040047B2080068C037F017E1A
:101DA2000A8B017A00ECC399FCED9AFD90F7AFEC37
:101DB200F0EDA3F08B05ED603690F7ACE0FAA3E00E
:101DC200FBA3E0FC8A828B838CF012458B90DE2091
:101DD200F090F7ACE0FAA3E0FBA3E0FC0ABA000142
:101DE2000B90F7ACEAF0EBA3F0ECA3F01D80C790E8
:101DF200DE11E04EF0EF600590F7BBE4F02290F7C1
:101E0200BB7402F07582002290F7B1E0FDA3E0FE00
:101E1200A3E0FF90DE11E060FA90DE0EE4F090DEC7
:101E220016E0FC7B0090F7B4ECF0EBA3F090F7BA6D
:101E3200E030E11290F7BB7403F090DE11E043E072
:101E420004F090FFFF2290F7BAE04402F090F7B45A
:101E5200E0FBA3E0FCC374209BE49C501CD2909056
:101E6200012CC007C006C005123D58C29090012C3B
:101E7200123D58D005D006D00790F7B4E0FBA3E09E
:101E8200FC8D07EB4C601690DE20E0FD8F828E8386
:101E9200F0A3AF82AE831BBBFF011C80E6E52C459D
:101EA2002D6009852C82852D8312008990F7B4E07C
:101EB200FEA3E0FFC3EE9420EF9400501CE52A45F8
:101EC2002B6009852A82852B8312008990DE11E01E
:101ED20043E008F090F7BBE4F090DE11E043E0400D
:101EE200F090F7B4E0FEA3E08E82F5832285822E85
:101EF20085832F228582308583312275370175389B
:101F02000090002575F040021C9DAFF0AE83E58283
:101F120090F7DBF0EEA3F0EFA3F090F7DBE0FDA388
:101F2200E0FEA3E0FF74022DFDE43EFE8D828E836F
:101F32008FF012458BFD8D2575220122AF827DD552
:101F42007E2FBF030874EEB512037512048D828EC4
:101F520083A3E090F7DEF0AC1290F7DEE0FBBBFF6C
:101F620002803EEBB50723EC700890F7DE74FFF0B9
:101F720080E71C8D828E83E02DFDE43EFE8D828EF5
:101F820083A3E0FB90F7DEF080CF8D828E83E02D7D
:101F9200FDE43EFE8D828E83A3E0FB90F7DEF080AF
:101FA200B88D828E8322AFF0AE83E58290F7DFF0A8
:101FB200EEA3F0EFA3F090F7DFE0FDA3E0FEA3E0D5
:101FC200FF74022DFDE43EFE8D828E838FF012455A
:101FD2008BFBA312458BFCF97A00B90205BA000209
:101FE200801BB90757BA005474AF5BF97A008D822F
:101FF2008E838FF0E91243F4A3EA1243F490F7DFE1
:10200200E0FDA3E0FEA3E0FF74022DFDE43EFE8DA1
:10201200828E838FF012458BFDA312458BF5828D44
:1020220012121F3EAE82AF8390F7E2EEF0EFA3F002
:102032008E828F83A3A3E0FE7F00801C8C828B1292
:10204200121F3EAC82AD8390F7E2ECF0EDA3F08C70
:10205200828D83E0FCFE7F0090F7DFE0FCA3E0FBD3
:10206200A3E0FD74062CFCE43BFB8C828B838DF099
:1020720012458BFCA312458BFDC3EC9EED9F5004D1
:102082008C068D07EE4F700890DE11E043E020F0E1
:1020920090F7E2E0FCA3E0FD8E398F3A8C828D83CB
:1020A200021D1190DE0EE4F090DE11E0FF30E40D2F
:1020B20090F7BBE4F090DE11E043E080F0EF30E215
:1020C2002490DE11E4F090FC467404F090F7BBE437
:1020D200F0D290900014C007123D58C290900014A4
:1020E200123D58D00790F7BBE0FEBE0319D2909084
:1020F2000032C007123D58C290900032123D58D0B3
:102102000790F7BBE4F090F7BBE060030223F9EF1E
:1021120020E0030223F990DE0EE4F090DE16E0FFE9
:102122007C3B7D007E40EF601690DE20E0FB8C82DF
:102132008D838EF01243F4A3AC82AD831F80E7E55A
:102142003BFF20E7030222C28F055305607E00BDDC
:102152000005BE0002801EBD2006BE000302227ED4
:10216200BD4006BE0003022289BD6006BE00030216
:1021720022AE0223E3741F5FFE7041AD3CBD00023C
:10218200801CBD06028005BD0826800C90003B75B0
:10219200F040121FA80223E3121EFD0223E375374B
:1021A200027538009047B075F080121C9D0223E33F
:1021B20090003B75F040122FD40223E3BE0144ADE0
:1021C2003CBD00028005BD0A2680127537027538B3
:1021D200009047B075F080121C9D0223E375370111
:1021E2007538009047B375F080121C9D0223E3906E
:1021F200DE11E043E020F090003B75F040122FD456
:102202000223E3BE0235AD3CBD00028008BD1203CD
:102212000223E380127537027538009047B075F0DB
:1022220080121C9D0223E390DE11E043E020F09037
:10223200003B75F040122FD40223E3BE032AE4B51B
:102242003C127537027538009047B075F080121C49
:102252009D0223E390DE11E043E020F090003B7505
:10226200F040122FD40223E390003B75F040122F6E
:10227200D490DE11E043E020F00223E390DE11E08F
:1022820043E020F00223E3E52E452F60131222944F
:10229200800BC02EC02F90003B75F040220223E33A
:1022A20090003B75F0401224100223E390DE11E00F
:1022B20043E020F090003B75F040122FD40223E35C
:1022C2008F055305607E00BD0005BE0002801EBD65
:1022D2002006BE000302239CBD4006BE000302236B
:1022E200AFBD6006BE00030223D20223E353071FE1
:1022F200EF7047AE3CBE01030223E3BE0303022399
:10230200E3BE0502800BBE07030223E3BE0917806A
:102312000990DE00E53DF00223E390003B75F040BA
:10232200121F0C0223E390003B75F040122FD49051
:10233200DE11E043E020F00223E3BF0128AE3CBE01
:1023420001030223E3BE03030223E3BE11030223BC
:10235200E390003B75F040122FD490DE11E043E091
:1023620020F00223E3BF021FAF3CBF01028072BF15
:102372000302806D90003B75F040122FD490DE1165
:10238200E043E020F0805A90DE11E043E020F0903C
:10239200003B75F040122FD4804790003B75F0400F
:1023A200122FD490DE11E043E020F08034E52E4578
:1023B2002F60121223BA8029C02EC02F90003B75C5
:1023C200F04022801C90003B75F0401224108011D6
:1023D20090DE11E043E020F090003B75F040122FB8
:1023E200D490DE11E043E040F0E5414542700890B0
:1023F200DE11E043E008F090F7BBE0FFBF010312FB
:102402001D7F90F7BBE0FFBF0203021E0A22AFF05E
:10241200AE83E58290F7E4F0EEA3F0EFA3F090F73D
:10242200E4E0FDA3E0FEA3E0FF8D828E838FF01235
:10243200458BFC20E70302260C74012DFAE43EFBD7
:102442008F048A828B838CF012458BFC6025BC0141
:10245200028032BC02028043BC03030224D9BC04C2
:102462000302250EBCFD0302252BBCFE030225C67A
:1024720002267275370275380090FC4575F000121D
:102482001C9D02267290DE00E0FC7B007539288BD1
:102492003A8C828B83121D1102267274022DFAE489
:1024A2003EFB8F048A828B838CF012458BFAA31237
:1024B200458BFB74062DF8E43EF98F0488828983EC
:1024C2008CF012458BF539A312458BF53A8A828B33
:1024D20083121D110226728D028E038F048A438B92
:1024E200448C4574062DF8E43EF98F048882898372
:1024F2008CF012458BF537A312458BF53885438254
:102502008544838545F0121C9D02267290F7B1E046
:10251200FAA3E0FBA3E0FC753910753A008A828BBE
:10252200838CF0121D1102267274042DFAE43EFB14
:102532008F048A828B838CF012458BFAA312458B0F
:10254200FBBA0446BB0043745C4430603D74062D04
:10255200FBE43EFA8F048B828A838CF012458BFB5C
:10256200A312458BFC90305CE493F97A00C3E99B9B
:10257200EA9C500C89398A3A90305C121D11800A0B
:102582008B398C3A90305C121D1190F7E4E0FAA37B
:10259200E0FBA3E0FC74042AFAE43BFB8A828B830F
:1025A2008CF012458BFAA312458BFBBA0505BB00D2
:1025B200028003022672E4F539F53A900000121DFA
:1025C2001102267274022DFAE43EFB8F0490FC4B3A
:1025D20074B5F07447A3F07480A3F07512047513F8
:1025E200008A828B838CF0123E04E5828583F0455B
:1025F200F06012D29090012C123D58C29090012CA2
:10260200123D58806B75C983806690F7D1E0FCBC9F
:10261200015674022DFDE43EFE8D828E838FF012F0
:10262200458BFDA312458BFE90DE0EE4F090DE1684
:10263200E0FF7C007511088F828C83C007C006C042
:1026420005C004123D9DD004D005D006D007EF4C42
:10265200601690DE20E0FB8D828E83F0A3AD82AE09
:10266200831FBFFF011C80E690F7BAE054FDFFF024
:102672009000002290F7CCE030E10A90FC4674050D
:10268200F090FFFF2290DE0E7405F090DE16E0FF60
:102692007E0090DE17E0FCE42FF546EC3EF5479015
:1026A200F7CAE0FCA3E0FD4C705890F7C6E4F0A333
:1026B200F090DE2AE090F7C8F090DE2AE090F7C9A9
:1026C200F090DE2AE0FD7C0090F7CAEDF0ECA3F07A
:1026D20090DE2AE0FAE4FB2DFDEA3CFC90F7CAED1D
:1026E200F0ECA3F0E54624FCF546E54734FFF54758
:1026F200C374049D74029C500990F7CA7404F003D9
:10270200A3F0E52955D16012D290900014123D58E1
:10271200C290900014123D5880E890F7C3E0FBA3EA
:10272200E0FCA3E090F7C6E0FAA3E0FFEA2BFBEFA0
:102732003CFCAF2974802F42D6852682852783747C
:10274200DEF0852682852783A3742AF0852682857A
:102752002783A3A38C078F06EEF085268285278325
:10276200A3A3A3EBF0852682852783A3A3A3A3A318
:10277200A3A3E0543FF0852682852783A3A3A3A3C6
:10278200A3A3A3E054CF4410F074052526FEE4353C
:1027920027FF90DE16E0FD8E828F83EDF074042514
:1027A20026FEE43527FF90DE17E08E828F83541FCA
:1027B200F5F0E054E045F0F090F7C6E0FFA3E0FE4C
:1027C200EF2546FCEE3547FDC374049C74029D5010
:1027D2000B7404C39FF54674029EF547C37440957B
:1027E20046E49547502790FC467406F090DE14E0CC
:1027F20053E0FEF0751104900005123D9D75111015
:10280200854682854783123D9D90FFFE22E529423F
:10281200D6E52942D7E5462FFEE5473EFF90F7C6AB
:10282200EEF0EFA3F0E52955D160FAE529F452D193
:1028320090F7C6E0FEA3E0FF90F7CAE0FCA3E0FD3C
:10284200C3EE9CEF9D402B90F7CCE04402F090F752
:10285200CAE4F0A3F090DE0E7405F0AE2374BF5507
:1028620024FF8E238F2490DE14E053E0FEF09000CC
:10287200012290DE0E7405F0AE2374BF5524FF8E44
:10288200238F2490DE14E053E0FEF09000002290AB
:10289200F7CCE020E1012290F7C3E0FDA3E0FEA324
:1028A200E0FF90F7E7EDF0EEA3F090F7C8E0F54D0A
:1028B20074FFB54D028003022D5690F7C9E0FBBBB1
:1028C20080005003022D38EB246C5003022D38EBAC
:1028D2002480FA240A83F582EA241883F583E473B8
:1028E2000A9B13504067889FD8C1383838384073E4
:1028F200D23838EB29292B2B2A2B2B2B2B2B2D2DA6
:102902002D2D2C2C2C2D2D2C8D828E838FF012456B
:102912008BFA74012DF548E43EF5498A4B754C005B
:1029220090F7CAE54BF0E54CA3F0854882854983D0
:10293200E0F54A74012548F54DE43549F54EA94ABA
:102942008902E4F9254BF54BEA354CF54C90F7CA70
:10295200E54BF0E54CA3F0854D82854E83E0F8858A
:102962004882854983A3A3884D894EE0FAE4254D28
:10297200F9EA354EFA89358A3690F7C8E0FA90F7C7
:10298200C9E0F532854B33854C348A821219F290B4
:10299200F7CAE4F0A3F0022D4E8D828E838FF012DF
:1029A200458BFA8D828E83A38A4B754C00E0F874B6
:1029B200022DF54DE43EF54E8802E4254BF8EA354A
:1029C2004CFA90F7CEE8F0EAA3F090F7C6E0F9A34C
:1029D200E0FAE924FEF54BEA34FFF54CE54B454CB1
:1029E200603D90F7CEE0F548A3E0F5497401254833
:1029F200F9E43549FA90F7CEE9F0EAA3F0854D8281
:102A0200854E83E0FAA385824D85834E8548828573
:102A12004983EAF0154B74FFB54B02154C80BD900B
:102A2200F7C8E0FA90F7C9E0F5327535CA7536F79E
:102A32007533027534008A821219F2022D4E90F714
:102A4200CCE020E2338D828E838FF012458BFA8D9B
:102A5200828E83A38A4D754E00E0F890F7E77402E8
:102A62002DF0E43EA3F08802E4254DF8EA354EFA53
:102A720090F7CEE8F0EAA3F090F7CAE0F9A3E0FA03
:102A8200894D8A4EC37440954DE4954E5006754D5E
:102A920040754E00E9C3954DF9EA954EFA90F7CA92
:102AA200E9F0EAA3F090F7E7E0F54BA3E0F54CE597
:102AB2004D454E603D90F7CEE0F548A3E0F54974F0
:102AC200012548F9E43549FA90F7CEE9F0EAA3F096
:102AD200854B82854C83E0FAA385824B85834C85A6
:102AE2004882854983EAF0154D74FFB54D02154EB3
:102AF20080BD90F7C8E0FA90F7C9E0F5327535CAA3
:102B02007536F77533027534008A821219F2022D76
:102B12004ED290900002C007C006C005123D58C2B6
:102B220090900002123D58D005D006D00790F7C809
:102B3200E0FA90F7C9E0F53290F7C6E0F533A3E08A
:102B4200F5348D358E368A821219F2022D4E753584
:102B5200BA7536478B3275330D753400854D821246
:102B620019F2022D4E90FC47E0F8A3E0F9A3E0A38E
:102B7200E0883589368B32753304753400854D8291
:102B82001219F2022D4E7535A27536478B32753306
:102B92000E753400854D821219F2022D4E90F7C641
:102BA200E0F533A3E0F5348B328D358E36854D82D8
:102BB2001219F29000C8123D5812319F022D4E7523
:102BC20035997536478B32753309753400854D82D8
:102BD2001219F2022D4E8D828E838FF012458BFCDC
:102BE20074012DF9E43EFABC0202800ABC030280A1
:102BF20021BC0429800DC002C001123262D001D072
:102C020002801AC290C002C0011232AED001D002BC
:102C1200800BC002C001123284D001D00290F7C8EA
:102C2200E0FC90F7C9E0F53290F7C6E0F533A3E097
:102C3200F53489358A368C821219F2022D4E90F7BC
:102C4200CA7401F0E4A3F07535367536DF90F7C823
:102C5200E0FC90F7C9E0F53290F7CAE0F533A3E063
:102C6200F5348C821219F290F7CAE4F0A3F0022D27
:102C72004E8D028E048C017C0090FC4B74C8F07463
:102C820047A3F07480A3F07512098C138A8289839A
:102C92008CF0C007C006C005123E04E5828583F0B1
:102CA200D005D006D00745F06003022D4E75C980CD
:102CB20090F7C8E0FC90F7C9E0F53290F7C6E0F56E
:102CC20033A3E0F5348D358E368C821219F2807C76
:102CD20090FC45E4F090FC46F090F7E9EDF0EEA3AD
:102CE200F0758202122D7E80638D828E838FF012A8
:102CF200458BFC74012DF9E43EFABC0002800BBC4A
:102D0200010F90FC8E7401F0800C90FC8EE4F08038
:102D12000590FC8EE4F090F7C8E0FC90F7C9E0F56E
:102D22003290F7C6E0F533A3E0F53489358A368C64
:102D3200821219F2801690F7C6E0F533A3E0F5345B
:102D42008B328D358E36854D821219F290F7CCE09A
:102D520054FDF022E530453160198530828531839A
:102D6200120089AE82AF83EE4F701090F7CCE05420
:102D7200FDF02290F7CCE054FDFFF022E58290F7BF
:102D8200EBF090F7CCE054FDF090F7C8E0FF90F73D
:102D9200C9E0F53290F7EBE0FE8E3375340090F720
:102DA200E9E0F535A3E0F5368F820219F2E523302A
:102DB200E01175220274FE5523FEAF248E238F2468
:102DC20043BE01E5235406602D90FC45740AF0755C
:102DD200220374FD5523FEAF248E238F2490DE013F
:102DE200E043E004F0900008123D5890DE01E05309
:102DF200E0FBF075220190DE0EE4F090DE11E0308F
:102E0200E21990DE11E053E0DBF090F7AFE4F0A3BB
:102E1200F090F7B4F0A3F090F7BBF090DE0E7405DB
:102E2200F090DE11E030E51F90DE11E053E0CFF0CC
:102E320090FC467408F090F7C1E4F0A3F090F7C656
:102E4200F0A3F090F7CDF090DE14E030E61F90DEB4
:102E520014E053E09FF090FC467408F090F7C1E450
:102E6200F0A3F090F7C6F0A3F090F7CDF0E52320A1
:102E7200E2057404B52214121B4E90FC45740BF04B
:102E820074FB5523FEAF248E238F24E52330E411F7
:102E92001220A574E75523FE740F5524FF8E238F4D
:102EA20024E52430E65490FC45740CF0122676AEEC
:102EB20082AF83BEFE41BFFF3E90F7EC7406F0E4A2
:102EC200A3F090F7C8E0FF90F7C9E0F5327535EC52
:102ED2007536F77533027534008F821219F290F746
:102EE200C8E0FF7535EC7536F7753201753302753A
:102EF20034008F821219F2122891E52354E07006F1
:102F0200E52454BD602990FC467409F075110890BF
:102F12000044123D9D852382852483751110123D44
:102F22009D74E05523FE74BD5524FF8E238F242209
:102F3200C0E0C082C083C007C006C005C004C0D0C4
:102F420075D000E5BE30E6FB90DE06E0FF7E00E5D0
:102F5200234207E52442068F238E2490DE02E0FD01
:102F6200E4CDC4CD6DCD54F0CD6DFCED4207EC4205
:102F7200068F238E2490DE04E07C0025E0CCE44220
:102F820007EC42068F23EEF52430E11290F7CCE0F5
:102F920054FEF0AE2374FD5524FF8E238F24758BCF
:102FA20000C2E8D0D0D004D005D006D007D083D05C
:102FB20082D0E032C0E0E5BE30E6FBC2AFE5893048
:102FC200E70375220353BEFC758900C2C5D2AFD098
:032FD200E03222C8
:104799005344434376343230004348524F4E4F53CB
:1047A9002072303535360000000000005253544E57
:1047B90000554E494D504C454D454E5445440052C7
:0947C900455345545F4E4F570063
:102FD5001201000200000020501D4760010101029E
:102FE50003010A060002000000200100090220007A
:102FF50001010080FA0904000002FFFFFF00070538
:10300500850240000107050502400001040309048B
:103015000C03520066004300610074001E03430068
:10302500680072006F006E006F007300200044009E
:103035006F006E0067006C0065000A033000300009
:103045003000300012034D0053004600540031009B
:1030550030003000FD00FF280000000001040001E1
:1030650000000000000000000157494E5553420082
:10307500000000000000000000000000000000AF9C
:1030850083E58290F7EEF0EFA3F090F7EEE0FEA374
:10309500E0FF7C007D008E028F038A828B83E0F93E
:1030A500A3AA82AB83E960070CBC00EE0D80EB752B
:1030B50032F08C338D348E358F367582FE0219F2DF
:1030C500AF83E58290F7F0F0EFA3F090F7F0E0FE24
:1030D500A3E0FF7C007D008E028F038A828B83E450
:1030E50093F9A3AA82AB83E960070CBC00ED0D80C0
:1030F500EA8E358F367532F08C338D347582FE024B
:1031050019F2E58290F7F2F07535F27536F77532FA
:10311500F17533017534007582FE0219F2AF83E54E
:103125008290F7F3F0EFA3F07535F37536F7753246
:10313500F27533027534007582FE0219F2AF82AE64
:1031450083ADF0FC90F7F5EFF0EEA3F0EDA3F0EC16
:10315500A3F07535F57536F77532F37533047534A7
:07316500007582FE0219F261
:0300E400750A009A
:10316C007EF97FF78FD575D4F97E017FF88FD375F3
:10317C00D20175120075131875140090F7F975F0DB
:10318C00000243897403B50A047582FF22850A8202
:10319C00050A2290DF46E0FFBFF00E90DF47E0FF0C
:1031AC00BF0D0690DF487469F0C2AF759A0075B810
:1031BC000075A800121C9A53BE7F75D69FC2900250
:1031CC000000221243A8AC82AD83AEF0FFC004C055
:1031DC0005C006C0079037BD75F086743D124230AD
:1031EC00AC82AD83AEF0FFE58124FCF581E4C0E058
:1031FC00C0E074C0C0E07441C0E08C828D838EF05E
:10320C00EF1244C8AC82AD83AEF0FFE58124FCF52F
:10321C00818C828D838EF0EF1243BBAC82AD83AE7A
:10322C00F090DF09EEF090DF0AEDF090DF0BECF0A0
:10323C002275E10490DF3BE0FFBF01F890FC1CE03D
:10324C00F5E190FC1CE0FFBF04012290DF3BE0FFA6
:10325C00BF010280ED2290FC1CE0FFBF0201229016
:10326C00DF13E053E0F0F090DF13E043E00FF09059
:10327C00FC1C7402F00236FB90FC1CE0FFBF030147
:10328C002290DF13E053E0F0F090DF13E043E00A0C
:10329C00F090FC1C7403F0F5E190DF3BE0FFBF13F2
:1032AC00F82290FC1CE0FFBF04012290DF13E053D6
:1032BC00E0F0F05391EF75E10490DF3BE0FFBF01CC
:1032CC00F8539BFC53E9EF90FC1C7404F02290FC27
:1032DC001FE4F0A3F090FC12F0A3F090FC14F0A308
:1032EC00F053C6C7759D00859E9E439E0485A9A973
:1032FC0043B90190FC1C7404F0751200751300F5B1
:10330C001490F81275F0001243891218A2D2A87505
:10331C0091D175E900750B00439A0175E10490DFBA
:10332C003BE0FFBF01F8227E007F00C3EE94DCEF90
:10333C009405502390DF3CE054506004900001222F
:10334C00900032C007C006123D7FD006D007743201
:10335C002EFEE43FFF80D490000022AF83E58290E4
:10336C00FC3CF0EFA3F090FC3EE4F090DF02E0FFB9
:10337C0090DF3BE0FEBE131EA290B3920290FC8E37
:10338C00E0FEA202E4335206EE24FF9290C0071234
:10339C002DAFD00780DAC29090FC8AE4F090FC3814
:1033AC00E0FDA3E0FE90FC80EDF0EEA3F090FC3A83
:1033BC00E0FBA3E0FC90FC86EBF0ECA3F090FC3679
:1033CC00E0F9A3E0FA90FC82E9F0EAA3F090FC8427
:1033DC00E9C39BF0EA9CA3F090FC84E0FBA3E0FC27
:1033EC008D128E138B828C83C007C006C005C00261
:1033FC00C00112440FAB82AC83D001D002D005D0F7
:10340C0006D00790FC88EB29F0EC3AA3F0E94A705F
:10341C0073C00790FC3CE0FBA3E0FC8B828C83E048
:10342C00F8880C750D0090FC36E50CF0E50DA3F05A
:10343C0090DF04E0F87F00740358F50E8F0FE4B5AD
:10344C000E07B50F04D0078020D0077401B50E0607
:10345C0014B50F02800302352890FC367401250C3C
:10346C00F0E4350DA3F002352890FC3C74012BF0F0
:10347C00E43CA3F090FC36E0FBA3E0FC90DF02EB15
:10348C00F002352890DF04E0FC5304037B00BC0001
:10349C0005BB00028049BC0105BB0002800302355C
:1034AC002890FC3CE0FBA3E0FC90FC3FE9F0EAA395
:1034BC00F090FC417401F0E4A3F08B828C83C00784
:1034CC00C002C001123D03D001D002D00790FC3CD9
:1034DC00E0FBA3E0FC89008B828C83E8F0803DED5F
:1034EC004E603490FC88E0FDA3E090DF02EDF0909C
:1034FC00DF04E053E0FCF090FC88E0FDA3E0FEC3A9
:10350C0074FF9DE49E500890DF04E043E002F090CD
:10351C00FC8A7401F0800590DF02E9F0D2A890FCDF
:10352C008BE020E30302365E90DF04E0FE530603DB
:10353C007D00BE0109BD000690FC3E7401F090FCBC
:10354C003EE0FE90FC3CE0FCA3E0FDEE2CFAE43DFA
:10355C00FB90FC36E0F8A3E0F990FC5DE8F0E9A301
:10356C00F08A828B83C007C006C005C00412407865
:10357C00AA82AB83D004D005D006D00790FC8BE098
:10358C00F85300047900B8043EB9003BC007EE2C98
:10359C00F8E43DF990FC8BE054F0FF90FC61E8F00E
:1035AC00E9A3F090FC63EAF0EBA3F090FC65EFF07C
:1035BC0088828983C007C003C0021240AED002D0FB
:1035CC0003D007D0078035EE2CFCE43DFD90FC8B3E
:1035DC00E054F0FE90FC68ECF0EDA3F090FC6AEA8D
:1035EC00F0EBA3F090FC6CEEF08C828D83C007C0E6
:1035FC0003C0021240F7D002D003D00790FC3EE08B
:10360C00603390FC8BE0FE5306F07D00BE5014BD81
:10361C00001190FC3CE0FDA3E0FE8D828E837410C3
:10362C00F0802F90FC3CE0FDA3E0FE8A048D828E9E
:10363C0083ECF0801D90FC8BE0FE5306F07D00BE09
:10364C00500BBD000890DF027410F0800590DF0273
:10365C00EAF090FC3CE0FDA3E0FE90FC18EDF0EEEF
:10366C00A3F090FC7EE4F0A3F075E1037D607EEAAC
:10367C0090DF3BE0FCBC1302802F1DBDFF011EED53
:10368C004E6026A290B3920290FC8EE0FCA202E463
:10369C00335204EC24FF9290C007C006C005122DD3
:1036AC00AFD005D006D00780C790FC8EE05401FC4B
:1036BC0024FF9290ED4E700690FC467413F090DF50
:1036CC003BE0FEBE131EA290B3920290FC8EE0FE75
:1036DC00A202E4335206EE24FF9290C007122DAFE3
:1036EC00D00780DAC29090DF02EFF075820122D20F
:1036FC00A875120075130075140290F81275F0007D
:10370C0012438990FC12E4F0A3F090FC14F0A3F0A7
:10371C0090FC16F090FC1704F090F811E4F0539B19
:10372C00FC53E9EF75E10290DF3BE0FFBF0DF8437E
:10373C0091102290FC8D7401F02290FC8DE4F0220B
:10374C00C021C0E0C0F0C082C083C007C006C00565
:10375C00C004C003C002C001C000C0D075D000902E
:10376C00FC457411F0C28990DF3BE0FFBF0D028075
:10377C000302389590FC8EE05401FF24FF92909048
:10378C00FC77E0602590FC78E0FEA3E0FFEE24FFE0
:10379C00FCEF34FFFD90FC78ECF0EDA3F074FF2F00
:1037AC00400890DF04E053E0FCF090FC1C7402F045
:1037BC0090F811E07E0025E0CEE42412FFEE34F800
:1037CC00FEE075F002A42412FC74FC35F0FD8C8232
:1037DC008D83E0FAA3E0FB74012AF8E43BF98C82B8
:1037EC008D83E8F0E9A3F0EA2FF582EB3EF583E553
:1037FC00D9F090F811E075F002A42412F58274FC53
:10380C0035F0F583E0FEA3E0FFC39402501A90F864
:10381C0011E075F002A42412F58274FC35F0F583E6
:10382C00E0FEA3E0FF4E701990F811E075F002A4D1
:10383C002412F58274FC35F0F58374FFF07401A347
:10384C00F090FC78E0FEA3E0FF4E6003023A449057
:10385C00FC77E07003023A4490FC7AE0FEA3E0FFB0
:10386C0090FC78EEF0EFA3F090FC78E0FEA3E07F04
:10387C000090DF02EEF090DF04E053E0FCF090DF0C
:10388C0004E043E002F0023A4490DF3BE0FFBF1358
:10389C00028003023A4490FC8AE070030239D5900E
:1038AC00FC2EE0FEA3E0FF0EBE00010F90FC2EEEFE
:1038BC00F0EFA3F090FC7EE0FEA3E0FF90FC82E032
:1038CC00FCA3E0FDEEB50406EFB50502800302395A
:1038DC00AD90FC80E0FEA3E04E603890FC80E0FEF2
:1038EC00A3E0FFBEFF05BF0002801590FC80E0FE48
:1038FC00A3E0FF1EBEFF011F90FC80EEF0EFA3F0D3
:10390C0090FC86E0FEA3E0FF90FC7EEEF0EFA3F0CF
:10391C000239AD90FC82E0F512A3E0F51390FC7C2B
:10392C00E0FF7E008F828E8312440FAE82AF8390B5
:10393C00FC18E0FCA3E0FDEE2CF582EF3DF583E4F2
:10394C00F090FC7CE02401FFF090FC7DE0FEEFB5F4
:10395C00060590FC7CE4F090FC82E0F512A3E0F507
:10396C001390FC7CE0FF7E008F828E8312440FAE9E
:10397C0082AF8390FC18E0FCA3E0FDEE2CFEEF3D43
:10398C00FF8E828F83E0701090FC21E4F090FC4657
:10399C007412F012323DC29090FC7E7401F0E4A3DC
:1039AC00F090FC88E0FEA3E0FFEE24FFFCEF34FF78
:1039BC00FD90FC88ECF0EDA3F0BEFF22BF001F9041
:1039CC00DF04E053E0FCF0801590FC88E0FEA3E0FF
:1039DC00FF1EBEFF011F90FC88EEF0EFA3F090FCE1
:1039EC001C7403F090FC82E0F512A3E0F51390FC3C
:1039FC007CE0FF7E008F828E8312440FAE82AF83F9
:103A0C0090FC7EE0FCA3E0FD90FC7E74012CF0E4C5
:103A1C003DA3F0EC2EFEED3FFF90FC18E0FCA3E084
:103A2C00FDEE2CF582EF3DF583E0F5D990FC1AE024
:103A3C002401F0A3E03400F0D0D0D000D001D002AB
:103A4C00D003D004D005D006D007D083D082D0F0DC
:103A5C00D0E0D02132C021C0E0C0F0C082C083C011
:103A6C0007C006C005C004C003C002C001C000C02E
:103A7C00D075D00075100090FC457410F0539BFC71
:103A8C00E5E9420BE5E930E01C90FC1DE0FDA3E00C
:103A9C008D067D00AB9C7C0090FC1FED4BF0EE4C3A
:103AAC00A3F053E9FEE5E954707003023C6E90FC00
:103ABC001CE0FEBE0306530B8F023C6B90F811E02A
:103ACC00B401009203E433FD7E002416F582EE343B
:103ADC00FCF583E0FEBE01028003023C2290FC8BCD
:103AEC00E020E103023BFA90DF04E0FE5306037D85
:103AFC0000BE0106BD000375100190FC8BE0FE5367
:103B0C0006017D00BE0176BD007390F811E07D00CA
:103B1C0025E0CDE42412FEED34F8FDAB107C00EB77
:103B2C002EFEEC3DFDE0F97A0029CAE42412F9EAF4
:103B3C0034F8FAEB29FBEC3AFCE075F002A4241201
:103B4C00F58274FC35F0F583E0F9A3E0FAA8107F58
:103B5C0000E9C398F9EA9FFA90FC8BE054F0FF90CF
:103B6C00FC61EBF0ECA3F090FC63E9F0EAA3F090BD
:103B7C00FC65EFF08E828D831240AE807190F8114F
:103B8C00E07E0025E0CEE42412FFEE34F8FEAC100B
:103B9C007D00EC2FFFED3EFEE07A0025E0CAE42428
:103BAC0012FBEA34F8FAEC2BFCED3AFDE075F0026E
:103BBC00A42412F58274FC35F0F583E0FAA3E0FB43
:103BCC00A8107900EAC398FAEB99FB90FC8BE054AF
:103BDC00F0F990FC68ECF0EDA3F090FC6AEAF0EBE5
:103BEC00A3F090FC6CE9F08F828E831240F790F872
:103BFC0011E063E001F090F811E075F002A42412DA
:103C0C00F58274FC35F0F583E4F0A3F090FC16F02B
:103C1C0090FC17F0804790FC467412F0A290B3927F
:103C2C000390FC8EE0FFA203E4335207EF24FF92D3
:103C3C009090F811E075F002A42412F58274FC3512
:103C4C00F0F583E4F0A3F0A290B3920390FC8EE025
:103C5C00FFA203E433FE5207EF24FF9290C290536D
:103C6C00E9CFE5E930E63790FC467410F0A290B34A
:103C7C00920390FC8EE0FFA203E4335207EF24FF83
:103C8C00929012323DA290B3920390FC8EE0FFA270
:103C9C0003E433FE5207EF24FF929053E9BFE5E9AA
:103CAC0030E73790FC467411F0A290B3920390FC6D
:103CBC008EE0FFA203E4335207EF24FF92901232FE
:103CCC003DA290B3920390FC8EE0FFA203E433FE7E
:103CDC005207EF24FF929053E97FD0D0D000D0014F
:103CEC00D002D003D004D005D006D007D083D08228
:103CFC00D0F0D0E0D02132AF83E58290FC43F0EFDE
:103D0C00A3F090FC41E0FEA3E0FF90FC43E0FCA399
:103D1C00E0FD90FC3FE0FAA3E0FB8A008B011ABAAD
:103D2C00FF011BE8496024EE2AF8EF3BF9E82CF878
:103D3C00E93DF9EA2CF582EB3DF583C006C007E0BE
:0C3D4C0088828983F0D007D00680CF2247
:1047D20000000000000001000000000000000000D6
:0747E20000000000000000D0
:103D5800AE82AF831EBEFF011FC3E49E74808FF046
:103D680063F08095F0500F7C4C7D041CBCFF011D56
:103D7800EC4D70F780DE22AE82AF83EE2EFEEF337D
:103D8800FF1EBEFF011FC3E49E74808FF063F080A6
:103D980095F040ED22AE82AF83D2909003E8C00741
:103DA800C006123D58C2909001F4123D58D006D07A
:103DB80007EE30E020900019C007C006123D58D227
:103DC80090900226123D58C290900019123D58D08A
:103DD80006D007801E900113C007C006123D58D2B6
:103DE80090900032123D58C290900113123D58D065
:103DF80006D007EFC313CE13CEFF80B5AFF0AE8366
:103E0800E58290FC4EF0EEA3F0EFA3F090FC4EE0BC
:103E1800FDA3E0FEA3E0FF90FC4BE0FAA3E0FBA3C8
:103E2800E0FCA812A913E849604DC000C0018D82CA
:103E38008E838FF012458BF98A828B838CF0124522
:103E48008BF8E9C398F98914D001D000600D851466
:103E580015751600851582851683220DBD00010E85
:103E680090FC4EEDF0EEA3F0EFA3F00ABA00010BC0
:103E780018B8FF011980AF9000002253BEFBE5BEC1
:103E880030E6FB53C6B8E5C620E6FB43BE04E5BEF4
:103E980030E6FB53C6C743E40C43E401D2B92243DE
:103EA800FE03C29022C0E0C082C083C0D090FC470D
:103EB800E02401F0A3E03400F0A3E03400F0A3E034
:0C3EC8003400F0D0D0D083D082D0E032A3
:0147E90001CE
:103ED400123190AF8290FC55EFF08F068EF005F012
:103EE4007401800225E0D5F0FB90FC56F0EF75F0EC
:103EF40008A424F9FE74F735F0FF90FC51EEF0EFBE
:103F0400A3F08E828F83A3A374DFF090FC51E0FEB4
:103F1400A3E0FF8E828F83A3A3A374B1F090FC511E
:103F2400E0FEA3E0FF8E828F83A3A3A3A3A3741058
:103F3400F090FC51E0FEA3E0FF74062EF582E43F0E
:103F4400F583E054E0441DF090FC51E0FEA3E0FF53
:103F540074072EF582E43FF583E0543F4440F0902B
:103F6400FC51E0FEA3E0FF74072EF582E43FF583E5
:103F7400E054FC4401F0123190AF8290FC57EFF012
:103F84008F068EF005F07401800225E0D5F0FB90D9
:103F9400FC58F0EF75F008A424F9FE74F735F0FF2F
:103FA40090FC53EEF0EFA3F08E828F8374DFF090D9
:103FB400FC53E0FEA3E0FF8E828F83A374B2F090E3
:103FC400FC53E0FEA3E0FF8E828F83A3A3A3A3A3ED
:103FD4007410F090FC53E0FEA3E0FF74062EF5820B
:103FE400E43FF583E054E0441EF090FC53E0FEA36C
:103FF400E0FF74072EF582E43FF583E054CF4410CC
:10400400F090FC53E0FEA3E0FF74072EF582E43F3A
:10401400F583E054FC4401F043A91043B91022AFE6
:1040240083E58290FC5BF0EFA3F0E5B330E3FB9013
:10403400FC51E0FEA3E0FF90FC5BE0FCA3E0FD8DFF
:10404400038B028E828F83EAF090FC51E0FEA3E0A2
:10405400FF8E828F83A3ECF090FC56E0FF42D600E3
:1040640090FC59E0FF90FC5AE04F4401F5B3E5B3EE
:1040740030E3FB22AF83E58290FC5FF0EFA3F09086
:10408400FC5FE0FEA3E0FF90FC5DE0FCA3E0FDEC40
:10409400540F6011EC2EF582ED3FF5830CBC00014A
:1040A4000DE4F080EA8C828D8322AF83E58290FC5C
:1040B40066F0EFA3F090FC66E0FEA3E0FF90FC61E5
:1040C400E0FCA3E0FD90FC63E0FAA3E0FB90FC6558
:1040D400E0F990FC6FECF0EDA3F090FC71EAF0EBEA
:1040E400A3F090FC73E4F090FC74E9F08E828F836B
:1040F400024141AF83E58290FC6DF0EFA3F090FCA8
:104104006DE0FEA3E0FF90FC68E0FCA3E0FD90FC02
:104114006AE0FAA3E0FB90FC6CE0F990FC6FECF031
:10412400EDA3F090FC71EAF0EBA3F090FC73740241
:10413400F090FC74E9F08E828F83024141AF83E5F5
:104144008290FC75F0EFA3F0E5B330E3FB90FC75CF
:10415400E0FEA3E0FF90FC6FE0F518A3E0F51990F2
:10416400FC74E0FB74505BF51790FC73E0F94B446E
:1041740001FB740149F51690FC71E0F512A3E0F51A
:1041840013E4F514F515C3E5149512E515951340DC
:104194000122C00390FC51E0F8A3E0FBE5142EF9E2
:1041A400E5153FFA8A058D0488828B83ECF090FC38
:1041B40051E0FCA3E0FD8C828D83A3E9F090FC53D5
:1041C400E0FCA3E0FD8C828D83A3A3E5142518FCF9
:1041D400E5153519FD8D038B02EAF090FC53E0FAE6
:1041E400A3E0FB8A828B83A3A3A3ECF090FC58E0AA
:1041F400FD90FC56E04D42D60000D003E517601751
:10420400E51224F0FCE51334FFFDECB51409EDB51B
:1042140015058516B380028BB3E5B330E3FB741048
:104224002514F514E43515F51502418A1242D3BC60
:10423400000302449AEF60FA30D502B2D1E583B4A8
:10424400FF030244B0E582B4FF030244B025834077
:10425400072482400B02449A24831450030244B07E
:10426400F582EA8DF0A4A8F0EA8EF0A428F8E435EB
:10427400F0F9EB8DF0A428E935F0F9E433CA8FF0B6
:10428400A429F9EA35F0FAEBF88EF0A429F9EA3515
:10429400F0FAE433FBEC8DF0A429F9EA35F0FAE402
:1042A4003BFBE88FF0A42AFAEB35F0FBE433CCFDBA
:1042B4008EF0A42AFAEB35F0FBE43CFCED8FF0A47D
:1042C4002BFBEC35F0FC20E703124356024479AA99
:1042D40082AB83A2F73392D1F5826002D2F7ACF0BD
:1042E400E58124F9F8E6FD08E6FE0886F008E6A272
:0D42F400F73392D5F5836002D2F7AFF022C8
:0600BA00E478FFF6D8FD1A
:10430100AD82AE83AFF08D178E188F1985121A8585
:10431100131B85141CA815A9168803890418B8FF56
:104321000119EB4C6025851A82851B83851CF012CF
:10433100458BFCA385821A85831B8D828E838FF02A
:10434100EC1243F4A3AD82AE8380CE85178285182B
:10435100838519F0227804EC7011E58224F8500A63
:10436100F582E4C9CACBFCD8EF22EC782005822083
:10437100E713D5820122C3E933F9EA33FAEB33FBC0
:10438100EC33FCD8EA158222AC82AD83AE13AF14B4
:10439100BE0004EF600C1F0FE5121243F4A3DEFA16
:0743A100DFF88C828D8322FE
:100098007918E94400601B7A019047D27877759304
:1000A800FCE493F2A308B800020593D9F4DAF275D8
:0200B80093FFB4
:1043A800FCABF0AA83A982749EC2D1F5821243564F
:1043B8000244797F9E1243E230D10302449AC3EF4C
:1043C8009582500974FFF5F0F583F5822279001281
:1043D80045A789828A838BF0EC22AA82AB83A2F755
:1043E8003392D1F5826002D2F7ACF02220F7113077
:1043F800F6138883A88220F509F6A883758300221E
:1044080080FEF280F5F022E5828512F0A4C582C014
:10441800F08513F0A4D0F025F0C5838512F0A4250B
:1044280083F58322E512451360467A01E51225E0FB
:10443800F512E513334012F513E5829512E58395DD
:104448001340030A80E6C3E51313F513E51213F5C9
:1044580012C3E5829512F5F0E58395134005F583BF
:1044680085F082C3E51313F513E51213F512DAE1AB
:014478002221
:1000C0007800E84400600A79007593F0E4F309D8F9
:1000D000FC7877E8440C600C790D90F000E4F0A314
:0400E000D8FCD9FA75
:02008900E4731E
:10447900B98003EA13B34010EA2401FAE43BFBE4F0
:104489003CFC50047C800582BC000EBB000BBA00CA
:1044990008E4F5F0F583F58222A2D1E582138CF0C8
:1044A90092F78B838A8222E4F583F58275F080F492
:1044B900A2D11322E4F583F58275F0C0747F22122C
:1044C90042D330D502B2D1BF0009BC00030244BDBA
:1044D9000244B0BC000302449AE583B4FF0BE582B1
:1044E900B4FF030244BD02449AE582B4FF030244C7
:1044F900B0C395835007247F400B02449A2480144B
:1045090050030244B0F582C3ED9AEE9BEF9C401133
:104519001582C3EA33F9EB33FAEC33FBE433FC805D
:1045290005E4CCCBCAF9C08275F019C3E99DEA9EAE
:10453900EB9FEC9400D5F002802D400EE99DF9EA3D
:104549009EFAEB9FFBEC9400FCC3B3E833F8E582D9
:1045590033F582E58333F583C3E933F9EA33FAEBBB
:1045690033FBEC33FC80C4B3E4F938FAE43582FB5D
:10457900E43583FCD082500405827C8012435602C4
:0245890044915B
:0D008B0075814E1245EAE582600302008691
:10458B0020F71430F6148883A88220F507E6A88359
:10459B0075830022E280F7E49322E0226040F82545
:1045AB0082500274FFF582E824F8501ECCCBCAF976
:1045BB00E4CC24F85014CBCAF9E4CB24F8500BCA42
:1045CB00F9E4CA24F8500379002224086010F8C3D8
:1045DB00EC13FCEB13FBEA13FAE913F9D8F1227590
:0345EB0082002229
:00000001FF
