:0614000002148B024B46B2
:01140B0032AE
:0114130032A6
:01141B00329E
:011423003296
:01142B00328E
:031433000243323F
:01143B00327E
:011443003276
:03144B000252A7A3
:03145300021A98E2
:03145B00021D6F00
:011463003256
:03146B000243B683
:011473003246
:01147B00323E
:03148300024E5BBB
:0314E70002148666
:03148600022DC074
:1014EA00AF83E58290F554F0EFA3F075E10490DF45
:1014FA003BE0FFBF01F890F554E0FEA3E0FF90DF68
:10150A0006EEF075E10290DF3BE0FFBF0DF8227EA8
:10151A00007F0090FC28E0FCA3E0FD8E028F03C34D
:10152A00EA9CEB9D5038EE2400FCEF34F0FD90FC71
:10153A0026E0F512A3E0F5138A828B83C007C00662
:10154A00C005C004125826AA82D004D005D006D0FD
:10155A00078C828D83EAF00EBE00B80F80B522E5B3
:10156A008290F556F0E0FFE59CC39FF59CE59C242C
:10157A00FAF59C439E10D2BA22539EEF22AF83E51E
:10158A008290F55AF0EFA3F090FC21E06013905995
:10159A00E81244BF90FC21E0F5821245017582EF02
:1015AA002290FC217406F090DF3BE0FFBF1302801B
:1015BA00F6C29190F557E0FEA3E0FF90FC88EEF0AA
:1015CA00EFA3F090FC8274F1F0E4A3F090FC18749D
:1015DA0072F074F3A3F090FC80E4F0A3F090FC3373
:1015EA00F090FC7CF090FC32F090FC7E04F0E4A3D6
:1015FA00F090FC7D7402F090F55CE4F0900000122B
:10160A00172E90F55AE0FEA3E0FF90F559E0FD7B16
:10161A00007C008D017A00C3EB99EC9A50548B023E
:10162A00EA75F0F0A42EF9E43FFA90F55C74F0F054
:10163A0089828A83C007C006C005C004C003121786
:10164A002EAA82D003D004D005D006D007EA601BA8
:10165A00905A3AC0021244BFD00290FC21E4F08AA8
:10166A0082C002124501D0028A82220BBB00A40C5E
:10167A0080A190FC8BE030E33390FC88E0FEA3E08D
:10168A00FFEE540F602690FC88E0FEA3E053060F9D
:10169A007F007410C39EFEE49FFF90FC88E0FCA3C9
:1016AA00E0FD90FC88EE2CF0EF3DA3F090FC88E082
:1016BA00FEA3E0FFC374FF9EE49F502690FC88E0DF
:1016CA00FEA3E07F0090DF02EEF090DF04E053E03B
:1016DA00FCF090DF04E043E002F090FC8A7401F031
:1016EA00801290FC88E0FEA3E0FF90DF02EEF0900B
:1016FA00FC8AE4F075E1037E607FEA90DF3BE0FD5F
:10170A00BD130280091EBEFF011FEE4F70EDD2917C
:10171A00EE4F700C90FC467413F0905A521244BF6C
:10172A0075820022AF83E58290F55DF0EFA3F09019
:10173A00F55CE0FF240F500A905A631244BF758289
:10174A00FF22EF703E90FC32E4F090FC32E0FE9013
:10175A00FC7DE0FDC3EE9D502190FC32E075F0F176
:10176A00A42472F58274F335F0F583E4F090FC3228
:10177A00E0FE0E90FC32EEF080D090FC32E4F07580
:10178A0082002290FC21E0FE601DBE061E90FC3203
:10179A00E0601890DF3BE0FEBE1302800E90FC2151
:1017AA007407F07582ED227582ED2290FC32E075A5
:1017BA00F0F1A42472FD74F335F0FE8D828E83E07D
:1017CA00600A90FC467418F07582FE228D828E8320
:1017DA0074FFF090FC32E075F0F1A42472FD74F30A
:1017EA0035F0FE0DBD00010E7C0090F55DE0FAA318
:1017FA00E0FB8A128B138C148F037F008B158F16D4
:10180A008D828E838CF0C007C0031256FBD003D0A2
:10181A000790FC8BE020E3030218D890FC32E075B5
:10182A00F0F1A42472FD74F335F0FE0DBD00010E33
:10183A0090FC5DEBF0EFA3F08D828E83125472AEB2
:10184A008290F55CEEF090FC8BE0FF5307047D007C
:10185A00BF0441BD003E90FC32E075F0F1A4247251
:10186A00FD74F335F0FF0DBD00010F8E037C00906F
:10187A00FC8BE054F0FA90FC61EDF0EFA3F090FCE1
:10188A0063EBF0ECA3F090FC65EAF08D828F831293
:10189A0054A8803A90FC32E075F0F1A42472FD74E9
:1018AA00F335F0FF0DBD00010F7C0090FC8BE05476
:1018BA00F0FB90FC68EDF0EFA3F090FC6AEEF0EC20
:1018CA00A3F090FC6CEBF08D828F831254F190FCA4
:1018DA0032E075F0F1A42472FE74F335F0FF90F54E
:1018EA005CE08E828F83F090FC32E0FF0F90FC3236
:1018FA00EFF090FC7DE0FEEFB5060590FC32E4F0D7
:10190A0075820022AF83E58290F55FF0EFA3F09035
:10191A00FC21E0FF6014BF0102800F905A7D12443F
:10192A00BF90FC21E0F58212450112158390FC2A32
:10193A00E4F0A3F090FC2AE0FEA3E0FF8E828F83FE
:10194A00121A1890DF3BE0FFBF0DF890DF3AE0FF74
:10195A0053077F7E00C3EF9460EE64809480402733
:10196A0090FC2AE0FEA3E0FF0EBE00010F90FC2AC5
:10197A00EEF0EFA3F0D29190000A125152C2919068
:10198A00000A12515280AD90FC217402F090FC477B
:10199A00E0FCA3E0FDA3E0A3E090FC2CECF0EDA3B7
:1019AA00F090F55FE0FEA3E0FF90FC30EEF0EFA3CD
:1019BA00F02290FC21E4F090FC47E0FCA3E0FDA3B8
:1019CA00E0A3E090FC2CECF0EDA3F02290FC217453
:1019DA0004F090FC47E0FCA3E0FDA3E0A3E090FC48
:1019EA002CECF0EDA3F02290FC217405F090FC346D
:1019FA00E4F0A3F090FC47E0FCA3E0FDA3E0A3E041
:101A0A0090FC2CECF0EDA3F0758200021569AF830F
:101A1A00E58290F561F0EFA3F090F561E0FEA3E0B6
:101A2A00FFEE2400F582EF34F0F583E0FF7E008FAD
:101A3A00828E830214EAAF83E58290F563F0EFA306
:101A4A00F090F563E0FEA3E0FF90F370EEF0EFA3F1
:101A5A00F0222290FC2AE0FEA3E0FF0EBE00010F56
:101A6A0090FC2AEEF0EFA3F0C3EE9470EF940340DB
:101A7A000790FC2AE4F0A3F090FC2AE0FEA3E0FF22
:101A8A00EE2400F582EF34F0F583E0F58222C021DE
:101A9A00C0E0C0F0C082C083C007C006C005C00451
:101AAA00C003C002C001C000C0D075D00090FC1DA8
:101ABA00E02401FEA3E03400FF90FC1DEEF0EFA34A
:101ACA00F090FC22E0FCA3E0FDEEB5040BEFB505B7
:101ADA000790FC1DE4F0A3F090FC1DE0FEA3E0FFDC
:101AEA00BE0005BF0002800BBE0105BF0002806870
:101AFA00021C5690FC1DE0FEA3E08E077E00AC9C03
:101B0A007D00EC4206ED420790FC2EEEF0EFA3F0CA
:101B1A0090FC2AE0FEA3E0FF0EBE00010F90FC2A13
:101B2A00EEF0EFA3F090FC28E0FCA3E0FDC3EE9CEE
:101B3A00EF9D400790FC2AE4F0A3F090DF3BE0FF22
:101B4A00BF1303021D5290FC2AE0FEA3E0FF8E821F
:101B5A008F83121A18021D5290FC21E0FFBF050262
:101B6A008003021D5290001912515290F567741C9D
:101B7A00F090FC2AE090F568F090FC2AE0A3E0904F
:101B8A00F569F090F56A7442F090F56B744CF09038
:101B9A00F56C7441F090F56D7448F090F56E7442EE
:101BAA00F090F56F744CF090F5707441F090F57107
:101BBA007448F090F5727442F090F573744CF0909A
:101BCA00F5747441F090F5757448F090F5767442A6
:101BDA00F090F577744CF090F5787441F090F579BF
:101BEA007448F090F57A7442F090F57B744CF0905A
:101BFA00F57C7441F090F57D7448F090F57E74425E
:101C0A00F090F57F744CF090F5807441F090F58176
:101C1A007448F090F5827420F090FC36741CF0E45D
:101C2A00A3F090FC38F0A3F090FC3AF0A3F090F502
:101C3A006812476190FC34E0FEA3E0FF0EBE00018B
:101C4A000F90FC34EEF0EFA3F0021D5290FC21E05D
:101C5A00FFBF03028065BF04028008BF050280033C
:101C6A00021D5290FC2CE0FEA3E0FF90FC47E0FA34
:101C7A00A3E0FBA3E0FCA3E0FD8E008F01E4FEFFDE
:101C8A00EAC398FAEB99FBEC9EFCED9FFDC37464E2
:101C9A009AE49BE49CE49D5022905AAB1244BF9074
:101CAA00FC217405F090FC47E0FCA3E0FDA3E0FEF4
:101CBA00A3E0FF90FC2CECF0EDA3F090FC33E07570
:101CCA00F0F1A42472FE74F335F0FF8E828F83E064
:101CDA00607690001912515290FC33E075F0F1A42D
:101CEA002472FE74F335F0FF90DF04E05401B4016E
:101CFA00009200E4332EFDE43FFC8E828F83E09055
:101D0A00FC36F0E4A3F090FC38F0A3F090FC3AF033
:101D1A00A3F08D828C8312476190FC33E075F0F159
:101D2A00A42472F58274F335F0F583E4F090FC3361
:101D3A00E0FF0F90FC33EFF0BF0200400590FC3348
:101D4A00E4F0905AC91244BFD0D0D000D001D002DA
:101D5A00D003D004D005D006D007D083D082D0F0EB
:101D6A00D0E0D021323290FC21E4F090FC32F090A5
:101D7A00FC33F090FC2AF0A3F090FC267453F0E4B4
:101D8A00A3F090FC287453F0E4A3F090FC2EF0A387
:101D9A00F090FC2CF0A3F090FC227406F0E4A3F07F
:101DAA0090FC24F0A3F090FC30F0A3F090FC34F007
:101DBA00A3F012151990FC21E4F0759DDC859E9E16
:101DCA00439E0443CB1022021D709021E21232F688
:101DDA0090FC47E4F0A3F0A3F0A3F0121DD190F514
:101DEA0083E4F090F5847412F074F8A3F02290FC66
:101DFA0021E0FFBF000302211DBF0103021FF3BF41
:101E0A000203021EF9BF030302211DBF04030221BC
:101E1A001DBF05030220FEBF060122BF4002800645
:101E2A00BF410280412275E10490DF3BE0FFBF0120
:101E3A00F890DF0374E5F090DF047404F090DF0794
:101E4A007412F090DF08E4F090DF147410F090DF61
:101E5A0017E043E0C0F090FC217441F090F58474DF
:101E6A0012F074F8A3F090F583E4F090FC34E0FEED
:101E7A00A3E0FF90F583E0FDFB7C00C3EB9EEC9FA3
:101E8A00504590DF06EDF075E10490DF3BE0FFBFBF
:101E9A0001F875E10290DF3BE0FFBF0DF890000208
:101EAA0012515290F584E0FEA3E0FF90F583E02EF4
:101EBA00FEE43FFF90DF3AE0FD8E828F83F090F5DB
:101ECA0083E02401F080A475E10490DF3BE0FFBFCA
:101EDA0001F890FC34E0FF8F3375340090F584E00C
:101EEA00F535A3E0F536753201758243022DF2E528
:101EFA000B7003021FE190FC45740DF0539AFEE546
:101F0A000B20E403021FE190FC217403F090FC1FF4
:101F1A00E0FEA3E08E82121569905AD71244BF9050
:101F2A00FC1FE0FEA3E0FF8E828F8312451C90F80F
:101F3A0011E07E0025E0CEE42412FFEE34F8FE8F95
:101F4A00828E831244BF90F811E0B401009201E43A
:101F5A0033FF90F583F0EF2416FDE434FCFE8D8206
:101F6A008E83E0706F90DF04E030E0348F057E00EE
:101F7A00ED2DCEE4FD2412F582EE34F8F583E0FC73
:101F8A008C33EDF5342412FDEE34F8FE74012DF590
:101F9A0035E43EF536753201758242122DF2802300
:101FAA0090DF02E0FE8E33E4F534FEEF2FCEE42418
:101FBA0012FFEE34F8FE8F358E3675320175824285
:101FCA00122DF290F583E0FF2416F582E434FCF535
:101FDA00837401F0530BEFD20110AF02C201750BEB
:101FEA0000A20192AF439A0122E50B70030220EC92
:101FFA0090FC45740DF0539AFEE50B20E403022091
:10200A00EC90F811E0B40100920190F583E433F00A
:10201A00905AEC1244BF90F583E07E0025E0CEE4AE
:10202A002412FFEE34F8FE8F828E8312451C90F53F
:10203A0083E07E0025E0CEE42412FFEE34F8FE8F22
:10204A00828E831244BF90F811E0B401009201E439
:10205A0033FF90F583F0EF2416FDE434FCFE8D8205
:10206A008E83E0706F90DF04E030E0348F057E00ED
:10207A00ED2DCEE4FD2412F582EE34F8F583E0FC72
:10208A008C33EDF5342412FDEE34F8FE74012DF58F
:10209A0035E43EF536753201758242122DF28023FF
:1020AA0090DF02E0FE8E33E4F534FEEF2FCEE42417
:1020BA0012FFEE34F8FE8F358E3675320175824284
:1020CA00122DF290F583E0FF2416F582E434FCF534
:1020DA00837401F0D20110AF02C201530BEFA201C7
:1020EA0092AFD20110AF02C201750B00A20192AFEA
:1020FA00439A012290FC34E0FEA3E0FF90FC28E022
:10210A00FCA3E0FDC3EE9CEF9D50012290FC2174DC
:10211A0004F022E50B70012290FC45740DF0E50BEA
:10212A00543070012290F811E0B401009201E433B6
:10213A00FF90F583F0EF2416FDE434FCFE8D828EC9
:10214A0083E060030221D390DF04E030E0348F059E
:10215A007E00ED2DCEE4FD2412F582EE34F8F583EF
:10216A00E0FC8C33EDF5342412FDEE34F8FE7401F4
:10217A002DF535E43EF536753201758242122DF29F
:10218A00803690FC77E0600A90FC7AE0FDA3E0FEDE
:10219A00800890DF02E0FCFD7E007C00EF2FCCE49B
:1021AA002412FFEC34F8FC8F358C367532018D33EE
:1021BA008E34758242122DF290F583E0FF2416F5D3
:1021CA0082E434FCF5837401F0D20110AF02C2013B
:1021DA00530BCFA20192AF2290F7C3E0FDA3E0FE1A
:1021EA00A3E0FF90F7C8E0FCBC42028003022B4F39
:1021FA0090F7C9E0FC24BE5003022B41EC240A8369
:10220A00F582EC244683F583E4734141E81F419B40
:10221A00486679B1E90C4FED41419F1C43B6DBEEAC
:10222A005AD50541414141414141AD2F7D73964106
:10223A004141414141414141414141414141414184
:10224A004141414141414141414198D22B2B2225F3
:10225A002B2324242424242525252B2B282929290A
:10226A0029292A27292B2B2B2B2B2B2B2A2B2A29C3
:10227A00292B2B2B2B2B2B2B2B2B2B2B2B2B2B2BA6
:10228A002B2B2B2B2B2B2B2B2B2B2B2B2222C00735
:10229A00C006C005121583D005D006D00790FC21D0
:1022AA007440F08D828E838FF0125985FC7B0090EA
:1022BA00FC34ECF0EBA3F090F7E9EDF0EEA3F07547
:1022CA00820112417E022B4F90FC21E4F090F7E943
:1022DA00EDF0EEA3F075820112417E022B4F90FCC5
:1022EA0021E06009905B061244BF022B4F8D828E5B
:1022FA00838FF0125985FC7B0090F586ECF0EBA3F6
:10230A00F08D828E83A3E0FAE4F92CFCEA3BFB9081
:10231A00F586ECF0EBA3F08D828E83A3A3A3A3E052
:10232A00FA8A0889098D828E83A3A3A3A3A3E0FA5C
:10233A00E42508F508EA3509F50990FC1AE4F0A342
:10234A00F074062DF9E43EFA90FC36ECF0EBA3F0BB
:10235A0090FC38E4F0A3F090FC3AE508F0E509A314
:10236A00F089828A83C007C006C005124761AC8221
:10237A00D005D006D0078D828E838FF0EC1257EEEF
:10238A0090F7E9EDF0EEA3F075820112417E022B7F
:10239A004F8D828E838FF012598590FC7AF0E4A3D8
:1023AA00F08D828E83A3E0FB7C0090FC7AE0F9A397
:1023BA00E0FA90FC7AEC29F0EB3AA3F090FC7AE090
:1023CA00FBA3E04B604590FC777401F090FC78E049
:1023DA00FBA3E0FC4B70481246A890FC7AE0FBA3F2
:1023EA00E0FC90FC78EBF0ECA3F090FC78E0FBA327
:1023FA00E090DF02EBF090DF04E053E0FCF090DFC6
:10240A0004E043E002F012465C801490FC77E4F0AA
:10241A0090FC78F0A3F090FC7AF0A3F01246A89012
:10242A00F7C8E0FC90F7C9E0F53275357A7536FCE5
:10243A007533017534008C82122DF2022B4F8D8276
:10244A008E838FF012598590FC8BF090F7E9EDF0AE
:10245A00EEA3F075820112417E022B4F90F7E974C8
:10246A008BF074FCA3F075820112417E022B4F900F
:10247A00FC8BE054F0FC90FC597406F090FC5AEC8A
:10248A00F08D828E838FF0C007C006C00512541DDE
:10249A00D005D006D00790F7E9EDF0EEA3F07582EB
:1024AA001012417E022B4F90FC8BE054F0FC90FC02
:1024BA00597404F090FC5AECF08D828E838FF0C030
:1024CA0007C006C00512541DD005D006D00790F7E4
:1024DA00E9EDF0EEA3F075821012417E022B4F8DCA
:1024EA00828E838FF012598590FC8CF0E053E001C4
:1024FA00F090F7E9EDF0EEA3F075820112417E0249
:10250A002B4F90F7E9748CF074FCA3F075820112DA
:10251A00417E022B4F8D828E838FF0125985FC7B70
:10252A00008C828B83C007C006C005121A40D005F2
:10253A00D006D00790F7E9EDF0EEA3F0758201120C
:10254A00417E022B4F90FC21E0601C8D828E838F8E
:10255A00F074EF1257EE90F7E9EDF0EEA3F0758202
:10256A000112417E022B4F8D828E838FF012598584
:10257A00FC7B0090F586ECF0EBA3F08D828E83A3B2
:10258A00E0FAE42CFCEA3BFB90F586ECF0EBA3F0D6
:10259A008D828E83A3A3E0FA90FC1AE4F0A3F07470
:1025AA00032DF8E43EF990F557ECF0EBA3F090F523
:1025BA0059EAF088828983C007C006C005121587C8
:1025CA00AC82D005D006D0078D828E838FF0EC12B4
:1025DA0057EE90F7E9EDF0EEA3F075820112417E15
:1025EA00022B4F8D828E838FF0125985FB7C0090CF
:1025FA00F586EBF0ECA3F0EB4C60030226E690FCC8
:10260A0088E0F9A3E0FA49601C90DF3BE0FABA13CC
:10261A0014900028C007C006C005125152D005D038
:10262A0006D00780D990FC88E0F9A3E049606B9056
:10263A005B2BC007C006C0051244BF90FC88E0F9B6
:10264A00A3E0FA89828A8312451C90F372E0F5822C
:10265A0012450190F463E0F582124501D005D006D7
:10266A00D00790FC467412F08D828E838FF074EC42
:10267A001257EEC291C007C006C005124637D005F0
:10268A00D006D00790FC21E4F090F7E9EDF0EEA334
:10269A00F075820112417E022B4FC29190FC21E417
:1026AA00F08D828E838FF01257EE905B3FC007C089
:1026BA0006C0051244BF90FC1AE0F9A3E0FA898229
:1026CA008A8312451CD005D006D00790F7E9EDF0B1
:1026DA00EEA3F075820112417E022B4F90FC21E09D
:1026EA00FABA06028061905B4FC007C006C00512A5
:1026FA0044BFD005D006D00790FC46E0FABA121BB8
:10270A008D828E838FF074EC1257EE90F7E9EDF01C
:10271A00EEA3F075820112417E801F90FC46741769
:10272A00F08D828E838FF074EF1257EE90F7E9EDF9
:10273A00F0EEA3F075820112417EC29112463790E3
:10274A00FC21E4F0022B4F74012DF9E43EFA90F5D6
:10275A005CEBF089828A83C007C006C00512172E77
:10276A00AC82D005D006D0078D828E838FF0EC1212
:10277A0057EE8D828E838FF0125985FBEC603BBB3E
:10278A00FE028036905B58C007C006C0051244BFDF
:10279A00D005D006D0078D828E838FF0125985F529
:1027AA0082C007C006C005124501C291124637D041
:1027BA0005D006D00790FC21E4F090F7E9EDF0EEA1
:1027CA00A3F075820112417E022B4F8D828E838F78
:1027DA00F0125985FB7C0090F586EBF0ECA3F0C370
:1027EA0074F09BE49C5019905A631244BF90F7E925
:1027FA007486F074F5A3F075820112417E022B4FA4
:10280A0090FC32E075F0F1A42472F974F335F0FA11
:10281A0089828A83E06019905B651244BF90F7E968
:10282A007486F074F5A3F075820112417E022B4F73
:10283A0089828A83EBF090FC32E075F0F1A424726D
:10284A00FB74F335F0FC0BBB00010C7A0074012D0C
:10285A00F8E43EF9881289138A1490F586E0F51592
:10286A00A3E0F5168B828C838AF01256FB90FC3219
:10287A00E0FC0C90FC32ECF0BC0200400590FC320B
:10288A00E4F090F7E97486F074F5A3F0758201120A
:10289A00417E022B4F8D828E838FF0125985FC7BED
:1028AA000090FC26ECF0EBA3F090FC26E0F9A3E004
:1028BA00FAC374709C74039B402E74022DFBE43E91
:1028CA00FC8B128C1375140089158A1690F000750A
:1028DA00F0001256FB90F7E97426F074FCA3F07529
:1028EA00820212417E022B4F90F7E97486F0745BE4
:1028FA00A3F075820812417E022B4F90FC26E0FC61
:10290A0090F7E97400F074F0A3F08C8212417E0211
:10291A002B4F121A5D7B008B83121A1890FC2AE047
:10292A00FBA3E0FC90F7E9EB2400F0EC34F0A3F011
:10293A0075820112417E022B4F8D828E838FF01297
:10294A005985FC7B008C828B83C007C006C00512A8
:10295A0014EAD005D006D00790F7E9EDF0EEA3F01F
:10296A0075820112417E022B4F758200C007C00694
:10297A00C005121569D005D006D00790F7E9EDF029
:10298A00EEA3F075820112417E022B4FC007C006EA
:10299A00C005121583D005D006D00790F7E9EDF0EF
:1029AA00EEA3F075820112417E022B4F8D828E8337
:1029BA008FF0125985FC7B0090FC22ECF0EBA3F01F
:1029CA0090F7E9EDF0EEA3F075820112417E022B39
:1029DA004F90F7E97422F074FCA3F0758204124157
:1029EA007E022B4F8D828E838FF0C007C006C005F2
:1029FA0012447ED005D006D0078D828E838FF012C6
:102A0A005985F582C007C006C005124501D005D018
:102A1A0006D0078D828E838FF0125985FC7B008C3D
:102A2A00128B138B147515158B1690FC2175F000FB
:102A3A00C007C006C0051256FBD005D006D00790C5
:102A4A00F7E9EDF0EEA3F075821512417E022B4FE5
:102A5A0090FC1DE0FBA3E0FC90FC24EBF0ECA3F05F
:102A6A0090F7E97421F074FCA3F075821512417E87
:102A7A00022B4F8D828E838FF0125985FC7B008C3E
:102A8A00828B83C007C006C00512190ED005D00676
:102A9A00D00790F7E9EDF0EEA3F075820112417EBE
:102AAA00022B4F90FC47E0F9A3E0FAA3E0A3E090E1
:102ABA00FC2CE9F0EAA3F08D828E838FF0125985FF
:102ACA00FC90FC21F090FC21E0FBEC24FA4046EB60
:102ADA002B902ADF73800A80088006802680248053
:102AEA0011C007C006C005121583D005D006D0074D
:102AFA008023C007C006C0051219F1D005D006D040
:102B0A00078012758200C007C006C005121569D079
:102B1A0005D006D00790F7E9EDF0EEA3F075820133
:102B2A0012417E802090F7E97421F074FCA3F075BD
:102B3A00820112417E800E90F7E9EDF0EEA3F07566
:102B4A00820112417E900000222290F7D1E0FFBF5D
:102B5A00013990F7B1E0FEA3E0FF90F7D4E0FCA3BF
:102B6A00E0FD90F7B4E0FAA3E0FBEA4B601D8E8229
:102B7A008F83E0F9A3AE82AF838C828D83E9F0A3C1
:102B8A00AC82AD831ABAFF011B80DF90F7BAE0541A
:102B9A00FDF090DE11E043E008F022AE82AF83E060
:102BAA00FD20E703022C9E8E828F83A3E0FD601D29
:102BBA00BD0102802ABD0202803BBD0302805ABDCC
:102BCA0004028076BDFE03022C60022C9E75370239
:102BDA0075380090FC4575F00012309D022C9E90CD
:102BEA00DE00E0FD7C007539288C3A8D828C8312D8
:102BFA003111022C9E8E828F83A3A3E0FCA3E0FDF9
:102C0A0074062EF582E43FF583E0F539A3E0F53A40
:102C1A008C828D83123111807B8E048F057B007428
:102C2A00062EF582E43FF583E0F537A3E0F5388C0C
:102C3A00828D838BF012309D805A90F7B1E0FBA30E
:102C4A00E0FCA3E0FD753910753A008B828C838D08
:102C5A00F0123111803E74022EFEE43FFF7D0075B2
:102C6A004B8E754C5B754D807512048D138E828F59
:102C7A00838DF01251FEE5828583F045F06012D211
:102C8A009190012C125152C29190012C12515280F2
:102C9A000375C9839000002290DF2FE4F090DF30A3
:102CAA00F090DF31F090DF00740CF090DF01744E89
:102CBA00F090DF0274FFF090DF037440F090DF04BD
:102CCA00E4F090DF05F090DF06F090DF077406F07D
:102CDA0090DF08E4F090DF097424F090DF0A743A78
:102CEA00F090DF0B74F1F090DF0C74CAF090DF0DF6
:102CFA0074A3F090DF0E7401F090DF0F7423F0904C
:102D0A00DF107411F090DF117436F090DF1274073F
:102D1A00F090DF13740FF090DF147418F090DF1541
:102D2A0014F090DF16746CF090DF177403F090DFE4
:102D3A00187440F090DF197491F090DF1A7456F00D
:102D4A0090DF1B7410F090DF1C74E9F090DF1D74A3
:102D5A002AF090DF1EE4F090DF1F741FF090DF234B
:102D6A007488F090DF247431F090DF257409F090B4
:102D7A00DF2E74C0F090DF07C4F090DF097425F0ED
:102D8A0090DF0A7495F090DF0B7455F090DF1A7497
:102D9A00B6F090DF1B7410F090DF1C74EAF090DF3D
:102DAA001D742AF090DF1EE4F090DF1F741FF022DA
:102DBA0012527D0252A1122DBA1245661252CE1239
:102DCA0030671246D4121DD4123097D2AF122F4454
:102DDA00D291900002125152C29190000A1251529D
:082DEA001241AF121DF880F840
:1059E80043616E6E6F742063616C6C207472616EBB
:1059F800736D69745F6C6F6E67207768696C65207A
:105A08004648535320486F7070696E67206F722044
:105A1800616C72656164792070726F636573736914
:105A28006E67207472616E736D69745F6C6F6E67F8
:105A380021004D41435F747828292072657475727E
:105A48006E6564206572726F72006E65766572208D
:105A5800656E7465726564205458004648535378DF
:105A68006D6974206D65737361676520746F6F204D
:105A78006C6F6E67004648535320737461746520D9
:105A8800656E746572696E672053594E4348494E76
:105A9800472066726F6D2077726F6E67207374612E
:105AA80074650053594E43485F4D41535445522045
:105AB8002D3E2053594E43494E474D41535445526C
:105AC8000046485353786D697420646F6E65006EA4
:105AD8006574776F726B207061636B657428737976
:105AE8006E6329006E6574776F726B207061636BEB
:105AF800657428646973636F7665727929006372C7
:105B080061702C20706C6561736520757365204623
:105B1800485353786D6974282920696E73746561D8
:105B280064210064726F706F75742066696E616CB1
:105B380020776169742100746F74616C20627974D4
:105B480065732074783A00756E64657272756E00BC
:105B5800627566666572206572726F720073746929
:105B68006C6C2077616974696E67206F6E20746849
:105B780065206C617374207061636B6574004E4FAF
:0B5B8800204445414C005253544E0095
:102DF200AF827E017D0090DE0E7405F090FC45747A
:102E020012F0EE7006ED7003022F3A7B107C2790D1
:102E1200DE11E030E00D90FC467401F01BBBFF01B7
:102E22001C80ECEB4C7014D2919003E8125152C208
:102E3200919003E812515290FFFF22BE012E7E00B4
:102E420090DE2A7440F0EFF0E532F0E533F0E5343D
:102E5200F0C3E533943BE534940040087B3B7C00AF
:102E62007D018021AB33AC347D008019C3E53394FE
:102E720040E534940040087B407C007D018006AB35
:102E820033AC347D00AA2974802A42D685268285F5
:102E92002783AA368A01E9F0852682852783A3E55E
:102EA20035F0852682852783A3A374DEF0852682EA
:102EB200852783A3A3A3742AF0852682852783A36B
:102EC200A3A3A3A3EBF0852682852783A3A3A3A3B1
:102ED200E054E0F0852682852783A3A3A3A3A3A3BE
:102EE200A3E0543F4440F0852682852783A3A3A311
:102EF200A3A3A3A3E054CFF0E52942D6E52942D704
:102F0200E52955D160FAE529F4FA52D190DE0E7422
:102F120005F090DE11E043E001F0E533C39BF533A9
:102F2200E5349CF534EB2535F535EC3536F5369040
:102F3200FC457413F0022E0490FC457414F09000CA
:102F42000022E52270051241AF80F72253BE7F00B6
:102F520043BE8090DE0B74F7F090DE0774FFF090B2
:102F6200DE09F0438C10538CFED2BD439A02758960
:102F720000C2C5758B00C2E843A90243B902852687
:102F820082852783A3A3A3A3E054E0F0852682854C
:102F92002783A3A3A3A3A3A3E0549F4420F08526E1
:102FA20082852783A3A3A3A3A3A3A3E04408F08558
:102FB2002682852783A3A3A3A3A3A3A3E054FC444F
:102FC20001F090DE01E053E0FEF0E4F525F523F593
:102FD20024F52290DE0EF090DE107404F090DE13E1
:102FE200F090F7BBE4F090F7BAF090F7AFF0A3F0EF
:102FF20090F7B17488F074F5A3F0E4A3F090F7B4FD
:10300200F0A3F090F7B6F090F7B7F090F7B8F0A30E
:10301200F090DE0E7405F090DE107408F090DE136E
:10302200F090DE12E043E001F090DE15E043E001B3
:10303200F090F7CDE4F090F7CCF090F7C1F0A3F068
:1030420090F7C374A8F074F5A3F0E4A3F090F7C668
:10305200F0A3F090F7C8F090F7C9F090F7CAF0A388
:10306200F0439A022212458A858228AF288FF00502
:10307200F07401800225E0D5F0FBF529E52875F012
:1030820008A424F9F52674F735F0F52790FC457469
:1030920002F0022F4ED29022C29022AFF0AE83E510
:1030A2008290F7D6F0EEA3F0EFA3F090F7BBE060CA
:1030B20034D2919003E8125152C2919003E8125116
:1030C20052D2919003E8125152C2919003E81251E8
:1030D20052D2919003E8125152C2919003E81251D8
:1030E2005290FFFF2290F7D6E0FDA3E0FEA3E0FF9F
:1030F20090F7ACEDF0EEA3F0EFA3F090F7AFE53769
:10310200F0E538A3F090F7BB7401F090000022AF15
:1031120083E58290F7D9F0EFA3F090F7BBE060343B
:10312200D2919003E8125152C2919003E812515287
:10313200D2919003E8125152C2919003E812515277
:10314200D2919003E8125152C2919003E812515267
:1031520090FFFF2290F7D9E0FEA3E0FF7D0090F7F9
:10316200ACEEF0EFA3F0EDA3F090F7AFE539F0E5A8
:103172003AA3F090F7BB7401F0900000227F007E2A
:103182000290DE0EE4F090F7AFE0FCA3E0FDC3ECAA
:103192009420ED940040047B2080068C037F017E06
:1031A2000A8B017A00ECC399FCED9AFD90F7AFEC23
:1031B200F0EDA3F08B05ED603690F7ACE0FAA3E0FA
:1031C200FBA3E0FC8A828B838CF012598590DE206F
:1031D200F090F7ACE0FAA3E0FBA3E0FC0ABA00012E
:1031E2000B90F7ACEAF0EBA3F0ECA3F01D80C790D4
:1031F200DE11E04EF0EF600590F7BBE4F02290F7AD
:10320200BB7402F07582002290F7B1E0FDA3E0FEEC
:10321200A3E0FF90DE11E060FA90DE0EE4F090DEB3
:1032220016E0FC7B0090F7B4ECF0EBA3F090F7BA59
:10323200E030E11290F7BB7403F090DE11E043E05E
:1032420004F090FFFF2290F7BAE04402F090F7B446
:10325200E0FBA3E0FCC374209BE49C501CD2919041
:10326200012CC007C006C005125152C29190012C18
:10327200125152D005D006D00790F7B4E0FBA3E07C
:10328200FC8D07EB4C601690DE20E0FD8F828E8372
:10329200F0A3AF82AE831BBBFF011C80E6E52C4589
:1032A2002D6009852C82852D8312148990F7B4E054
:1032B200FEA3E0FFC3EE9420EF9400501CE52A45E4
:1032C2002B6009852A82852B8312148990DE11E0F6
:1032D20043E008F090F7BBE4F090DE11E043E040F9
:1032E200F090F7B4E0FEA3E08E82F5832285822E71
:1032F20085832F2285823085833122753701753887
:103302000090002575F04002309DAFF0AE83E5825B
:1033120090F7DBF0EEA3F0EFA3F090F7DBE0FDA374
:10332200E0FEA3E0FF74022DFDE43EFE8D828E835B
:103332008FF0125985FD8D2575220122AF827DD530
:103342007E43BF030874EEB512037512048D828E9C
:1033520083A3E090F7DEF0AC1290F7DEE0FBBBFF58
:1033620002803EEBB50723EC700890F7DE74FFF0A5
:1033720080E71C8D828E83E02DFDE43EFE8D828EE1
:1033820083A3E0FB90F7DEF080CF8D828E83E02D69
:10339200FDE43EFE8D828E83A3E0FB90F7DEF0809B
:1033A200B88D828E8322AFF0AE83E58290F7DFF094
:1033B200EEA3F0EFA3F090F7DFE0FDA3E0FEA3E0C1
:1033C200FF74022DFDE43EFE8D828E838FF0125932
:1033D20085FBA3125985FCF97A00B90205BA0002ED
:1033E200801BB90757BA005474AF5BF97A008D821B
:1033F2008E838FF0E91257EEA3EA1257EE90F7DFB1
:10340200E0FDA3E0FEA3E0FF74022DFDE43EFE8D8D
:10341200828E838FF0125985FDA3125985F5828D14
:103422001212333EAE82AF8390F7E2EEF0EFA3F0DA
:103432008E828F83A3A3E0FE7F00801C8C828B127E
:1034420012333EAC82AD8390F7E2ECF0EDA3F08C48
:10345200828D83E0FCFE7F0090F7DFE0FCA3E0FBBF
:10346200A3E0FD74062CFCE43BFB8C828B838DF085
:10347200125985FCA3125985FDC3EC9EED9F5004A1
:103482008C068D07EE4F700890DE11E043E020F0CD
:1034920090F7E2E0FCA3E0FD8E398F3A8C828D83B7
:1034A20002311190DE0EE4F090DE11E0FF30E40D07
:1034B20090F7BBE4F090DE11E043E080F0EF30E201
:1034C2002490DE11E4F090FC467404F090F7BBE423
:1034D200F0D291900014C007125152C29190001480
:1034E200125152D00790F7BBE0FEBE0319D2919061
:1034F2000032C007125152C291900032125152D082
:103502000790F7BBE4F090F7BBE060030237F9EFF6
:1035120020E0030237F990DE0EE4F090DE16E0FFC1
:103522007C3B7D007E40EF601690DE20E0FB8C82CB
:103532008D838EF01257EEA3AC82AD831F80E7E538
:103542003BFF20E7030236C28F055305607E00BDB4
:103552000005BE0002801EBD2006BE000302367EAC
:10356200BD4006BE0003023689BD6006BE000302EE
:1035720036AE0237E3741F5FFE7041AD3CBD000200
:10358200801CBD06028005BD0826800C90003B759C
:10359200F0401233A80237E31232FD0237E37537E7
:1035A20002753800905BAD75F08012309D0237E3F2
:1035B20090003B75F0401243D40237E3BE0144ADA4
:1035C2003CBD00028005BD0A26801275370275389F
:1035D20000905BAD75F08012309D0237E3753701C4
:1035E200753800905BB075F08012309D0237E39021
:1035F200DE11E043E020F090003B75F0401243D42E
:103602000237E3BE0235AD3CBD00028008BD1203A5
:103612000237E38012753702753800905BAD75F0A2
:103622008012309D0237E390DE11E043E020F090FB
:10363200003B75F0401243D40237E3BE032AE4B5DF
:103642003C12753702753800905BAD75F080123010
:103652009D0237E390DE11E043E020F090003B75DD
:10366200F0401243D40237E390003B75F04012431E
:10367200D490DE11E043E020F00237E390DE11E067
:1036820043E020F00237E3E52E452F601312369413
:10369200800BC02EC02F90003B75F040220237E312
:1036A20090003B75F0401238100237E390DE11E0D3
:1036B20043E020F090003B75F0401243D40237E320
:1036C2008F055305607E00BD0005BE0002801EBD51
:1036D2002006BE000302379CBD4006BE000302372F
:1036E200AFBD6006BE00030237D20237E353071FA5
:1036F200EF7047AE3CBE01030237E3BE030302375D
:10370200E3BE0502800BBE07030237E3BE09178042
:103712000990DE00E53DF00237E390003B75F04092
:1037220012330C0237E390003B75F0401243D49001
:10373200DE11E043E020F00237E3BF0128AE3CBED9
:1037420001030237E3BE03030237E3BE110302376C
:10375200E390003B75F0401243D490DE11E043E069
:1037620020F00237E3BF021FAF3CBF01028072BFED
:103772000302806D90003B75F0401243D490DE113D
:10378200E043E020F0805A90DE11E043E020F09028
:10379200003B75F0401243D4804790003B75F040E7
:1037A2001243D490DE11E043E020F08034E52E4550
:1037B2002F60121237BA8029C02EC02F90003B759D
:1037C200F04022801C90003B75F0401238108011AE
:1037D20090DE11E043E020F090003B75F040124390
:1037E200D490DE11E043E040F0E54145427008909C
:1037F200DE11E043E008F090F7BBE0FFBF010312E7
:10380200317F90F7BBE0FFBF020302320A22AFF022
:10381200AE83E58290F7E4F0EEA3F0EFA3F090F729
:10382200E4E0FDA3E0FEA3E0FF8D828E838FF01221
:103832005985FC20E703023A0C74012DFAE43EFBA1
:103842008F048A828B838CF0125985FC6025BC011F
:10385200028032BC02028043BC03030238D9BC049A
:103862000302390EBCFD0302392BBCFE030239C62A
:10387200023A7275370275380090FC4575F00012F5
:10388200309D023A7290DE00E0FC7B007539288B95
:103892003A8C828B83123111023A7274022DFAE44D
:1038A2003EFB8F048A828B838CF0125985FAA31215
:1038B2005985FB74062DF8E43EF98F0488828983CA
:1038C2008CF0125985F539A3125985F53A8A828B03
:1038D20083123111023A728D028E038F048A438B56
:1038E200448C4574062DF8E43EF98F04888289835E
:1038F2008CF0125985F537A3125985F53885438224
:103902008544838545F012309D023A7290F7B1E00A
:10391200FAA3E0FBA3E0FC753910753A008A828BAA
:10392200838CF0123111023A7274042DFAE43EFBD8
:103932008F048A828B838CF0125985FAA3125985DF
:10394200FBBA0446BB004374564444603D74062DE2
:10395200FBE43EFA8F048B828A838CF0125985FB3A
:10396200A3125985FC904456E493F97A00C3E99B6B
:10397200EA9C500C89398A3A904456123111800AD5
:103982008B398C3A90445612311190F7E4E0FAA345
:10399200E0FBA3E0FC74042AFAE43BFB8A828B83FB
:1039A2008CF0125985FAA3125985FBBA0505BB00A2
:1039B200028003023A72E4F539F53A9000001231BE
:1039C20011023A7274022DFAE43EFB8F0490FC4B12
:1039D20074B2F0745BA3F07480A3F07512047513D3
:1039E200008A828B838CF01251FEE5828583F0453A
:1039F200F06012D29190012C125152C29190012C7E
:103A0200125152806B75C983806690F7D1E0FCBC7D
:103A1200015674022DFDE43EFE8D828E838FF012DC
:103A22005985FDA3125985FE90DE0EE4F090DE1654
:103A3200E0FF7C007511088F828C83C007C006C02E
:103A420005C004125197D004D005D006D007EF4C20
:103A5200601690DE20E0FB8D828E83F0A3AD82AEF5
:103A6200831FBFFF011C80E690F7BAE054FDFFF010
:103A72009000002290F7CCE030E10A90FC467405F9
:103A8200F090FFFF2290DE0E7405F090DE16E0FF4C
:103A92007E0090DE17E0FCE42FF546EC3EF5479001
:103AA200F7CAE0FCA3E0FD4C705890F7C6E4F0A31F
:103AB200F090DE2AE090F7C8F090DE2AE090F7C995
:103AC200F090DE2AE0FD7C0090F7CAEDF0ECA3F066
:103AD20090DE2AE0FAE4FB2DFDEA3CFC90F7CAED09
:103AE200F0ECA3F0E54624FCF546E54734FFF54744
:103AF200C374049D74029C500990F7CA7404F003C5
:103B0200A3F0E52955D16012D291900014125152BE
:103B1200C29190001412515280E890F7C3E0FBA3C7
:103B2200E0FCA3E090F7C6E0FAA3E0FFEA2BFBEF8C
:103B32003CFCAF2974802F42D68526828527837468
:103B4200DEF0852682852783A3742AF08526828566
:103B52002783A3A38C078F06EEF085268285278311
:103B6200A3A3A3EBF0852682852783A3A3A3A3A304
:103B7200A3A3E0543FF0852682852783A3A3A3A3B2
:103B8200A3A3A3E054CF4410F074052526FEE43528
:103B920027FF90DE16E0FD8E828F83EDF074042500
:103BA20026FEE43527FF90DE17E08E828F83541FB6
:103BB200F5F0E054E045F0F090F7C6E0FFA3E0FE38
:103BC200EF2546FCEE3547FDC374049C74029D50FC
:103BD2000B7404C39FF54674029EF547C374409567
:103BE20046E49547502790FC467406F090DE14E0B8
:103BF20053E0FEF0751104900005125197751110F3
:103C020085468285478312519790FFFE22E529421D
:103C1200D6E52942D7E5462FFEE5473EFF90F7C697
:103C2200EEF0EFA3F0E52955D160FAE529F452D17F
:103C320090F7C6E0FEA3E0FF90F7CAE0FCA3E0FD28
:103C4200C3EE9CEF9D402B90F7CCE04402F090F73E
:103C5200CAE4F0A3F090DE0E7405F0AE2374BF55F3
:103C620024FF8E238F2490DE14E053E0FEF09000B8
:103C7200012290DE0E7405F0AE2374BF5524FF8E30
:103C8200238F2490DE14E053E0FEF0900000229097
:103C9200F7CCE020E1012290F7C3E0FDA3E0FEA310
:103CA200E0FF90F7E7EDF0EEA3F090F7C8E0F54DF6
:103CB20074FFB54D02800302415690F7C9E0FBBB89
:103CC20080005003024138EB246C5003024138EB70
:103CD2002480FA240A83F582EA241883F583E473A4
:103CE2000A9B13504067889FD8C1383838384073D0
:103CF200D23838EB3D3D3F3F3E3F3F3F3F3F4141A2
:103D020041414040404141408D828E838FF01259A3
:103D120085FA74012DF548E43EF5498A4B754C004D
:103D220090F7CAE54BF0E54CA3F0854882854983BC
:103D3200E0F54A74012548F54DE43549F54EA94AA6
:103D42008902E4F9254BF54BEA354CF54C90F7CA5C
:103D5200E54BF0E54CA3F0854D82854E83E0F88576
:103D62004882854983A3A3884D894EE0FAE4254D14
:103D7200F9EA354EFA89358A3690F7C8E0FA90F7B3
:103D8200C9E0F532854B33854C348A82122DF2908C
:103D9200F7CAE4F0A3F002414E8D828E838FF012B7
:103DA2005985FA8D828E83A38A4B754C00E0F87494
:103DB200022DF54DE43EF54E8802E4254BF8EA3536
:103DC2004CFA90F7CEE8F0EAA3F090F7C6E0F9A338
:103DD200E0FAE924FEF54BEA34FFF54CE54B454C9D
:103DE200603D90F7CEE0F548A3E0F549740125481F
:103DF200F9E43549FA90F7CEE9F0EAA3F0854D826D
:103E0200854E83E0FAA385824D85834E854882855F
:103E12004983EAF0154B74FFB54B02154C80BD90F7
:103E2200F7C8E0FA90F7C9E0F5327535CA7536F78A
:103E32007533027534008A82122DF202414E90F7D8
:103E4200CCE020E2338D828E838FF0125985FA8D79
:103E5200828E83A38A4D754E00E0F890F7E77402D4
:103E62002DF0E43EA3F08802E4254DF8EA354EFA3F
:103E720090F7CEE8F0EAA3F090F7CAE0F9A3E0FAEF
:103E8200894D8A4EC37440954DE4954E5006754D4A
:103E920040754E00E9C3954DF9EA954EFA90F7CA7E
:103EA200E9F0EAA3F090F7E7E0F54BA3E0F54CE583
:103EB2004D454E603D90F7CEE0F548A3E0F54974DC
:103EC200012548F9E43549FA90F7CEE9F0EAA3F082
:103ED200854B82854C83E0FAA385824B85834C8592
:103EE2004882854983EAF0154D74FFB54D02154E9F
:103EF20080BD90F7C8E0FA90F7C9E0F5327535CA8F
:103F02007536F77533027534008A82122DF202413A
:103F12004ED291900002C007C006C005125152C293
:103F220091900002125152D005D006D00790F7C8E6
:103F3200E0FA90F7C9E0F53290F7C6E0F533A3E076
:103F4200F5348D358E368A82122DF202414E753548
:103F5200B775365B8B3275330D753400854D821221
:103F62002DF202414E90FC47E0F8A3E0F9A3E0A352
:103F7200E0883589368B32753304753400854D827D
:103F8200122DF202414E75359C75365B8B327533BC
:103F920011753400854D82122DF202414E90F7C602
:103FA200E0F533A3E0F5348B328D358E36854D82C4
:103FB200122DF29000C812515212459902414E75CB
:103FC200359375365B8B32753309753400854D82B6
:103FD200122DF202414E8D828E838FF0125985FC92
:103FE20074012DF9E43EFABC0202800ABC0302808D
:103FF20021BC0429800DC002C00112465CD001D050
:1040020002801AC291C002C0011246A8D001D00299
:10401200800BC002C00112467ED001D00290F7C8C8
:10402200E0FC90F7C9E0F53290F7C6E0F533A3E083
:10403200F53489358A368C82122DF202414E90F780
:10404200CA7401F0E4A3F07535367536DF90F7C80F
:10405200E0FC90F7C9E0F53290F7CAE0F533A3E04F
:10406200F5348C82122DF290F7CAE4F0A3F00241EB
:104072004E8D028E048C017C0090FC4B74C5F07452
:104082005BA3F07480A3F07512098C138A82898372
:104092008CF0C007C006C0051251FEE5828583F090
:1040A200D005D006D00745F0600302414E75C980A5
:1040B20090F7C8E0FC90F7C9E0F53290F7C6E0F55A
:1040C20033A3E0F5348D358E368C82122DF2807C4E
:1040D20090FC45E4F090FC46F090F7E9EDF0EEA399
:1040E200F075820212417E80638D828E838FF01280
:1040F2005985FC74012DF9E43EFABC0002800BBC28
:10410200010F90FC8E7401F0800C90FC8EE4F08024
:104112000590FC8EE4F090F7C8E0FC90F7C9E0F55A
:104122003290F7C6E0F533A3E0F53489358A368C50
:1041320082122DF2801690F7C6E0F533A3E0F53433
:104142008B328D358E36854D82122DF290F7CCE072
:1041520054FDF022E5304531601985308285318386
:10416200121489AE82AF83EE4F701090F7CCE054F8
:10417200FDF02290F7CCE054FDFFF022E58290F7AB
:10418200EBF090F7CCE054FDF090F7C8E0FF90F729
:10419200C9E0F53290F7EBE0FE8E3375340090F70C
:1041A200E9E0F535A3E0F5368F82022DF2E5233002
:1041B200E01175220274FE5523FEAF248E238F2454
:1041C20043BE01E5235406602D90FC45740AF07548
:1041D200220374FD5523FEAF248E238F2490DE012B
:1041E200E043E004F090000812515290DE01E053E7
:1041F200E0FBF075220190DE0EE4F090DE11E0307B
:10420200E21990DE11E053E0DBF090F7AFE4F0A3A7
:10421200F090F7B4F0A3F090F7BBF090DE0E7405C7
:10422200F090DE11E030E51F90DE11E053E0CFF0B8
:1042320090FC467408F090F7C1E4F0A3F090F7C642
:10424200F0A3F090F7CDF090DE14E030E61F90DEA0
:1042520014E053E09FF090FC467408F090F7C1E43C
:10426200F0A3F090F7C6F0A3F090F7CDF0E523208D
:10427200E2057404B52214122F4E90FC45740BF023
:1042820074FB5523FEAF248E238F24E52330E411E3
:104292001234A574E75523FE740F5524FF8E238F25
:1042A20024E52430E65490FC45740CF0123A76AEC4
:1042B20082AF83BEFE41BFFF3E90F7EC7406F0E48E
:1042C200A3F090F7C8E0FF90F7C9E0F5327535EC3E
:1042D2007536F77533027534008F82122DF290F71E
:1042E200C8E0FF7535EC7536F77532017533027526
:1042F20034008F82122DF2123C91E52354E07006B5
:10430200E52454BD602990FC467409F075110890AB
:10431200004412519785238285248375111012510E
:104322009774E05523FE74BD5524FF8E238F2422FB
:10433200C0E0C082C083C007C006C005C004C0D0B0
:1043420075D000E5BE30E6FB90DE06E0FF7E00E5BC
:10435200234207E52442068F238E2490DE02E0FDED
:10436200E4CDC4CD6DCD54F0CD6DFCED4207EC42F1
:10437200068F238E2490DE04E07C0025E0CCE4420C
:1043820007EC42068F23EEF52430E11290F7CCE0E1
:1043920054FEF0AE2374FD5524FF8E238F24758BBB
:1043A20000C2E8D0D0D004D005D006D007D083D048
:1043B20082D0E032C0E0E5BE30E6FBC2AFE5893034
:1043C200E70375220353BEFC758900C2C5D2AFD084
:0343D200E03222B4
:105B9300534443437634323000444F4E53444F4EC4
:105BA300474C452072303535360000000000005266
:105BB30053544E00554E494D504C454D454E54455A
:0C5BC300440052455345545F4E4F5700BC
:1043D5001201000200000020501D48600101010289
:1043E50003010A0600020000002001000902200066
:1043F50001010080FA0904000002FFFFFF00070524
:104405008502400001070505024000010403090477
:104415000C03520066004300610074001803440059
:104425006F006E007300200044006F006E0067008F
:104435006C0065000A0330003000300030001203C4
:104445004D00530046005400310030003000FD009F
:10445500FF2800000000010400010000000000002A
:1044650000000157494E555342000000000000006E
:10447500000000000000000000AF83E58290F7EE29
:10448500F0EFA3F090F7EEE0FEA3E0FF7C007D00E7
:104495008E028F038A828B83E0F9A3AA82AB83E91C
:1044A50060070CBC00EE0D80EB7532F08C338D345B
:1044B5008E358F367582FE022DF2AF83E58290F739
:1044C500F0F0EFA3F090F7F0E0FEA3E0FF7C007DB5
:1044D500008E028F038A828B83E493F9A3AA82ABB1
:1044E50083E960070CBC00ED0D80EA8E358F3675CB
:1044F50032F08C338D347582FE022DF2E58290F711
:10450500F2F07535F27536F77532F175330175349C
:10451500007582FE022DF2AF83E58290F7F3F0EF8E
:10452500A3F07535F37536F77532F27533027534C8
:10453500007582FE022DF2AF82AE83ADF0FC90F7DE
:10454500F5EFF0EEA3F0EDA3F0ECA3F07535F575FE
:1045550036F77532F37533047534007582FE022D16
:01456500F263
:0314E400750A0086
:104566007EF97FF78FD575D4F97E017FF88FD375E5
:10457600D20175120075131875140090F7F975F0CD
:10458600000257837403B50A047582FF22850A82E6
:10459600050A2290DF46E0FFBFF00E90DF47E0FFFE
:1045A600BF0D0690DF487469F0C2AF759A0075B802
:1045B6000075A80012309A53BE7F75D69FC291022D
:1045C6000000221257A2AC82AD83AEF0FFC004C039
:1045D60005C006C0079037BD75F086743D12562A91
:1045E600AC82AD83AEF0FFE58124FCF581E4C0E04A
:1045F600C0E074C0C0E07441C0E08C828D838EF050
:10460600EF1258C2AC82AD83AEF0FFE58124FCF513
:10461600818C828D838EF0EF1257B5AC82AD83AE5E
:10462600F090DF09EEF090DF0AEDF090DF0BECF092
:104636002275E10490DF3BE0FFBF01F890FC1CE02F
:10464600F5E190FC1CE0FFBF04012290DF3BE0FF98
:10465600BF010280ED2290FC1CE0FFBF0201229008
:10466600DF13E053E0F0F090DF13E043E00FF0904B
:10467600FC1C7402F0024AF590FC1CE0FFBF03012B
:104686002290DF13E053E0F0F090DF13E043E00AFE
:10469600F090FC1C7403F0F5E190DF3BE0FFBF13E4
:1046A600F82290FC1CE0FFBF04012290DF13E053C8
:1046B600E0F0F05391EF75E10490DF3BE0FFBF01BE
:1046C600F8539BFC53E9EF90FC1C7404F02290FC19
:1046D6001FE4F0A3F090FC12F0A3F090FC14F0A3FA
:1046E600F053C6C7759D00859E9E439E0485A9A965
:1046F60043B90190FC1C7404F0751200751300F5A3
:104706001490F81275F000125783122CA2D2A875D5
:1047160091D175E900750B00439A0175E10490DFAC
:104726003BE0FFBF01F8227E007F00C3EE94DCEF82
:104736009405502390DF3CE0545060049000012221
:10474600900032C007C006125179D006D0077432E5
:104756002EFEE43FFF80D490000022AF83E58290D6
:10476600FC3CF0EFA3F090FC3EE4F090DF02E0FFAB
:1047760090DF3BE0FEBE131EA291B3920290FC8E28
:10478600E0FEA202E4335206EE24FF9291C0071225
:1047960041AFD00780DAC29190FC8AE4F090FC38F1
:1047A600E0FDA3E0FE90FC80EDF0EEA3F090FC3A75
:1047B600E0FBA3E0FC90FC86EBF0ECA3F090FC366B
:1047C600E0F9A3E0FA90FC82E9F0EAA3F090FC8419
:1047D600E9C39BF0EA9CA3F090FC84E0FBA3E0FC19
:1047E6008D128E138B828C83C007C006C005C00253
:1047F600C001125809AB82AC83D001D002D005D0DB
:1048060006D00790FC88EB29F0EC3AA3F0E94A7051
:1048160073C00790FC3CE0FBA3E0FC8B828C83E03A
:10482600F8880C750D0090FC36E50CF0E50DA3F04C
:1048360090DF04E0F87F00740358F50E8F0FE4B59F
:104846000E07B50F04D0078020D0077401B50E06F9
:1048560014B50F02800302492290FC367401250C20
:10486600F0E4350DA3F002492290FC3C74012BF0D4
:10487600E43CA3F090FC36E0FBA3E0FC90DF02EB07
:10488600F002492290DF04E0FC5304037B00BC00E5
:1048960005BB00028049BC0105BB0002800302493A
:1048A6002290FC3CE0FBA3E0FC90FC3FE9F0EAA38D
:1048B600F090FC417401F0E4A3F08B828C83C00776
:1048C600C002C0011250FDD001D002D00790FC3CBE
:1048D600E0FBA3E0FC89008B828C83E8F0803DED51
:1048E6004E603490FC88E0FDA3E090DF02EDF0908E
:1048F600DF04E053E0FCF090FC88E0FDA3E0FEC39B
:1049060074FF9DE49E500890DF04E043E002F090BF
:10491600FC8A7401F0800590DF02E9F0D2A890FCD1
:104926008BE020E303024A5890DF04E0FE530603BF
:104936007D00BE0109BD000690FC3E7401F090FCAE
:104946003EE0FE90FC3CE0FCA3E0FDEE2CFAE43DEC
:10495600FB90FC36E0F8A3E0F990FC5DE8F0E9A3F3
:10496600F08A828B83C007C006C005C00412547249
:10497600AA82AB83D004D005D006D00790FC8BE08A
:10498600F85300047900B8043EB9003BC007EE2C8A
:10499600F8E43DF990FC8BE054F0FF90FC61E8F000
:1049A600E9A3F090FC63EAF0EBA3F090FC65EFF06E
:1049B60088828983C007C003C0021254A8D002D0DF
:1049C60003D007D0078035EE2CFCE43DFD90FC8B30
:1049D600E054F0FE90FC68ECF0EDA3F090FC6AEA7F
:1049E600F0EBA3F090FC6CEEF08C828D83C007C0D8
:1049F60003C0021254F1D002D003D00790FC3EE06F
:104A0600603390FC8BE0FE5306F07D00BE5014BD73
:104A1600001190FC3CE0FDA3E0FE8D828E837410B5
:104A2600F0802F90FC3CE0FDA3E0FE8A048D828E90
:104A360083ECF0801D90FC8BE0FE5306F07D00BEFB
:104A4600500BBD000890DF027410F0800590DF0265
:104A5600EAF090FC3CE0FDA3E0FE90FC18EDF0EEE1
:104A6600A3F090FC7EE4F0A3F075E1037D607EEA9E
:104A760090DF3BE0FCBC1302802F1DBDFF011EED45
:104A86004E6026A291B3920290FC8EE0FCA202E454
:104A9600335204EC24FF9291C007C006C0051241B0
:104AA600AFD005D006D00780C790FC8EE05401FC3D
:104AB60024FF9291ED4E700690FC467413F090DF41
:104AC6003BE0FEBE131EA291B3920290FC8EE0FE66
:104AD600A202E4335206EE24FF9291C0071241AFC0
:104AE600D00780DAC29190DF02EFF075820122D200
:104AF600A875120075130075140290F81275F0006F
:104B060012578390FC12E4F0A3F090FC14F0A3F08B
:104B160090FC16F090FC1704F090F811E4F0539B0B
:104B2600FC53E9EF75E10290DF3BE0FFBF0DF84370
:104B360091102290FC8D7401F02290FC8DE4F022FD
:104B4600C021C0E0C0F0C082C083C007C006C00557
:104B5600C004C003C002C001C000C0D075D0009020
:104B6600FC457411F0C28990DF3BE0FFBF0D028067
:104B760003024C8F90FC8EE05401FF24FF9291902B
:104B8600FC77E0602590FC78E0FEA3E0FFEE24FFD2
:104B9600FCEF34FFFD90FC78ECF0EDA3F074FF2FF2
:104BA600400890DF04E053E0FCF090FC1C7402F037
:104BB60090F811E07E0025E0CEE42412FFEE34F8F2
:104BC600FEE075F002A42412FC74FC35F0FD8C8224
:104BD6008D83E0FAA3E0FB74012AF8E43BF98C82AA
:104BE6008D83E8F0E9A3F0EA2FF582EB3EF583E545
:104BF600D9F090F811E075F002A42412F58274FC45
:104C060035F0F583E0FEA3E0FFC39402501A90F856
:104C160011E075F002A42412F58274FC35F0F583D8
:104C2600E0FEA3E0FF4E701990F811E075F002A4C3
:104C36002412F58274FC35F0F58374FFF07401A339
:104C4600F090FC78E0FEA3E0FF4E6003024E3E903B
:104C5600FC77E07003024E3E90FC7AE0FEA3E0FF94
:104C660090FC78EEF0EFA3F090FC78E0FEA3E07FF6
:104C76000090DF02EEF090DF04E053E0FCF090DFFE
:104C860004E043E002F0024E3E90DF3BE0FFBF133C
:104C9600028003024E3E90FC8AE07003024DCF90E4
:104CA600FC2EE0FEA3E0FF0EBE00010F90FC2EEEF0
:104CB600F0EFA3F090FC7EE0FEA3E0FF90FC82E024
:104CC600FCA3E0FDEEB50406EFB505028003024D38
:104CD600A790FC80E0FEA3E04E603890FC80E0FEEA
:104CE600A3E0FFBEFF05BF0002801590FC80E0FE3A
:104CF600A3E0FF1EBEFF011F90FC80EEF0EFA3F0C5
:104D060090FC86E0FEA3E0FF90FC7EEEF0EFA3F0C1
:104D1600024DA790FC82E0F512A3E0F51390FC7C0F
:104D2600E0FF7E008F828E83125809AE82AF839099
:104D3600FC18E0FCA3E0FDEE2CF582EF3DF583E4E4
:104D4600F090FC7CE02401FFF090FC7DE0FEEFB5E6
:104D5600060590FC7CE4F090FC82E0F512A3E0F5F9
:104D66001390FC7CE0FF7E008F828E83125809AE82
:104D760082AF8390FC18E0FCA3E0FDEE2CFEEF3D35
:104D8600FF8E828F83E0701090FC21E4F090FC4649
:104D96007412F0124637C29190FC7E7401F0E4A3BF
:104DA600F090FC88E0FEA3E0FFEE24FFFCEF34FF6A
:104DB600FD90FC88ECF0EDA3F0BEFF22BF001F9033
:104DC600DF04E053E0FCF0801590FC88E0FEA3E0F1
:104DD600FF1EBEFF011F90FC88EEF0EFA3F090FCD3
:104DE6001C7403F090FC82E0F512A3E0F51390FC2E
:104DF6007CE0FF7E008F828E83125809AE82AF83DD
:104E060090FC7EE0FCA3E0FD90FC7E74012CF0E4B7
:104E16003DA3F0EC2EFEED3FFF90FC18E0FCA3E076
:104E2600FDEE2CF582EF3DF583E0F5D990FC1AE016
:104E36002401F0A3E03400F0D0D0D000D001D0029D
:104E4600D003D004D005D006D007D083D082D0F0CE
:104E5600D0E0D02132C021C0E0C0F0C082C083C003
:104E660007C006C005C004C003C002C001C000C020
:104E7600D075D00075100090FC457410F0539BFC63
:104E8600E5E9420BE5E930E01C90FC1DE0FDA3E0FE
:104E96008D067D00AB9C7C0090FC1FED4BF0EE4C2C
:104EA600A3F053E9FEE5E95470700302506890FCE4
:104EB6001CE0FEBE0306530B8F02506590F811E00E
:104EC600B401009203E433FD7E002416F582EE342D
:104ED600FCF583E0FEBE0102800302501C90FC8BB1
:104EE600E020E103024FF490DF04E0FE5306037D69
:104EF60000BE0106BD000375100190FC8BE0FE5359
:104F060006017D00BE0176BD007390F811E07D00BC
:104F160025E0CDE42412FEED34F8FDAB107C00EB69
:104F26002EFEEC3DFDE0F97A0029CAE42412F9EAE6
:104F360034F8FAEB29FBEC3AFCE075F002A42412F3
:104F4600F58274FC35F0F583E0F9A3E0FAA8107F4A
:104F560000E9C398F9EA9FFA90FC8BE054F0FF90C1
:104F6600FC61EBF0ECA3F090FC63E9F0EAA3F090AF
:104F7600FC65EFF08E828D831254A8807190F81133
:104F8600E07E0025E0CEE42412FFEE34F8FEAC10FD
:104F96007D00EC2FFFED3EFEE07A0025E0CAE4241A
:104FA60012FBEA34F8FAEC2BFCED3AFDE075F00260
:104FB600A42412F58274FC35F0F583E0FAA3E0FB35
:104FC600A8107900EAC398FAEB99FB90FC8BE054A1
:104FD600F0F990FC68ECF0EDA3F090FC6AEAF0EBD7
:104FE600A3F090FC6CE9F08F828E831254F190F856
:104FF60011E063E001F090F811E075F002A42412CC
:10500600F58274FC35F0F583E4F0A3F090FC16F01D
:1050160090FC17F0804790FC467412F0A291B39270
:105026000390FC8EE0FFA203E4335207EF24FF92C5
:105036009190F811E075F002A42412F58274FC3503
:10504600F0F583E4F0A3F0A291B3920390FC8EE016
:10505600FFA203E433FE5207EF24FF9291C291535D
:10506600E9CFE5E930E63790FC467410F0A291B33B
:10507600920390FC8EE0FFA203E4335207EF24FF75
:105086009291124637A291B3920390FC8EE0FFA252
:1050960003E433FE5207EF24FF929153E9BFE5E99B
:1050A60030E73790FC467411F0A291B3920390FC5E
:1050B6008EE0FFA203E4335207EF24FF92911246DB
:1050C60037A291B3920390FC8EE0FFA203E433FE75
:1050D6005207EF24FF929153E97FD0D0D000D00140
:1050E600D002D003D004D005D006D007D083D0821A
:1050F600D0F0D0E0D02132AF83E58290FC43F0EFD0
:10510600A3F090FC41E0FEA3E0FF90FC43E0FCA38B
:10511600E0FD90FC3FE0FAA3E0FB8A008B011ABA9F
:10512600FF011BE8496024EE2AF8EF3BF9E82CF86A
:10513600E93DF9EA2CF582EB3DF583C006C007E0B0
:0C51460088828983F0D007D00680CF2239
:105BCF0000000000000001000000000000000000C5
:075BDF0000000000000000BF
:10515200AE82AF831EBEFF011FC3E49E74808FF038
:1051620063F08095F0500F7C4C7D041CBCFF011D48
:10517200EC4D70F780DE22AE82AF83EE2EFEEF336F
:10518200FF1EBEFF011FC3E49E74808FF063F08098
:1051920095F040ED22AE82AF83D2919003E8C00732
:1051A200C006125152C2919001F4125152D006D04F
:1051B20007EE30E020900019C007C006125152D20B
:1051C20091900226125152C291900019125152D05E
:1051D20006D007801E900113C007C006125152D29A
:1051E20091900032125152C291900113125152D039
:1051F20006D007EFC313CE13CEFF80B5AFF0AE8358
:10520200E58290FC4EF0EEA3F0EFA3F090FC4EE0AE
:10521200FDA3E0FEA3E0FF90FC4BE0FAA3E0FBA3BA
:10522200E0FCA812A913E849604DC000C0018D82BC
:105232008E838FF0125985F98A828B838CF01259F2
:1052420085F8E9C398F98914D001D000600D85145E
:1052520015751600851582851683220DBD00010E77
:1052620090FC4EEDF0EEA3F0EFA3F00ABA00010BB2
:1052720018B8FF011980AF9000002253BEFBE5BEB3
:1052820030E6FB53C6B8E5C620E6FB43BE04E5BEE6
:1052920030E6FB53C6C743E40C43E401D2B92243D0
:1052A200FE03C29122C0E0C082C083C0D090FC47FE
:1052B200E02401F0A3E03400F0A3E03400F0A3E026
:0C52C2003400F0D0D0D083D082D0E03295
:015BE60001BD
:1052CE0012458AAF8290FC55EFF08F068EF005F0F6
:1052DE007401800225E0D5F0FB90FC56F0EF75F0DE
:1052EE0008A424F9FE74F735F0FF90FC51EEF0EFB0
:1052FE00A3F08E828F83A3A374DFF090FC51E0FEA7
:10530E00A3E0FF8E828F83A3A3A374B1F090FC5110
:10531E00E0FEA3E0FF8E828F83A3A3A3A3A374104A
:10532E00F090FC51E0FEA3E0FF74062EF582E43F00
:10533E00F583E054E0441DF090FC51E0FEA3E0FF45
:10534E0074072EF582E43FF583E0543F4440F0901D
:10535E00FC51E0FEA3E0FF74072EF582E43FF583D7
:10536E00E054FC4401F012458AAF8290FC57EFF0F6
:10537E008F068EF005F07401800225E0D5F0FB90CB
:10538E00FC58F0EF75F008A424F9FE74F735F0FF21
:10539E0090FC53EEF0EFA3F08E828F8374DFF090CB
:1053AE00FC53E0FEA3E0FF8E828F83A374B2F090D5
:1053BE00FC53E0FEA3E0FF8E828F83A3A3A3A3A3DF
:1053CE007410F090FC53E0FEA3E0FF74062EF582FD
:1053DE00E43FF583E054E0441EF090FC53E0FEA35E
:1053EE00E0FF74072EF582E43FF583E054CF4410BE
:1053FE00F090FC53E0FEA3E0FF74072EF582E43F2D
:10540E00F583E054FC4401F043A91043B91022AFD8
:10541E0083E58290FC5BF0EFA3F0E5B330E3FB9005
:10542E00FC51E0FEA3E0FF90FC5BE0FCA3E0FD8DF1
:10543E00038B028E828F83EAF090FC51E0FEA3E094
:10544E00FF8E828F83A3ECF090FC56E0FF42D600D5
:10545E0090FC59E0FF90FC5AE04F4401F5B3E5B3E0
:10546E0030E3FB22AF83E58290FC5FF0EFA3F09078
:10547E00FC5FE0FEA3E0FF90FC5DE0FCA3E0FDEC32
:10548E00540F6011EC2EF582ED3FF5830CBC00013C
:10549E000DE4F080EA8C828D8322AF83E58290FC4E
:1054AE0066F0EFA3F090FC66E0FEA3E0FF90FC61D7
:1054BE00E0FCA3E0FD90FC63E0FAA3E0FB90FC654A
:1054CE00E0F990FC6FECF0EDA3F090FC71EAF0EBDC
:1054DE00A3F090FC73E4F090FC74E9F08E828F835D
:1054EE0002553BAF83E58290FC6DF0EFA3F090FC8C
:1054FE006DE0FEA3E0FF90FC68E0FCA3E0FD90FCF5
:10550E006AE0FAA3E0FB90FC6CE0F990FC6FECF023
:10551E00EDA3F090FC71EAF0EBA3F090FC73740233
:10552E00F090FC74E9F08E828F8302553BAF83E5D9
:10553E008290FC75F0EFA3F0E5B330E3FB90FC75C1
:10554E00E0FEA3E0FF90FC6FE0F518A3E0F51990E4
:10555E00FC74E0FB74505BF51790FC73E0F94B4460
:10556E0001FB740149F51690FC71E0F512A3E0F50C
:10557E0013E4F514F515C3E5149512E515951340CE
:10558E000122C00390FC51E0F8A3E0FBE5142EF9D4
:10559E00E5153FFA8A058D0488828B83ECF090FC2A
:1055AE0051E0FCA3E0FD8C828D83A3E9F090FC53C7
:1055BE00E0FCA3E0FD8C828D83A3A3E5142518FCEB
:1055CE00E5153519FD8D038B02EAF090FC53E0FAD8
:1055DE00A3E0FB8A828B83A3A3A3ECF090FC58E09C
:1055EE00FD90FC56E04D42D60000D003E517601743
:1055FE00E51224F0FCE51334FFFDECB51409EDB50E
:10560E0015058516B380028BB3E5B330E3FB74103A
:10561E002514F514E43515F5150255841256CDBC36
:10562E000003025894EF60FA30D502B2D1E583B48C
:10563E00FF030258AAE582B4FF030258AA2583404D
:10564E00072482400B02589424831450030258AA54
:10565E00F582EA8DF0A4A8F0EA8EF0A428F8E435DD
:10566E00F0F9EB8DF0A428E935F0F9E433CA8FF0A8
:10567E00A429F9EA35F0FAEBF88EF0A429F9EA3507
:10568E00F0FAE433FBEC8DF0A429F9EA35F0FAE4F4
:10569E003BFBE88FF0A42AFAEB35F0FBE433CCFDAC
:1056AE008EF0A42AFAEB35F0FBE43CFCED8FF0A46F
:1056BE002BFBEC35F0FC20E703125750025873AA6F
:1056CE0082AB83A2F73392D1F5826002D2F7ACF0AF
:1056DE00E58124F9F8E6FD08E6FE0886F008E6A264
:0D56EE00F73392D5F5836002D2F7AFF022BA
:0614BA00E478FFF6D8FD06
:1056FB00AD82AE83AFF08D178E188F1985121A8578
:10570B00131B85141CA815A9168803890418B8FF48
:10571B000119EB4C6025851A82851B83851CF012C1
:10572B005985FCA385821A85831B8D828E838FF00E
:10573B00EC1257EEA3AD82AE8380CE85178285180F
:10574B00838519F0227804EC7011E58224F8500A55
:10575B00F582E4C9CACBFCD8EF22EC782005822075
:10576B00E713D5820122C3E933F9EA33FAEB33FBB2
:10577B00EC33FCD8EA158222AC82AD83AE13AF14A6
:10578B00BE0004EF600C1F0FE5121257EEA3DEFAFA
:07579B00DFF88C828D8322F0
:101498007918E94400601B7A01905BCF78777593DF
:1014A800FCE493F2A308B800020593D9F4DAF275C4
:0214B80093FFA0
:1057A200FCABF0AA83A982749EC2D1F58212575033
:1057B2000258737F9E1257DC30D103025894C3EF14
:1057C2009582500974FFF5F0F583F5822279001273
:1057D20059A189828A838BF0EC22AA82AB83A2F739
:1057E2003392D1F5826002D2F7ACF02220F7113069
:1057F200F6138883A88220F509F6A8837583002210
:1058020080FEF280F5F022E5828512F0A4C582C006
:10581200F08513F0A4D0F025F0C5838512F0A425FD
:1058220083F58322E512451360467A01E51225E0ED
:10583200F512E513334012F513E5829512E58395CF
:105842001340030A80E6C3E51313F513E51213F5BB
:1058520012C3E5829512F5F0E58395134005F583B1
:1058620085F082C3E51313F513E51213F512DAE19D
:015872002213
:1014C0007800E84400600A79007593F0E4F309D8E5
:1014D000FC7877E8440C600C790D90F000E4F0A300
:0414E000D8FCD9FA61
:02148900E4730A
:10587300B98003EA13B34010EA2401FAE43BFBE4E2
:105883003CFC50047C800582BC000EBB000BBA00BC
:1058930008E4F5F0F583F58222A2D1E582138CF0BA
:1058A30092F78B838A8222E4F583F58275F080F484
:1058B300A2D11322E4F583F58275F0C0747F22121E
:1058C30056CD30D502B2D1BF0009BC00030258B790
:1058D3000258AABC0003025894E583B4FF0BE58287
:1058E300B4FF030258B7025894E582B4FF03025889
:1058F300AAC395835007247F400B02589424801435
:1059030050030258AAF582C3ED9AEE9BEF9C401117
:105913001582C3EA33F9EB33FAEC33FBE433FC804F
:1059230005E4CCCBCAF9C08275F019C3E99DEA9EA0
:10593300EB9FEC9400D5F002802D400EE99DF9EA2F
:105943009EFAEB9FFBEC9400FCC3B3E833F8E582CB
:1059530033F582E58333F583C3E933F9EA33FAEBAD
:1059630033FBEC33FC80C4B3E4F938FAE43582FB4F
:10597300E43583FCD082500405827C8012575002A8
:02598300588B3F
:0D148B0075814E1259E4E58260030214865B
:1059850020F71430F6148883A88220F507E6A8834B
:1059950075830022E280F7E49322E0226040F82537
:1059A50082500274FFF582E824F8501ECCCBCAF968
:1059B500E4CC24F85014CBCAF9E4CB24F8500BCA34
:1059C500F9E4CA24F8500379002224086010F8C3CA
:1059D500EC13FCEB13FBEA13FAE913F9D8F1227582
:0359E5008200221B
:00000001FF
