:0600000002008B023777BD
:01000B0032C2
:0100130032BA
:01001B0032B2
:0100230032AA
:01002B0032A2
:03003300022F6336
:01003B003292
:01004300328A
:03004B00023ED89A
:030053000206980A
:03005B0002096F28
:01006300326A
:03006B00022FE77A
:01007300325A
:01007B003252
:03008300023A8CB2
:0300E7000200868E
:030086000219C09C
:1000EA00AF83E58290F554F0EFA3F075E10490DF59
:1000FA003BE0FFBF01F890F554E0FEA3E0FF90DF7C
:10010A0006EEF075E10290DF3BE0FFBF0DF8227EBC
:10011A00007F0090FC28E0FCA3E0FD8E028F03C361
:10012A00EA9CEB9D5038EE2400FCEF34F0FD90FC85
:10013A0026E0F512A3E0F5138A828B83C007C00676
:10014A00C005C004124457AA82D004D005D006D0F4
:10015A00078C828D83EAF00EBE00B80F80B522E5C7
:10016A008290F556F0E0FFE59CC39FF59CE59C2440
:10017A00FAF59C439E10D2BA22539EEF22AF83E532
:10018A008290F55AF0EFA3F090FC21E060139046BC
:10019A00191230F090FC21E0F5821231327582EFAB
:1001AA002290FC217406F090DF3BE0FFBF1302802F
:1001BA00F6C29190F557E0FEA3E0FF90FC88EEF0BE
:1001CA00EFA3F090FC8274F1F0E4A3F090FC1874B1
:1001DA0072F074F3A3F090FC80E4F0A3F090FC3387
:1001EA00F090FC7CF090FC32F090FC7E04F0E4A3EA
:1001FA00F090FC7D7402F090F55CE4F0900000123F
:10020A00032E90F55AE0FEA3E0FF90F559E0FD7B3E
:10021A00007C008D017A00C3EB99EC9A50548B0252
:10022A00EA75F0F0A42EF9E43FFA90F55C74F0F068
:10023A0089828A83C007C006C005C004C0031203AE
:10024A002EAA82D003D004D005D006D007EA601BBC
:10025A0090466BC0021230F0D00290FC21E4F08A82
:10026A0082C002123132D0028A82220BBB00A40C55
:10027A0080A190FC8BE030E33390FC88E0FEA3E0A1
:10028A00FFEE540F602690FC88E0FEA3E053060FB1
:10029A007F007410C39EFEE49FFF90FC88E0FCA3DD
:1002AA00E0FD90FC88EE2CF0EF3DA3F090FC88E096
:1002BA00FEA3E0FFC374FF9EE49F502690FC88E0F3
:1002CA00FEA3E07F0090DF02EEF090DF04E053E04F
:1002DA00FCF090DF04E043E002F090FC8A7401F045
:1002EA00801290FC88E0FEA3E0FF90DF02EEF0901F
:1002FA00FC8AE4F075E1037E607FEA90DF3BE0FD73
:10030A00BD130280091EBEFF011FEE4F70EDD29190
:10031A00EE4F700C90FC467413F09046831230F046
:10032A0075820022AF83E58290F55DF0EFA3F0902D
:10033A00F55CE0FF240F500A9046941230F0758263
:10034A00FF22EF703E90FC32E4F090FC32E0FE9027
:10035A00FC7DE0FDC3EE9D502190FC32E075F0F18A
:10036A00A42472F58274F335F0F583E4F090FC323C
:10037A00E0FE0E90FC32EEF080D090FC32E4F07594
:10038A0082002290FC21E0FE601DBE061E90FC3217
:10039A00E0601890DF3BE0FEBE1302800E90FC2165
:1003AA007407F07582ED227582ED2290FC32E075B9
:1003BA00F0F1A42472FD74F335F0FE8D828E83E091
:1003CA00600A90FC467418F07582FE228D828E8334
:1003DA0074FFF090FC32E075F0F1A42472FD74F31E
:1003EA0035F0FE0DBD00010E7C0090F55DE0FAA32C
:1003FA00E0FB8A128B138C148F037F008B158F16E8
:10040A008D828E838CF0C007C00312432CD003D098
:10041A000790FC8BE020E3030204D890FC32E075DD
:10042A00F0F1A42472FD74F335F0FE0DBD00010E47
:10043A0090FC5DEBF0EFA3F08D828E831240A3AEA9
:10044A008290F55CEEF090FC8BE0FF5307047D0090
:10045A00BF0441BD003E90FC32E075F0F1A4247265
:10046A00FD74F335F0FF0DBD00010F8E037C009083
:10047A00FC8BE054F0FA90FC61EDF0EFA3F090FCF5
:10048A0063EBF0ECA3F090FC65EAF08D828F8312A7
:10049A0040D9803A90FC32E075F0F1A42472FD74E0
:1004AA00F335F0FF0DBD00010F7C0090FC8BE0548A
:1004BA00F0FB90FC68EDF0EFA3F090FC6AEEF0EC34
:1004CA00A3F090FC6CEBF08D828F8312412290FC9A
:1004DA0032E075F0F1A42472FE74F335F0FF90F562
:1004EA005CE08E828F83F090FC32E0FF0F90FC324A
:1004FA00EFF090FC7DE0FEEFB5060590FC32E4F0EB
:10050A0075820022AF83E58290F55FF0EFA3F09049
:10051A00FC21E0FF6014BF0102800F9046AE12304A
:10052A00F090FC21E0F58212313212018390FC2A0C
:10053A00E4F0A3F090FC2AE0FEA3E0FF8E828F8312
:10054A0012061890DF3BE0FFBF0DF890DF3AE0FF9C
:10055A0053077F7E00C3EF9460EE64809480402747
:10056A0090FC2AE0FEA3E0FF0EBE00010F90FC2AD9
:10057A00EEF0EFA3F0D29190000A123D83C291905F
:10058A00000A123D8380AD90FC217402F090FC4772
:10059A00E0FCA3E0FDA3E0A3E090FC2CECF0EDA3CB
:1005AA00F090F55FE0FEA3E0FF90FC30EEF0EFA3E1
:1005BA00F02290FC21E4F090FC47E0FCA3E0FDA3CC
:1005CA00E0A3E090FC2CECF0EDA3F02290FC217467
:1005DA0004F090FC47E0FCA3E0FDA3E0A3E090FC5C
:1005EA002CECF0EDA3F02290FC217405F090FC3481
:1005FA00E4F0A3F090FC47E0FCA3E0FDA3E0A3E055
:10060A0090FC2CECF0EDA3F0758200020169AF8337
:10061A00E58290F561F0EFA3F090F561E0FEA3E0CA
:10062A00FFEE2400F582EF34F0F583E0FF7E008FC1
:10063A00828E830200EAAF83E58290F563F0EFA32E
:10064A00F090F563E0FEA3E0FF90F370EEF0EFA305
:10065A00F0222290FC2AE0FEA3E0FF0EBE00010F6A
:10066A0090FC2AEEF0EFA3F0C3EE9470EF940340EF
:10067A000790FC2AE4F0A3F090FC2AE0FEA3E0FF36
:10068A00EE2400F582EF34F0F583E0F58222C021F2
:10069A00C0E0C0F0C082C083C007C006C005C00465
:1006AA00C003C002C001C000C0D075D00090FC1DBC
:1006BA00E02401FEA3E03400FF90FC1DEEF0EFA35E
:1006CA00F090FC22E0FCA3E0FDEEB5040BEFB505CB
:1006DA000790FC1DE4F0A3F090FC1DE0FEA3E0FFF0
:1006EA00BE0005BF0002800BBE0105BF0002806884
:1006FA0002085690FC1DE0FEA3E08E077E00AC9C2B
:10070A007D00EC4206ED420790FC2EEEF0EFA3F0DE
:10071A0090FC2AE0FEA3E0FF0EBE00010F90FC2A27
:10072A00EEF0EFA3F090FC28E0FCA3E0FDC3EE9C02
:10073A00EF9D400790FC2AE4F0A3F090DF3BE0FF36
:10074A00BF130302095290FC2AE0FEA3E0FF8E8247
:10075A008F8312061802095290FC21E0FFBF05029E
:10076A008003020952900019123D8390F567741CA8
:10077A00F090FC2AE090F568F090FC2AE0A3E09063
:10078A00F569F090F56A7442F090F56B744CF0904C
:10079A00F56C7441F090F56D7448F090F56E744202
:1007AA00F090F56F744CF090F5707441F090F5711B
:1007BA007448F090F5727442F090F573744CF090AE
:1007CA00F5747441F090F5757448F090F5767442BA
:1007DA00F090F577744CF090F5787441F090F579D3
:1007EA007448F090F57A7442F090F57B744CF0906E
:1007FA00F57C7441F090F57D7448F090F57E744272
:10080A00F090F57F744CF090F5807441F090F5818A
:10081A007448F090F5827420F090FC36741CF0E471
:10082A00A3F090FC38F0A3F090FC3AF0A3F090F516
:10083A006812339290FC34E0FEA3E0FF0EBE000182
:10084A000F90FC34EEF0EFA3F002095290FC21E085
:10085A00FFBF03028065BF04028008BF0502800350
:10086A0002095290FC2CE0FEA3E0FF90FC47E0FA5C
:10087A00A3E0FBA3E0FCA3E0FD8E008F01E4FEFFF2
:10088A00EAC398FAEB99FBEC9EFCED9FFDC37464F6
:10089A009AE49BE49CE49D50229046DC1230F0904E
:1008AA00FC217405F090FC47E0FCA3E0FDA3E0FE08
:1008BA00A3E0FF90FC2CECF0EDA3F090FC33E07584
:1008CA00F0F1A42472FE74F335F0FF8E828F83E078
:1008DA006076900019123D8390FC33E075F0F1A424
:1008EA002472FE74F335F0FF90DF04E05401B40182
:1008FA00009200E4332EFDE43FFC8E828F83E09069
:10090A00FC36F0E4A3F090FC38F0A3F090FC3AF047
:10091A00A3F08D828C8312339290FC33E075F0F150
:10092A00A42472F58274F335F0F583E4F090FC3375
:10093A00E0FF0F90FC33EFF0BF0200400590FC335C
:10094A00E4F09046FA1230F0D0D0D000D001D002B4
:10095A00D003D004D005D006D007D083D082D0F0FF
:10096A00D0E0D021323290FC21E4F090FC32F090B9
:10097A00FC33F090FC2AF0A3F090FC267453F0E4C8
:10098A00A3F090FC287453F0E4A3F090FC2EF0A39B
:10099A00F090FC2CF0A3F090FC227406F0E4A3F093
:1009AA0090FC24F0A3F090FC30F0A3F090FC34F01B
:1009BA00A3F012011990FC21E4F0759DDC859E9E3E
:1009CA00439E0443CB1022020970900DE2121EF6D8
:1009DA0090FC47E4F0A3F0A3F0A3F01209D190F53C
:1009EA0083E4F090F5847412F074F8A3F02290FC7A
:1009FA0021E0FFBF0003020D1DBF0103020BF3BF7D
:100A0A000203020AF9BF0303020D1DBF0403020D0C
:100A1A001DBF0503020CFEBF060122BF400280066D
:100A2A00BF410280412275E10490DF3BE0FFBF0134
:100A3A00F890DF0374E5F090DF047404F090DF07A8
:100A4A007412F090DF08E4F090DF147410F090DF75
:100A5A0017E043E0C0F090FC217441F090F58474F3
:100A6A0012F074F8A3F090F583E4F090FC34E0FE01
:100A7A00A3E0FF90F583E0FDFB7C00C3EB9EEC9FB7
:100A8A00504590DF06EDF075E10490DF3BE0FFBFD3
:100A9A0001F875E10290DF3BE0FFBF0DF89000021C
:100AAA00123D8390F584E0FEA3E0FF90F583E02EEB
:100ABA00FEE43FFF90DF3AE0FD8E828F83F090F5EF
:100ACA0083E02401F080A475E10490DF3BE0FFBFDE
:100ADA0001F890FC34E0FF8F3375340090F584E020
:100AEA00F535A3E0F5367532017582430219F2E550
:100AFA000B7003020BE190FC45740DF0539AFEE56E
:100B0A000B20E403020BE190FC217403F090FC1F1C
:100B1A00E0FEA3E08E821201699047081230F0903D
:100B2A00FC1FE0FEA3E0FF8E828F8312314D90F806
:100B3A0011E07E0025E0CEE42412FFEE34F8FE8FA9
:100B4A00828E831230F090F811E0B401009201E431
:100B5A0033FF90F583F0EF2416FDE434FCFE8D821A
:100B6A008E83E0706F90DF04E030E0348F057E0002
:100B7A00ED2DCEE4FD2412F582EE34F8F583E0FC87
:100B8A008C33EDF5342412FDEE34F8FE74012DF5A4
:100B9A0035E43EF5367532017582421219F2802328
:100BAA0090DF02E0FE8E33E4F534FEEF2FCEE4242C
:100BBA0012FFEE34F8FE8F358E3675320175824299
:100BCA001219F290F583E0FF2416F582E434FCF55D
:100BDA00837401F0530BEFD20110AF02C201750BFF
:100BEA0000A20192AF439A0122E50B7003020CECBA
:100BFA0090FC45740DF0539AFEE50B20E403020CB9
:100C0A00EC90F811E0B40100920190F583E433F01E
:100C1A0090471D1230F090F583E07E0025E0CEE487
:100C2A002412FFEE34F8FE8F828E8312314D90F536
:100C3A0083E07E0025E0CEE42412FFEE34F8FE8F36
:100C4A00828E831230F090F811E0B401009201E430
:100C5A0033FF90F583F0EF2416FDE434FCFE8D8219
:100C6A008E83E0706F90DF04E030E0348F057E0001
:100C7A00ED2DCEE4FD2412F582EE34F8F583E0FC86
:100C8A008C33EDF5342412FDEE34F8FE74012DF5A3
:100C9A0035E43EF5367532017582421219F2802327
:100CAA0090DF02E0FE8E33E4F534FEEF2FCEE4242B
:100CBA0012FFEE34F8FE8F358E3675320175824298
:100CCA001219F290F583E0FF2416F582E434FCF55C
:100CDA00837401F0D20110AF02C201530BEFA201DB
:100CEA0092AFD20110AF02C201750B00A20192AFFE
:100CFA00439A012290FC34E0FEA3E0FF90FC28E036
:100D0A00FCA3E0FDC3EE9CEF9D50012290FC2174F0
:100D1A0004F022E50B70012290FC45740DF0E50BFE
:100D2A00543070012290F811E0B401009201E433CA
:100D3A00FF90F583F0EF2416FDE434FCFE8D828EDD
:100D4A0083E06003020DD390DF04E030E0348F05C6
:100D5A007E00ED2DCEE4FD2412F582EE34F8F58303
:100D6A00E0FC8C33EDF5342412FDEE34F8FE740108
:100D7A002DF535E43EF5367532017582421219F2C7
:100D8A00803690FC77E0600A90FC7AE0FDA3E0FEF2
:100D9A00800890DF02E0FCFD7E007C00EF2FCCE4AF
:100DAA002412FFEC34F8FC8F358C367532018D3302
:100DBA008E347582421219F290F583E0FF2416F5FB
:100DCA0082E434FCF5837401F0D20110AF02C2014F
:100DDA00530BCFA20192AF2290F7C3E0FDA3E0FE2E
:100DEA00A3E0FF90F7C8E0FCBC4202800302174F61
:100DFA0090F7C9E0FC24BE5003021741EC240A8391
:100E0A00F582EC244683F583E4734141E81F419B54
:100E1A00486679B1E90C4FED41419F1C43B6DBEEC0
:100E2A005AD50541414141414141AD2F7D7396411A
:100E3A004141414141414141414141414141414198
:100E4A004141414141414141414198D217170E1157
:100E5A00170F10101010101111111717141515155E
:100E6A001515161315171717171717171617161517
:100E7A0015171717171717171717171717171717FA
:100E8A001717171717171717171717170E0EC00761
:100E9A00C006C005120183D005D006D00790FC21F8
:100EAA007440F08D828E838FF01245B6FC7B0090E1
:100EBA00FC34ECF0EBA3F090F7E9EDF0EEA3F0755B
:100ECA008201122DAF02174F90FC21E4F090F7E94E
:100EDA00EDF0EEA3F0758201122DAF02174F90FCD0
:100EEA0021E060099047371230F002174F8D828E49
:100EFA00838FF01245B6FC7B0090F586ECF0EBA3ED
:100F0A00F08D828E83A3E0FAE4F92CFCEA3BFB9095
:100F1A00F586ECF0EBA3F08D828E83A3A3A3A3E066
:100F2A00FA8A0889098D828E83A3A3A3A3A3E0FA70
:100F3A00E42508F508EA3509F50990FC1AE4F0A356
:100F4A00F074062DF9E43EFA90FC36ECF0EBA3F0CF
:100F5A0090FC38E4F0A3F090FC3AE508F0E509A328
:100F6A00F089828A83C007C006C005123392AC8218
:100F7A00D005D006D0078D828E838FF0EC12441FE5
:100F8A0090F7E9EDF0EEA3F0758201122DAF02178A
:100F9A004F8D828E838FF01245B690FC7AF0E4A3CF
:100FAA00F08D828E83A3E0FB7C0090FC7AE0F9A3AB
:100FBA00E0FA90FC7AEC29F0EB3AA3F090FC7AE0A4
:100FCA00FBA3E04B604590FC777401F090FC78E05D
:100FDA00FBA3E0FC4B70481232D990FC7AE0FBA3E9
:100FEA00E0FC90FC78EBF0ECA3F090FC78E0FBA33B
:100FFA00E090DF02EBF090DF04E053E0FCF090DFDA
:10100A0004E043E002F012328D801490FC77E4F0A1
:10101A0090FC78F0A3F090FC7AF0A3F01232D99009
:10102A00F7C8E0FC90F7C9E0F53275357A7536FCF9
:10103A007533017534008C821219F202174F8D82B2
:10104A008E838FF01245B690FC8BF090F7E9EDF0A5
:10105A00EEA3F0758201122DAF02174F90F7E974D3
:10106A008BF074FCA3F0758201122DAF02174F901A
:10107A00FC8BE054F0FC90FC597406F090FC5AEC9E
:10108A00F08D828E838FF0C007C006C00512404ED5
:10109A00D005D006D00790F7E9EDF0EEA3F07582FF
:1010AA0010122DAF02174F90FC8BE054F0FC90FC0D
:1010BA00597404F090FC5AECF08D828E838FF0C044
:1010CA0007C006C00512404ED005D006D00790F7DB
:1010DA00E9EDF0EEA3F0758210122DAF02174F8DD5
:1010EA00828E838FF01245B690FC8CF0E053E001BB
:1010FA00F090F7E9EDF0EEA3F0758201122DAF0240
:10110A00174F90F7E9748CF074FCA3F07582011202
:10111A002DAF02174F8D828E838FF01245B6FC7B5E
:10112A00008C828B83C007C006C005120640D0051A
:10113A00D006D00790F7E9EDF0EEA3F07582011220
:10114A002DAF02174F90FC21E0601C8D828E838F99
:10115A00F074EF12441F90F7E9EDF0EEA3F07582F8
:10116A0001122DAF02174F8D828E838FF01245B672
:10117A00FC7B0090F586ECF0EBA3F08D828E83A3C6
:10118A00E0FAE42CFCEA3BFB90F586ECF0EBA3F0EA
:10119A008D828E83A3A3E0FA90FC1AE4F0A3F07484
:1011AA00032DF8E43EF990F557ECF0EBA3F090F537
:1011BA0059EAF088828983C007C006C005120187F0
:1011CA00AC82D005D006D0078D828E838FF0EC12C8
:1011DA00441F90F7E9EDF0EEA3F0758201122DAFEE
:1011EA0002174F8D828E838FF01245B6FB7C0090DA
:1011FA00F586EBF0ECA3F0EB4C60030212E690FCF0
:10120A0088E0F9A3E0FA49601C90DF3BE0FABA13E0
:10121A0014900028C007C006C005123D83D005D02F
:10122A0006D00780D990FC88E0F9A3E049606B906A
:10123A00475CC007C006C0051230F090FC88E0F990
:10124A00A3E0FA89828A8312314D90F372E0F58223
:10125A0012313290F463E0F582123132D005D006B1
:10126A00D00790FC467412F08D828E838FF074EC56
:10127A0012441FC291C007C006C005123268D005C9
:10128A00D006D00790FC21E4F090F7E9EDF0EEA348
:10129A00F0758201122DAF02174FC29190FC21E422
:1012AA00F08D828E838FF012441F904770C007C062
:1012BA0006C0051230F090FC1AE0F9A3E0FA898220
:1012CA008A8312314DD005D006D00790F7E9EDF0A8
:1012DA00EEA3F0758201122DAF02174F90FC21E0A8
:1012EA00FABA06028061904780C007C006C005129C
:1012FA0030F0D005D006D00790FC46E0FABA121BAF
:10130A008D828E838FF074EC12441F90F7E9EDF012
:10131A00EEA3F0758201122DAF801F90FC46741760
:10132A00F08D828E838FF074EF12441F90F7E9EDEF
:10133A00F0EEA3F0758201122DAFC29112326890BD
:10134A00FC21E4F002174F74012DF9E43EFA90F5FE
:10135A005CEBF089828A83C007C006C00512032E9F
:10136A00AC82D005D006D0078D828E838FF0EC1226
:10137A00441F8D828E838FF01245B6FBEC603BBB17
:10138A00FE028036904789C007C006C0051230F0B9
:10139A00D005D006D0078D828E838FF01245B6F520
:1013AA0082C007C006C005123132C291123268D01B
:1013BA0005D006D00790FC21E4F090F7E9EDF0EEB5
:1013CA00A3F0758201122DAF02174F8D828E838F83
:1013DA00F01245B6FB7C0090F586EBF0ECA3F0C367
:1013EA0074F09BE49C50199046941230F090F7E9FF
:1013FA007486F074F5A3F0758201122DAF02174FAF
:10140A0090FC32E075F0F1A42472F974F335F0FA25
:10141A0089828A83E060199047961230F090F7E942
:10142A007486F074F5A3F0758201122DAF02174F7E
:10143A0089828A83EBF090FC32E075F0F1A4247281
:10144A00FB74F335F0FC0BBB00010C7A0074012D20
:10145A00F8E43EF9881289138A1490F586E0F515A6
:10146A00A3E0F5168B828C838AF012432C90FC320F
:10147A00E0FC0C90FC32ECF0BC0200400590FC321F
:10148A00E4F090F7E97486F074F5A3F0758201121E
:10149A002DAF02174F8D828E838FF01245B6FC7BDB
:1014AA000090FC26ECF0EBA3F090FC26E0F9A3E018
:1014BA00FAC374709C74039B402E74022DFBE43EA5
:1014CA00FC8B128C1375140089158A1690F000751E
:1014DA00F00012432C90F7E97426F074FCA3F0751F
:1014EA008202122DAF02174F90F7E974B7F07447D2
:1014FA00A3F0758208122DAF02174F90FC26E0FC6C
:10150A0090F7E97400F074F0A3F08C82122DAF0208
:10151A00174F12065D7B008B8312061890FC2AE097
:10152A00FBA3E0FC90F7E9EB2400F0EC34F0A3F025
:10153A00758201122DAF02174F8D828E838FF012A2
:10154A0045B6FC7B008C828B83C007C006C005129F
:10155A0000EAD005D006D00790F7E9EDF0EEA3F047
:10156A00758201122DAF02174F758200C007C0069F
:10157A00C005120169D005D006D00790F7E9EDF051
:10158A00EEA3F0758201122DAF02174FC007C006F5
:10159A00C005120183D005D006D00790F7E9EDF017
:1015AA00EEA3F0758201122DAF02174F8D828E8342
:1015BA008FF01245B6FC7B0090FC22ECF0EBA3F016
:1015CA0090F7E9EDF0EEA3F0758201122DAF021744
:1015DA004F90F7E97422F074FCA3F0758204122D7F
:1015EA00AF02174F8D828E838FF0C007C006C005E9
:1015FA001230AFD005D006D0078D828E838FF012BD
:10160A0045B6F582C007C006C005123132D005D0F2
:10161A0006D0078D828E838FF01245B6FC7B008C34
:10162A00128B138B147515158B1690FC2175F0000F
:10163A00C007C006C00512432CD005D006D00790BB
:10164A00F7E9EDF0EEA3F0758215122DAF02174FF0
:10165A0090FC1DE0FBA3E0FC90FC24EBF0ECA3F073
:10166A0090F7E97421F074FCA3F0758215122DAF7E
:10167A0002174F8D828E838FF01245B6FC7B008C49
:10168A00828B83C007C006C00512050ED005D0069E
:10169A00D00790F7E9EDF0EEA3F0758201122DAFB5
:1016AA0002174F90FC47E0F9A3E0FAA3E0A3E09009
:1016BA00FC2CE9F0EAA3F08D828E838FF01245B6F6
:1016CA00FC90FC21F090FC21E0FBEC24FA4046EB74
:1016DA002B9016DF73800A8008800680268024807B
:1016EA0011C007C006C005120183D005D006D00775
:1016FA008023C007C006C0051205F1D005D006D068
:10170A00078012758200C007C006C005120169D0A1
:10171A0005D006D00790F7E9EDF0EEA3F075820147
:10172A00122DAF802090F7E97421F074FCA3F075B4
:10173A008201122DAF800E90F7E9EDF0EEA3F0755D
:10174A008201122DAF900000222290F7D1E0FFBF54
:10175A00013990F7B1E0FEA3E0FF90F7D4E0FCA3D3
:10176A00E0FD90F7B4E0FAA3E0FBEA4B601D8E823D
:10177A008F83E0F9A3AE82AF838C828D83E9F0A3D5
:10178A00AC82AD831ABAFF011B80DF90F7BAE0542E
:10179A00FDF090DE11E043E008F022AE82AF83E074
:1017AA00FD20E70302189E8E828F83A3E0FD601D51
:1017BA00BD0102802ABD0202803BBD0302805ABDE0
:1017CA0004028076BDFE0302186002189E75370275
:1017DA0075380090FC4575F000121C9D02189E9009
:1017EA00DE00E0FD7C007539288C3A8D828C8312EC
:1017FA001D1102189E8E828F83A3A3E0FCA3E0FD35
:10180A0074062EF582E43FF583E0F539A3E0F53A54
:10181A008C828D83121D11807B8E048F057B007450
:10182A00062EF582E43FF583E0F537A3E0F5388C20
:10183A00828D838BF0121C9D805A90F7B1E0FBA336
:10184A00E0FCA3E0FD753910753A008B828C838D1C
:10185A00F0121D11803E74022EFEE43FFF7D0075DA
:10186A004BBF754C47754D807512048D138E828F50
:10187A00838DF0123E2FE5828583F045F06012D207
:10188A009190012C123D83C29190012C123D8380CC
:10189A000375C9839000002290DF2FE4F090DF30B7
:1018AA00F090DF31F090DF00740CF090DF01744E9D
:1018BA00F090DF0274FFF090DF037440F090DF04D1
:1018CA00E4F090DF05F090DF06F090DF077406F091
:1018DA0090DF08E4F090DF097424F090DF0A743A8C
:1018EA00F090DF0B74F1F090DF0C74CAF090DF0D0A
:1018FA0074A3F090DF0E7401F090DF0F7423F09060
:10190A00DF107411F090DF117436F090DF12740753
:10191A00F090DF13740FF090DF147418F090DF1555
:10192A0014F090DF16746CF090DF177403F090DFF8
:10193A00187440F090DF197491F090DF1A7456F021
:10194A0090DF1B7410F090DF1C74E9F090DF1D74B7
:10195A002AF090DF1EE4F090DF1F741FF090DF235F
:10196A007488F090DF247431F090DF257409F090C8
:10197A00DF2E74C0F090DF07C4F090DF097425F001
:10198A0090DF0A7495F090DF0B7455F090DF1A74AB
:10199A00B6F090DF1B7410F090DF1C74EAF090DF51
:1019AA001D742AF090DF1EE4F090DF1F741FF022EE
:1019BA00123EAE023ED21219BA123197123EFF12ED
:1019CA001C671233051209D4121C97D2AF121B449A
:1019DA00D291900002123D83C29190000A123D8377
:0819EA00122DE01209F880F84B
:1046190043616E6E6F742063616C6C207472616E9D
:10462900736D69745F6C6F6E67207768696C65205C
:104639004648535320486F7070696E67206F722027
:10464900616C72656164792070726F6365737369F7
:104659006E67207472616E736D69745F6C6F6E67DB
:1046690021004D41435F7478282920726574757261
:104679006E6564206572726F72006E657665722070
:10468900656E7465726564205458004648535378C2
:104699006D6974206D65737361676520746F6F2030
:1046A9006C6F6E67004648535320737461746520BC
:1046B900656E746572696E672053594E4348494E59
:1046C900472066726F6D2077726F6E672073746111
:1046D90074650053594E43485F4D41535445522028
:1046E9002D3E2053594E43494E474D41535445524F
:1046F9000046485353786D697420646F6E65006E87
:104709006574776F726B207061636B657428737958
:104719006E6329006E6574776F726B207061636BCD
:10472900657428646973636F7665727929006372A9
:1047390061702C20706C6561736520757365204606
:10474900485353786D6974282920696E73746561BB
:1047590064210064726F706F75742066696E616C94
:1047690020776169742100746F74616C20627974B7
:1047790065732074783A00756E64657272756E009F
:10478900627566666572206572726F72007374690C
:104799006C6C2077616974696E67206F6E2074682C
:1047A90065206C617374207061636B6574004E4F92
:0B47B900204445414C005253544E0078
:1019F200AF827E017D0090DE0E7405F090FC45748E
:101A020012F0EE7006ED7003021B3A7B107C2790F9
:101A1200DE11E030E00D90FC467401F01BBBFF01CB
:101A22001C80ECEB4C7014D2919003E8123D83C2FF
:101A3200919003E8123D8390FFFF22BE012E7E00AB
:101A420090DE2A7440F0EFF0E532F0E533F0E53451
:101A5200F0C3E533943BE534940040087B3B7C00C3
:101A62007D018021AB33AC347D008019C3E5339412
:101A720040E534940040087B407C007D018006AB49
:101A820033AC347D00AA2974802A42D68526828509
:101A92002783AA368A01E9F0852682852783A3E572
:101AA20035F0852682852783A3A374DEF0852682FE
:101AB200852783A3A3A3742AF0852682852783A37F
:101AC200A3A3A3A3EBF0852682852783A3A3A3A3C5
:101AD200E054E0F0852682852783A3A3A3A3A3A3D2
:101AE200A3E0543F4440F0852682852783A3A3A325
:101AF200A3A3A3A3E054CFF0E52942D6E52942D718
:101B0200E52955D160FAE529F4FA52D190DE0E7436
:101B120005F090DE11E043E001F0E533C39BF533BD
:101B2200E5349CF534EB2535F535EC3536F5369054
:101B3200FC457413F0021A0490FC457414F09000F2
:101B42000022E5227005122DE080F72253BE7F00AD
:101B520043BE8090DE0B74F7F090DE0774FFF090C6
:101B6200DE09F0438C10538CFED2BD439A02758974
:101B720000C2C5758B00C2E843A90243B90285269B
:101B820082852783A3A3A3A3E054E0F08526828560
:101B92002783A3A3A3A3A3A3E0549F4420F08526F5
:101BA20082852783A3A3A3A3A3A3A3E04408F0856C
:101BB2002682852783A3A3A3A3A3A3A3E054FC4463
:101BC20001F090DE01E053E0FEF0E4F525F523F5A7
:101BD20024F52290DE0EF090DE107404F090DE13F5
:101BE200F090F7BBE4F090F7BAF090F7AFF0A3F003
:101BF20090F7B17488F074F5A3F0E4A3F090F7B411
:101C0200F0A3F090F7B6F090F7B7F090F7B8F0A322
:101C1200F090DE0E7405F090DE107408F090DE1382
:101C2200F090DE12E043E001F090DE15E043E001C7
:101C3200F090F7CDE4F090F7CCF090F7C1F0A3F07C
:101C420090F7C374A8F074F5A3F0E4A3F090F7C67C
:101C5200F0A3F090F7C8F090F7C9F090F7CAF0A39C
:101C6200F0439A02221231BB858228AF288FF005F9
:101C7200F07401800225E0D5F0FBF529E52875F026
:101C820008A424F9F52674F735F0F52790FC45747D
:101C920002F0021B4ED29022C29022AFF0AE83E538
:101CA2008290F7D6F0EEA3F0EFA3F090F7BBE060DE
:101CB20034D2919003E8123D83C2919003E8123D21
:101CC20083D2919003E8123D83C2919003E8123DC2
:101CD20083D2919003E8123D83C2919003E8123DB2
:101CE2008390FFFF2290F7D6E0FDA3E0FEA3E0FF82
:101CF20090F7ACEDF0EEA3F0EFA3F090F7AFE5377D
:101D0200F0E538A3F090F7BB7401F090000022AF29
:101D120083E58290F7D9F0EFA3F090F7BBE060344F
:101D2200D2919003E8123D83C2919003E8123D8361
:101D3200D2919003E8123D83C2919003E8123D8351
:101D4200D2919003E8123D83C2919003E8123D8341
:101D520090FFFF2290F7D9E0FEA3E0FF7D0090F70D
:101D6200ACEEF0EFA3F0EDA3F090F7AFE539F0E5BC
:101D72003AA3F090F7BB7401F0900000227F007E3E
:101D82000290DE0EE4F090F7AFE0FCA3E0FDC3ECBE
:101D92009420ED940040047B2080068C037F017E1A
:101DA2000A8B017A00ECC399FCED9AFD90F7AFEC37
:101DB200F0EDA3F08B05ED603690F7ACE0FAA3E00E
:101DC200FBA3E0FC8A828B838CF01245B690DE2066
:101DD200F090F7ACE0FAA3E0FBA3E0FC0ABA000142
:101DE2000B90F7ACEAF0EBA3F0ECA3F01D80C790E8
:101DF200DE11E04EF0EF600590F7BBE4F02290F7C1
:101E0200BB7402F07582002290F7B1E0FDA3E0FE00
:101E1200A3E0FF90DE11E060FA90DE0EE4F090DEC7
:101E220016E0FC7B0090F7B4ECF0EBA3F090F7BA6D
:101E3200E030E11290F7BB7403F090DE11E043E072
:101E420004F090FFFF2290F7BAE04402F090F7B45A
:101E5200E0FBA3E0FCC374209BE49C501CD2919055
:101E6200012CC007C006C005123D83C29190012C0F
:101E7200123D83D005D006D00790F7B4E0FBA3E073
:101E8200FC8D07EB4C601690DE20E0FD8F828E8386
:101E9200F0A3AF82AE831BBBFF011C80E6E52C459D
:101EA2002D6009852C82852D8312008990F7B4E07C
:101EB200FEA3E0FFC3EE9420EF9400501CE52A45F8
:101EC2002B6009852A82852B8312008990DE11E01E
:101ED20043E008F090F7BBE4F090DE11E043E0400D
:101EE200F090F7B4E0FEA3E08E82F5832285822E85
:101EF20085832F228582308583312275370175389B
:101F02000090002575F040021C9DAFF0AE83E58283
:101F120090F7DBF0EEA3F0EFA3F090F7DBE0FDA388
:101F2200E0FEA3E0FF74022DFDE43EFE8D828E836F
:101F32008FF01245B6FD8D2575220122AF827D06F6
:101F42007E30E4BF030104FC600874EEB512037531
:101F520012048D828E83A3E090F7DEF09013E0E00E
:101F6200F8A3E0F9A3E0FAA3E0FBE4B8400AB96CF5
:101F720007BA6104BB730104FBAA1290F7DEE0F911
:101F8200B9FF02804DE9B50732EC600CBA0309EBE8
:101F920060067DE47E13803AEA700890F7DE74FFF3
:101FA200F080D81A8D828E83E02DFDE43EFE8D8274
:101FB2008E83A3E0F990F7DEF080C08D828E83E0FD
:101FC2002DFDE43EFE8D828E83A3E0F990F7DEF0D4
:101FD20080A98D828E8322AFF0AE83E58290F7DFF7
:101FE200F0EEA3F0EFA3F090F7DFE0FDA3E0FEA395
:101FF200E0FF74022DFDE43EFE8D828E838FF0128F
:1020020045B6FBA31245B6FCF97A00B90205BA003F
:1020120002801BB90757BA005474AF5BF97A008D7E
:10202200828E838FF0E912441FA3EA12441F90F7B5
:10203200DFE0FDA3E0FEA3E0FF74022DFDE43EFE1F
:102042008D828E838FF01245B6FDA31245B6F582BE
:102052008D12121F3EAE82AF8390F7E2EEF0EFA335
:10206200F08E828F83A3A3E0FE7F00801C8C828B84
:1020720012121F3EAC82AD8390F7E2ECF0EDA3F0BA
:102082008C828D83E0FCFE7F0090F7DFE0FCA3E012
:10209200FBA3E0FD74062CFCE43BFB8C828B838D5E
:1020A200F01245B6FCA31245B6FDC3EC9EED9F505F
:1020B200048C068D07EE4F700890DE11E043E0209D
:1020C200F090F7E2E0FCA3E0FD8E398F3A8C828D2E
:1020D20083021D1190DE0EE4F090DE11E0FF30E489
:1020E2000D90F7BBE4F090DE11E043E080F0EF30BA
:1020F200E22490DE11E4F090FC467404F090F7BB09
:10210200E4F0D291900014C007123D83C291900076
:1021120014123D83D00790F7BBE0FEBE0319D291A3
:10212200900032C007123D83C291900032123D836B
:10213200D00790F7BBE4F090F7BBE0600302242ADB
:10214200EF20E00302242A90DE0EE4F090DE16E097
:10215200FF7C3B7D007E40EF601690DE20E0FB8C32
:10216200828D838EF012441FA3AC82AD831F80E761
:10217200E53BFF20E7030222F38F055305607E0053
:10218200BD0005BE0002801EBD2006BE0003022265
:10219200AFBD4006BE00030222BABD6006BE000308
:1021A2000222DF022414741F5FFE7041AD3CBD00A9
:1021B20002801CBD06028005BD0826800C90003BF3
:1021C20075F040121FD9022414121EFD0224147548
:1021D20037027538009047DE75F080121C9D02248C
:1021E2001490003B75F040123005022414BE0144E5
:1021F200AD3CBD00028005BD0A268012753702750E
:1022020038009047DE75F080121C9D022414753749
:10221200017538009047E175F080121C9D0224146C
:1022220090DE11E043E020F090003B75F040123068
:1022320005022414BE0235AD3CBD00028008BD1269
:102242000302241480127537027538009047DE7538
:10225200F080121C9D02241490DE11E043E020F075
:1022620090003B75F040123005022414BE032AE4AC
:10227200B53C127537027538009047DE75F0801252
:102282001C9D02241490DE11E043E020F090003BFC
:1022920075F04012300502241490003B75F0401294
:1022A200300590DE11E043E020F002241490DE11AC
:1022B200E043E020F0022414E52E452F60131222A1
:1022C200C5800BC02EC02F90003B75F04022022427
:1022D2001490003B75F04012244102241490DE1148
:1022E200E043E020F090003B75F0401230050224FC
:1022F200148F055305607E00BD0005BE0002801EDE
:10230200BD2006BE00030223CDBD4006BE0003026F
:1023120023E0BD6006BE0003022403022414530717
:102322001FEF7047AE3CBE0103022414BE0303023A
:102332002414BE0502800BBE0703022414BE091733
:10234200800990DE00E53DF002241490003B75F018
:1023520040121F0C02241490003B75F0401230050D
:1023620090DE11E043E020F0022414BF0128AE3CCD
:10237200BE0103022414BE0303022414BE1103028D
:10238200241490003B75F04012300590DE11E043BA
:10239200E020F0022414BF021FAF3CBF0102807292
:1023A200BF0302806D90003B75F04012300590DE55
:1023B20011E043E020F0805A90DE11E043E020F08B
:1023C20090003B75F040123005804790003B75F05D
:1023D2004012300590DE11E043E020F08034E52E1B
:1023E200452F60121223EB8029C02EC02F90003B94
:1023F20075F04022801C90003B75F0401224418011
:102402001190DE11E043E020F090003B75F04012A5
:10241200300590DE11E043E040F0E54145427008AE
:1024220090DE11E043E008F090F7BBE0FFBF01034C
:10243200121D7F90F7BBE0FFBF0203021E0A22AF0C
:10244200F0AE83E58290F7E4F0EEA3F0EFA3F09014
:10245200F7E4E0FDA3E0FEA3E0FF8D828E838FF020
:102462001245B6FC20E70302263D74012DFAE43E34
:10247200FB8F048A828B838CF01245B6FC6025BCEC
:1024820001028032BC02028043BC030302250ABC63
:10249200040302253FBCFD0302255CBCFE030225AA
:1024A200F70226A375370275380090FC4575F000D7
:1024B200121C9D0226A390DE00E0FC7B00753928E9
:1024C2008B3A8C828B83121D110226A374022DFA81
:1024D200E43EFB8F048A828B838CF01245B6FAA30A
:1024E2001245B6FB74062DF8E43EF98F0488828902
:1024F200838CF01245B6F539A31245B6F53A8A82B5
:102502008B83121D110226A38D028E038F048A4330
:102512008B448C4574062DF8E43EF98F0488828939
:10252200838CF01245B6F537A31245B6F5388543CC
:10253200828544838545F0121C9D0226A390F7B143
:10254200E0FAA3E0FBA3E0FC753910753A008A8239
:102552008B838CF0121D110226A374042DFAE43E23
:10256200FB8F048A828B838CF01245B6FAA3124544
:10257200B6FBBA0446BB004374874430603D740620
:102582002DFBE43EFA8F048B828A838CF01245B6CF
:10259200FBA31245B6FC903087E493F97A00C3E9B5
:1025A2009BEA9C500C89398A3A903087121D11801F
:1025B2000A8B398C3A903087121D1190F7E4E0FAB9
:1025C200A3E0FBA3E0FC74042AFAE43BFB8A828BBF
:1025D200838CF01245B6FAA31245B6FBBA0505BBC9
:1025E200000280030226A3E4F539F53A90000012B6
:1025F2001D110226A374022DFAE43EFB8F0490FC07
:102602004B74E3F07447A3F07480A3F07512047561
:1026120013008A828B838CF0123E2FE5828583F031
:1026220045F06012D29190012C123D83C29190012B
:102632002C123D83806B75C983806690F7D1E0FCD4
:10264200BC015674022DFDE43EFE8D828E838FF016
:102652001245B6FDA31245B6FE90DE0EE4F090DE02
:1026620016E0FF7C007511088F828C83C007C006BC
:10267200C005C004123DC8D004D005D006D007EF73
:102682004C601690DE20E0FB8D828E83F0A3AD823B
:10269200AE831FBFFF011C80E690F7BAE054FDFF36
:1026A200F09000002290F7CCE030E10A90FC4674F2
:1026B20005F090FFFF2290DE0E7405F090DE16E02A
:1026C200FF7E0090DE17E0FCE42FF546EC3EF54776
:1026D20090F7CAE0FCA3E0FD4C705890F7C6E4F016
:1026E200A3F090DE2AE090F7C8F090DE2AE090F79F
:1026F200C9F090DE2AE0FD7C0090F7CAEDF0ECA371
:10270200F090DE2AE0FAE4FB2DFDEA3CFC90F7CAE9
:10271200EDF0ECA3F0E54624FCF546E54734FFF581
:1027220047C374049D74029C500990F7CA7404F064
:1027320003A3F0E52955D16012D291900014123D05
:1027420083C291900014123D8380E890F7C3E0FBAE
:10275200A3E0FCA3E090F7C6E0FAA3E0FFEA2BFBBC
:10276200EF3CFCAF2974802F42D6852682852783D1
:1027720074DEF0852682852783A3742AF08526825B
:10278200852783A3A38C078F06EEF08526828527F3
:1027920083A3A3A3EBF0852682852783A3A3A3A308
:1027A200A3A3A3E0543FF0852682852783A3A3A396
:1027B200A3A3A3A3E054CF4410F074052526FEE49E
:1027C2003527FF90DE16E0FD8E828F83EDF07404D4
:1027D2002526FEE43527FF90DE17E08E828F835494
:1027E2001FF5F0E054E045F0F090F7C6E0FFA3E0FB
:1027F200FEEF2546FCEE3547FDC374049C74029D32
:10280200500B7404C39FF54674029EF547C374408F
:102812009546E49547502790FC467406F090DE14E6
:10282200E053E0FEF0751104900005123DC87511E9
:1028320010854682854783123DC890FFFE22E52916
:1028420042D6E52942D7E5462FFEE5473EFF90F7FF
:10285200C6EEF0EFA3F0E52955D160FAE529F4526E
:10286200D190F7C6E0FEA3E0FF90F7CAE0FCA3E038
:10287200FDC3EE9CEF9D402B90F7CCE04402F0901C
:10288200F7CAE4F0A3F090DE0E7405F0AE2374BF35
:102892005524FF8E238F2490DE14E053E0FEF09047
:1028A20000012290DE0E7405F0AE2374BF5524FFA2
:1028B2008E238F2490DE14E053E0FEF0900000227D
:1028C20090F7CCE020E1012290F7C3E0FDA3E0FE07
:1028D200A3E0FF90F7E7EDF0EEA3F090F7C8E0F584
:1028E2004D74FFB54D028003022D8790F7C9E0FBBE
:1028F200BB80005003022D69EB246C5003022D694A
:10290200EB2480FA240A83F582EA241883F583E40F
:10291200733BCC44817198B9D009F26969696971D4
:10292200A40369691C29292B2B2A2B2B2B2C2B2D39
:102932002D2D2D2C2C2D2D2D2D8D828E838FF01251
:1029420045B6FA74012DF548E43EF5498A4B754CBB
:102952000090F7CAE54BF0E54CA3F0854882854923
:1029620083E0F54A74012548F54DE43549F54EA951
:102972004A8902E4F9254BF54BEA354CF54C90F7C0
:10298200CAE54BF0E54CA3F0854D82854E83E0F815
:10299200854882854983A3A3884D894EE0FAE425C0
:1029A2004DF9EA354EFA89358A3690F7C8E0FA9041
:1029B200F7C9E0F532854B33854C348A821219F21D
:1029C20090F7CAE4F0A3F0022D7F8D828E838FF000
:1029D2001245B6FA8D828E83A38A4B754C00E0F8BD
:1029E20074022DF54DE43EF54E8802E4254BF8EADB
:1029F200354CFA90F7CEE8F0EAA3F090F7C6E0F98A
:102A0200A3E0FAE924FEF54BEA34FFF54CE54B4529
:102A12004C603D90F7CEE0F548A3E0F549740125FE
:102A220048F9E43549FA90F7CEE9F0EAA3F0854D8A
:102A320082854E83E0FAA385824D85834E85488246
:102A4200854983EAF0154B74FFB54B02154C80BDE6
:102A520090F7C8E0FA90F7C9E0F5327535CA7536D5
:102A6200F77533027534008A821219F2022D7F90B3
:102A7200F7CCE020E2338D828E838FF01245B6FAD6
:102A82008D828E83A38A4D754E00E0F890F7E7742D
:102A9200022DF0E43EA3F08802E4254DF8EA354E1B
:102AA200FA90F7CEE8F0EAA3F090F7CAE0F9A3E0D3
:102AB200FA894D8A4EC37440954DE4954E50067581
:102AC2004D40754E00E9C3954DF9EA954EFA90F7DF
:102AD200CAE9F0EAA3F090F7E7E0F54BA3E0F54C82
:102AE200E54D454E603D90F7CEE0F548A3E0F5494F
:102AF20074012548F9E43549FA90F7CEE9F0EAA3E2
:102B0200F0854B82854C83E0FAA385824B85834C0A
:102B1200854882854983EAF0154D74FFB54D02154B
:102B22004E80BD90F7C8E0FA90F7C9E0F5327535EE
:102B3200CA7536F77533027534008A821219F202A9
:102B42002D7FD291900002C007C006C005123D83BE
:102B5200C291900002123D83D005D006D00790F7B3
:102B6200C8E0FA90F7C9E0F53290F7C6E0F533A372
:102B7200E0F5348D358E368A821219F2022D7F7578
:102B820035E87536478B3275330D753400854D82C5
:102B92001219F2022D7F90FC47E0F8A3E0F9A3E0BE
:102BA200A3E0883589368B32753304753400854D40
:102BB200821219F2022D7F7535CD7536478B32752B
:102BC2003311753400854D821219F2022D7F90F770
:102BD200C6E0F533A3E0F5348B328D358E36854D64
:102BE200821219F29000C8123D831231CA022D7F5F
:102BF2007535C47536478B32753309753400854D8A
:102C0200821219F2022D7F8D828E838FF01245B6C9
:102C1200FC74012DF9E43EFABC0202800ABC0302F4
:102C22008021BC0429800DC002C00112328DD00166
:102C3200D002801AC291C002C0011232D9D001D092
:102C420002800BC002C0011232AFD001D00290F755
:102C5200C8E0FC90F7C9E0F53290F7C6E0F533A37F
:102C6200E0F53489358A368C821219F2022D7F9072
:102C7200F7CA7401F0E4A3F07535367536DF90F7C4
:102C8200C8E0FC90F7C9E0F53290F7CAE0F533A34B
:102C9200E0F5348C821219F290F7CAE4F0A3F00244
:102CA2002D7F8D028E048C017C0090FC4B74F6F01B
:102CB2007447A3F07480A3F07512098C138A828979
:102CC200838CF0C007C006C005123E2FE5828583C3
:102CD200F0D005D006D00745F06003022D7F75C9FC
:102CE2008090F7C8E0FC90F7C9E0F53290F7C6E0B3
:102CF200F533A3E0F5348D358E368C821219F280CD
:102D02007C90FC45E4F090FC46F090F7E9EDF0EEA3
:102D1200A3F0758202122DAF80638D828E838FF0B5
:102D22001245B6FC74012DF9E43EFABC0002800B98
:102D3200BC010F90FC8E7401F0800C90FC8EE4F0CC
:102D4200800590FC8EE4F090F7C8E0FC90F7C9E0B3
:102D5200F53290F7C6E0F533A3E0F53489358A36CB
:102D62008C821219F2801690F7C6E0F533A3E0F5D3
:102D7200348B328D358E36854D821219F290F7CC16
:102D8200E054FDF022E5304531601985308285310D
:102D920083120089AE82AF83EE4F701090F7CCE0C1
:102DA20054FDF02290F7CCE054FDFFF022E5829032
:102DB200F7EBF090F7CCE054FDF090F7C8E0FF900D
:102DC200F7C9E0F53290F7EBE0FE8E3375340090F0
:102DD200F7E9E0F535A3E0F5368F820219F2E52333
:102DE20030E01175220274FE5523FEAF248E238F2C
:102DF2002443BE01E5235406602D90FC45740AF07D
:102E020075220374FD5523FEAF248E238F2490DE9A
:102E120001E043E004F0900008123D8390DE01E0FF
:102E220053E0FBF075220190DE0EE4F090DE11E03B
:102E320030E21990DE11E053E0DBF090F7AFE4F0FE
:102E4200A3F090F7B4F0A3F090F7BBF090DE0E740D
:102E520005F090DE11E030E51F90DE11E053E0CF87
:102E6200F090FC467408F090F7C1E4F0A3F090F7FC
:102E7200C6F0A3F090F7CDF090DE14E030E61F909C
:102E8200DE14E053E09FF090FC467408F090F7C126
:102E9200E4F0A3F090F7C6F0A3F090F7CDF0E523AD
:102EA20020E2057404B52214121B4E90FC45740BEB
:102EB200F074FB5523FEAF248E238F24E52330E4E8
:102EC200111220D674E75523FE740F5524FF8E236A
:102ED2008F24E52430E65490FC45740CF01226A7AA
:102EE200AE82AF83BEFE41BFFF3E90F7EC7406F0A8
:102EF200E4A3F090F7C8E0FF90F7C9E0F53275352A
:102F0200EC7536F77533027534008F821219F29020
:102F1200F7C8E0FF7535EC7536F775320175330287
:102F22007534008F821219F21228C2E52354E07020
:102F320006E52454BD602990FC467409F075110819
:102F4200900044123DC88523828524837511101296
:102F52003DC874E05523FE74BD5524FF8E238F2493
:102F620022C0E0C082C083C007C006C005C004C042
:102F7200D075D000E5BE30E6FB90DE06E0FF7E00B5
:102F8200E5234207E52442068F238E2490DE02E0E9
:102F9200FDE4CDC4CD6DCD54F0CD6DFCED4207EC1A
:102FA20042068F238E2490DE04E07C0025E0CCE4F0
:102FB2004207EC42068F23EEF52430E11290F7CC63
:102FC200E054FEF0AE2374FD5524FF8E238F24754A
:102FD2008B00C2E8D0D0D004D005D006D007D08371
:102FE200D082D0E032C0E0E5BE30E6FBC2AFE58978
:102FF20030E70375220353BEFC758900C2C5D2AF08
:04300200D0E03222C6
:1047C400534443437634323000444F4E53444F4EA7
:1047D400474C452072303535360000000000005249
:1047E40053544E00554E494D504C454D454E54453D
:0C47F400440052455345545F4E4F57009F
:103006001201000200000020501D4860010101026B
:1030160003010A0600020000002001000902200048
:1030260001010080FA0904000002FFFFFF00070506
:10303600850240000107050502400001040309045A
:103046000C0352006600430061007400180344003C
:103056006F006E007300200044006F006E00670072
:103066006C0065000A0330003000300030001203A7
:103076004D00530046005400310030003000FD0082
:10308600FF2800000000010400010000000000000D
:1030960000000157494E5553420000000000000051
:1030A600000000000000000000AF83E58290F7EE0C
:1030B600F0EFA3F090F7EEE0FEA3E0FF7C007D00CA
:1030C6008E028F038A828B83E0F9A3AA82AB83E9FF
:1030D60060070CBC00EE0D80EB7532F08C338D343E
:1030E6008E358F367582FE0219F2AF83E58290F730
:1030F600F0F0EFA3F090F7F0E0FEA3E0FF7C007D98
:10310600008E028F038A828B83E493F9A3AA82AB93
:1031160083E960070CBC00ED0D80EA8E358F3675AD
:1031260032F08C338D347582FE0219F2E58290F707
:10313600F2F07535F27536F77532F175330175347F
:10314600007582FE0219F2AF83E58290F7F3F0EF85
:10315600A3F07535F37536F77532F27533027534AB
:10316600007582FE0219F2AF82AE83ADF0FC90F7D5
:10317600F5EFF0EEA3F0EDA3F0ECA3F07535F575E1
:1031860036F77532F37533047534007582FE02190D
:01319600F246
:0300E400750A009A
:103197007EF97FF78FD575D4F97E017FF88FD375C8
:1031A700D20175120075131875140090F7F975F0B0
:1031B700000243B47403B50A047582FF22850A82AC
:1031C700050A2290DF46E0FFBFF00E90DF47E0FFE1
:1031D700BF0D0690DF487469F0C2AF759A0075B8E5
:1031E7000075A800121C9A53BE7F75D69FC2910224
:1031F7000000221243D3AC82AD83AEF0FFC004C0FF
:1032070005C006C0079037BD75F086743D12425B56
:10321700AC82AD83AEF0FFE58124FCF581E4C0E02C
:10322700C0E074C0C0E07441C0E08C828D838EF032
:10323700EF1244F3AC82AD83AEF0FFE58124FCF5D9
:10324700818C828D838EF0EF1243E6AC82AD83AE24
:10325700F090DF09EEF090DF0AEDF090DF0BECF075
:103267002275E10490DF3BE0FFBF01F890FC1CE012
:10327700F5E190FC1CE0FFBF04012290DF3BE0FF7B
:10328700BF010280ED2290FC1CE0FFBF02012290EB
:10329700DF13E053E0F0F090DF13E043E00FF0902E
:1032A700FC1C7402F002372690FC1CE0FFBF0301F0
:1032B7002290DF13E053E0F0F090DF13E043E00AE1
:1032C700F090FC1C7403F0F5E190DF3BE0FFBF13C7
:1032D700F82290FC1CE0FFBF04012290DF13E053AB
:1032E700E0F0F05391EF75E10490DF3BE0FFBF01A1
:1032F700F8539BFC53E9EF90FC1C7404F02290FCFC
:103307001FE4F0A3F090FC12F0A3F090FC14F0A3DC
:10331700F053C6C7759D00859E9E439E0485A9A947
:1033270043B90190FC1C7404F0751200751300F585
:103337001490F81275F0001243B41218A2D2A875AF
:1033470091D175E900750B00439A0175E10490DF8F
:103357003BE0FFBF01F8227E007F00C3EE94DCEF65
:103367009405502390DF3CE0545060049000012204
:10337700900032C007C006123DAAD006D0077432AB
:103387002EFEE43FFF80D490000022AF83E58290B9
:10339700FC3CF0EFA3F090FC3EE4F090DF02E0FF8E
:1033A70090DF3BE0FEBE131EA291B3920290FC8E0B
:1033B700E0FEA202E4335206EE24FF9291C0071208
:1033C7002DE0D00780DAC29190FC8AE4F090FC38B7
:1033D700E0FDA3E0FE90FC80EDF0EEA3F090FC3A58
:1033E700E0FBA3E0FC90FC86EBF0ECA3F090FC364E
:1033F700E0F9A3E0FA90FC82E9F0EAA3F090FC84FC
:10340700E9C39BF0EA9CA3F090FC84E0FBA3E0FCFB
:103417008D128E138B828C83C007C006C005C00235
:10342700C00112443AAB82AC83D001D002D005D0A0
:1034370006D00790FC88EB29F0EC3AA3F0E94A7034
:1034470073C00790FC3CE0FBA3E0FC8B828C83E01D
:10345700F8880C750D0090FC36E50CF0E50DA3F02F
:1034670090DF04E0F87F00740358F50E8F0FE4B582
:103477000E07B50F04D0078020D0077401B50E06DC
:1034870014B50F02800302355390FC367401250CE6
:10349700F0E4350DA3F002355390FC3C74012BF09A
:1034A700E43CA3F090FC36E0FBA3E0FC90DF02EBEA
:1034B700F002355390DF04E0FC5304037B00BC00AB
:1034C70005BB00028049BC0105BB00028003023531
:1034D7005390FC3CE0FBA3E0FC90FC3FE9F0EAA33F
:1034E700F090FC417401F0E4A3F08B828C83C00759
:1034F700C002C001123D2ED001D002D00790FC3C83
:10350700E0FBA3E0FC89008B828C83E8F0803DED33
:103517004E603490FC88E0FDA3E090DF02EDF09070
:10352700DF04E053E0FCF090FC88E0FDA3E0FEC37D
:1035370074FF9DE49E500890DF04E043E002F090A2
:10354700FC8A7401F0800590DF02E9F0D2A890FCB4
:103557008BE020E30302368990DF04E0FE53060385
:103567007D00BE0109BD000690FC3E7401F090FC91
:103577003EE0FE90FC3CE0FCA3E0FDEE2CFAE43DCF
:10358700FB90FC36E0F8A3E0F990FC5DE8F0E9A3D6
:10359700F08A828B83C007C006C005C0041240A30F
:1035A700AA82AB83D004D005D006D00790FC8BE06D
:1035B700F85300047900B8043EB9003BC007EE2C6D
:1035C700F8E43DF990FC8BE054F0FF90FC61E8F0E3
:1035D700E9A3F090FC63EAF0EBA3F090FC65EFF051
:1035E70088828983C007C003C0021240D9D002D0A5
:1035F70003D007D0078035EE2CFCE43DFD90FC8B13
:10360700E054F0FE90FC68ECF0EDA3F090FC6AEA61
:10361700F0EBA3F090FC6CEEF08C828D83C007C0BA
:1036270003C002124122D002D003D00790FC3EE033
:10363700603390FC8BE0FE5306F07D00BE5014BD56
:10364700001190FC3CE0FDA3E0FE8D828E83741098
:10365700F0802F90FC3CE0FDA3E0FE8A048D828E73
:1036670083ECF0801D90FC8BE0FE5306F07D00BEDE
:10367700500BBD000890DF027410F0800590DF0248
:10368700EAF090FC3CE0FDA3E0FE90FC18EDF0EEC4
:10369700A3F090FC7EE4F0A3F075E1037D607EEA81
:1036A70090DF3BE0FCBC1302802F1DBDFF011EED28
:1036B7004E6026A291B3920290FC8EE0FCA202E437
:1036C700335204EC24FF9291C007C006C005122DA7
:1036D700E0D005D006D00780C790FC8EE05401FCEF
:1036E70024FF9291ED4E700690FC467413F090DF24
:1036F7003BE0FEBE131EA291B3920290FC8EE0FE49
:10370700A202E4335206EE24FF9291C007122DE085
:10371700D00780DAC29190DF02EFF075820122D2E2
:10372700A875120075130075140290F81275F00051
:103737001243B490FC12E4F0A3F090FC14F0A3F051
:1037470090FC16F090FC1704F090F811E4F0539BEE
:10375700FC53E9EF75E10290DF3BE0FFBF0DF84353
:1037670091102290FC8D7401F02290FC8DE4F022E0
:10377700C021C0E0C0F0C082C083C007C006C0053A
:10378700C004C003C002C001C000C0D075D0009003
:10379700FC457411F0C28990DF3BE0FFBF0D02804A
:1037A700030238C090FC8EE05401FF24FF929190F1
:1037B700FC77E0602590FC78E0FEA3E0FFEE24FFB5
:1037C700FCEF34FFFD90FC78ECF0EDA3F074FF2FD5
:1037D700400890DF04E053E0FCF090FC1C7402F01A
:1037E70090F811E07E0025E0CEE42412FFEE34F8D5
:1037F700FEE075F002A42412FC74FC35F0FD8C8207
:103807008D83E0FAA3E0FB74012AF8E43BF98C828C
:103817008D83E8F0E9A3F0EA2FF582EB3EF583E527
:10382700D9F090F811E075F002A42412F58274FC27
:1038370035F0F583E0FEA3E0FFC39402501A90F839
:1038470011E075F002A42412F58274FC35F0F583BB
:10385700E0FEA3E0FF4E701990F811E075F002A4A6
:103867002412F58274FC35F0F58374FFF07401A31C
:10387700F090FC78E0FEA3E0FF4E6003023A6F9001
:10388700FC77E07003023A6F90FC7AE0FEA3E0FF5A
:1038970090FC78EEF0EFA3F090FC78E0FEA3E07FD9
:1038A7000090DF02EEF090DF04E053E0FCF090DFE1
:1038B70004E043E002F0023A6F90DF3BE0FFBF1302
:1038C700028003023A6F90FC8AE07003023A00908C
:1038D700FC2EE0FEA3E0FF0EBE00010F90FC2EEED3
:1038E700F0EFA3F090FC7EE0FEA3E0FF90FC82E007
:1038F700FCA3E0FDEEB50406EFB50502800302392F
:10390700D890FC80E0FEA3E04E603890FC80E0FE9B
:10391700A3E0FFBEFF05BF0002801590FC80E0FE1C
:10392700A3E0FF1EBEFF011F90FC80EEF0EFA3F0A7
:1039370090FC86E0FEA3E0FF90FC7EEEF0EFA3F0A4
:103947000239D890FC82E0F512A3E0F51390FC7CD5
:10395700E0FF7E008F828E8312443AAE82AF83905F
:10396700FC18E0FCA3E0FDEE2CF582EF3DF583E4C7
:10397700F090FC7CE02401FFF090FC7DE0FEEFB5C9
:10398700060590FC7CE4F090FC82E0F512A3E0F5DC
:103997001390FC7CE0FF7E008F828E8312443AAE48
:1039A70082AF8390FC18E0FCA3E0FDEE2CFEEF3D18
:1039B700FF8E828F83E0701090FC21E4F090FC462C
:1039C7007412F0123268C29190FC7E7401F0E4A385
:1039D700F090FC88E0FEA3E0FFEE24FFFCEF34FF4D
:1039E700FD90FC88ECF0EDA3F0BEFF22BF001F9016
:1039F700DF04E053E0FCF0801590FC88E0FEA3E0D4
:103A0700FF1EBEFF011F90FC88EEF0EFA3F090FCB5
:103A17001C7403F090FC82E0F512A3E0F51390FC10
:103A27007CE0FF7E008F828E8312443AAE82AF83A2
:103A370090FC7EE0FCA3E0FD90FC7E74012CF0E49A
:103A47003DA3F0EC2EFEED3FFF90FC18E0FCA3E059
:103A5700FDEE2CF582EF3DF583E0F5D990FC1AE0F9
:103A67002401F0A3E03400F0D0D0D000D001D00280
:103A7700D003D004D005D006D007D083D082D0F0B1
:103A8700D0E0D02132C021C0E0C0F0C082C083C0E6
:103A970007C006C005C004C003C002C001C000C003
:103AA700D075D00075100090FC457410F0539BFC46
:103AB700E5E9420BE5E930E01C90FC1DE0FDA3E0E1
:103AC7008D067D00AB9C7C0090FC1FED4BF0EE4C0F
:103AD700A3F053E9FEE5E954707003023C9990FCAA
:103AE7001CE0FEBE0306530B8F023C9690F811E0D4
:103AF700B401009203E433FD7E002416F582EE3410
:103B0700FCF583E0FEBE01028003023C4D90FC8B76
:103B1700E020E103023C2590DF04E0FE5306037D2D
:103B270000BE0106BD000375100190FC8BE0FE533B
:103B370006017D00BE0176BD007390F811E07D009F
:103B470025E0CDE42412FEED34F8FDAB107C00EB4C
:103B57002EFEEC3DFDE0F97A0029CAE42412F9EAC9
:103B670034F8FAEB29FBEC3AFCE075F002A42412D6
:103B7700F58274FC35F0F583E0F9A3E0FAA8107F2D
:103B870000E9C398F9EA9FFA90FC8BE054F0FF90A4
:103B9700FC61EBF0ECA3F090FC63E9F0EAA3F09092
:103BA700FC65EFF08E828D831240D9807190F811F9
:103BB700E07E0025E0CEE42412FFEE34F8FEAC10E0
:103BC7007D00EC2FFFED3EFEE07A0025E0CAE424FD
:103BD70012FBEA34F8FAEC2BFCED3AFDE075F00243
:103BE700A42412F58274FC35F0F583E0FAA3E0FB18
:103BF700A8107900EAC398FAEB99FB90FC8BE05484
:103C0700F0F990FC68ECF0EDA3F090FC6AEAF0EBB9
:103C1700A3F090FC6CE9F08F828E8312412290F81A
:103C270011E063E001F090F811E075F002A42412AE
:103C3700F58274FC35F0F583E4F0A3F090FC16F000
:103C470090FC17F0804790FC467412F0A291B39253
:103C57000390FC8EE0FFA203E4335207EF24FF92A8
:103C67009190F811E075F002A42412F58274FC35E6
:103C7700F0F583E4F0A3F0A291B3920390FC8EE0F9
:103C8700FFA203E433FE5207EF24FF9291C2915340
:103C9700E9CFE5E930E63790FC467410F0A291B31E
:103CA700920390FC8EE0FFA203E4335207EF24FF58
:103CB7009291123268A291B3920390FC8EE0FFA218
:103CC70003E433FE5207EF24FF929153E9BFE5E97E
:103CD70030E73790FC467411F0A291B3920390FC41
:103CE7008EE0FFA203E4335207EF24FF92911232D2
:103CF70068A291B3920390FC8EE0FFA203E433FE27
:103D07005207EF24FF929153E97FD0D0D000D00122
:103D1700D002D003D004D005D006D007D083D082FC
:103D2700D0F0D0E0D02132AF83E58290FC43F0EFB2
:103D3700A3F090FC41E0FEA3E0FF90FC43E0FCA36E
:103D4700E0FD90FC3FE0FAA3E0FB8A008B011ABA82
:103D5700FF011BE8496024EE2AF8EF3BF9E82CF84D
:103D6700E93DF9EA2CF582EB3DF583C006C007E093
:0C3D770088828983F0D007D00680CF221C
:1048000000000000000001000000000000000000A7
:0748100000000000000000A1
:103D8300AE82AF831EBEFF011FC3E49E74808FF01B
:103D930063F08095F0500F7C4C7D041CBCFF011D2B
:103DA300EC4D70F780DE22AE82AF83EE2EFEEF3352
:103DB300FF1EBEFF011FC3E49E74808FF063F0807B
:103DC30095F040ED22AE82AF83D2919003E8C00715
:103DD300C006123D83C2919001F4123D83D006D0F8
:103DE30007EE30E020900019C007C006123D83D2D1
:103DF30091900226123D83C291900019123D83D007
:103E030006D007801E900113C007C006123D83D25F
:103E130091900032123D83C291900113123D83D0E1
:103E230006D007EFC313CE13CEFF80B5AFF0AE833A
:103E3300E58290FC4EF0EEA3F0EFA3F090FC4EE091
:103E4300FDA3E0FEA3E0FF90FC4BE0FAA3E0FBA39D
:103E5300E0FCA812A913E849604DC000C0018D829F
:103E63008E838FF01245B6F98A828B838CF01245CC
:103E7300B6F8E9C398F98914D001D000600D851410
:103E830015751600851582851683220DBD00010E5A
:103E930090FC4EEDF0EEA3F0EFA3F00ABA00010B95
:103EA30018B8FF011980AF9000002253BEFBE5BE96
:103EB30030E6FB53C6B8E5C620E6FB43BE04E5BEC9
:103EC30030E6FB53C6C743E40C43E401D2B92243B3
:103ED300FE03C29122C0E0C082C083C0D090FC47E1
:103EE300E02401F0A3E03400F0A3E03400F0A3E009
:0C3EF3003400F0D0D0D083D082D0E03278
:01481700019F
:103EFF001231BBAF8290FC55EFF08F068EF005F0BC
:103F0F007401800225E0D5F0FB90FC56F0EF75F0C0
:103F1F0008A424F9FE74F735F0FF90FC51EEF0EF92
:103F2F00A3F08E828F83A3A374DFF090FC51E0FE89
:103F3F00A3E0FF8E828F83A3A3A374B1F090FC51F3
:103F4F00E0FEA3E0FF8E828F83A3A3A3A3A374102D
:103F5F00F090FC51E0FEA3E0FF74062EF582E43FE3
:103F6F00F583E054E0441DF090FC51E0FEA3E0FF28
:103F7F0074072EF582E43FF583E0543F4440F09000
:103F8F00FC51E0FEA3E0FF74072EF582E43FF583BA
:103F9F00E054FC4401F01231BBAF8290FC57EFF0BC
:103FAF008F068EF005F07401800225E0D5F0FB90AE
:103FBF00FC58F0EF75F008A424F9FE74F735F0FF04
:103FCF0090FC53EEF0EFA3F08E828F8374DFF090AE
:103FDF00FC53E0FEA3E0FF8E828F83A374B2F090B8
:103FEF00FC53E0FEA3E0FF8E828F83A3A3A3A3A3C2
:103FFF007410F090FC53E0FEA3E0FF74062EF582E0
:10400F00E43FF583E054E0441EF090FC53E0FEA340
:10401F00E0FF74072EF582E43FF583E054CF4410A0
:10402F00F090FC53E0FEA3E0FF74072EF582E43F0F
:10403F00F583E054FC4401F043A91043B91022AFBB
:10404F0083E58290FC5BF0EFA3F0E5B330E3FB90E8
:10405F00FC51E0FEA3E0FF90FC5BE0FCA3E0FD8DD4
:10406F00038B028E828F83EAF090FC51E0FEA3E077
:10407F00FF8E828F83A3ECF090FC56E0FF42D600B8
:10408F0090FC59E0FF90FC5AE04F4401F5B3E5B3C3
:10409F0030E3FB22AF83E58290FC5FF0EFA3F0905B
:1040AF00FC5FE0FEA3E0FF90FC5DE0FCA3E0FDEC15
:1040BF00540F6011EC2EF582ED3FF5830CBC00011F
:1040CF000DE4F080EA8C828D8322AF83E58290FC31
:1040DF0066F0EFA3F090FC66E0FEA3E0FF90FC61BA
:1040EF00E0FCA3E0FD90FC63E0FAA3E0FB90FC652D
:1040FF00E0F990FC6FECF0EDA3F090FC71EAF0EBBF
:10410F00A3F090FC73E4F090FC74E9F08E828F833F
:10411F0002416CAF83E58290FC6DF0EFA3F090FC51
:10412F006DE0FEA3E0FF90FC68E0FCA3E0FD90FCD7
:10413F006AE0FAA3E0FB90FC6CE0F990FC6FECF006
:10414F00EDA3F090FC71EAF0EBA3F090FC73740216
:10415F00F090FC74E9F08E828F8302416CAF83E59F
:10416F008290FC75F0EFA3F0E5B330E3FB90FC75A4
:10417F00E0FEA3E0FF90FC6FE0F518A3E0F51990C7
:10418F00FC74E0FB74505BF51790FC73E0F94B4443
:10419F0001FB740149F51690FC71E0F512A3E0F5EF
:1041AF0013E4F514F515C3E5149512E515951340B1
:1041BF000122C00390FC51E0F8A3E0FBE5142EF9B7
:1041CF00E5153FFA8A058D0488828B83ECF090FC0D
:1041DF0051E0FCA3E0FD8C828D83A3E9F090FC53AA
:1041EF00E0FCA3E0FD8C828D83A3A3E5142518FCCE
:1041FF00E5153519FD8D038B02EAF090FC53E0FABB
:10420F00A3E0FB8A828B83A3A3A3ECF090FC58E07E
:10421F00FD90FC56E04D42D60000D003E517601725
:10422F00E51224F0FCE51334FFFDECB51409EDB5F0
:10423F0015058516B380028BB3E5B330E3FB74101D
:10424F002514F514E43515F5150241B51242FEBCDF
:10425F0000030244C5EF60FA30D502B2D1E583B452
:10426F00FF030244DBE582B4FF030244DB258340F6
:10427F00072482400B0244C524831450030244DBFD
:10428F00F582EA8DF0A4A8F0EA8EF0A428F8E435C0
:10429F00F0F9EB8DF0A428E935F0F9E433CA8FF08B
:1042AF00A429F9EA35F0FAEBF88EF0A429F9EA35EA
:1042BF00F0FAE433FBEC8DF0A429F9EA35F0FAE4D7
:1042CF003BFBE88FF0A42AFAEB35F0FBE433CCFD8F
:1042DF008EF0A42AFAEB35F0FBE43CFCED8FF0A452
:1042EF002BFBEC35F0FC20E7031243810244A4AA18
:1042FF0082AB83A2F73392D1F5826002D2F7ACF092
:10430F00E58124F9F8E6FD08E6FE0886F008E6A246
:0D431F00F73392D5F5836002D2F7AFF0229C
:0600BA00E478FFF6D8FD1A
:10432C00AD82AE83AFF08D178E188F1985121A855A
:10433C00131B85141CA815A9168803890418B8FF2B
:10434C000119EB4C6025851A82851B83851CF012A4
:10435C0045B6FCA385821A85831B8D828E838FF0D4
:10436C00EC12441FA3AD82AE8380CE8517828518D4
:10437C00838519F0227804EC7011E58224F8500A38
:10438C00F582E4C9CACBFCD8EF22EC782005822058
:10439C00E713D5820122C3E933F9EA33FAEB33FB95
:1043AC00EC33FCD8EA158222AC82AD83AE13AF1489
:1043BC00BE0004EF600C1F0FE51212441FA3DEFABF
:0743CC00DFF88C828D8322D3
:100098007918E94400601B7A0190480078777593D5
:1000A800FCE493F2A308B800020593D9F4DAF275D8
:0200B80093FFB4
:1043D300FCABF0AA83A982749EC2D1F582124381F9
:1043E3000244A47F9E12440D30D1030244C5C3EF9F
:1043F3009582500974FFF5F0F583F5822279001256
:1044030045D289828A838BF0EC22AA82AB83A2F7FE
:104413003392D1F5826002D2F7ACF02220F711304B
:10442300F6138883A88220F509F6A88375830022F2
:1044330080FEF280F5F022E5828512F0A4C582C0E9
:10444300F08513F0A4D0F025F0C5838512F0A425E0
:1044530083F58322E512451360467A01E51225E0D0
:10446300F512E513334012F513E5829512E58395B2
:104473001340030A80E6C3E51313F513E51213F59E
:1044830012C3E5829512F5F0E58395134005F58394
:1044930085F082C3E51313F513E51213F512DAE180
:0144A30022F6
:1000C0007800E84400600A79007593F0E4F309D8F9
:1000D000FC7877E8440C600C790D90F000E4F0A314
:0400E000D8FCD9FA75
:02008900E4731E
:1044A400B98003EA13B34010EA2401FAE43BFBE4C5
:1044B4003CFC50047C800582BC000EBB000BBA009F
:1044C40008E4F5F0F583F58222A2D1E582138CF09D
:1044D40092F78B838A8222E4F583F58275F080F467
:1044E400A2D11322E4F583F58275F0C0747F221201
:1044F40042FE30D502B2D1BF0009BC00030244E839
:104504000244DBBC00030244C5E583B4FF0BE5822F
:10451400B4FF030244E80244C5E582B4FF03024445
:10452400DBC395835007247F400B0244C5248014C9
:1045340050030244DBF582C3ED9AEE9BEF9C4011DD
:104544001582C3EA33F9EB33FAEC33FBE433FC8032
:1045540005E4CCCBCAF9C08275F019C3E99DEA9E83
:10456400EB9FEC9400D5F002802D400EE99DF9EA12
:104574009EFAEB9FFBEC9400FCC3B3E833F8E582AE
:1045840033F582E58333F583C3E933F9EA33FAEB90
:1045940033FBEC33FC80C4B3E4F938FAE43582FB32
:1045A400E43583FCD082500405827C80124381026E
:0245B40044BC05
:0D008B0075814E124615E582600302008665
:1045B60020F71430F6148883A88220F507E6A8832E
:1045C60075830022E280F7E49322E0226040F8251A
:1045D60082500274FFF582E824F8501ECCCBCAF94B
:1045E600E4CC24F85014CBCAF9E4CB24F8500BCA17
:1045F600F9E4CA24F8500379002224086010F8C3AD
:10460600EC13FCEB13FBEA13FAE913F9D8F1227564
:03461600820022FD
:00000001FF
