:0614000002148B024B7D7B
:01140B0032AE
:0114130032A6
:01141B00329E
:011423003296
:01142B00328E
:031433000243630E
:01143B00327E
:011443003276
:03144B000252DE6C
:03145300021A98E2
:03145B00021D6F00
:011463003256
:03146B000243E752
:011473003246
:01147B00323E
:03148300024E9284
:0314E70002148666
:03148600022DC074
:1014EA00AF83E58290F554F0EFA3F075E10490DF45
:1014FA003BE0FFBF01F890F554E0FEA3E0FF90DF68
:10150A0006EEF075E10290DF3BE0FFBF0DF8227EA8
:10151A00007F0090FC28E0FCA3E0FD8E028F03C34D
:10152A00EA9CEB9D5038EE2400FCEF34F0FD90FC71
:10153A0026E0F512A3E0F5138A828B83C007C00662
:10154A00C005C00412585DAA82D004D005D006D0C6
:10155A00078C828D83EAF00EBE00B80F80B522E5B3
:10156A008290F556F0E0FFE59CC39FF59CE59C242C
:10157A00FAF59C439E10D2BA22539EEF22AF83E51E
:10158A008290F55AF0EFA3F090FC21E06013905A94
:10159A001F1244F690FC21E0F5821245387582EF5D
:1015AA002290FC217406F090DF3BE0FFBF1302801B
:1015BA00F6C29090F557E0FEA3E0FF90FC88EEF0AB
:1015CA00EFA3F090FC8274F1F0E4A3F090FC18749D
:1015DA0072F074F3A3F090FC80E4F0A3F090FC3373
:1015EA00F090FC7CF090FC32F090FC7E04F0E4A3D6
:1015FA00F090FC7D7402F090F55CE4F0900000122B
:10160A00172E90F55AE0FEA3E0FF90F559E0FD7B16
:10161A00007C008D017A00C3EB99EC9A50548B023E
:10162A00EA75F0F0A42EF9E43FFA90F55C74F0F054
:10163A0089828A83C007C006C005C004C003121786
:10164A002EAA82D003D004D005D006D007EA601BA8
:10165A00905A71C0021244F6D00290FC21E4F08A3A
:10166A0082C002124538D0028A82220BBB00A40C27
:10167A0080A190FC8BE030E33390FC88E0FEA3E08D
:10168A00FFEE540F602690FC88E0FEA3E053060F9D
:10169A007F007410C39EFEE49FFF90FC88E0FCA3C9
:1016AA00E0FD90FC88EE2CF0EF3DA3F090FC88E082
:1016BA00FEA3E0FFC374FF9EE49F502690FC88E0DF
:1016CA00FEA3E07F0090DF02EEF090DF04E053E03B
:1016DA00FCF090DF04E043E002F090FC8A7401F031
:1016EA00801290FC88E0FEA3E0FF90DF02EEF0900B
:1016FA00FC8AE4F075E1037E607FEA90DF3BE0FD5F
:10170A00BD130280091EBEFF011FEE4F70EDD2907D
:10171A00EE4F700C90FC467413F0905A891244F6FE
:10172A0075820022AF83E58290F55DF0EFA3F09019
:10173A00F55CE0FF240F500A905A9A1244F675821B
:10174A00FF22EF703E90FC32E4F090FC32E0FE9013
:10175A00FC7DE0FDC3EE9D502190FC32E075F0F176
:10176A00A42472F58274F335F0F583E4F090FC3228
:10177A00E0FE0E90FC32EEF080D090FC32E4F07580
:10178A0082002290FC21E0FE601DBE061E90FC3203
:10179A00E0601890DF3BE0FEBE1302800E90FC2151
:1017AA007407F07582ED227582ED2290FC32E075A5
:1017BA00F0F1A42472FD74F335F0FE8D828E83E07D
:1017CA00600A90FC467418F07582FE228D828E8320
:1017DA0074FFF090FC32E075F0F1A42472FD74F30A
:1017EA0035F0FE0DBD00010E7C0090F55DE0FAA318
:1017FA00E0FB8A128B138C148F037F008B158F16D4
:10180A008D828E838CF0C007C003125732D003D06A
:10181A000790FC8BE020E3030218D890FC32E075B5
:10182A00F0F1A42472FD74F335F0FE0DBD00010E33
:10183A0090FC5DEBF0EFA3F08D828E831254A9AE7B
:10184A008290F55CEEF090FC8BE0FF5307047D007C
:10185A00BF0441BD003E90FC32E075F0F1A4247251
:10186A00FD74F335F0FF0DBD00010F8E037C00906F
:10187A00FC8BE054F0FA90FC61EDF0EFA3F090FCE1
:10188A0063EBF0ECA3F090FC65EAF08D828F831293
:10189A0054DF803A90FC32E075F0F1A42472FD74B2
:1018AA00F335F0FF0DBD00010F7C0090FC8BE05476
:1018BA00F0FB90FC68EDF0EFA3F090FC6AEEF0EC20
:1018CA00A3F090FC6CEBF08D828F8312552890FC6C
:1018DA0032E075F0F1A42472FE74F335F0FF90F54E
:1018EA005CE08E828F83F090FC32E0FF0F90FC3236
:1018FA00EFF090FC7DE0FEEFB5060590FC32E4F0D7
:10190A0075820022AF83E58290F55FF0EFA3F09035
:10191A00FC21E0FF6014BF0102800F905AB4124408
:10192A00F690FC21E0F58212453812158390FC2AC4
:10193A00E4F0A3F090FC2AE0FEA3E0FF8E828F83FE
:10194A00121A1890DF3BE0FFBF0DF890DF3AE0FF74
:10195A0053077F7E00C3EF9460EE64809480402733
:10196A0090FC2AE0FEA3E0FF0EBE00010F90FC2AC5
:10197A00EEF0EFA3F0D29090000A125189C2909033
:10198A00000A12518980AD90FC217402F090FC4744
:10199A00E0FCA3E0FDA3E0A3E090FC2CECF0EDA3B7
:1019AA00F090F55FE0FEA3E0FF90FC30EEF0EFA3CD
:1019BA00F02290FC21E4F090FC47E0FCA3E0FDA3B8
:1019CA00E0A3E090FC2CECF0EDA3F02290FC217453
:1019DA0004F090FC47E0FCA3E0FDA3E0A3E090FC48
:1019EA002CECF0EDA3F02290FC217405F090FC346D
:1019FA00E4F0A3F090FC47E0FCA3E0FDA3E0A3E041
:101A0A0090FC2CECF0EDA3F0758200021569AF830F
:101A1A00E58290F561F0EFA3F090F561E0FEA3E0B6
:101A2A00FFEE2400F582EF34F0F583E0FF7E008FAD
:101A3A00828E830214EAAF83E58290F563F0EFA306
:101A4A00F090F563E0FEA3E0FF90F370EEF0EFA3F1
:101A5A00F0222290FC2AE0FEA3E0FF0EBE00010F56
:101A6A0090FC2AEEF0EFA3F0C3EE9470EF940340DB
:101A7A000790FC2AE4F0A3F090FC2AE0FEA3E0FF22
:101A8A00EE2400F582EF34F0F583E0F58222C021DE
:101A9A00C0E0C0F0C082C083C007C006C005C00451
:101AAA00C003C002C001C000C0D075D00090FC1DA8
:101ABA00E02401FEA3E03400FF90FC1DEEF0EFA34A
:101ACA00F090FC22E0FCA3E0FDEEB5040BEFB505B7
:101ADA000790FC1DE4F0A3F090FC1DE0FEA3E0FFDC
:101AEA00BE0005BF0002800BBE0105BF0002806870
:101AFA00021C5690FC1DE0FEA3E08E077E00AC9C03
:101B0A007D00EC4206ED420790FC2EEEF0EFA3F0CA
:101B1A0090FC2AE0FEA3E0FF0EBE00010F90FC2A13
:101B2A00EEF0EFA3F090FC28E0FCA3E0FDC3EE9CEE
:101B3A00EF9D400790FC2AE4F0A3F090DF3BE0FF22
:101B4A00BF1303021D5290FC2AE0FEA3E0FF8E821F
:101B5A008F83121A18021D5290FC21E0FFBF050262
:101B6A008003021D5290001912518990F567741C66
:101B7A00F090FC2AE090F568F090FC2AE0A3E0904F
:101B8A00F569F090F56A7442F090F56B744CF09038
:101B9A00F56C7441F090F56D7448F090F56E7442EE
:101BAA00F090F56F744CF090F5707441F090F57107
:101BBA007448F090F5727442F090F573744CF0909A
:101BCA00F5747441F090F5757448F090F5767442A6
:101BDA00F090F577744CF090F5787441F090F579BF
:101BEA007448F090F57A7442F090F57B744CF0905A
:101BFA00F57C7441F090F57D7448F090F57E74425E
:101C0A00F090F57F744CF090F5807441F090F58176
:101C1A007448F090F5827420F090FC36741CF0E45D
:101C2A00A3F090FC38F0A3F090FC3AF0A3F090F502
:101C3A006812479890FC34E0FEA3E0FF0EBE000154
:101C4A000F90FC34EEF0EFA3F0021D5290FC21E05D
:101C5A00FFBF03028065BF04028008BF050280033C
:101C6A00021D5290FC2CE0FEA3E0FF90FC47E0FA34
:101C7A00A3E0FBA3E0FCA3E0FD8E008F01E4FEFFDE
:101C8A00EAC398FAEB99FBEC9EFCED9FFDC37464E2
:101C9A009AE49BE49CE49D5022905AE21244F69006
:101CAA00FC217405F090FC47E0FCA3E0FDA3E0FEF4
:101CBA00A3E0FF90FC2CECF0EDA3F090FC33E07570
:101CCA00F0F1A42472FE74F335F0FF8E828F83E064
:101CDA00607690001912518990FC33E075F0F1A4F6
:101CEA002472FE74F335F0FF90DF04E05401B4016E
:101CFA00009200E4332EFDE43FFC8E828F83E09055
:101D0A00FC36F0E4A3F090FC38F0A3F090FC3AF033
:101D1A00A3F08D828C8312479890FC33E075F0F122
:101D2A00A42472F58274F335F0F583E4F090FC3361
:101D3A00E0FF0F90FC33EFF0BF0200400590FC3348
:101D4A00E4F0905B001244F6D0D0D000D001D0026B
:101D5A00D003D004D005D006D007D083D082D0F0EB
:101D6A00D0E0D021323290FC21E4F090FC32F090A5
:101D7A00FC33F090FC2AF0A3F090FC267453F0E4B4
:101D8A00A3F090FC287453F0E4A3F090FC2EF0A387
:101D9A00F090FC2CF0A3F090FC227406F0E4A3F07F
:101DAA0090FC24F0A3F090FC30F0A3F090FC34F007
:101DBA00A3F012151990FC21E4F0759DDC859E9E16
:101DCA00439E0443CB1022021D709021E21232F688
:101DDA0090FC47E4F0A3F0A3F0A3F0121DD190F514
:101DEA0083E4F090F5847412F074F8A3F02290FC66
:101DFA0021E0FFBF000302211DBF0103021FF3BF41
:101E0A000203021EF9BF030302211DBF04030221BC
:101E1A001DBF05030220FEBF060122BF4002800645
:101E2A00BF410280412275E10490DF3BE0FFBF0120
:101E3A00F890DF0374E5F090DF047404F090DF0794
:101E4A007412F090DF08E4F090DF147410F090DF61
:101E5A0017E043E0C0F090FC217441F090F58474DF
:101E6A0012F074F8A3F090F583E4F090FC34E0FEED
:101E7A00A3E0FF90F583E0FDFB7C00C3EB9EEC9FA3
:101E8A00504590DF06EDF075E10490DF3BE0FFBFBF
:101E9A0001F875E10290DF3BE0FFBF0DF890000208
:101EAA0012518990F584E0FEA3E0FF90F583E02EBD
:101EBA00FEE43FFF90DF3AE0FD8E828F83F090F5DB
:101ECA0083E02401F080A475E10490DF3BE0FFBFCA
:101EDA0001F890FC34E0FF8F3375340090F584E00C
:101EEA00F535A3E0F536753201758243022DF2E528
:101EFA000B7003021FE190FC45740DF0539AFEE546
:101F0A000B20E403021FE190FC217403F090FC1FF4
:101F1A00E0FEA3E08E82121569905B0E1244F690E1
:101F2A00FC1FE0FEA3E0FF8E828F8312455390F8D8
:101F3A0011E07E0025E0CEE42412FFEE34F8FE8F95
:101F4A00828E831244F690F811E0B401009201E403
:101F5A0033FF90F583F0EF2416FDE434FCFE8D8206
:101F6A008E83E0706F90DF04E030E0348F057E00EE
:101F7A00ED2DCEE4FD2412F582EE34F8F583E0FC73
:101F8A008C33EDF5342412FDEE34F8FE74012DF590
:101F9A0035E43EF536753201758242122DF2802300
:101FAA0090DF02E0FE8E33E4F534FEEF2FCEE42418
:101FBA0012FFEE34F8FE8F358E3675320175824285
:101FCA00122DF290F583E0FF2416F582E434FCF535
:101FDA00837401F0530BEFD20110AF02C201750BEB
:101FEA0000A20192AF439A0122E50B70030220EC92
:101FFA0090FC45740DF0539AFEE50B20E403022091
:10200A00EC90F811E0B40100920190F583E433F00A
:10201A00905B231244F690F583E07E0025E0CEE43F
:10202A002412FFEE34F8FE8F828E8312455390F508
:10203A0083E07E0025E0CEE42412FFEE34F8FE8F22
:10204A00828E831244F690F811E0B401009201E402
:10205A0033FF90F583F0EF2416FDE434FCFE8D8205
:10206A008E83E0706F90DF04E030E0348F057E00ED
:10207A00ED2DCEE4FD2412F582EE34F8F583E0FC72
:10208A008C33EDF5342412FDEE34F8FE74012DF58F
:10209A0035E43EF536753201758242122DF28023FF
:1020AA0090DF02E0FE8E33E4F534FEEF2FCEE42417
:1020BA0012FFEE34F8FE8F358E3675320175824284
:1020CA00122DF290F583E0FF2416F582E434FCF534
:1020DA00837401F0D20110AF02C201530BEFA201C7
:1020EA0092AFD20110AF02C201750B00A20192AFEA
:1020FA00439A012290FC34E0FEA3E0FF90FC28E022
:10210A00FCA3E0FDC3EE9CEF9D50012290FC2174DC
:10211A0004F022E50B70012290FC45740DF0E50BEA
:10212A00543070012290F811E0B401009201E433B6
:10213A00FF90F583F0EF2416FDE434FCFE8D828EC9
:10214A0083E060030221D390DF04E030E0348F059E
:10215A007E00ED2DCEE4FD2412F582EE34F8F583EF
:10216A00E0FC8C33EDF5342412FDEE34F8FE7401F4
:10217A002DF535E43EF536753201758242122DF29F
:10218A00803690FC77E0600A90FC7AE0FDA3E0FEDE
:10219A00800890DF02E0FCFD7E007C00EF2FCCE49B
:1021AA002412FFEC34F8FC8F358C367532018D33EE
:1021BA008E34758242122DF290F583E0FF2416F5D3
:1021CA0082E434FCF5837401F0D20110AF02C2013B
:1021DA00530BCFA20192AF2290F7C3E0FDA3E0FE1A
:1021EA00A3E0FF90F7C8E0FCBC42028003022B4F39
:1021FA0090F7C9E0FC24BE5003022B41EC240A8369
:10220A00F582EC244683F583E4734141E81F419B40
:10221A00486679B1E90C4FED41419F1C43B6DBEEAC
:10222A005AD50541414141414141AD2F7D73964106
:10223A004141414141414141414141414141414184
:10224A004141414141414141414198D22B2B2225F3
:10225A002B2324242424242525252B2B282929290A
:10226A0029292A27292B2B2B2B2B2B2B2A2B2A29C3
:10227A00292B2B2B2B2B2B2B2B2B2B2B2B2B2B2BA6
:10228A002B2B2B2B2B2B2B2B2B2B2B2B2222C00735
:10229A00C006C005121583D005D006D00790FC21D0
:1022AA007440F08D828E838FF01259BCFC7B0090B3
:1022BA00FC34ECF0EBA3F090F7E9EDF0EEA3F07547
:1022CA0082011241AF022B4F90FC21E4F090F7E912
:1022DA00EDF0EEA3F07582011241AF022B4F90FC94
:1022EA0021E06009905B3D1244F6022B4F8D828EED
:1022FA00838FF01259BCFC7B0090F586ECF0EBA3BF
:10230A00F08D828E83A3E0FAE4F92CFCEA3BFB9081
:10231A00F586ECF0EBA3F08D828E83A3A3A3A3E052
:10232A00FA8A0889098D828E83A3A3A3A3A3E0FA5C
:10233A00E42508F508EA3509F50990FC1AE4F0A342
:10234A00F074062DF9E43EFA90FC36ECF0EBA3F0BB
:10235A0090FC38E4F0A3F090FC3AE508F0E509A314
:10236A00F089828A83C007C006C005124798AC82EA
:10237A00D005D006D0078D828E838FF0EC125825B7
:10238A0090F7E9EDF0EEA3F07582011241AF022B4E
:10239A004F8D828E838FF01259BC90FC7AF0E4A3A1
:1023AA00F08D828E83A3E0FB7C0090FC7AE0F9A397
:1023BA00E0FA90FC7AEC29F0EB3AA3F090FC7AE090
:1023CA00FBA3E04B604590FC777401F090FC78E049
:1023DA00FBA3E0FC4B70481246DF90FC7AE0FBA3BB
:1023EA00E0FC90FC78EBF0ECA3F090FC78E0FBA327
:1023FA00E090DF02EBF090DF04E053E0FCF090DFC6
:10240A0004E043E002F0124693801490FC77E4F073
:10241A0090FC78F0A3F090FC7AF0A3F01246DF90DB
:10242A00F7C8E0FC90F7C9E0F53275357A7536FCE5
:10243A007533017534008C82122DF2022B4F8D8276
:10244A008E838FF01259BC90FC8BF090F7E9EDF077
:10245A00EEA3F07582011241AF022B4F90F7E97497
:10246A008BF074FCA3F07582011241AF022B4F90DE
:10247A00FC8BE054F0FC90FC597406F090FC5AEC8A
:10248A00F08D828E838FF0C007C006C005125454A7
:10249A00D005D006D00790F7E9EDF0EEA3F07582EB
:1024AA00101241AF022B4F90FC8BE054F0FC90FCD1
:1024BA00597404F090FC5AECF08D828E838FF0C030
:1024CA0007C006C005125454D005D006D00790F7AD
:1024DA00E9EDF0EEA3F07582101241AF022B4F8D99
:1024EA00828E838FF01259BC90FC8CF0E053E0018D
:1024FA00F090F7E9EDF0EEA3F07582011241AF0218
:10250A002B4F90F7E9748CF074FCA3F075820112DA
:10251A0041AF022B4F8D828E838FF01259BCFC7B08
:10252A00008C828B83C007C006C005121A40D005F2
:10253A00D006D00790F7E9EDF0EEA3F0758201120C
:10254A0041AF022B4F90FC21E0601C8D828E838F5D
:10255A00F074EF12582590F7E9EDF0EEA3F07582CA
:10256A00011241AF022B4F8D828E838FF01259BC1C
:10257A00FC7B0090F586ECF0EBA3F08D828E83A3B2
:10258A00E0FAE42CFCEA3BFB90F586ECF0EBA3F0D6
:10259A008D828E83A3A3E0FA90FC1AE4F0A3F07470
:1025AA00032DF8E43EF990F557ECF0EBA3F090F523
:1025BA0059EAF088828983C007C006C005121587C8
:1025CA00AC82D005D006D0078D828E838FF0EC12B4
:1025DA00582590F7E9EDF0EEA3F07582011241AFAC
:1025EA00022B4F8D828E838FF01259BCFB7C009098
:1025FA00F586EBF0ECA3F0EB4C60030226E690FCC8
:10260A0088E0F9A3E0FA49601C90DF3BE0FABA13CC
:10261A0014900028C007C006C005125189D005D001
:10262A0006D00780D990FC88E0F9A3E049606B9056
:10263A005B62C007C006C0051244F690FC88E0F948
:10264A00A3E0FA89828A8312455390F372E0F582F5
:10265A0012453890F463E0F582124538D005D00669
:10266A00D00790FC467412F08D828E838FF074EC42
:10267A00125825C290C007C006C00512466ED00582
:10268A00D006D00790FC21E4F090F7E9EDF0EEA334
:10269A00F07582011241AF022B4FC29090FC21E4E7
:1026AA00F08D828E838FF0125825905B76C007C01A
:1026BA0006C0051244F690FC1AE0F9A3E0FA8982F2
:1026CA008A83124553D005D006D00790F7E9EDF07A
:1026DA00EEA3F07582011241AF022B4F90FC21E06C
:1026EA00FABA06028061905B86C007C006C005126E
:1026FA0044F6D005D006D00790FC46E0FABA121B81
:10270A008D828E838FF074EC12582590F7E9EDF0E4
:10271A00EEA3F07582011241AF801F90FC46741738
:10272A00F08D828E838FF074EF12582590F7E9EDC1
:10273A00F0EEA3F07582011241AFC29012466E907C
:10274A00FC21E4F0022B4F74012DF9E43EFA90F5D6
:10275A005CEBF089828A83C007C006C00512172E77
:10276A00AC82D005D006D0078D828E838FF0EC1212
:10277A0058258D828E838FF01259BCFBEC603BBBCF
:10278A00FE028036905B8FC007C006C0051244F671
:10279A00D005D006D0078D828E838FF01259BCF5F2
:1027AA0082C007C006C005124538C29012466ED0D4
:1027BA0005D006D00790FC21E4F090F7E9EDF0EEA1
:1027CA00A3F07582011241AF022B4F8D828E838F47
:1027DA00F01259BCFB7C0090F586EBF0ECA3F0C339
:1027EA0074F09BE49C5019905A9A1244F690F7E9B7
:1027FA007486F074F5A3F07582011241AF022B4F73
:10280A0090FC32E075F0F1A42472F974F335F0FA11
:10281A0089828A83E06019905B9C1244F690F7E9FA
:10282A007486F074F5A3F07582011241AF022B4F42
:10283A0089828A83EBF090FC32E075F0F1A424726D
:10284A00FB74F335F0FC0BBB00010C7A0074012D0C
:10285A00F8E43EF9881289138A1490F586E0F51592
:10286A00A3E0F5168B828C838AF012573290FC32E1
:10287A00E0FC0C90FC32ECF0BC0200400590FC320B
:10288A00E4F090F7E97486F074F5A3F0758201120A
:10289A0041AF022B4F8D828E838FF01259BCFC7B85
:1028AA000090FC26ECF0EBA3F090FC26E0F9A3E004
:1028BA00FAC374709C74039B402E74022DFBE43E91
:1028CA00FC8B128C1375140089158A1690F000750A
:1028DA00F00012573290F7E97426F074FCA3F075F1
:1028EA0082021241AF022B4F90F7E974BDF0745B7C
:1028FA00A3F07582081241AF022B4F90FC26E0FC30
:10290A0090F7E97400F074F0A3F08C821241AF02E0
:10291A002B4F121A5D7B008B83121A1890FC2AE047
:10292A00FBA3E0FC90F7E9EB2400F0EC34F0A3F011
:10293A007582011241AF022B4F8D828E838FF01266
:10294A0059BCFC7B008C828B83C007C006C0051271
:10295A0014EAD005D006D00790F7E9EDF0EEA3F01F
:10296A007582011241AF022B4F758200C007C00663
:10297A00C005121569D005D006D00790F7E9EDF029
:10298A00EEA3F07582011241AF022B4FC007C006B9
:10299A00C005121583D005D006D00790F7E9EDF0EF
:1029AA00EEA3F07582011241AF022B4F8D828E8306
:1029BA008FF01259BCFC7B0090FC22ECF0EBA3F0E8
:1029CA0090F7E9EDF0EEA3F07582011241AF022B08
:1029DA004F90F7E97422F074FCA3F0758204124157
:1029EA00AF022B4F8D828E838FF0C007C006C005C1
:1029FA001244B5D005D006D0078D828E838FF0128F
:102A0A0059BCF582C007C006C005124538D005D0AA
:102A1A0006D0078D828E838FF01259BCFC7B008C06
:102A2A00128B138B147515158B1690FC2175F000FB
:102A3A00C007C006C005125732D005D006D007908D
:102A4A00F7E9EDF0EEA3F07582151241AF022B4FB4
:102A5A0090FC1DE0FBA3E0FC90FC24EBF0ECA3F05F
:102A6A0090F7E97421F074FCA3F07582151241AF56
:102A7A00022B4F8D828E838FF01259BCFC7B008C07
:102A8A00828B83C007C006C00512190ED005D00676
:102A9A00D00790F7E9EDF0EEA3F07582011241AF8D
:102AAA00022B4F90FC47E0F9A3E0FAA3E0A3E090E1
:102ABA00FC2CE9F0EAA3F08D828E838FF01259BCC8
:102ACA00FC90FC21F090FC21E0FBEC24FA4046EB60
:102ADA002B902ADF73800A80088006802680248053
:102AEA0011C007C006C005121583D005D006D0074D
:102AFA008023C007C006C0051219F1D005D006D040
:102B0A00078012758200C007C006C005121569D079
:102B1A0005D006D00790F7E9EDF0EEA3F075820133
:102B2A001241AF802090F7E97421F074FCA3F0758C
:102B3A0082011241AF800E90F7E9EDF0EEA3F07535
:102B4A0082011241AF900000222290F7D1E0FFBF2C
:102B5A00013990F7B1E0FEA3E0FF90F7D4E0FCA3BF
:102B6A00E0FD90F7B4E0FAA3E0FBEA4B601D8E8229
:102B7A008F83E0F9A3AE82AF838C828D83E9F0A3C1
:102B8A00AC82AD831ABAFF011B80DF90F7BAE0541A
:102B9A00FDF090DE11E043E008F022AE82AF83E060
:102BAA00FD20E703022C9E8E828F83A3E0FD601D29
:102BBA00BD0102802ABD0202803BBD0302805ABDCC
:102BCA0004028076BDFE03022C60022C9E75370239
:102BDA0075380090FC4575F00012309D022C9E90CD
:102BEA00DE00E0FD7C007539288C3A8D828C8312D8
:102BFA003111022C9E8E828F83A3A3E0FCA3E0FDF9
:102C0A0074062EF582E43FF583E0F539A3E0F53A40
:102C1A008C828D83123111807B8E048F057B007428
:102C2A00062EF582E43FF583E0F537A3E0F5388C0C
:102C3A00828D838BF012309D805A90F7B1E0FBA30E
:102C4A00E0FCA3E0FD753910753A008B828C838D08
:102C5A00F0123111803E74022EFEE43FFF7D0075B2
:102C6A004BC5754C5B754D807512048D138E828F22
:102C7A00838DF0125235E5828583F045F06012D2D9
:102C8A009090012C125189C29090012C1251898086
:102C9A000375C9839000002290DF2FE4F090DF30A3
:102CAA00F090DF31F090DF00740CF090DF01744E89
:102CBA00F090DF0274FFF090DF037440F090DF04BD
:102CCA00E4F090DF05F090DF06F090DF077406F07D
:102CDA0090DF08E4F090DF097424F090DF0A743A78
:102CEA00F090DF0B74F1F090DF0C74CAF090DF0DF6
:102CFA0074A3F090DF0E7401F090DF0F7423F0904C
:102D0A00DF107411F090DF117436F090DF1274073F
:102D1A00F090DF13740FF090DF147418F090DF1541
:102D2A0014F090DF16746CF090DF177403F090DFE4
:102D3A00187440F090DF197491F090DF1A7456F00D
:102D4A0090DF1B7410F090DF1C74E9F090DF1D74A3
:102D5A002AF090DF1EE4F090DF1F741FF090DF234B
:102D6A007488F090DF247431F090DF257409F090B4
:102D7A00DF2E74C0F090DF07C4F090DF097425F0ED
:102D8A0090DF0A7495F090DF0B7455F090DF1A7497
:102D9A00B6F090DF1B7410F090DF1C74EAF090DF3D
:102DAA001D742AF090DF1EE4F090DF1F741FF022DA
:102DBA001252B40252D8122DBA12459D125305125C
:102DCA00306712470B121DD4123097D2AF122F441C
:102DDA00D290900002125189C29090000A12518931
:082DEA001241E0121DF880F80F
:105A1F0043616E6E6F742063616C6C207472616E83
:105A2F00736D69745F6C6F6E67207768696C652042
:105A3F004648535320486F7070696E67206F72200D
:105A4F00616C72656164792070726F6365737369DD
:105A5F006E67207472616E736D69745F6C6F6E67C1
:105A6F0021004D41435F7478282920726574757247
:105A7F006E6564206572726F72006E657665722056
:105A8F00656E7465726564205458004648535378A8
:105A9F006D6974206D65737361676520746F6F2016
:105AAF006C6F6E67004648535320737461746520A2
:105ABF00656E746572696E672053594E4348494E3F
:105ACF00472066726F6D2077726F6E6720737461F7
:105ADF0074650053594E43485F4D4153544552200E
:105AEF002D3E2053594E43494E474D415354455235
:105AFF000046485353786D697420646F6E65006E6D
:105B0F006574776F726B207061636B65742873793E
:105B1F006E6329006E6574776F726B207061636BB3
:105B2F00657428646973636F76657279290063728F
:105B3F0061702C20706C65617365207573652046EC
:105B4F00485353786D6974282920696E73746561A1
:105B5F0064210064726F706F75742066696E616C7A
:105B6F0020776169742100746F74616C206279749D
:105B7F0065732074783A00756E64657272756E0085
:105B8F00627566666572206572726F7200737469F2
:105B9F006C6C2077616974696E67206F6E20746812
:105BAF0065206C617374207061636B6574004E4F78
:0B5BBF00204445414C005253544E005E
:102DF200AF827E017D0090DE0E7405F090FC45747A
:102E020012F0EE7006ED7003022F3A7B107C2790D1
:102E1200DE11E030E00D90FC467401F01BBBFF01B7
:102E22001C80ECEB4C7014D2909003E8125189C2D2
:102E3200909003E812518990FFFF22BE012E7E007E
:102E420090DE2A7440F0EFF0E532F0E533F0E5343D
:102E5200F0C3E533943BE534940040087B3B7C00AF
:102E62007D018021AB33AC347D008019C3E53394FE
:102E720040E534940040087B407C007D018006AB35
:102E820033AC347D00AA2974802A42D685268285F5
:102E92002783AA368A01E9F0852682852783A3E55E
:102EA20035F0852682852783A3A374DEF0852682EA
:102EB200852783A3A3A3742AF0852682852783A36B
:102EC200A3A3A3A3EBF0852682852783A3A3A3A3B1
:102ED200E054E0F0852682852783A3A3A3A3A3A3BE
:102EE200A3E0543F4440F0852682852783A3A3A311
:102EF200A3A3A3A3E054CFF0E52942D6E52942D704
:102F0200E52955D160FAE529F4FA52D190DE0E7422
:102F120005F090DE11E043E001F0E533C39BF533A9
:102F2200E5349CF534EB2535F535EC3536F5369040
:102F3200FC457413F0022E0490FC457414F09000CA
:102F42000022E52270051241E080F72253BE7F0085
:102F520043BE8090DE0B74F7F090DE0774FFF090B2
:102F6200DE09F0438C10538CFED2BD439A02758960
:102F720000C2C5758B00C2E843A90243B902852687
:102F820082852783A3A3A3A3E054E0F0852682854C
:102F92002783A3A3A3A3A3A3E0549F4420F08526E1
:102FA20082852783A3A3A3A3A3A3A3E04408F08558
:102FB2002682852783A3A3A3A3A3A3A3E054FC444F
:102FC20001F090DE01E053E0FEF0E4F525F523F593
:102FD20024F52290DE0EF090DE107404F090DE13E1
:102FE200F090F7BBE4F090F7BAF090F7AFF0A3F0EF
:102FF20090F7B17488F074F5A3F0E4A3F090F7B4FD
:10300200F0A3F090F7B6F090F7B7F090F7B8F0A30E
:10301200F090DE0E7405F090DE107408F090DE136E
:10302200F090DE12E043E001F090DE15E043E001B3
:10303200F090F7CDE4F090F7CCF090F7C1F0A3F068
:1030420090F7C374A8F074F5A3F0E4A3F090F7C668
:10305200F0A3F090F7C8F090F7C9F090F7CAF0A388
:10306200F0439A02221245C1858228AF288FF005CB
:10307200F07401800225E0D5F0FBF529E52875F012
:1030820008A424F9F52674F735F0F52790FC457469
:1030920002F0022F4ED29122C29122AFF0AE83E50E
:1030A2008290F7D6F0EEA3F0EFA3F090F7BBE060CA
:1030B20034D2909003E8125189C2909003E81251E1
:1030C20089D2909003E8125189C2909003E812517C
:1030D20089D2909003E8125189C2909003E812516C
:1030E2008990FFFF2290F7D6E0FDA3E0FEA3E0FF68
:1030F20090F7ACEDF0EEA3F0EFA3F090F7AFE53769
:10310200F0E538A3F090F7BB7401F090000022AF15
:1031120083E58290F7D9F0EFA3F090F7BBE060343B
:10312200D2909003E8125189C2909003E81251891B
:10313200D2909003E8125189C2909003E81251890B
:10314200D2909003E8125189C2909003E8125189FB
:1031520090FFFF2290F7D9E0FEA3E0FF7D0090F7F9
:10316200ACEEF0EFA3F0EDA3F090F7AFE539F0E5A8
:103172003AA3F090F7BB7401F0900000227F007E2A
:103182000290DE0EE4F090F7AFE0FCA3E0FDC3ECAA
:103192009420ED940040047B2080068C037F017E06
:1031A2000A8B017A00ECC399FCED9AFD90F7AFEC23
:1031B200F0EDA3F08B05ED603690F7ACE0FAA3E0FA
:1031C200FBA3E0FC8A828B838CF01259BC90DE2038
:1031D200F090F7ACE0FAA3E0FBA3E0FC0ABA00012E
:1031E2000B90F7ACEAF0EBA3F0ECA3F01D80C790D4
:1031F200DE11E04EF0EF600590F7BBE4F02290F7AD
:10320200BB7402F07582002290F7B1E0FDA3E0FEEC
:10321200A3E0FF90DE11E060FA90DE0EE4F090DEB3
:1032220016E0FC7B0090F7B4ECF0EBA3F090F7BA59
:10323200E030E11290F7BB7403F090DE11E043E05E
:1032420004F090FFFF2290F7BAE04402F090F7B446
:10325200E0FBA3E0FCC374209BE49C501CD2909042
:10326200012CC007C006C005125189C29090012CE2
:10327200125189D005D006D00790F7B4E0FBA3E045
:10328200FC8D07EB4C601690DE20E0FD8F828E8372
:10329200F0A3AF82AE831BBBFF011C80E6E52C4589
:1032A2002D6009852C82852D8312148990F7B4E054
:1032B200FEA3E0FFC3EE9420EF9400501CE52A45E4
:1032C2002B6009852A82852B8312148990DE11E0F6
:1032D20043E008F090F7BBE4F090DE11E043E040F9
:1032E200F090F7B4E0FEA3E08E82F5832285822E71
:1032F20085832F2285823085833122753701753887
:103302000090002575F04002309DAFF0AE83E5825B
:1033120090F7DBF0EEA3F0EFA3F090F7DBE0FDA374
:10332200E0FEA3E0FF74022DFDE43EFE8D828E835B
:103332008FF01259BCFD8D2575220122AF827D06C8
:103342007E44E4BF030104FC600874EEB512037509
:1033520012048D828E83A3E090F7DEF09013E0E0FA
:10336200F8A3E0F9A3E0FAA3E0FBE4B8400AB96CE1
:1033720007BA6104BB730104FBAA1290F7DEE0F9FD
:10338200B9FF02804DE9B50732EC600CBA0309EBD4
:1033920060067DE47E13803AEA700890F7DE74FFDF
:1033A200F080D81A8D828E83E02DFDE43EFE8D8260
:1033B2008E83A3E0F990F7DEF080C08D828E83E0E9
:1033C2002DFDE43EFE8D828E83A3E0F990F7DEF0C0
:1033D20080A98D828E8322AFF0AE83E58290F7DFE3
:1033E200F0EEA3F0EFA3F090F7DFE0FDA3E0FEA381
:1033F200E0FF74022DFDE43EFE8D828E838FF0127B
:1034020059BCFBA31259BCFCF97A00B90205BA00F7
:1034120002801BB90757BA005474AF5BF97A008D6A
:10342200828E838FF0E9125825A3EA12582590F76D
:10343200DFE0FDA3E0FEA3E0FF74022DFDE43EFE0B
:103442008D828E838FF01259BCFDA31259BCF58276
:103452008D1212333EAE82AF8390F7E2EEF0EFA30D
:10346200F08E828F83A3A3E0FE7F00801C8C828B70
:103472001212333EAC82AD8390F7E2ECF0EDA3F092
:103482008C828D83E0FCFE7F0090F7DFE0FCA3E0FE
:10349200FBA3E0FD74062CFCE43BFB8C828B838D4A
:1034A200F01259BCFCA31259BCFDC3EC9EED9F5017
:1034B200048C068D07EE4F700890DE11E043E02089
:1034C200F090F7E2E0FCA3E0FD8E398F3A8C828D1A
:1034D2008302311190DE0EE4F090DE11E0FF30E461
:1034E2000D90F7BBE4F090DE11E043E080F0EF30A6
:1034F200E22490DE11E4F090FC467404F090F7BBF5
:10350200E4F0D290900014C007125189C29090004A
:1035120014125189D00790F7BBE0FEBE0319D29076
:10352200900032C007125189C29090003212518924
:10353200D00790F7BBE4F090F7BBE0600302382AB3
:10354200EF20E00302382A90DE0EE4F090DE16E06F
:10355200FF7C3B7D007E40EF601690DE20E0FB8C1E
:10356200828D838EF0125825A3AC82AD831F80E733
:10357200E53BFF20E7030236F38F055305607E002B
:10358200BD0005BE0002801EBD2006BE000302363D
:10359200AFBD4006BE00030236BABD6006BE0003E0
:1035A2000236DF023814741F5FFE7041AD3CBD006D
:1035B20002801CBD06028005BD0826800C90003BDF
:1035C20075F0401233D90238141232FD02381475E4
:1035D2003702753800905BE175F08012309D023839
:1035E2001490003B75F040124405023814BE0144A9
:1035F200AD3CBD00028005BD0A26801275370275FA
:103602003800905BE175F08012309D0238147537F6
:1036120001753800905BE475F08012309D02381419
:1036220090DE11E043E020F090003B75F040124440
:1036320005023814BE0235AD3CBD00028008BD1241
:10364200030238148012753702753800905BE175F9
:10365200F08012309D02381490DE11E043E020F039
:1036620090003B75F040124405023814BE032AE470
:10367200B53C12753702753800905BE175F0801227
:10368200309D02381490DE11E043E020F090003BC0
:1036920075F04012440502381490003B75F0401258
:1036A200440590DE11E043E020F002381490DE1170
:1036B200E043E020F0023814E52E452F6013123665
:1036C200C5800BC02EC02F90003B75F040220238FF
:1036D2001490003B75F04012384102381490DE110C
:1036E200E043E020F090003B75F0401244050238C0
:1036F200148F055305607E00BD0005BE0002801ECA
:10370200BD2006BE00030237CDBD4006BE00030247
:1037120037E0BD6006BE00030238030238145307C7
:103722001FEF7047AE3CBE0103023814BE03030212
:103732003814BE0502800BBE0703023814BE0917F7
:10374200800990DE00E53DF002381490003B75F0F0
:103752004012330C02381490003B75F040124405BD
:1037620090DE11E043E020F0023814BF0128AE3CA5
:10377200BE0103023814BE0303023814BE11030251
:10378200381490003B75F04012440590DE11E0437E
:10379200E020F0023814BF021FAF3CBF010280726A
:1037A200BF0302806D90003B75F04012440590DE2D
:1037B20011E043E020F0805A90DE11E043E020F077
:1037C20090003B75F040124405804790003B75F035
:1037D2004012440590DE11E043E020F08034E52EF3
:1037E200452F60121237EB8029C02EC02F90003B6C
:1037F20075F04022801C90003B75F04012384180E9
:103802001190DE11E043E020F090003B75F0401291
:10381200440590DE11E043E040F0E5414542700886
:1038220090DE11E043E008F090F7BBE0FFBF010338
:1038320012317F90F7BBE0FFBF020302320A22AFD0
:10384200F0AE83E58290F7E4F0EEA3F0EFA3F09000
:10385200F7E4E0FDA3E0FEA3E0FF8D828E838FF00C
:103862001259BCFC20E703023A3D74012DFAE43EF2
:10387200FB8F048A828B838CF01259BCFC6025BCBE
:1038820001028032BC02028043BC030302390ABC3B
:10389200040302393FBCFD0302395CBCFE0302395A
:1038A200F7023AA375370275380090FC4575F000AF
:1038B20012309D023AA390DE00E0FC7B00753928AD
:1038C2008B3A8C828B83123111023AA374022DFA45
:1038D200E43EFB8F048A828B838CF01259BCFAA3DC
:1038E2001259BCFB74062DF8E43EF98F04888289D4
:1038F200838CF01259BCF539A31259BCF53A8A826D
:103902008B83123111023AA38D028E038F048A43F4
:103912008B448C4574062DF8E43EF98F0488828925
:10392200838CF01259BCF537A31259BCF538854384
:10393200828544838545F012309D023AA390F7B107
:10394200E0FAA3E0FBA3E0FC753910753A008A8225
:103952008B838CF0123111023AA374042DFAE43EE7
:10396200FB8F048A828B838CF01259BCFAA3125902
:10397200BCFBBA0446BB0043748D4444603D7406EC
:103982002DFBE43EFA8F048B828A838CF01259BCA1
:10399200FBA31259BCFC90448DE493F97A00C3E96D
:1039A2009BEA9C500C89398A3A90448D12311180DD
:1039B2000A8B398C3A90448D12311190F7E4E0FA77
:1039C200A3E0FBA3E0FC74042AFAE43BFB8A828BAB
:1039D200838CF01259BCFAA31259BCFBBA0505BB81
:1039E20000028003023AA3E4F539F53A900000128E
:1039F2003111023AA374022DFAE43EFB8F0490FCCB
:103A02004B74E6F0745BA3F07480A3F07512047536
:103A120013008A828B838CF0125235E5828583F003
:103A220045F06012D29090012C125189C2909001FF
:103A32002C125189806B75C983806690F7D1E0FCA6
:103A4200BC015674022DFDE43EFE8D828E838FF002
:103A52001259BCFDA31259BCFE90DE0EE4F090DEBA
:103A620016E0FF7C007511088F828C83C007C006A8
:103A7200C005C0041251CED004D005D006D007EF45
:103A82004C601690DE20E0FB8D828E83F0A3AD8227
:103A9200AE831FBFFF011C80E690F7BAE054FDFF22
:103AA200F09000002290F7CCE030E10A90FC4674DE
:103AB20005F090FFFF2290DE0E7405F090DE16E016
:103AC200FF7E0090DE17E0FCE42FF546EC3EF54762
:103AD20090F7CAE0FCA3E0FD4C705890F7C6E4F002
:103AE200A3F090DE2AE090F7C8F090DE2AE090F78B
:103AF200C9F090DE2AE0FD7C0090F7CAEDF0ECA35D
:103B0200F090DE2AE0FAE4FB2DFDEA3CFC90F7CAD5
:103B1200EDF0ECA3F0E54624FCF546E54734FFF56D
:103B220047C374049D74029C500990F7CA7404F050
:103B320003A3F0E52955D16012D2909000141251DE
:103B420089C29090001412518980E890F7C3E0FB7B
:103B5200A3E0FCA3E090F7C6E0FAA3E0FFEA2BFBA8
:103B6200EF3CFCAF2974802F42D6852682852783BD
:103B720074DEF0852682852783A3742AF085268247
:103B8200852783A3A38C078F06EEF08526828527DF
:103B920083A3A3A3EBF0852682852783A3A3A3A3F4
:103BA200A3A3A3E0543FF0852682852783A3A3A382
:103BB200A3A3A3A3E054CF4410F074052526FEE48A
:103BC2003527FF90DE16E0FD8E828F83EDF07404C0
:103BD2002526FEE43527FF90DE17E08E828F835480
:103BE2001FF5F0E054E045F0F090F7C6E0FFA3E0E7
:103BF200FEEF2546FCEE3547FDC374049C74029D1E
:103C0200500B7404C39FF54674029EF547C374407B
:103C12009546E49547502790FC467406F090DE14D2
:103C2200E053E0FEF07511049000051251CE7511BB
:103C3200108546828547831251CE90FFFE22E529E8
:103C420042D6E52942D7E5462FFEE5473EFF90F7EB
:103C5200C6EEF0EFA3F0E52955D160FAE529F4525A
:103C6200D190F7C6E0FEA3E0FF90F7CAE0FCA3E024
:103C7200FDC3EE9CEF9D402B90F7CCE04402F09008
:103C8200F7CAE4F0A3F090DE0E7405F0AE2374BF21
:103C92005524FF8E238F2490DE14E053E0FEF09033
:103CA20000012290DE0E7405F0AE2374BF5524FF8E
:103CB2008E238F2490DE14E053E0FEF09000002269
:103CC20090F7CCE020E1012290F7C3E0FDA3E0FEF3
:103CD200A3E0FF90F7E7EDF0EEA3F090F7C8E0F570
:103CE2004D74FFB54D02800302418790F7C9E0FB96
:103CF200BB80005003024169EB246C50030241690E
:103D0200EB2480FA240A83F582EA241883F583E4FB
:103D1200733BCC44817198B9D009F26969696971C0
:103D2200A40369691C3D3D3F3F3E3F3F3F403F4149
:103D32004141414040414141418D828E838FF01289
:103D420059BCFA74012DF548E43EF5498A4B754C8D
:103D52000090F7CAE54BF0E54CA3F085488285490F
:103D620083E0F54A74012548F54DE43549F54EA93D
:103D72004A8902E4F9254BF54BEA354CF54C90F7AC
:103D8200CAE54BF0E54CA3F0854D82854E83E0F801
:103D9200854882854983A3A3884D894EE0FAE425AC
:103DA2004DF9EA354EFA89358A3690F7C8E0FA902D
:103DB200F7C9E0F532854B33854C348A82122DF2F5
:103DC20090F7CAE4F0A3F002417F8D828E838FF0D8
:103DD2001259BCFA8D828E83A38A4B754C00E0F88F
:103DE20074022DF54DE43EF54E8802E4254BF8EAC7
:103DF200354CFA90F7CEE8F0EAA3F090F7C6E0F976
:103E0200A3E0FAE924FEF54BEA34FFF54CE54B4515
:103E12004C603D90F7CEE0F548A3E0F549740125EA
:103E220048F9E43549FA90F7CEE9F0EAA3F0854D76
:103E320082854E83E0FAA385824D85834E85488232
:103E4200854983EAF0154B74FFB54B02154C80BDD2
:103E520090F7C8E0FA90F7C9E0F5327535CA7536C1
:103E6200F77533027534008A82122DF202417F9077
:103E7200F7CCE020E2338D828E838FF01259BCFAA8
:103E82008D828E83A38A4D754E00E0F890F7E77419
:103E9200022DF0E43EA3F08802E4254DF8EA354E07
:103EA200FA90F7CEE8F0EAA3F090F7CAE0F9A3E0BF
:103EB200FA894D8A4EC37440954DE4954E5006756D
:103EC2004D40754E00E9C3954DF9EA954EFA90F7CB
:103ED200CAE9F0EAA3F090F7E7E0F54BA3E0F54C6E
:103EE200E54D454E603D90F7CEE0F548A3E0F5493B
:103EF20074012548F9E43549FA90F7CEE9F0EAA3CE
:103F0200F0854B82854C83E0FAA385824B85834CF6
:103F1200854882854983EAF0154D74FFB54D021537
:103F22004E80BD90F7C8E0FA90F7C9E0F5327535DA
:103F3200CA7536F77533027534008A82122DF20281
:103F4200417FD290900002C007C006C0051251897D
:103F5200C290900002125189D005D006D00790F786
:103F6200C8E0FA90F7C9E0F53290F7C6E0F533A35E
:103F7200E0F5348D358E368A82122DF202417F753C
:103F820035EB75365B8B3275330D753400854D829A
:103F9200122DF202417F90FC47E0F8A3E0F9A3E082
:103FA200A3E0883589368B32753304753400854D2C
:103FB20082122DF202417F7535D375365B8B3275D5
:103FC200330E753400854D82122DF202417F90F737
:103FD200C6E0F533A3E0F5348B328D358E36854D50
:103FE20082122DF29000C81251891245D002417FEF
:103FF2007535CA75365B8B32753309753400854D5C
:1040020082122DF202417F8D828E838FF01259BC73
:10401200FC74012DF9E43EFABC0202800ABC0302E0
:104022008021BC0429800DC002C001124693D00138
:10403200D002801AC290C002C0011246DFD001D065
:1040420002800BC002C0011246B5D001D00290F727
:10405200C8E0FC90F7C9E0F53290F7C6E0F533A36B
:10406200E0F53489358A368C82122DF202417F9036
:10407200F7CA7401F0E4A3F07535367536DF90F7B0
:10408200C8E0FC90F7C9E0F53290F7CAE0F533A337
:10409200E0F5348C82122DF290F7CAE4F0A3F0021C
:1040A200417F8D028E048C017C0090FC4B74F9F0F0
:1040B200745BA3F07480A3F07512098C138A828951
:1040C200838CF0C007C006C005125235E582858395
:1040D200F0D005D006D00745F0600302417F75C9D4
:1040E2008090F7C8E0FC90F7C9E0F53290F7C6E09F
:1040F200F533A3E0F5348D358E368C82122DF280A5
:104102007C90FC45E4F090FC46F090F7E9EDF0EE8F
:10411200A3F07582021241AF80638D828E838FF08D
:104122001259BCFC74012DF9E43EFABC0002800B6A
:10413200BC010F90FC8E7401F0800C90FC8EE4F0B8
:10414200800590FC8EE4F090F7C8E0FC90F7C9E09F
:10415200F53290F7C6E0F533A3E0F53489358A36B7
:104162008C82122DF2801690F7C6E0F533A3E0F5AB
:10417200348B328D358E36854D82122DF290F7CCEE
:10418200E054FDF022E530453160198530828531F9
:1041920083121489AE82AF83EE4F701090F7CCE099
:1041A20054FDF02290F7CCE054FDFFF022E582901E
:1041B200F7EBF090F7CCE054FDF090F7C8E0FF90F9
:1041C200F7C9E0F53290F7EBE0FE8E3375340090DC
:1041D200F7E9E0F535A3E0F5368F82022DF2E5230B
:1041E20030E01175220274FE5523FEAF248E238F18
:1041F2002443BE01E5235406602D90FC45740AF069
:1042020075220374FD5523FEAF248E238F2490DE86
:1042120001E043E004F090000812518990DE01E0D1
:1042220053E0FBF075220190DE0EE4F090DE11E027
:1042320030E21990DE11E053E0DBF090F7AFE4F0EA
:10424200A3F090F7B4F0A3F090F7BBF090DE0E74F9
:1042520005F090DE11E030E51F90DE11E053E0CF73
:10426200F090FC467408F090F7C1E4F0A3F090F7E8
:10427200C6F0A3F090F7CDF090DE14E030E61F9088
:10428200DE14E053E09FF090FC467408F090F7C112
:10429200E4F0A3F090F7C6F0A3F090F7CDF0E52399
:1042A20020E2057404B52214122F4E90FC45740BC3
:1042B200F074FB5523FEAF248E238F24E52330E4D4
:1042C200111234D674E75523FE740F5524FF8E2342
:1042D2008F24E52430E65490FC45740CF0123AA782
:1042E200AE82AF83BEFE41BFFF3E90F7EC7406F094
:1042F200E4A3F090F7C8E0FF90F7C9E0F532753516
:10430200EC7536F77533027534008F82122DF290F8
:10431200F7C8E0FF7535EC7536F775320175330273
:104322007534008F82122DF2123CC2E52354E070E4
:1043320006E52454BD602990FC467409F075110805
:104342009000441251CE8523828524837511101268
:1043520051CE74E05523FE74BD5524FF8E238F2465
:1043620022C0E0C082C083C007C006C005C004C02E
:10437200D075D000E5BE30E6FB90DE06E0FF7E00A1
:10438200E5234207E52442068F238E2490DE02E0D5
:10439200FDE4CDC4CD6DCD54F0CD6DFCED4207EC06
:1043A20042068F238E2490DE04E07C0025E0CCE4DC
:1043B2004207EC42068F23EEF52430E11290F7CC4F
:1043C200E054FEF0AE2374FD5524FF8E238F247536
:1043D2008B00C2E8D0D0D004D005D006D007D0835D
:1043E200D082D0E032C0E0E5BE30E6FBC2AFE58964
:1043F20030E70375220353BEFC758900C2C5D2AFF4
:04440200D0E03222B2
:105BCA005344434376343230004348524F4E4F5386
:105BDA002072303535360000000000005253544E12
:105BEA0000554E494D504C454D454E544544005282
:095BFA00455345545F4E4F57001E
:104406001201000200000020501D47600101010258
:1044160003010A0600020000002001000902200034
:1044260001010080FA0904000002FFFFFF000705F2
:104436008502400001070505024000010403090446
:104446000C03520066004300610074001E03430023
:10445600680072006F006E006F0073002000440059
:104466006F006E0067006C0065000A0330003000C4
:104476003000300012034D00530046005400310056
:1044860030003000FD00FF2800000000010400019C
:1044960000000000000000000157494E555342003D
:1044A600000000000000000000000000000000AF57
:1044B60083E58290F7EEF0EFA3F090F7EEE0FEA32F
:1044C600E0FF7C007D008E028F038A828B83E0F9F9
:1044D600A3AA82AB83E960070CBC00EE0D80EB75E6
:1044E60032F08C338D348E358F367582FE022DF286
:1044F600AF83E58290F7F0F0EFA3F090F7F0E0FEDF
:10450600A3E0FF7C007D008E028F038A828B83E40A
:1045160093F9A3AA82AB83E960070CBC00ED0D807A
:10452600EA8E358F367532F08C338D347582FE0205
:104536002DF2E58290F7F2F07535F27536F77532A1
:10454600F17533017534007582FE022DF2AF83E5F5
:104556008290F7F3F0EFA3F07535F37536F7753201
:10456600F27533027534007582FE022DF2AF82AE0B
:1045760083ADF0FC90F7F5EFF0EEA3F0EDA3F0ECD1
:10458600A3F07535F57536F77532F3753304753462
:07459600007582FE022DF208
:0314E400750A0086
:10459D007EF97FF78FD575D4F97E017FF88FD375AE
:1045AD00D20175120075131875140090F7F975F096
:1045BD00000257BA7403B50A047582FF22850A8278
:1045CD00050A2290DF46E0FFBFF00E90DF47E0FFC7
:1045DD00BF0D0690DF487469F0C2AF759A0075B8CB
:1045ED000075A80012309A53BE7F75D69FC29002F7
:1045FD000000221257D9AC82AD83AEF0FFC004C0CB
:10460D0005C006C0079037BD75F086743D12566122
:10461D00AC82AD83AEF0FFE58124FCF581E4C0E012
:10462D00C0E074C0C0E07441C0E08C828D838EF018
:10463D00EF1258F9AC82AD83AEF0FFE58124FCF5A5
:10464D00818C828D838EF0EF1257ECAC82AD83AEF0
:10465D00F090DF09EEF090DF0AEDF090DF0BECF05B
:10466D002275E10490DF3BE0FFBF01F890FC1CE0F8
:10467D00F5E190FC1CE0FFBF04012290DF3BE0FF61
:10468D00BF010280ED2290FC1CE0FFBF02012290D1
:10469D00DF13E053E0F0F090DF13E043E00FF09014
:1046AD00FC1C7402F0024B2C90FC1CE0FFBF0301BC
:1046BD002290DF13E053E0F0F090DF13E043E00AC7
:1046CD00F090FC1C7403F0F5E190DF3BE0FFBF13AD
:1046DD00F82290FC1CE0FFBF04012290DF13E05391
:1046ED00E0F0F05391EF75E10490DF3BE0FFBF0187
:1046FD00F8539BFC53E9EF90FC1C7404F02290FCE2
:10470D001FE4F0A3F090FC12F0A3F090FC14F0A3C2
:10471D00F053C6C7759D00859E9E439E0485A9A92D
:10472D0043B90190FC1C7404F0751200751300F56B
:10473D001490F81275F0001257BA122CA2D2A87567
:10474D0091D175E900750B00439A0175E10490DF75
:10475D003BE0FFBF01F8227E007F00C3EE94DCEF4B
:10476D009405502390DF3CE05450600490000122EA
:10477D00900032C007C0061251B0D006D007743277
:10478D002EFEE43FFF80D490000022AF83E582909F
:10479D00FC3CF0EFA3F090FC3EE4F090DF02E0FF74
:1047AD0090DF3BE0FEBE131EA290B3920290FC8EF2
:1047BD00E0FEA202E4335206EE24FF9290C00712EF
:1047CD0041E0D00780DAC29090FC8AE4F090FC388A
:1047DD00E0FDA3E0FE90FC80EDF0EEA3F090FC3A3E
:1047ED00E0FBA3E0FC90FC86EBF0ECA3F090FC3634
:1047FD00E0F9A3E0FA90FC82E9F0EAA3F090FC84E2
:10480D00E9C39BF0EA9CA3F090FC84E0FBA3E0FCE1
:10481D008D128E138B828C83C007C006C005C0021B
:10482D00C001125840AB82AC83D001D002D005D06C
:10483D0006D00790FC88EB29F0EC3AA3F0E94A701A
:10484D0073C00790FC3CE0FBA3E0FC8B828C83E003
:10485D00F8880C750D0090FC36E50CF0E50DA3F015
:10486D0090DF04E0F87F00740358F50E8F0FE4B568
:10487D000E07B50F04D0078020D0077401B50E06C2
:10488D0014B50F02800302495990FC367401250CB2
:10489D00F0E4350DA3F002495990FC3C74012BF066
:1048AD00E43CA3F090FC36E0FBA3E0FC90DF02EBD0
:1048BD00F002495990DF04E0FC5304037B00BC0077
:1048CD0005BB00028049BC0105BB00028003024903
:1048DD005990FC3CE0FBA3E0FC90FC3FE9F0EAA31F
:1048ED00F090FC417401F0E4A3F08B828C83C0073F
:1048FD00C002C001125134D001D002D00790FC3C4F
:10490D00E0FBA3E0FC89008B828C83E8F0803DED19
:10491D004E603490FC88E0FDA3E090DF02EDF09056
:10492D00DF04E053E0FCF090FC88E0FDA3E0FEC363
:10493D0074FF9DE49E500890DF04E043E002F09088
:10494D00FC8A7401F0800590DF02E9F0D2A890FC9A
:10495D008BE020E303024A8F90DF04E0FE53060351
:10496D007D00BE0109BD000690FC3E7401F090FC77
:10497D003EE0FE90FC3CE0FCA3E0FDEE2CFAE43DB5
:10498D00FB90FC36E0F8A3E0F990FC5DE8F0E9A3BC
:10499D00F08A828B83C007C006C005C0041254A9DB
:1049AD00AA82AB83D004D005D006D00790FC8BE053
:1049BD00F85300047900B8043EB9003BC007EE2C53
:1049CD00F8E43DF990FC8BE054F0FF90FC61E8F0C9
:1049DD00E9A3F090FC63EAF0EBA3F090FC65EFF037
:1049ED0088828983C007C003C0021254DFD002D071
:1049FD0003D007D0078035EE2CFCE43DFD90FC8BF9
:104A0D00E054F0FE90FC68ECF0EDA3F090FC6AEA47
:104A1D00F0EBA3F090FC6CEEF08C828D83C007C0A0
:104A2D0003C002125528D002D003D00790FC3EE0FF
:104A3D00603390FC8BE0FE5306F07D00BE5014BD3C
:104A4D00001190FC3CE0FDA3E0FE8D828E8374107E
:104A5D00F0802F90FC3CE0FDA3E0FE8A048D828E59
:104A6D0083ECF0801D90FC8BE0FE5306F07D00BEC4
:104A7D00500BBD000890DF027410F0800590DF022E
:104A8D00EAF090FC3CE0FDA3E0FE90FC18EDF0EEAA
:104A9D00A3F090FC7EE4F0A3F075E1037D607EEA67
:104AAD0090DF3BE0FCBC1302802F1DBDFF011EED0E
:104ABD004E6026A290B3920290FC8EE0FCA202E41E
:104ACD00335204EC24FF9290C007C006C00512417A
:104ADD00E0D005D006D00780C790FC8EE05401FCD5
:104AED0024FF9290ED4E700690FC467413F090DF0B
:104AFD003BE0FEBE131EA290B3920290FC8EE0FE30
:104B0D00A202E4335206EE24FF9290C0071241E058
:104B1D00D00780DAC29090DF02EFF075820122D2C9
:104B2D00A875120075130075140290F81275F00037
:104B3D001257BA90FC12E4F0A3F090FC14F0A3F01D
:104B4D0090FC16F090FC1704F090F811E4F0539BD4
:104B5D00FC53E9EF75E10290DF3BE0FFBF0DF84339
:104B6D0091102290FC8D7401F02290FC8DE4F022C6
:104B7D00C021C0E0C0F0C082C083C007C006C00520
:104B8D00C004C003C002C001C000C0D075D00090E9
:104B9D00FC457411F0C28990DF3BE0FFBF0D028030
:104BAD0003024CC690FC8EE05401FF24FF929090BE
:104BBD00FC77E0602590FC78E0FEA3E0FFEE24FF9B
:104BCD00FCEF34FFFD90FC78ECF0EDA3F074FF2FBB
:104BDD00400890DF04E053E0FCF090FC1C7402F000
:104BED0090F811E07E0025E0CEE42412FFEE34F8BB
:104BFD00FEE075F002A42412FC74FC35F0FD8C82ED
:104C0D008D83E0FAA3E0FB74012AF8E43BF98C8272
:104C1D008D83E8F0E9A3F0EA2FF582EB3EF583E50D
:104C2D00D9F090F811E075F002A42412F58274FC0D
:104C3D0035F0F583E0FEA3E0FFC39402501A90F81F
:104C4D0011E075F002A42412F58274FC35F0F583A1
:104C5D00E0FEA3E0FF4E701990F811E075F002A48C
:104C6D002412F58274FC35F0F58374FFF07401A302
:104C7D00F090FC78E0FEA3E0FF4E6003024E7590CD
:104C8D00FC77E07003024E7590FC7AE0FEA3E0FF26
:104C9D0090FC78EEF0EFA3F090FC78E0FEA3E07FBF
:104CAD000090DF02EEF090DF04E053E0FCF090DFC7
:104CBD0004E043E002F0024E7590DF3BE0FFBF13CE
:104CCD00028003024E7590FC8AE07003024E06903E
:104CDD00FC2EE0FEA3E0FF0EBE00010F90FC2EEEB9
:104CED00F0EFA3F090FC7EE0FEA3E0FF90FC82E0ED
:104CFD00FCA3E0FDEEB50406EFB505028003024D01
:104D0D00DE90FC80E0FEA3E04E603890FC80E0FE7B
:104D1D00A3E0FFBEFF05BF0002801590FC80E0FE02
:104D2D00A3E0FF1EBEFF011F90FC80EEF0EFA3F08D
:104D3D0090FC86E0FEA3E0FF90FC7EEEF0EFA3F08A
:104D4D00024DDE90FC82E0F512A3E0F51390FC7CA1
:104D5D00E0FF7E008F828E83125840AE82AF83902B
:104D6D00FC18E0FCA3E0FDEE2CF582EF3DF583E4AD
:104D7D00F090FC7CE02401FFF090FC7DE0FEEFB5AF
:104D8D00060590FC7CE4F090FC82E0F512A3E0F5C2
:104D9D001390FC7CE0FF7E008F828E83125840AE14
:104DAD0082AF8390FC18E0FCA3E0FDEE2CFEEF3DFE
:104DBD00FF8E828F83E0701090FC21E4F090FC4612
:104DCD007412F012466EC29090FC7E7401F0E4A352
:104DDD00F090FC88E0FEA3E0FFEE24FFFCEF34FF33
:104DED00FD90FC88ECF0EDA3F0BEFF22BF001F90FC
:104DFD00DF04E053E0FCF0801590FC88E0FEA3E0BA
:104E0D00FF1EBEFF011F90FC88EEF0EFA3F090FC9B
:104E1D001C7403F090FC82E0F512A3E0F51390FCF6
:104E2D007CE0FF7E008F828E83125840AE82AF836E
:104E3D0090FC7EE0FCA3E0FD90FC7E74012CF0E480
:104E4D003DA3F0EC2EFEED3FFF90FC18E0FCA3E03F
:104E5D00FDEE2CF582EF3DF583E0F5D990FC1AE0DF
:104E6D002401F0A3E03400F0D0D0D000D001D00266
:104E7D00D003D004D005D006D007D083D082D0F097
:104E8D00D0E0D02132C021C0E0C0F0C082C083C0CC
:104E9D0007C006C005C004C003C002C001C000C0E9
:104EAD00D075D00075100090FC457410F0539BFC2C
:104EBD00E5E9420BE5E930E01C90FC1DE0FDA3E0C7
:104ECD008D067D00AB9C7C0090FC1FED4BF0EE4CF5
:104EDD00A3F053E9FEE5E95470700302509F90FC76
:104EED001CE0FEBE0306530B8F02509C90F811E0A0
:104EFD00B401009203E433FD7E002416F582EE34F6
:104F0D00FCF583E0FEBE0102800302505390FC8B42
:104F1D00E020E10302502B90DF04E0FE5306037DF9
:104F2D0000BE0106BD000375100190FC8BE0FE5321
:104F3D0006017D00BE0176BD007390F811E07D0085
:104F4D0025E0CDE42412FEED34F8FDAB107C00EB32
:104F5D002EFEEC3DFDE0F97A0029CAE42412F9EAAF
:104F6D0034F8FAEB29FBEC3AFCE075F002A42412BC
:104F7D00F58274FC35F0F583E0F9A3E0FAA8107F13
:104F8D0000E9C398F9EA9FFA90FC8BE054F0FF908A
:104F9D00FC61EBF0ECA3F090FC63E9F0EAA3F09078
:104FAD00FC65EFF08E828D831254DF807190F811C5
:104FBD00E07E0025E0CEE42412FFEE34F8FEAC10C6
:104FCD007D00EC2FFFED3EFEE07A0025E0CAE424E3
:104FDD0012FBEA34F8FAEC2BFCED3AFDE075F00229
:104FED00A42412F58274FC35F0F583E0FAA3E0FBFE
:104FFD00A8107900EAC398FAEB99FB90FC8BE0546A
:10500D00F0F990FC68ECF0EDA3F090FC6AEAF0EB9F
:10501D00A3F090FC6CE9F08F828E8312552890F8E6
:10502D0011E063E001F090F811E075F002A4241294
:10503D00F58274FC35F0F583E4F0A3F090FC16F0E6
:10504D0090FC17F0804790FC467412F0A290B3923A
:10505D000390FC8EE0FFA203E4335207EF24FF928E
:10506D009090F811E075F002A42412F58274FC35CD
:10507D00F0F583E4F0A3F0A290B3920390FC8EE0E0
:10508D00FFA203E433FE5207EF24FF9290C2905328
:10509D00E9CFE5E930E63790FC467410F0A290B305
:1050AD00920390FC8EE0FFA203E4335207EF24FF3E
:1050BD00929012466EA290B3920390FC8EE0FFA2E6
:1050CD0003E433FE5207EF24FF929053E9BFE5E965
:1050DD0030E73790FC467411F0A290B3920390FC28
:1050ED008EE0FFA203E4335207EF24FF92901246A5
:1050FD006EA290B3920390FC8EE0FFA203E433FE08
:10510D005207EF24FF929053E97FD0D0D000D00109
:10511D00D002D003D004D005D006D007D083D082E2
:10512D00D0F0D0E0D02132AF83E58290FC43F0EF98
:10513D00A3F090FC41E0FEA3E0FF90FC43E0FCA354
:10514D00E0FD90FC3FE0FAA3E0FB8A008B011ABA68
:10515D00FF011BE8496024EE2AF8EF3BF9E82CF833
:10516D00E93DF9EA2CF582EB3DF583C006C007E079
:0C517D0088828983F0D007D00680CF2202
:105C03000000000000000100000000000000000090
:075C1300000000000000008A
:10518900AE82AF831EBEFF011FC3E49E74808FF001
:1051990063F08095F0500F7C4C7D041CBCFF011D11
:1051A900EC4D70F780DE22AE82AF83EE2EFEEF3338
:1051B900FF1EBEFF011FC3E49E74808FF063F08061
:1051C90095F040ED22AE82AF83D2909003E8C007FC
:1051D900C006125189C2909001F4125189D006D0AB
:1051E90007EE30E020900019C007C006125189D29D
:1051F90090900226125189C290900019125189D0BB
:1052090006D007801E900113C007C006125189D22B
:1052190090900032125189C290900113125189D095
:1052290006D007EFC313CE13CEFF80B5AFF0AE8320
:10523900E58290FC4EF0EEA3F0EFA3F090FC4EE077
:10524900FDA3E0FEA3E0FF90FC4BE0FAA3E0FBA383
:10525900E0FCA812A913E849604DC000C0018D8285
:105269008E838FF01259BCF98A828B838CF0125984
:10527900BCF8E9C398F98914D001D000600D8514F0
:1052890015751600851582851683220DBD00010E40
:1052990090FC4EEDF0EEA3F0EFA3F00ABA00010B7B
:1052A90018B8FF011980AF9000002253BEFBE5BE7C
:1052B90030E6FB53C6B8E5C620E6FB43BE04E5BEAF
:1052C90030E6FB53C6C743E40C43E401D2B9224399
:1052D900FE03C29022C0E0C082C083C0D090FC47C8
:1052E900E02401F0A3E03400F0A3E03400F0A3E0EF
:0C52F9003400F0D0D0D083D082D0E0325E
:015C1A000188
:105305001245C1AF8290FC55EFF08F068EF005F087
:105315007401800225E0D5F0FB90FC56F0EF75F0A6
:1053250008A424F9FE74F735F0FF90FC51EEF0EF78
:10533500A3F08E828F83A3A374DFF090FC51E0FE6F
:10534500A3E0FF8E828F83A3A3A374B1F090FC51D9
:10535500E0FEA3E0FF8E828F83A3A3A3A3A3741013
:10536500F090FC51E0FEA3E0FF74062EF582E43FC9
:10537500F583E054E0441DF090FC51E0FEA3E0FF0E
:1053850074072EF582E43FF583E0543F4440F090E6
:10539500FC51E0FEA3E0FF74072EF582E43FF583A0
:1053A500E054FC4401F01245C1AF8290FC57EFF088
:1053B5008F068EF005F07401800225E0D5F0FB9094
:1053C500FC58F0EF75F008A424F9FE74F735F0FFEA
:1053D50090FC53EEF0EFA3F08E828F8374DFF09094
:1053E500FC53E0FEA3E0FF8E828F83A374B2F0909E
:1053F500FC53E0FEA3E0FF8E828F83A3A3A3A3A3A8
:105405007410F090FC53E0FEA3E0FF74062EF582C5
:10541500E43FF583E054E0441EF090FC53E0FEA326
:10542500E0FF74072EF582E43FF583E054CF441086
:10543500F090FC53E0FEA3E0FF74072EF582E43FF5
:10544500F583E054FC4401F043A91043B91022AFA1
:1054550083E58290FC5BF0EFA3F0E5B330E3FB90CE
:10546500FC51E0FEA3E0FF90FC5BE0FCA3E0FD8DBA
:10547500038B028E828F83EAF090FC51E0FEA3E05D
:10548500FF8E828F83A3ECF090FC56E0FF42D6009E
:1054950090FC59E0FF90FC5AE04F4401F5B3E5B3A9
:1054A50030E3FB22AF83E58290FC5FF0EFA3F09041
:1054B500FC5FE0FEA3E0FF90FC5DE0FCA3E0FDECFB
:1054C500540F6011EC2EF582ED3FF5830CBC000105
:1054D5000DE4F080EA8C828D8322AF83E58290FC17
:1054E50066F0EFA3F090FC66E0FEA3E0FF90FC61A0
:1054F500E0FCA3E0FD90FC63E0FAA3E0FB90FC6513
:10550500E0F990FC6FECF0EDA3F090FC71EAF0EBA4
:10551500A3F090FC73E4F090FC74E9F08E828F8325
:10552500025572AF83E58290FC6DF0EFA3F090FC1D
:105535006DE0FEA3E0FF90FC68E0FCA3E0FD90FCBD
:105545006AE0FAA3E0FB90FC6CE0F990FC6FECF0EC
:10555500EDA3F090FC71EAF0EBA3F090FC737402FC
:10556500F090FC74E9F08E828F83025572AF83E56B
:105575008290FC75F0EFA3F0E5B330E3FB90FC758A
:10558500E0FEA3E0FF90FC6FE0F518A3E0F51990AD
:10559500FC74E0FB74505BF51790FC73E0F94B4429
:1055A50001FB740149F51690FC71E0F512A3E0F5D5
:1055B50013E4F514F515C3E5149512E51595134097
:1055C5000122C00390FC51E0F8A3E0FBE5142EF99D
:1055D500E5153FFA8A058D0488828B83ECF090FCF3
:1055E50051E0FCA3E0FD8C828D83A3E9F090FC5390
:1055F500E0FCA3E0FD8C828D83A3A3E5142518FCB4
:10560500E5153519FD8D038B02EAF090FC53E0FAA0
:10561500A3E0FB8A828B83A3A3A3ECF090FC58E064
:10562500FD90FC56E04D42D60000D003E51760170B
:10563500E51224F0FCE51334FFFDECB51409EDB5D6
:1056450015058516B380028BB3E5B330E3FB741003
:105655002514F514E43515F5150255BB125704BC90
:1056650000030258CBEF60FA30D502B2D1E583B41E
:10567500FF030258E1E582B4FF030258E1258340A8
:10568500072482400B0258CB24831450030258E1AF
:10569500F582EA8DF0A4A8F0EA8EF0A428F8E435A6
:1056A500F0F9EB8DF0A428E935F0F9E433CA8FF071
:1056B500A429F9EA35F0FAEBF88EF0A429F9EA35D0
:1056C500F0FAE433FBEC8DF0A429F9EA35F0FAE4BD
:1056D5003BFBE88FF0A42AFAEB35F0FBE433CCFD75
:1056E5008EF0A42AFAEB35F0FBE43CFCED8FF0A438
:1056F5002BFBEC35F0FC20E7031257870258AAAACA
:1057050082AB83A2F73392D1F5826002D2F7ACF077
:10571500E58124F9F8E6FD08E6FE0886F008E6A22C
:0D572500F73392D5F5836002D2F7AFF02282
:0614BA00E478FFF6D8FD06
:10573200AD82AE83AFF08D178E188F1985121A8540
:10574200131B85141CA815A9168803890418B8FF11
:105752000119EB4C6025851A82851B83851CF0128A
:1057620059BCFCA385821A85831B8D828E838FF0A0
:10577200EC125825A3AD82AE8380CE8517828518A0
:10578200838519F0227804EC7011E58224F8500A1E
:10579200F582E4C9CACBFCD8EF22EC78200582203E
:1057A200E713D5820122C3E933F9EA33FAEB33FB7B
:1057B200EC33FCD8EA158222AC82AD83AE13AF146F
:1057C200BE0004EF600C1F0FE512125825A3DEFA8B
:0757D200DFF88C828D8322B9
:101498007918E94400601B7A01905C0378777593AA
:1014A800FCE493F2A308B800020593D9F4DAF275C4
:0214B80093FFA0
:1057D900FCABF0AA83A982749EC2D1F582125787C5
:1057E9000258AA7F9E12581330D1030258CBC3EF37
:1057F9009582500974FFF5F0F583F582227900123C
:1058090059D889828A838BF0EC22AA82AB83A2F7CA
:105819003392D1F5826002D2F7ACF02220F7113031
:10582900F6138883A88220F509F6A88375830022D8
:1058390080FEF280F5F022E5828512F0A4C582C0CF
:10584900F08513F0A4D0F025F0C5838512F0A425C6
:1058590083F58322E512451360467A01E51225E0B6
:10586900F512E513334012F513E5829512E5839598
:105879001340030A80E6C3E51313F513E51213F584
:1058890012C3E5829512F5F0E58395134005F5837A
:1058990085F082C3E51313F513E51213F512DAE166
:0158A90022DC
:1014C0007800E84400600A79007593F0E4F309D8E5
:1014D000FC7877E8440C600C790D90F000E4F0A300
:0414E000D8FCD9FA61
:02148900E4730A
:1058AA00B98003EA13B34010EA2401FAE43BFBE4AB
:1058BA003CFC50047C800582BC000EBB000BBA0085
:1058CA0008E4F5F0F583F58222A2D1E582138CF083
:1058DA0092F78B838A8222E4F583F58275F080F44D
:1058EA00A2D11322E4F583F58275F0C0747F2212E7
:1058FA00570430D502B2D1BF0009BC00030258EEEA
:10590A000258E1BC00030258CBE583B4FF0BE582E1
:10591A00B4FF030258EE0258CBE582B4FF030258E3
:10592A00E1C395835007247F400B0258CB2480148F
:10593A0050030258E1F582C3ED9AEE9BEF9C4011A9
:10594A001582C3EA33F9EB33FAEC33FBE433FC8018
:10595A0005E4CCCBCAF9C08275F019C3E99DEA9E69
:10596A00EB9FEC9400D5F002802D400EE99DF9EAF8
:10597A009EFAEB9FFBEC9400FCC3B3E833F8E58294
:10598A0033F582E58333F583C3E933F9EA33FAEB76
:10599A0033FBEC33FC80C4B3E4F938FAE43582FB18
:1059AA00E43583FCD082500405827C80125787023A
:0259BA0058C2D1
:0D148B0075814E125A1BE582600302148623
:1059BC0020F71430F6148883A88220F507E6A88314
:1059CC0075830022E280F7E49322E0226040F82500
:1059DC0082500274FFF582E824F8501ECCCBCAF931
:1059EC00E4CC24F85014CBCAF9E4CB24F8500BCAFD
:1059FC00F9E4CA24F8500379002224086010F8C393
:105A0C00EC13FCEB13FBEA13FAE913F9D8F122754A
:035A1C00820022E3
:00000001FF
