:0614000002148B024BFFF9
:01140B0032AE
:0114130032A6
:01141B00329E
:011423003296
:01142B00328E
:03143300024381F0
:01143B00327E
:011443003276
:03144B0002536DDC
:03145300021AC3B7
:03145B00021D9AD5
:011463003256
:03146B0002440533
:011473003246
:01147B00323E
:03148300024F1401
:0314E70002148666
:03148600022E0F24
:1014EA00AF83E58290F554F0EFA3F0C2A0C2A4D274
:1014FA00A375E10490DF3BE0FFBF01F890F554E0EB
:10150A00FEA3E090DF06EEF0C2A090FC8CE024FF80
:10151A0092A4E06401FF24FF92A375E10290DF3BED
:10152A00E0FFBF0DF8227E007F0090FC28E0FCA3BC
:10153A00E0FD8E028F03C3EA9CEB9D5038EE240037
:10154A00FCEF34F0FD90FC26E0F512A3E0F5138AD7
:10155A00828B83C007C006C005C0041258ECAA8259
:10156A00D004D005D006D0078C828D83EAF00EBE57
:10157A0000B80F80B522E58290F556F0E0FFE59CB1
:10158A00C39FF59CE59C24FAF59C439E10D2BA228F
:10159A00539EEF22AF83E58290F55AF0EFA3F090C5
:1015AA00FC21E06013905AAE12453090FC21E0F520
:1015BA00821245727582EF2290FC217406F090DF48
:1015CA003BE0FFBF130280F6C29190F557E0FEA3FD
:1015DA00E0FF90FC88EEF0EFA3F090FC8274F1F04B
:1015EA00E4A3F090FC187472F074F3A3F090FC80FA
:1015FA00E4F0A3F090FC33F090FC7CF090FC32F025
:10160A0090FC7E04F0E4A3F090FC7D7402F090F567
:10161A005CE4F090000012175990F55AE0FEA3E03E
:10162A00FF90F559E0FD7B007C008D017A00C3EB49
:10163A0099EC9A50548B02EA75F0F0A42EF9E43F23
:10164A00FA90F55C74F0F089828A83C007C006C0FC
:10165A0005C004C003121759AA82D003D004D005CA
:10166A00D006D007EA601B905B00C002124530D05A
:10167A000290FC21E4F08A82C002124572D0028AEA
:10168A0082220BBB00A40C80A190FC8BE030E333D8
:10169A0090FC88E0FEA3E0FFEE540F602690FC88E1
:1016AA00E0FEA3E053060F7F007410C39EFEE49F82
:1016BA00FF90FC88E0FCA3E0FD90FC88EE2CF0EFA4
:1016CA003DA3F090FC88E0FEA3E0FFC374FF9EE414
:1016DA009F502690FC88E0FEA3E07F0090DF02EE98
:1016EA00F090DF04E053E0FCF090DF04E043E00216
:1016FA00F090FC8A7401F0801290FC88E0FEA3E06E
:10170A00FF90DF02EEF090FC8AE4F090FC8CE0247B
:10171A00FF92A0C2A490FC8CE0640124FF92A375FE
:10172A00E1037E607FEA90DF3BE0FDBD13028009A2
:10173A001EBEFF011FEE4F70EDD291EE4F700C905E
:10174A00FC467413F0905B1812453075820022AF84
:10175A0083E58290F55DF0EFA3F090F55CE0FF245D
:10176A000F500A905B291245307582FF22EF703EB6
:10177A0090FC32E4F090FC32E0FE90FC7DE0FDC388
:10178A00EE9D502190FC32E075F0F1A42472F582AE
:10179A0074F335F0F583E4F090FC32E0FE0E90FC31
:1017AA0032EEF080D090FC32E4F07582002290FC98
:1017BA0021E0FE601DBE061E90FC32E0601890DF3C
:1017CA003BE0FEBE1302800E90FC217407F0758286
:1017DA00ED227582ED2290FC32E075F0F1A42472BC
:1017EA00FD74F335F0FE8D828E83E0600A90FC462C
:1017FA007418F07582FE228D828E8374FFF090FC3D
:10180A0032E075F0F1A42472FD74F335F0FE0DBDDB
:10181A0000010E7C0090F55DE0FAA3E0FB8A128BD2
:10182A00138C148F037F008B158F168D828E838CF9
:10183A00F0C007C0031257C1D003D00790FC8BE059
:10184A0020E30302190390FC32E075F0F1A424723C
:10185A00FD74F335F0FE0DBD00010E90FC5DEBF05A
:10186A00EFA3F08D828E83125538AE8290F55CEE2E
:10187A00F090FC8BE0FF5307047D00BF0441BD00DC
:10188A003E90FC32E075F0F1A42472FD74F335F059
:10189A00FF0DBD00010F8E037C0090FC8BE054F01D
:1018AA00FA90FC61EDF0EFA3F090FC63EBF0ECA38F
:1018BA00F090FC65EAF08D828F8312556E803A9023
:1018CA00FC32E075F0F1A42472FD74F335F0FF0DDB
:1018DA00BD00010F7C0090FC8BE054F0FB90FC688B
:1018EA00EDF0EFA3F090FC6AEEF0ECA3F090FC6C44
:1018FA00EBF08D828F831255B790FC32E075F0F1D0
:10190A00A42472FE74F335F0FF90F55CE08E828FAA
:10191A0083F090FC32E0FF0F90FC32EFF090FC7DF8
:10192A00E0FEEFB5060590FC32E4F075820022AFC6
:10193A0083E58290F55FF0EFA3F090FC21E0FF6071
:10194A0014BF0102800F905B4312453090FC21E0E6
:10195A00F58212457212159A90FC2AE4F0A3F090CF
:10196A00FC2AE0FEA3E0FF8E828F83121A4390DFE7
:10197A003BE0FFBF0DF890DF3AE0FF53077F7E00A0
:10198A00C3EF9460EE64809480402790FC2AE0FEC6
:10199A00A3E0FF0EBE00010F90FC2AEEF0EFA3F0C9
:1019AA00D29190000A12520BC29190000A12520B65
:1019BA0080AD90FC217402F090FC47E0FCA3E0FDAE
:1019CA00A3E0A3E090FC2CECF0EDA3F090F55FE02F
:1019DA00FEA3E0FF90FC30EEF0EFA3F02290FC2192
:1019EA00E4F090FC47E0FCA3E0FDA3E0A3E090FC58
:1019FA002CECF0EDA3F02290FC217404F090FC474B
:101A0A00E0FCA3E0FDA3E0A3E090FC2CECF0EDA346
:101A1A00F02290FC217405F090FC34E4F0A3F090DD
:101A2A00FC47E0FCA3E0FDA3E0A3E090FC2CECF073
:101A3A00EDA3F0758200021580AF83E58290F5610F
:101A4A00F0EFA3F090F561E0FEA3E0FFEE2400F5CD
:101A5A0082EF34F0F583E0FF7E008F828E830214DA
:101A6A00EAAF83E58290F563F0EFA3F090F563E0C7
:101A7A00FEA3E0FF90F370EEF0EFA3F0222290FCB9
:101A8A002AE0FEA3E0FF0EBE00010F90FC2AEEF052
:101A9A00EFA3F0C3EE9470EF9403400790FC2AE49E
:101AAA00F0A3F090FC2AE0FEA3E0FFEE2400F5820A
:101ABA00EF34F0F583E0F58222C021C0E0C0F0C027
:101ACA0082C083C007C006C005C004C003C002C0EC
:101ADA0001C000C0D075D00090FC1DE02401FEA317
:101AEA00E03400FF90FC1DEEF0EFA3F090FC22E042
:101AFA00FCA3E0FDEEB5040BEFB5050790FC1DE471
:101B0A00F0A3F090FC1DE0FEA3E0FFBE0005BF00BD
:101B1A0002800BBE0105BF00028068021C8190FC96
:101B2A001DE0FEA3E08E077E00AC9C7D00EC420621
:101B3A00ED420790FC2EEEF0EFA3F090FC2AE0FEB7
:101B4A00A3E0FF0EBE00010F90FC2AEEF0EFA3F017
:101B5A0090FC28E0FCA3E0FDC3EE9CEF9D400790BB
:101B6A00FC2AE4F0A3F090DF3BE0FFBF1303021D61
:101B7A007D90FC2AE0FEA3E0FF8E828F83121A4337
:101B8A00021D7D90FC21E0FFBF05028003021D7D3E
:101B9A0090001912520B90F567741CF090FC2AE021
:101BAA0090F568F090FC2AE0A3E090F569F090F5D2
:101BBA006A7442F090F56B744CF090F56C7441F0D5
:101BCA0090F56D7448F090F56E7442F090F56F746C
:101BDA004CF090F5707441F090F5717448F090F5FE
:101BEA00727442F090F573744CF090F5747441F08D
:101BFA0090F5757448F090F5767442F090F5777424
:101C0A004CF090F5787441F090F5797448F090F5BD
:101C1A007A7442F090F57B744CF090F57C7441F044
:101C2A0090F57D7448F090F57E7442F090F57F74DB
:101C3A004CF090F5807441F090F5817448F090F57D
:101C4A00827420F090FC36741CF0E4A3F090FC3807
:101C5A00F0A3F090FC3AF0A3F090F5681247F490E4
:101C6A00FC34E0FEA3E0FF0EBE00010F90FC34EE50
:101C7A00F0EFA3F0021D7D90FC21E0FFBF0302807C
:101C8A0065BF04028008BF05028003021D7D90FC27
:101C9A002CE0FEA3E0FF90FC47E0FAA3E0FBA3E000
:101CAA00FCA3E0FD8E008F01E4FEFFEAC398FAEB85
:101CBA0099FBEC9EFCED9FFDC374649AE49BE49C43
:101CCA00E49D5022905B7112453090FC217405F01E
:101CDA0090FC47E0FCA3E0FDA3E0FEA3E0FF90FC3C
:101CEA002CECF0EDA3F090FC33E075F0F1A4247233
:101CFA00FE74F335F0FF8E828F83E06076900019D0
:101D0A0012520B90FC33E075F0F1A42472FE74F3C6
:101D1A0035F0FF90DF04E05401B401009200E4338F
:101D2A002EFDE43FFC8E828F83E090FC36F0E4A324
:101D3A00F090FC38F0A3F090FC3AF0A3F08D828C7E
:101D4A00831247F490FC33E075F0F1A42472F58213
:101D5A0074F335F0F583E4F090FC33E0FF0F90FC68
:101D6A0033EFF0BF0200400590FC33E4F0905B8F44
:101D7A00124530D0D0D000D001D002D003D004D048
:101D8A0005D006D007D083D082D0F0D0E0D021325F
:101D9A003290FC21E4F090FC32F090FC33F090FC9D
:101DAA002AF0A3F090FC267453F0E4A3F090FC28E8
:101DBA007453F0E4A3F090FC2EF0A3F090FC2CF006
:101DCA00A3F090FC227406F0E4A3F090FC24F0A3A4
:101DDA00F090FC30F0A3F090FC34F0A3F012153030
:101DEA0090FC21E4F0759DDC859E9E439E0443CBC6
:101DFA001022021D9B90223112334590FC47E4F0D9
:101E0A00A3F0A3F0A3F0121DFC90F583E4F090F583
:101E1A00847412F074F8A3F02290FC21E0FFBF0052
:101E2A000302216CBF0103022042BF0203021F48C2
:101E3A00BF030302216CBF040302216CBF05030226
:101E4A00214DBF060122BF40028006BF41028047E2
:101E5A0022C2A0C2A4D2A375E10490DF3BE0FFBF77
:101E6A0001F890DF0374E5F090DF047404F090DF6A
:101E7A00077412F090DF08E4F090DF147410F09009
:101E8A00DF17E043E0C0F090FC217441F090F58444
:101E9A007412F074F8A3F090F583E4F090FC34E047
:101EAA00FEA3E0FF90F583E0FDFB7C00C3EB9EEC14
:101EBA009F505D90DF06EDF0C2A0C2A4D2A375E1E7
:101ECA000490DF3BE0FFBF01F8C2A090FC8CE02445
:101EDA00FF92A4E06401FF24FF92A375E10290DF60
:101EEA003BE0FFBF0DF890000212520B90F584E020
:101EFA00FEA3E0FF90F583E02EFEE43FFF90DF3A79
:101F0A00E0FD8E828F83F090F583E02401F0808CCF
:101F1A00C2A0C2A4D2A375E10490DF3BE0FFBF01D7
:101F2A00F890FC34E0FF8F3375340090F584E0F5C7
:101F3A0035A3E0F536753201758243022E41E50B71
:101F4A00700302203090FC45740DF0539AFEE50BA5
:101F5A0020E40302203090FC217403F090FC1FE07F
:101F6A00FEA3E08E82121580905B9D12453090FC94
:101F7A001FE0FEA3E0FF8E828F8312458D90F81139
:101F8A00E07E0025E0CEE42412FFEE34F8FE8F82D4
:101F9A008E8312453090F811E0B401009201E433C7
:101FAA00FF90F583F0EF2416FDE434FCFE8D828E5B
:101FBA0083E0706F90DF04E030E0348F057E00ED3F
:101FCA002DCEE4FD2412F582EE34F8F583E0FC8C84
:101FDA0033EDF5342412FDEE34F8FE74012DF53597
:101FEA00E43EF536753201758242122E4180239005
:101FFA00DF02E0FE8E33E4F534FEEF2FCEE4241246
:10200A00FFEE34F8FE8F358E367532017582421234
:10201A002E4190F583E0FF2416F582E434FCF58323
:10202A007401F0530BEFD20110AF02C201750B001D
:10203A00A20192AF439A0122E50B700302213B9061
:10204A00FC45740DF0539AFEE50B20E40302213B94
:10205A0090F811E0B40100920190F583E433F09016
:10206A005BB212453090F583E07E0025E0CEE42491
:10207A0012FFEE34F8FE8F828E8312458D90F5831F
:10208A00E07E0025E0CEE42412FFEE34F8FE8F82D3
:10209A008E8312453090F811E0B401009201E433C6
:1020AA00FF90F583F0EF2416FDE434FCFE8D828E5A
:1020BA0083E0706F90DF04E030E0348F057E00ED3E
:1020CA002DCEE4FD2412F582EE34F8F583E0FC8C83
:1020DA0033EDF5342412FDEE34F8FE74012DF53596
:1020EA00E43EF536753201758242122E4180239004
:1020FA00DF02E0FE8E33E4F534FEEF2FCEE4241245
:10210A00FFEE34F8FE8F358E367532017582421233
:10211A002E4190F583E0FF2416F582E434FCF58322
:10212A007401F0D20110AF02C201530BEFA2019267
:10213A00AFD20110AF02C201750B00A20192AF43E8
:10214A009A012290FC34E0FEA3E0FF90FC28E0FC18
:10215A00A3E0FDC3EE9CEF9D50012290FC21740484
:10216A00F022E50B70012290FC45740DF0E50B544A
:10217A003070012290F811E0B401009201E433FFBB
:10218A0090F583F0EF2416FDE434FCFE8D828E83F5
:10219A00E0600302222290DF04E030E0348F057E03
:1021AA0000ED2DCEE4FD2412F582EE34F8F583E03D
:1021BA00FC8C33EDF5342412FDEE34F8FE74012D57
:1021CA00F535E43EF536753201758242122E4180AC
:1021DA003690FC77E0600A90FC7AE0FDA3E0FE808E
:1021EA000890DF02E0FCFD7E007C00EF2FCCE424A7
:1021FA0012FFEC34F8FC8F358C367532018D338E34
:10220A0034758242122E4190F583E0FF2416F5823E
:10221A00E434FCF5837401F0D20110AF02C2015319
:10222A000BCFA20192AF2290F7C3E0FDA3E0FEA379
:10223A00E0FF90F7C8E0FCBC42028003022B9E90AC
:10224A00F7C9E0FC24BE5003022B90EC240A83F564
:10225A0082EC244683F583E4739090376E90EA9774
:10226A00B5C800385B9E3C9090EE6B92052A3DA95A
:10227A00245490909090909090FC7ECCC2E59090DF
:10228A009090909090909090909090909090909044
:10229A00909090909090909090E7212B2B23252B53
:1022AA002324242425252525262B2B2829292A2AB7
:1022BA002A2A28292B2B2B2B2B2B2B2A2B2A292971
:1022CA002B2B2B2B2B2B2B2B2B2B2B2B2B2B2B2B54
:1022DA002B2B2B2B2B2B2B2B2B2B2B2223C007C04F
:1022EA0006C00512159AD005D006D00790FC2174B5
:1022FA0040F08D828E838FF0125A4BFC7B0090FC4B
:10230A0034ECF0EBA3F090F7E9EDF0EEA3F0758270
:10231A00011241CD022B9E90FC21E4F090F7E9EDE9
:10232A00F0EEA3F07582011241CD022B9E90FC21A2
:10233A00E06009905BCC124530022B9E8D828E8321
:10234A008FF0125A4BFC7B0090F586ECF0EBA3F071
:10235A008D828E83A3E0FAE4F92CFCEA3BFB90F52C
:10236A0086ECF0EBA3F08D828E83A3A3A3A3E0FAFD
:10237A008A0889098D828E83A3A3A3A3A3E0FAE422
:10238A002508F508EA3509F50990FC1AE4F0A3F0E6
:10239A0074062DF9E43EFA90FC36ECF0EBA3F090CB
:1023AA00FC38E4F0A3F090FC3AE508F0E509A3F064
:1023BA0089828A83C007C006C0051247F4AC82D05E
:1023CA0005D006D0078D828E838FF0EC1258B49018
:1023DA00F7E9EDF0EEA3F07582011241CD022B9ED2
:1023EA008D828E838FF0125A4B90FC7AF0E4A3F020
:1023FA008D828E83A3E0FB7C0090FC7AE0F9A3E057
:10240A00FA90FC7AEC29F0EB3AA3F090FC7AE0FB24
:10241A00A3E04B604590FC777401F090FC78E0FBF8
:10242A00A3E0FC4B704812472F90FC7AE0FBA3E034
:10243A00FC90FC78EBF0ECA3F090FC78E0FBA3E0D6
:10244A0090DF02EBF090DF04E053E0FCF090DF0451
:10245A00E043E002F01246CD801490FC77E4F0905D
:10246A00FC78F0A3F090FC7AF0A3F012472F90F7D3
:10247A00C8E0FC90F7C9E0F53275357A7536FC7517
:10248A0033017534008C82122E41022B9E8D828E6E
:10249A00838FF0125A4B90FC8BF090F7E9EDF0EE37
:1024AA00A3F07582011241CD022B9E90F7E9748B3D
:1024BA00F074FCA3F07582011241CD022B9E90FCB0
:1024CA008BE054F0FC90FC597406F090FC5AECF046
:1024DA008D828E838FF0C007C006C0051254E3D0E8
:1024EA0005D006D00790F7E9EDF0EEA3F07582105B
:1024FA001241CD022B9E90FC8BE054F0FC90FC59CB
:10250A007404F090FC5AECF08D828E838FF0C00731
:10251A00C006C0051254E3D005D006D00790F7E9EB
:10252A00EDF0EEA3F07582101241CD022B9E8D8242
:10253A008E838FF0125A4B90FC8CF0E053E001F03E
:10254A0090F7E9EDF0EEA3F07582011241CD022B6E
:10255A009E90F7E9748CF074FCA3F0758201124125
:10256A00CD022B9E8D828E838FF0125A4BFC7B00FC
:10257A008C828B83C007C006C005121A6BD005D0A7
:10258A0006D00790F7E9EDF0EEA3F075820112414B
:10259A00CD022B9E90FC21E0601C8D828E838FF0F1
:1025AA0074EF1258B490F7E9EDF0EEA3F0758201DA
:1025BA001241CD022B9E8D828E838FF0125A4BFCD4
:1025CA007B0090F586ECF0EBA3F08D828E83A3E07E
:1025DA00FAE42CFCEA3BFB90F586ECF0EBA3F08DD9
:1025EA00828E83A3A3E0FA90FC1AE4F0A3F07403AA
:1025FA002DF8E43EF990F557ECF0EBA3F090F5597D
:10260A00EAF088828983C007C006C00512159EAC0D
:10261A0082D005D006D0078D828E838FF0EC1258B7
:10262A00B490F7E9EDF0EEA3F07582011241CD0204
:10263A002B9E8D828E838FF0125A4BFB7C0090F575
:10264A0086EBF0ECA3F0EB4C600302273590FC8894
:10265A00E0F9A3E0FA49601C90DF3BE0FABA1314F0
:10266A00900028C007C006C00512520BD005D0063C
:10267A00D00780D990FC88E0F9A3E049606B905BB1
:10268A00F1C007C006C00512453090FC88E0F9A3E6
:10269A00E0FA89828A8312458D90F372E0F58212FC
:1026AA00457290F463E0F582124572D005D006D0E7
:1026BA000790FC467412F08D828E838FF074EC12B0
:1026CA0058B4C291C007C006C0051246A8D005D0AA
:1026DA0006D00790FC21E4F090F7E9EDF0EEA3F0C4
:1026EA007582011241CD022B9EC29190FC21E4F029
:1026FA008D828E838FF01258B4905C05C007C00695
:10270A00C00512453090FC1AE0F9A3E0FA89828AE2
:10271A008312458DD005D006D00790F7E9EDF0EE8B
:10272A00A3F07582011241CD022B9E90FC21E0FAA2
:10273A00BA06028061905C15C007C006C005124542
:10274A0030D005D006D00790FC46E0FABA121B8DAD
:10275A00828E838FF074EC1258B490F7E9EDF0EEA4
:10276A00A3F07582011241CD801F90FC467417F0C8
:10277A008D828E838FF074EF1258B490F7E9EDF0E2
:10278A00EEA3F07582011241CDC2911246A890FCC7
:10279A0021E4F0022B9E74012DF9E43EFA90F55CD7
:1027AA00EBF089828A83C007C006C005121759ACAC
:1027BA0082D005D006D0078D828E838FF0EC125816
:1027CA00B48D828E838FF0125A4BFBEC603BBBFEBA
:1027DA00028036905C1EC007C006C005124530D084
:1027EA0005D006D0078D828E838FF0125A4BF58260
:1027FA00C007C006C005124572C2911246A8D0058C
:10280A00D006D00790FC21E4F090F7E9EDF0EEA3B2
:10281A00F07582011241CD022B9E8D828E838FF03C
:10282A00125A4BFB7C0090F586EBF0ECA3F0C374D4
:10283A00F09BE49C5019905B2912453090F7E9749B
:10284A0086F074F5A3F07582011241CD022B9E9099
:10285A00FC32E075F0F1A42472F974F335F0FA89C8
:10286A00828A83E06019905C2B12453090F7E974F4
:10287A0086F074F5A3F07582011241CD022B9E8970
:10288A00828A83EBF090FC32E075F0F1A42472FBAB
:10289A0074F335F0FC0BBB00010C7A0074012DF8BF
:1028AA00E43EF9881289138A1490F586E0F515A397
:1028BA00E0F5168B828C838AF01257C190FC32E0C5
:1028CA00FC0C90FC32ECF0BC0200400590FC32E4B7
:1028DA00F090F7E97486F074F5A3F075820112415D
:1028EA00CD022B9E8D828E838FF0125A4BFC7B0079
:1028FA0090FC26ECF0EBA3F090FC26E0F9A3E0FABA
:10290A00C374709C74039B402E74022DFBE43EFC3E
:10291A008B128C1375140089158A1690F00075F0C5
:10292A00001257C190F7E97426F074FCA3F075827F
:10293A00021241CD022B9E90F7E9744CF0745CA30D
:10294A00F07582081241CD022B9E90FC26E0FC9085
:10295A00F7E97400F074F0A3F08C821241CD022BD7
:10296A009E121A887B008B83121A4390FC2AE0FB82
:10297A00A3E0FC90F7E9EB2400F0EC34F0A3F07547
:10298A0082011241CD022B9E8D828E838FF0125AC4
:10299A004BFC7B008C828B83C007C006C0051214D7
:1029AA00EAD005D006D00790F7E9EDF0EEA3F0756E
:1029BA0082011241CD022B9E758200C007C006C05B
:1029CA0005121580D005D006D00790F7E9EDF0EE94
:1029DA00A3F07582011241CD022B9EC007C006C02A
:1029EA000512159AD005D006D00790F7E9EDF0EE5A
:1029FA00A3F07582011241CD022B9E8D828E838FA8
:102A0A00F0125A4BFC7B0090FC22ECF0EBA3F09006
:102A1A00F7E9EDF0EEA3F07582011241CD022B9E8B
:102A2A0090F7E97422F074FCA3F07582041241CD88
:102A3A00022B9E8D828E838FF0C007C006C00512BE
:102A4A0044EFD005D006D0078D828E838FF0125ABC
:102A5A004BF582C007C006C005124572D005D006E4
:102A6A00D0078D828E838FF0125A4BFC7B008C121A
:102A7A008B138B147515158B1690FC2175F000C0FD
:102A8A0007C006C0051257C1D005D006D00790F777
:102A9A00E9EDF0EEA3F07582151241CD022B9E905E
:102AAA00FC1DE0FBA3E0FC90FC24EBF0ECA3F0900F
:102ABA00F7E97421F074FCA3F07582151241CD0276
:102ACA002B9E8D828E838FF0125A4BFC7B008C8258
:102ADA008B83C007C006C005121939D005D006D0AD
:102AEA000790F7E9EDF0EEA3F07582011241CD02ED
:102AFA002B9E90FC47E0F9A3E0FAA3E0A3E090FC48
:102B0A002CE9F0EAA3F08D828E838FF0125A4BFCE7
:102B1A0090FC21F090FC21E0FBEC24FA4046EB2BE0
:102B2A00902B2E73800A80088006802680248011CC
:102B3A00C007C006C00512159AD005D006D0078076
:102B4A0023C007C006C005121A1CD005D006D0073C
:102B5A008012758200C007C006C005121580D00514
:102B6A00D006D00790F7E9EDF0EEA3F075820112D6
:102B7A0041CD802090F7E97421F074FCA3F07582AE
:102B8A00011241CD800E90F7E9EDF0EEA3F07582C7
:102B9A00011241CD900000222290F7D1E0FFBF013F
:102BAA003990F7B1E0FEA3E0FF90F7D4E0FCA3E090
:102BBA00FD90F7B4E0FAA3E0FBEA4B601D8E828F2A
:102BCA0083E0F9A3AE82AF838C828D83E9F0A3AC54
:102BDA0082AD831ABAFF011B80DF90F7BAE054FD79
:102BEA00F090DE11E043E008F022AE82AF83E0FD10
:102BFA0020E703022CED8E828F83A3E0FD601DBDCA
:102C0A000102802ABD0202803BBD0302805ABD0434
:102C1A00028076BDFE03022CAF022CED75370275D9
:102C2A00380090FC4575F0001230EC022CED90DE75
:102C3A0000E0FD7C007539288C3A8D828C83123134
:102C4A0060022CED8E828F83A3A3E0FCA3E0FD74C7
:102C5A00062EF582E43FF583E0F539A3E0F53A8CD8
:102C6A00828D83123160807B8E048F057B0074060F
:102C7A002EF582E43FF583E0F537A3E0F5388C8240
:102C8A008D838BF01230EC805A90F7B1E0FBA3E011
:102C9A00FCA3E0FD753910753A008B828C838DF0A8
:102CAA00123160803E74022EFEE43FFF7D00754BB8
:102CBA0054754C5C754D807512048D138E828F830A
:102CCA008DF01252B7E5828583F045F06012D291F9
:102CDA0090012C12520BC29190012C12520B8003BC
:102CEA0075C9839000002290DF2FE4F090DF30F066
:102CFA0090DF31F090DF00740CF090DF01744EF039
:102D0A0090DF0274FFF090DF037440F090DF04E478
:102D1A00F090DF05F090DF06F090DF077406F09080
:102D2A00DF08E4F090DF097424F090DF0A743AF0C7
:102D3A0090DF0B74F1F090DF0C74CAF090DF0D7421
:102D4A00A3F090DF0E7401F090DF0F7423F090DF90
:102D5A00107411F090DF117436F090DF127407F0DE
:102D6A0090DF13740FF090DF147418F090DF1514CD
:102D7A00F090DF16746CF090DF177403F090DF1890
:102D8A007440F090DF197491F090DF1A7456F09045
:102D9A00DF1B7410F090DF1C74E9F090DF1D742AB9
:102DAA00F090DF1EE4F090DF1F741FF090DF2374B1
:102DBA0088F090DF247431F090DF257409F090DFF9
:102DCA002E74C0F090DF07C4F090DF097425F090EC
:102DDA00DF0A7495F090DF0B7455F090DF1A74B621
:102DEA00F090DF1B7410F090DF1C74EAF090DF1D86
:102DFA00742AF090DF1EE4F090DF1F741FF0221295
:102E0A00533602535A122E091245D71253941230CE
:102E1A00B6124761121DFF1230E6D2AF122F93D2BB
:102E2A009190000212520BC29190000A12520B1298
:072E3A0041FE121E2380F887
:105AAE0043616E6E6F742063616C6C207472616EF4
:105ABE00736D69745F6C6F6E67207768696C6520B3
:105ACE004648535320486F7070696E67206F72207E
:105ADE00616C72656164792070726F63657373694E
:105AEE006E67207472616E736D69745F6C6F6E6732
:105AFE0021004D41435F74782829207265747572B8
:105B0E006E6564206572726F72006E6576657220C6
:105B1E00656E746572656420545800464853537818
:105B2E006D6974206D65737361676520746F6F2086
:105B3E006C6F6E6700464853532073746174652012
:105B4E00656E746572696E672053594E4348494EAF
:105B5E00472066726F6D2077726F6E672073746167
:105B6E0074650053594E43485F4D4153544552207E
:105B7E002D3E2053594E43494E474D4153544552A5
:105B8E000046485353786D697420646F6E65006EDD
:105B9E006574776F726B207061636B6574287379AF
:105BAE006E6329006E6574776F726B207061636B24
:105BBE00657428646973636F766572792900637200
:105BCE0061702C20706C656173652075736520465D
:105BDE00485353786D6974282920696E7374656112
:105BEE0064210064726F706F75742066696E616CEB
:105BFE0020776169742100746F74616C206279740E
:105C0E0065732074783A00756E64657272756E00F5
:105C1E00627566666572206572726F720073746962
:105C2E006C6C2077616974696E67206F6E20746882
:105C3E0065206C617374207061636B6574004E4FE8
:0B5C4E00204445414C005253544E00CE
:102E4100AF827E017D0090DE0E7405F090FC45742A
:102E510012F0EE7006ED7003022F897B107C279033
:102E6100DE11E030E00D90FC467401F01BBBFF0168
:102E71001C80ECEB4C7014D2919003E812520BC2FF
:102E8100919003E812520B90FFFF22BE012E7E00AB
:102E910090DE2A7440F0EFF0E532F0E533F0E534EE
:102EA100F0C3E533943BE534940040087B3B7C0060
:102EB1007D018021AB33AC347D008019C3E53394AF
:102EC10040E534940040087B407C007D018006ABE6
:102ED10033AC347D00AA2974802A42D685268285A6
:102EE1002783AA368A01E9F0852682852783A3E50F
:102EF10035F0852682852783A3A374DEF08526829B
:102F0100852783A3A3A3742AF0852682852783A31B
:102F1100A3A3A3A3EBF0852682852783A3A3A3A361
:102F2100E054E0F0852682852783A3A3A3A3A3A36E
:102F3100A3E0543F4440F0852682852783A3A3A3C1
:102F4100A3A3A3A3E054CFF0E52942D6E52942D7B4
:102F5100E52955D160FAE529F4FA52D190DE0E74D3
:102F610005F090DE11E043E001F0E533C39BF5335A
:102F7100E5349CF534EB2535F535EC3536F53690F1
:102F8100FC457413F0022E5390FC457414F090002C
:102F91000022E52270051241FE80F72253BE7F0018
:102FA10043BE8090DE0B74F7F090DE0774FFF09063
:102FB100DE09F0438C10538CFED2BD439A02758911
:102FC10000C2C5758B00C2E843A90243B902852638
:102FD10082852783A3A3A3A3E054E0F085268285FD
:102FE1002783A3A3A3A3A3A3E0549F4420F0852692
:102FF10082852783A3A3A3A3A3A3A3E04408F08509
:103001002682852783A3A3A3A3A3A3A3E054FC44FF
:1030110001F090DE01E053E0FEF0E4F525F523F543
:1030210024F52290DE0EF090DE107404F090DE1391
:10303100F090F7BBE4F090F7BAF090F7AFF0A3F09F
:1030410090F7B17488F074F5A3F0E4A3F090F7B4AD
:10305100F0A3F090F7B6F090F7B7F090F7B8F0A3BF
:10306100F090DE0E7405F090DE107408F090DE131F
:10307100F090DE12E043E001F090DE15E043E00164
:10308100F090F7CDE4F090F7CCF090F7C1F0A3F019
:1030910090F7C374A8F074F5A3F0E4A3F090F7C619
:1030A100F0A3F090F7C8F090F7C9F090F7CAF0A339
:1030B100F0439A02221245FB858228AF288FF00542
:1030C100F07401800225E0D5F0FBF529E52875F0C3
:1030D10008A424F9F52674F735F0F52790FC45741A
:1030E10002F0022F9DD29022C29022AFF0AE83E572
:1030F1008290F7D6F0EEA3F0EFA3F090F7BBE0607B
:1031010034D2919003E812520BC2919003E812520B
:103111000BD2919003E812520BC2919003E8125224
:103121000BD2919003E812520BC2919003E8125214
:103131000B90FFFF2290F7D6E0FDA3E0FEA3E0FF96
:1031410090F7ACEDF0EEA3F0EFA3F090F7AFE53719
:10315100F0E538A3F090F7BB7401F090000022AFC6
:1031610083E58290F7D9F0EFA3F090F7BBE06034EC
:10317100D2919003E812520BC2919003E812520BC4
:10318100D2919003E812520BC2919003E812520BB4
:10319100D2919003E812520BC2919003E812520BA4
:1031A10090FFFF2290F7D9E0FEA3E0FF7D0090F7AA
:1031B100ACEEF0EFA3F0EDA3F090F7AFE539F0E559
:1031C1003AA3F090F7BB7401F0900000227F007EDB
:1031D1000290DE0EE4F090F7AFE0FCA3E0FDC3EC5B
:1031E1009420ED940040047B2080068C037F017EB7
:1031F1000A8B017A00ECC399FCED9AFD90F7AFECD4
:10320100F0EDA3F08B05ED603690F7ACE0FAA3E0AA
:10321100FBA3E0FC8A828B838CF0125A4B90DE2058
:10322100F090F7ACE0FAA3E0FBA3E0FC0ABA0001DE
:103231000B90F7ACEAF0EBA3F0ECA3F01D80C79084
:10324100DE11E04EF0EF600590F7BBE4F02290F75D
:10325100BB7402F07582002290F7B1E0FDA3E0FE9D
:10326100A3E0FF90DE11E060FA90DE0EE4F090DE64
:1032710016E0FC7B0090F7B4ECF0EBA3F090F7BA0A
:10328100E030E11290F7BB7403F090DE11E043E00F
:1032910004F090FFFF2290F7BAE04402F090F7B4F7
:1032A100E0FBA3E0FCC374209BE49C501CD29190F2
:1032B100012CC007C006C00512520BC29190012C0F
:1032C10012520BD005D006D00790F7B4E0FBA3E073
:1032D100FC8D07EB4C601690DE20E0FD8F828E8323
:1032E100F0A3AF82AE831BBBFF011C80E6E52C453A
:1032F1002D6009852C82852D8312148990F7B4E005
:10330100FEA3E0FFC3EE9420EF9400501CE52A4594
:103311002B6009852A82852B8312148990DE11E0A6
:1033210043E008F090F7BBE4F090DE11E043E040A9
:10333100F090F7B4E0FEA3E08E82F5832285822E21
:1033410085832F2285823085833122753701753837
:103351000090002575F0400230ECAFF0AE83E582BD
:1033610090F7DBF0EEA3F0EFA3F090F7DBE0FDA325
:10337100E0FEA3E0FF74022DFDE43EFE8D828E830C
:103381008FF0125A4BFD8D2575220122AF827D24CB
:103391007E44BF030874EEB512037512048D828E4C
:1033A10083A3E090F7DEF0AC1290F7DEE0FBBBFF09
:1033B10002803EEBB50723EC700890F7DE74FFF056
:1033C10080E71C8D828E83E02DFDE43EFE8D828E92
:1033D10083A3E0FB90F7DEF080CF8D828E83E02D1A
:1033E100FDE43EFE8D828E83A3E0FB90F7DEF0804C
:1033F100B88D828E8322AFF0AE83E58290F7DFF045
:10340100EEA3F0EFA3F090F7DFE0FDA3E0FEA3E071
:10341100FF74022DFDE43EFE8D828E838FF0125AE1
:103421004BFBA3125A4BFCF97A00B90205BA000210
:10343100801BB90757BA005474AF5BF97A008D82CB
:103441008E838FF0E91258B4A3EA1258B490F7DFD3
:10345100E0FDA3E0FEA3E0FF74022DFDE43EFE8D3E
:10346100828E838FF0125A4BFDA3125A4BF5828D37
:103471001212338DAE82AF8390F7E2EEF0EFA3F03C
:103481008E828F83A3A3E0FE7F00801C8C828B122F
:1034910012338DAC82AD8390F7E2ECF0EDA3F08CAA
:1034A100828D83E0FCFE7F0090F7DFE0FCA3E0FB70
:1034B100A3E0FD74062CFCE43BFB8C828B838DF036
:1034C100125A4BFCA3125A4BFDC3EC9EED9F5004C4
:1034D1008C068D07EE4F700890DE11E043E020F07E
:1034E10090F7E2E0FCA3E0FD8E398F3A8C828D8368
:1034F10002316090DE0EE4F090DE11E0FF30E40D69
:1035010090F7BBE4F090DE11E043E080F0EF30E2B1
:103511002490DE11E4F090FC467404F090F7BBE4D3
:10352100F0D291900014C00712520BC29190001476
:1035310012520BD00790F7BBE0FEBE0319D2919057
:103541000032C00712520BC29190003212520BD0BE
:103551000790F7BBE4F090F7BBE06003023848EF57
:1035610020E00302384890DE0EE4F090DE16E0FF22
:103571007C3B7D007E40EF601690DE20E0FB8C827C
:103581008D838EF01258B4A3AC82AD831F80E7E522
:103591003BFF20E7030237118F055305607E00BD15
:1035A1000005BE0002801EBD2006BE00030236CD0E
:1035B100BD4006BE00030236D8BD6006BE00030250
:1035C10036FD023832741F5FFE7041AD3CBD000212
:1035D100801CBD06028005BD0826800C90003B754D
:1035E100F0401233F702383212334C023832753759
:1035F10002753800905C7575F0801230EC0238323B
:1036010090003B75F040124423023832BE0144ADB4
:103611003CBD00028005BD0A26801275370275384F
:1036210000905C7575F0801230EC0238327537010C
:10363100753800905C7875F0801230EC0238329069
:10364100DE11E043E020F090003B75F0401244238E
:10365100023832BE0235AD3CBD00028008BD120306
:103661000238328012753702753800905C7575F03A
:10367100801230EC02383290DE11E043E020F0900D
:10368100003B75F040124423023832BE032AE4B5F0
:103691003C12753702753800905C7575F0801230F8
:1036A100EC02383290DE11E043E020F090003B75EF
:1036B100F04012442302383290003B75F04012442E
:1036C1002390DE11E043E020F002383290DE11E079
:1036D10043E020F0023832E52E452F60131236E325
:1036E100800BC02EC02F90003B75F0402202383273
:1036F10090003B75F04012385F02383290DE11E0E5
:1037010043E020F090003B75F04012442302383230
:103711008F055305607E00BD0005BE0002801EBD01
:103721002006BE00030237EBBD4006BE0003023790
:10373100FEBD6006BE000302382102383253071F66
:10374100EF7047AE3CBE0103023832BE03030238BC
:1037510032BE0502800BBE0703023832BE09178054
:103761000990DE00E53DF002383290003B75F040F3
:1037710012335B02383290003B75F04012442390C3
:10378100DE11E043E020F0023832BF0128AE3CBE3A
:103791000103023832BE0303023832BE110302387C
:1037A1003290003B75F04012442390DE11E043E07B
:1037B10020F0023832BF021FAF3CBF01028072BF4E
:1037C1000302806D90003B75F04012442390DE119E
:1037D100E043E020F0805A90DE11E043E020F090D9
:1037E100003B75F040124423804790003B75F04048
:1037F10012442390DE11E043E020F08034E52E45B1
:103801002F60121238098029C02EC02F90003B75FD
:10381100F04022801C90003B75F04012385F80110F
:1038210090DE11E043E020F090003B75F04012443F
:103831002390DE11E043E040F0E5414542700890FD
:10384100DE11E043E008F090F7BBE0FFBF01031297
:1038510031CE90F7BBE0FFBF020302325922AFF035
:10386100AE83E58290F7E4F0EEA3F0EFA3F090F7DA
:10387100E4E0FDA3E0FEA3E0FF8D828E838FF012D2
:103881005A4BFC20E703023A5B74012DFAE43EFB3C
:103891008F048A828B838CF0125A4BFC6025BC0109
:1038A100028032BC02028043BC0303023928BC04FB
:1038B1000302395DBCFD0302397ABCFE03023A15ED
:1038C100023AC175370275380090FC4575F0001257
:1038D10030EC023AC190DE00E0FC7B007539288BA8
:1038E1003A8C828B83123160023AC174022DFAE460
:1038F1003EFB8F048A828B838CF0125A4BFAA312FF
:103901005A4BFB74062DF8E43EF98F0488828983B3
:103911008CF0125A4BF539A3125A4BF53A8A828B25
:1039210083123160023AC18D028E038F048A438B68
:10393100448C4574062DF8E43EF98F04888289830E
:103941008CF0125A4BF537A3125A4BF53885438246
:103951008544838545F01230EC023AC190F7B1E01D
:10396100FAA3E0FBA3E0FC753910753A008A828B5B
:10397100838CF0123160023AC174042DFAE43EFBEB
:103981008F048A828B838CF0125A4BFAA3125A4B02
:10399100FBBA0446BB004374C74444603D74062D22
:1039A100FBE43EFA8F048B828A838CF0125A4BFB24
:1039B100A3125A4BFC9044C7E493F97A00C3E99BE4
:1039C100EA9C500C89398A3A9044C7123160800AC6
:1039D1008B398C3A9044C712316090F7E4E0FAA336
:1039E100E0FBA3E0FC74042AFAE43BFB8A828B83AC
:1039F1008CF0125A4BFAA3125A4BFBBA0505BB00C5
:103A0100028003023AC1E4F539F53A90000012311F
:103A110060023AC174022DFAE43EFB8F0490FC4B24
:103A2100747AF0745CA3F07480A3F07512047513BA
:103A3100008A828B838CF01252B7E5828583F04530
:103A4100F06012D29190012C12520BC29190012C74
:103A510012520B806B75C983806690F7D1E0FCBC74
:103A6100015674022DFDE43EFE8D828E838FF0128D
:103A71005A4BFDA3125A4BFE90DE0EE4F090DE1677
:103A8100E0FF7C007511088F828C83C007C006C0DF
:103A910005C004125250D004D005D006D007EF4C17
:103AA100601690DE20E0FB8D828E83F0A3AD82AEA6
:103AB100831FBFFF011C80E690F7BAE054FDFFF0C1
:103AC1009000002290F7CCE030E10A90FC467405AA
:103AD100F090FFFF2290DE0E7405F090DE16E0FFFD
:103AE1007E0090DE17E0FCE42FF546EC3EF54790B2
:103AF100F7CAE0FCA3E0FD4C705890F7C6E4F0A3D0
:103B0100F090DE2AE090F7C8F090DE2AE090F7C945
:103B1100F090DE2AE0FD7C0090F7CAEDF0ECA3F016
:103B210090DE2AE0FAE4FB2DFDEA3CFC90F7CAEDB9
:103B3100F0ECA3F0E54624FCF546E54734FFF547F4
:103B4100C374049D74029C500990F7CA7404F00375
:103B5100A3F0E52955D16012D29190001412520BB5
:103B6100C29190001412520B80E890F7C3E0FBA3BE
:103B7100E0FCA3E090F7C6E0FAA3E0FFEA2BFBEF3D
:103B81003CFCAF2974802F42D68526828527837419
:103B9100DEF0852682852783A3742AF08526828517
:103BA1002783A3A38C078F06EEF0852682852783C2
:103BB100A3A3A3EBF0852682852783A3A3A3A3A3B5
:103BC100A3A3E0543FF0852682852783A3A3A3A363
:103BD100A3A3A3E054CF4410F074052526FEE435D9
:103BE10027FF90DE16E0FD8E828F83EDF0740425B1
:103BF10026FEE43527FF90DE17E08E828F83541F67
:103C0100F5F0E054E045F0F090F7C6E0FFA3E0FEE8
:103C1100EF2546FCEE3547FDC374049C74029D50AC
:103C21000B7404C39FF54674029EF547C374409517
:103C310046E49547502790FC467406F090DE14E068
:103C410053E0FEF0751104900005125250751110E9
:103C510085468285478312525090FFFE22E5294214
:103C6100D6E52942D7E5462FFEE5473EFF90F7C648
:103C7100EEF0EFA3F0E52955D160FAE529F452D130
:103C810090F7C6E0FEA3E0FF90F7CAE0FCA3E0FDD9
:103C9100C3EE9CEF9D402B90F7CCE04402F090F7EF
:103CA100CAE4F0A3F090DE0E7405F0AE2374BF55A4
:103CB10024FF8E238F2490DE14E053E0FEF0900069
:103CC100012290DE0E7405F0AE2374BF5524FF8EE1
:103CD100238F2490DE14E053E0FEF0900000229048
:103CE100F7CCE020E1012290F7C3E0FDA3E0FEA3C1
:103CF100E0FF90F7E7EDF0EEA3F090F7C8E0F54DA7
:103D010074FFB54D0280030241A590F7C9E0FBBBEA
:103D110080005003024187EB246C5003024187EB82
:103D21002480FA240A83F582EA241883F583E47354
:103D310059EA629F8FB6D7EE2710878787878FC290
:103D41002187873A3D3D3F3F3E3F3F3F4040414114
:103D510041414040414141418D828E838FF0125A51
:103D61004BFA74012DF548E43EF5498A4B754C0038
:103D710090F7CAE54BF0E54CA3F08548828549836D
:103D8100E0F54A74012548F54DE43549F54EA94A57
:103D91008902E4F9254BF54BEA354CF54C90F7CA0D
:103DA100E54BF0E54CA3F0854D82854E83E0F88527
:103DB1004882854983A3A3884D894EE0FAE4254DC5
:103DC100F9EA354EFA89358A3690F7C8E0FA90F764
:103DD100C9E0F532854B33854C348A82122E4190ED
:103DE100F7CAE4F0A3F002419D8D828E838FF01219
:103DF1005A4BFA8D828E83A38A4B754C00E0F8747E
:103E0100022DF54DE43EF54E8802E4254BF8EA35E6
:103E11004CFA90F7CEE8F0EAA3F090F7C6E0F9A3E8
:103E2100E0FAE924FEF54BEA34FFF54CE54B454C4D
:103E3100603D90F7CEE0F548A3E0F54974012548CF
:103E4100F9E43549FA90F7CEE9F0EAA3F0854D821D
:103E5100854E83E0FAA385824D85834E8548828510
:103E61004983EAF0154B74FFB54B02154C80BD90A8
:103E7100F7C8E0FA90F7C9E0F5327535CA7536F73B
:103E81007533027534008A82122E4102419D90F7EA
:103E9100CCE020E2338D828E838FF0125A4BFA8D63
:103EA100828E83A38A4D754E00E0F890F7E7740285
:103EB1002DF0E43EA3F08802E4254DF8EA354EFAF0
:103EC10090F7CEE8F0EAA3F090F7CAE0F9A3E0FAA0
:103ED100894D8A4EC37440954DE4954E5006754DFB
:103EE10040754E00E9C3954DF9EA954EFA90F7CA2F
:103EF100E9F0EAA3F090F7E7E0F54BA3E0F54CE534
:103F01004D454E603D90F7CEE0F548A3E0F549748C
:103F1100012548F9E43549FA90F7CEE9F0EAA3F032
:103F2100854B82854C83E0FAA385824B85834C8542
:103F31004882854983EAF0154D74FFB54D02154E4F
:103F410080BD90F7C8E0FA90F7C9E0F5327535CA3F
:103F51007536F77533027534008A82122E4102419B
:103F61009DD291900002C007C006C00512520BC23B
:103F71009190000212520BD005D006D00790F7C8DD
:103F8100E0FA90F7C9E0F53290F7C6E0F533A3E027
:103F9100F5348D358E368A82122E4102419D75355A
:103FA1007F75365C8B3275330D753400854D821209
:103FB1002E4102419D90FC47E0F8A3E0F9A3E0A364
:103FC100E0883589368B32753304753400854D822E
:103FD100122E4102419D75356275365C8B32753307
:103FE10013753400854D82122E4102419D90F7C612
:103FF100E0F533A3E0F5348B328D358E36854D8275
:10400100122E419000C812520B12460A02419D75B0
:10401100355975365C8B32753309753400854D829F
:10402100122E4102419D8D828E838FF0125A4BFCDC
:1040310074012DF9E43EFABC0202800ABC0302803D
:1040410021BC0429800DC002C0011246CDD001D08F
:1040510002801AC291C002C00112472FD001D002C2
:10406100800BC002C0011246EFD001D00290F7C808
:10407100E0FC90F7C9E0F53290F7C6E0F533A3E034
:10408100F53489358A368C82122E4102419D90F792
:10409100CA7401F0E4A3F07535367536DF90F7C8C0
:1040A100E0FC90F7C9E0F53290F7CAE0F533A3E000
:1040B100F5348C82122E4190F7CAE4F0A3F002414C
:1040C1009D8D028E048C017C0090FC4B748DF074EC
:1040D1005CA3F07480A3F07512098C138A82898322
:1040E1008CF0C007C006C0051252B7E5828583F087
:1040F100D005D006D00745F0600302419D75C98007
:1041010090F7C8E0FC90F7C9E0F53290F7C6E0F50A
:1041110033A3E0F5348D358E368C82122E41807CAE
:1041210090FC45E4F090FC46F090F7E9EDF0EEA349
:10413100F07582021241CD80638D828E838FF012E1
:104141005A4BFC74012DF9E43EFABC0002800BBC11
:10415100010F90FC8E7401F0800C90FC8EE4F080D5
:104161000590FC8EE4F090F7C8E0FC90F7C9E0F50B
:104171003290F7C6E0F533A3E0F53489358A368C01
:1041810082122E41801690F7C6E0F533A3E0F53494
:104191008B328D358E36854D82122E4190F7CCE0D3
:1041A10054FDF022E5304531601985308285318337
:1041B100121489AE82AF83EE4F701090F7CCE054A9
:1041C100FDF02290F7CCE054FDFFF022E58290F75C
:1041D100EBF090F7CCE054FDF090F7C8E0FF90F7DA
:1041E100C9E0F53290F7EBE0FE8E3375340090F7BD
:1041F100E9E0F535A3E0F5368F82022E41E5233063
:10420100E01175220274FE5523FEAF248E238F2404
:1042110043BE01E5235406602D90FC45740AF075F8
:10422100220374FD5523FEAF248E238F2490DE01DB
:10423100E043E004F090000812520B90DE01E053DD
:10424100E0FBF075220190DE0EE4F090DE11E0302B
:10425100E21990DE11E053E0DBF090F7AFE4F0A358
:10426100F090F7B4F0A3F090F7BBF090DE0E740578
:10427100F090DE11E030E51F90DE11E053E0CFF069
:1042810090FC467408F090F7C1E4F0A3F090F7C6F3
:10429100F0A3F090F7CDF090DE14E030E61F90DE51
:1042A10014E053E09FF090FC467408F090F7C1E4ED
:1042B100F0A3F090F7C6F0A3F090F7CDF0E523203E
:1042C100E2057404B52214122F9D90FC45740BF085
:1042D10074FB5523FEAF248E238F24E52330E41194
:1042E1001234F474E75523FE740F5524FF8E238F87
:1042F10024E52430E65490FC45740CF0123AC5AE26
:1043010082AF83BEFE41BFFF3E90F7EC7406F0E43E
:10431100A3F090F7C8E0FF90F7C9E0F5327535ECEE
:104321007536F77533027534008F82122E4190F77E
:10433100C8E0FF7535EC7536F775320175330275D6
:1043410034008F82122E41123CE0E52354E07006C6
:10435100E52454BD602990FC467409F0751108905C
:104361000044125250852382852483751110125204
:104371005074E05523FE74BD5524FF8E238F2422F3
:10438100C0E0C082C083C007C006C005C004C0D061
:1043910075D000E5BE30E6FB90DE06E0FF7E00E56D
:1043A100234207E52442068F238E2490DE02E0FD9E
:1043B100E4CDC4CD6DCD54F0CD6DFCED4207EC42A2
:1043C100068F238E2490DE04E07C0025E0CCE442BD
:1043D10007EC42068F23EEF52430E11290F7CCE092
:1043E10054FEF0AE2374FD5524FF8E238F24758B6C
:1043F10000C2E8D0D0D004D005D006D007D083D0F9
:1044010082D0E032C0E0E5BE30E6FBC2AFE58930E4
:10441100E70375220353BEFC758900C2C5D2AFD034
:03442100E0322264
:105C590053444343763432300059415244535449F2
:105C6900434B4F4E45207230353536000000000059
:105C7900005253544E00554E494D504C454D454EDA
:0E5C89005445440052455345545F4E4F57005A
:104424001201000200000020501D5B600101010226
:1044340003010A0600020000002001000902200016
:1044440001010080FA0904000002FFFFFF000705D4
:104454008502400001070505024000010403090428
:1044640028034700720065006100740020005300B7
:1044740063006F0074007400200047006100640052
:1044840067006500740073001E0359004100520068
:104494004400200053007400690063006B00200096
:1044A4004F006E0065000A03300030003000300019
:1044B40012034D0053004600540031003000300018
:1044C400FD00FF28000000000104000100000000BE
:1044D400000000000157494E5553420000000000FF
:1044E4000000000000000000000000AF83E582909F
:1044F400F7EEF0EFA3F090F7EEE0FEA3E0FF7C0010
:104504007D008E028F038A828B83E0F9A3AA82AB9B
:1045140083E960070CBC00EE0D80EB7532F08C3340
:104524008D348E358F367582FE022E41AF83E5823F
:1045340090F7F0F0EFA3F090F7F0E0FEA3E0FF7C3B
:10454400007D008E028F038A828B83E493F9A3AAF1
:1045540082AB83E960070CBC00ED0D80EA8E358FD9
:10456400367532F08C338D347582FE022E41E5822D
:1045740090F7F2F07535F27536F77532F17533014F
:104584007534007582FE022E41AF83E58290F7F305
:10459400F0EFA3F07535F37536F77532F275330223
:1045A4007534007582FE022E41AF82AE83ADF0FCFD
:1045B40090F7F5EFF0EEA3F0EDA3F0ECA3F0753572
:1045C400F57536F77532F37533047534007582FE6C
:0345D400022E4173
:0314E400750A0086
:1045D7007EF97FF78FD575D4F97E017FF88FD37574
:1045E700D20175120075131875140090F7F975F05C
:1045F700000258497403B50A047582FF22850A82AE
:10460700050A2290DF46E0FFBFF00E90DF47E0FF8C
:10461700BF0D0690DF487469F0C2AF759A0075B890
:104627000075A8001230E953BE7F75D69FC291026C
:10463700000022125868AC82AD83AEF0FFC004C000
:1046470005C006C0079037BD75F086743D1256F059
:10465700AC82AD83AEF0FFE58124FCF581E4C0E0D8
:10466700C0E074C0C0E07441C0E08C828D838EF0DE
:10467700EF125988AC82AD83AEF0FFE58124FCF5DB
:10468700818C828D838EF0EF12587BAC82AD83AE26
:10469700F090DF09EEF090DF0AEDF090DF0BECF021
:1046A7002275E10490DF3BE0FFBF01F890FC1CE0BE
:1046B700F5E190FC1CE0FFBF04012290DF3BE0FF27
:1046C700BF010280ED2290FC1CE0FFBF0201229097
:1046D700DF13E053E0F0F090DF13E043E00FF090DA
:1046E700FC1C7402F0024B9C90FC1CE0FFBF030112
:1046F7002290DF13E053E0F0F090DF13E043E00A8D
:10470700F090FC1C7403F090FC8CE024FF92A0C294
:10471700A490FC8CE06401FF24FF92A375E1039051
:10472700DF3BE0FFBF13F82290FC1CE0FFBF040152
:104737002290DF13E053E0F0F05391EFC2A0C2A440
:10474700D2A375E10490DF3BE0FFBF01F8539BFC68
:1047570053E9EF90FC1C7404F02290FC1FE4F0A3D3
:10476700F090FC12F0A3F090FC14F0A3F053C6C72E
:10477700759D00859E9E439E0485A9A943B9019016
:10478700FC1C7404F0751200751300F51490F812F0
:1047970075F000125849122CF1D2A87591D175E91C
:1047A70000750B00439A01C2A0C2A4D2A375E1040D
:1047B70090DF3BE0FFBF01F8227E007F00C3EE944D
:1047C700DCEF9405502390DF3CE0545060049000E8
:1047D7000122900032C007C006125232D006D0071D
:1047E70074322EFEE43FFF80D490000022AF83E5B1
:1047F7008290FC3CF0EFA3F090FC3EE4F090DF02E7
:10480700E0FF90DF3BE0FEBE131EA291B392029041
:10481700FC8EE0FEA202E4335206EE24FF9291C022
:10482700071241FED00780DAC29190FC8AE4F0902B
:10483700FC38E0FDA3E0FE90FC80EDF0EEA3F090E5
:10484700FC3AE0FBA3E0FC90FC86EBF0ECA3F090D5
:10485700FC36E0F9A3E0FA90FC82E9F0EAA3F090D5
:10486700FC84E9C39BF0EA9CA3F090FC84E0FBA3E3
:10487700E0FC8D128E138B828C83C007C006C005A7
:10488700C002C0011258CFAB82AC83D001D002D096
:1048970005D006D00790FC88EB29F0EC3AA3F0E9A5
:1048A7004A7073C00790FC3CE0FBA3E0FC8B828C52
:1048B70083E0F8880C750D0090FC36E50CF0E50DEB
:1048C700A3F090DF04E0F87F00740358F50E8F0F14
:1048D700E4B50E07B50F04D0078020D0077401B5E3
:1048E7000E0614B50F0280030249B590FC36740119
:1048F700250CF0E4350DA3F00249B590FC3C74019A
:104907002BF0E43CA3F090FC36E0FBA3E0FC90DF47
:1049170002EBF00249B590DF04E0FC5304037B008F
:10492700BC0005BB00028049BC0105BB0002800337
:104937000249B590FC3CE0FBA3E0FC90FC3FE9F0AA
:10494700EAA3F090FC417401F0E4A3F08B828C831E
:10495700C007C002C0011251B6D001D002D00790E3
:10496700FC3CE0FBA3E0FC89008B828C83E8F080B1
:104977003DED4E603490FC88E0FDA3E090DF02ED52
:10498700F090DF04E053E0FCF090FC88E0FDA3E04A
:10499700FEC374FF9DE49E500890DF04E043E002ED
:1049A700F090FC8A7401F0800590DF02E9F0D2A84C
:1049B70090FC8BE020E303024AEB90DF04E0FE5318
:1049C70006037D00BE0109BD000690FC3E7401F0A0
:1049D70090FC3EE0FE90FC3CE0FCA3E0FDEE2CFAF0
:1049E700E43DFB90FC36E0F8A3E0F990FC5DE8F0CD
:1049F700E9A3F08A828B83C007C006C005C00412F2
:104A07005538AA82AB83D004D005D006D00790FCD6
:104A17008BE0F85300047900B8043EB9003BC007A7
:104A2700EE2CF8E43DF990FC8BE054F0FF90FC612C
:104A3700E8F0E9A3F090FC63EAF0EBA3F090FC65E3
:104A4700EFF088828983C007C003C00212556ED079
:104A570002D003D007D0078035EE2CFCE43DFD9053
:104A6700FC8BE054F0FE90FC68ECF0EDA3F090FCBA
:104A77006AEAF0EBA3F090FC6CEEF08C828D83C0B9
:104A870007C003C0021255B7D002D003D00790FC6D
:104A97003EE0603390FC8BE0FE5306F07D00BE5095
:104AA70014BD001190FC3CE0FDA3E0FE8D828E83D7
:104AB7007410F0802F90FC3CE0FDA3E0FE8A048D8B
:104AC700828E83ECF0801D90FC8BE0FE5306F07D18
:104AD70000BE500BBD000890DF027410F0800590F7
:104AE700DF02EAF090FC3CE0FDA3E0FE90FC18ED4D
:104AF700F0EEA3F090FC7EE4F0A3F090FC8CE024B1
:104B0700FF92A0C2A490FC8CE0640124FF92A375DD
:104B1700E1037D607EEA90DF3BE0FCBC1302802F5F
:104B27001DBDFF011EED4E6026A291B3920290FCBF
:104B37008EE0FCA202E4335204EC24FF9291C007FA
:104B4700C006C0051241FED005D006D00780C79029
:104B5700FC8EE05401FC24FF9291ED4E700690FC10
:104B6700467413F090DF3BE0FEBE131EA291B39292
:104B77000290FC8EE0FEA202E4335206EE24FF927E
:104B870091C0071241FED00780DAC29190DF02EF91
:104B9700F075820122D2A8751200751300751402F0
:104BA70090F81275F00012584990FC12E4F0A3F047
:104BB70090FC14F0A3F090FC16F090FC1704F09012
:104BC700F811E4F0539BFC53E9EFC2A090FC8CE092
:104BD70024FF92A4E06401FF24FF92A375E10290F1
:104BE700DF3BE0FFBF0DF84391102290FC8D74016D
:104BF700F02290FC8DE4F022C021C0E0C0F0C0821A
:104C0700C083C007C006C005C004C003C002C001FE
:104C1700C000C0D075D00090FC457411F0C28990D7
:104C2700DF3BE0FFBF0D028003024D4890FC8EE0A2
:104C37005401FF24FF929190FC77E0602590FC7867
:104C4700E0FEA3E0FFEE24FFFCEF34FFFD90FC78CD
:104C5700ECF0EDA3F074FF2F400890DF04E053E081
:104C6700FCF090FC1C7402F090F811E07E0025E047
:104C7700CEE42412FFEE34F8FEE075F002A424120D
:104C8700FC74FC35F0FD8C828D83E0FAA3E0FB74A5
:104C9700012AF8E43BF98C828D83E8F0E9A3F0EA76
:104CA7002FF582EB3EF583E5D9F090F811E075F02A
:104CB70002A42412F58274FC35F0F583E0FEA3E02C
:104CC700FFC39402501A90F811E075F002A4241261
:104CD700F58274FC35F0F583E0FEA3E0FF4E701912
:104CE70090F811E075F002A42412F58274FC35F0F7
:104CF700F58374FFF07401A3F090FC78E0FEA3E065
:104D0700FF4E6003024EF790FC77E07003024EF708
:104D170090FC7AE0FEA3E0FF90FC78EEF0EFA3F0C2
:104D270090FC78E0FEA3E07F0090DF02EEF090DFDA
:104D370004E053E0FCF090DF04E043E002F0024EB1
:104D4700F790DF3BE0FFBF13028003024EF790FCB2
:104D57008AE07003024E8890FC2EE0FEA3E0FF0E6F
:104D6700BE00010F90FC2EEEF0EFA3F090FC7EE06A
:104D7700FEA3E0FF90FC82E0FCA3E0FDEEB5040695
:104D8700EFB505028003024E6090FC80E0FEA3E0D1
:104D97004E603890FC80E0FEA3E0FFBEFF05BF0039
:104DA70002801590FC80E0FEA3E0FF1EBEFF011FFE
:104DB70090FC80EEF0EFA3F090FC86E0FEA3E0FF0E
:104DC70090FC7EEEF0EFA3F0024E6090FC82E0F5DF
:104DD70012A3E0F51390FC7CE0FF7E008F828E83A8
:104DE7001258CFAE82AF8390FC18E0FCA3E0FDEE33
:104DF7002CF582EF3DF583E4F090FC7CE02401FF85
:104E0700F090FC7DE0FEEFB5060590FC7CE4F090A9
:104E1700FC82E0F512A3E0F51390FC7CE0FF7E0036
:104E27008F828E831258CFAE82AF8390FC18E0FC3E
:104E3700A3E0FDEE2CFEEF3DFF8E828F83E0701026
:104E470090FC21E4F090FC467412F01246A8C2913F
:104E570090FC7E7401F0E4A3F090FC88E0FEA3E0F0
:104E6700FFEE24FFFCEF34FFFD90FC88ECF0EDA390
:104E7700F0BEFF22BF001F90DF04E053E0FCF0808C
:104E87001590FC88E0FEA3E0FF1EBEFF011F90FC0B
:104E970088EEF0EFA3F090FC1C7403F090FC82E026
:104EA700F512A3E0F51390FC7CE0FF7E008F828E65
:104EB700831258CFAE82AF8390FC7EE0FCA3E0FD67
:104EC70090FC7E74012CF0E43DA3F0EC2EFEED3F48
:104ED700FF90FC18E0FCA3E0FDEE2CF582EF3DF51A
:104EE70083E0F5D990FC1AE02401F0A3E03400F048
:104EF700D0D0D000D001D002D003D004D005D00646
:104F0700D007D083D082D0F0D0E0D02132C021C0EA
:104F1700E0C0F0C082C083C007C006C005C004C09F
:104F270003C002C001C000C0D075D000751000904A
:104F3700FC457410F0539BFCE5E9420BE5E930E0D2
:104F47001C90FC1DE0FDA3E08D067D00AB9C7C0062
:104F570090FC1FED4BF0EE4CA3F053E9FEE5E9544E
:104F670070700302512190FC1CE0FEBE0306530B38
:104F77008F02511E90F811E0B401009203E433FD53
:104F87007E002416F582EE34FCF583E0FEBE0102B6
:104F970080030250D590FC8BE020E1030250AD90D6
:104FA700DF04E0FE5306037D00BE0106BD00037566
:104FB700100190FC8BE0FE5306017D00BE0176BD1B
:104FC700007390F811E07D0025E0CDE42412FEED9A
:104FD70034F8FDAB107C00EB2EFEEC3DFDE0F97ADA
:104FE7000029CAE42412F9EA34F8FAEB29FBEC3A6F
:104FF700FCE075F002A42412F58274FC35F0F58309
:10500700E0F9A3E0FAA8107F00E9C398F9EA9FFA4C
:1050170090FC8BE054F0FF90FC61EBF0ECA3F09078
:10502700FC63E9F0EAA3F090FC65EFF08E828D83D4
:1050370012556E807190F811E07E0025E0CEE424D1
:1050470012FFEE34F8FEAC107D00EC2FFFED3EFEB4
:10505700E07A0025E0CAE42412FBEA34F8FAEC2BE4
:10506700FCED3AFDE075F002A42412F58274FC35DC
:10507700F0F583E0FAA3E0FBA8107900EAC398FAF9
:10508700EB99FB90FC8BE054F0F990FC68ECF0EDA9
:10509700A3F090FC6AEAF0EBA3F090FC6CE9F08FC8
:1050A700828E831255B790F811E063E001F090F813
:1050B70011E075F002A42412F58274FC35F0F58333
:1050C700E4F0A3F090FC16F090FC17F0804790FCFA
:1050D700467412F0A291B3920390FC8EE0FFA203F4
:1050E700E4335207EF24FF929190F811E075F00234
:1050F700A42412F58274FC35F0F583E4F0A3F0A242
:1051070091B3920390FC8EE0FFA203E433FE5207B3
:10511700EF24FF9291C29153E9CFE5E930E637904A
:10512700FC467410F0A291B3920390FC8EE0FFA2AC
:1051370003E4335207EF24FF92911246A8A291B3DA
:10514700920390FC8EE0FFA203E433FE5207EF24A4
:10515700FF929153E9BFE5E930E73790FC467411B8
:10516700F0A291B3920390FC8EE0FFA203E43352C6
:1051770007EF24FF92911246A8A291B3920390FCE5
:105187008EE0FFA203E433FE5207EF24FF92915310
:10519700E97FD0D0D000D001D002D003D004D00511
:1051A700D006D007D083D082D0F0D0E0D02132AF64
:1051B70083E58290FC43F0EFA3F090FC41E0FEA36F
:1051C700E0FF90FC43E0FCA3E0FD90FC3FE0FAA386
:1051D700E0FB8A008B011ABAFF011BE8496024EE45
:1051E7002AF8EF3BF9E82CF8E93DF9EA2CF582EBD0
:1051F7003DF583C006C007E088828983F0D007D0D9
:045207000680CF222C
:105C970000000000000001000000000000000000FC
:075CA70000000000000000F6
:10520B00AE82AF831EBEFF011FC3E49E74808FF07E
:10521B0063F08095F0500F7C4C7D041CBCFF011D8E
:10522B00EC4D70F780DE22AE82AF83EE2EFEEF33B5
:10523B00FF1EBEFF011FC3E49E74808FF063F080DE
:10524B0095F040ED22AE82AF83D2919003E8C00778
:10525B00C00612520BC2919001F412520BD006D021
:10526B0007EE30E020900019C007C00612520BD297
:10527B009190022612520BC29190001912520BD030
:10528B0006D007801E900113C007C00612520BD226
:10529B009190003212520BC29190011312520BD00B
:1052AB0006D007EFC313CE13CEFF80B5AFF0AE839E
:1052BB00E58290FC4EF0EEA3F0EFA3F090FC4EE0F5
:1052CB00FDA3E0FEA3E0FF90FC4BE0FAA3E0FBA301
:1052DB00E0FCA812A913E849604DC000C0018D8203
:1052EB008E838FF0125A4BF98A828B838CF0125A71
:1052FB004BF8E9C398F98914D001D000600D8514DF
:10530B0015751600851582851683220DBD00010EBD
:10531B0090FC4EEDF0EEA3F0EFA3F00ABA00010BF8
:10532B0018B8FF011980AF9000002253BEFBE5BEF9
:10533B0030E6FB53C6B8E5C620E6FB43BE04E5BE2C
:10534B0030E6FB53C6C743E40C43E401D2B9224316
:10535B00FE0F43FF19C292C293C2A0C2A4D2A3C232
:10536B009122C0E0C082C083C0D090FC47E02401F2
:10537B00F0A3E03400F0A3E03400F0A3E03400F03D
:09538B00D0D0D083D082D0E032F2
:015CAE0001F4
:105394001245FBAF8290FC55EFF08F068EF005F0BE
:1053A4007401800225E0D5F0FB90FC56F0EF75F017
:1053B40008A424F9FE74F735F0FF90FC51EEF0EFE9
:1053C400A3F08E828F83A3A374DFF090FC51E0FEE0
:1053D400A3E0FF8E828F83A3A3A374B1F090FC514A
:1053E400E0FEA3E0FF8E828F83A3A3A3A3A3741084
:1053F400F090FC51E0FEA3E0FF74062EF582E43F3A
:10540400F583E054E0441DF090FC51E0FEA3E0FF7E
:1054140074072EF582E43FF583E0543F4440F09056
:10542400FC51E0FEA3E0FF74072EF582E43FF58310
:10543400E054FC4401F01245FBAF8290FC57EFF0BE
:105444008F068EF005F07401800225E0D5F0FB9004
:10545400FC58F0EF75F008A424F9FE74F735F0FF5A
:1054640090FC53EEF0EFA3F08E828F8374DFF09004
:10547400FC53E0FEA3E0FF8E828F83A374B2F0900E
:10548400FC53E0FEA3E0FF8E828F83A3A3A3A3A318
:105494007410F090FC53E0FEA3E0FF74062EF58236
:1054A400E43FF583E054E0441EF090FC53E0FEA397
:1054B400E0FF74072EF582E43FF583E054CF4410F7
:1054C400F090FC53E0FEA3E0FF74072EF582E43F66
:1054D400F583E054FC4401F043A91043B91022AF12
:1054E40083E58290FC5BF0EFA3F0E5B330E3FB903F
:1054F400FC51E0FEA3E0FF90FC5BE0FCA3E0FD8D2B
:10550400038B028E828F83EAF090FC51E0FEA3E0CD
:10551400FF8E828F83A3ECF090FC56E0FF42D6000E
:1055240090FC59E0FF90FC5AE04F4401F5B3E5B319
:1055340030E3FB22AF83E58290FC5FF0EFA3F090B1
:10554400FC5FE0FEA3E0FF90FC5DE0FCA3E0FDEC6B
:10555400540F6011EC2EF582ED3FF5830CBC000175
:105564000DE4F080EA8C828D8322AF83E58290FC87
:1055740066F0EFA3F090FC66E0FEA3E0FF90FC6110
:10558400E0FCA3E0FD90FC63E0FAA3E0FB90FC6583
:10559400E0F990FC6FECF0EDA3F090FC71EAF0EB15
:1055A400A3F090FC73E4F090FC74E9F08E828F8396
:1055B400025601AF83E58290FC6DF0EFA3F090FCFE
:1055C4006DE0FEA3E0FF90FC68E0FCA3E0FD90FC2E
:1055D4006AE0FAA3E0FB90FC6CE0F990FC6FECF05D
:1055E400EDA3F090FC71EAF0EBA3F090FC7374026D
:1055F400F090FC74E9F08E828F83025601AF83E54C
:105604008290FC75F0EFA3F0E5B330E3FB90FC75FA
:10561400E0FEA3E0FF90FC6FE0F518A3E0F519901D
:10562400FC74E0FB74505BF51790FC73E0F94B4499
:1056340001FB740149F51690FC71E0F512A3E0F545
:1056440013E4F514F515C3E5149512E51595134007
:105654000122C00390FC51E0F8A3E0FBE5142EF90D
:10566400E5153FFA8A058D0488828B83ECF090FC63
:1056740051E0FCA3E0FD8C828D83A3E9F090FC5300
:10568400E0FCA3E0FD8C828D83A3A3E5142518FC24
:10569400E5153519FD8D038B02EAF090FC53E0FA11
:1056A400A3E0FB8A828B83A3A3A3ECF090FC58E0D5
:1056B400FD90FC56E04D42D60000D003E51760177C
:1056C400E51224F0FCE51334FFFDECB51409EDB547
:1056D40015058516B380028BB3E5B330E3FB741074
:1056E4002514F514E43515F51502564A125793BCE2
:1056F400000302595AEF60FA30D502B2D1E583B4FF
:10570400FF03025970E582B4FF03025970258340F8
:10571400072482400B02595A2483145003025970FF
:10572400F582EA8DF0A4A8F0EA8EF0A428F8E43516
:10573400F0F9EB8DF0A428E935F0F9E433CA8FF0E1
:10574400A429F9EA35F0FAEBF88EF0A429F9EA3540
:10575400F0FAE433FBEC8DF0A429F9EA35F0FAE42D
:105764003BFBE88FF0A42AFAEB35F0FBE433CCFDE5
:105774008EF0A42AFAEB35F0FBE43CFCED8FF0A4A8
:105784002BFBEC35F0FC20E703125816025939AA1A
:1057940082AB83A2F73392D1F5826002D2F7ACF0E8
:1057A400E58124F9F8E6FD08E6FE0886F008E6A29D
:0D57B400F73392D5F5836002D2F7AFF022F3
:0614BA00E478FFF6D8FD06
:1057C100AD82AE83AFF08D178E188F1985121A85B1
:1057D100131B85141CA815A9168803890418B8FF82
:1057E1000119EB4C6025851A82851B83851CF012FB
:1057F1005A4BFCA385821A85831B8D828E838FF081
:10580100EC1258B4A3AD82AE8380CE851782851881
:10581100838519F0227804EC7011E58224F8500A8E
:10582100F582E4C9CACBFCD8EF22EC7820058220AE
:10583100E713D5820122C3E933F9EA33FAEB33FBEB
:10584100EC33FCD8EA158222AC82AD83AE13AF14DF
:10585100BE0004EF600C1F0FE5121258B4A3DEFA6C
:07586100DFF88C828D832229
:101498007918E94400601B7A01905C977877759316
:1014A800FCE493F2A308B800020593D9F4DAF275C4
:0214B80093FFA0
:10586800FCABF0AA83A982749EC2D1F582125816A5
:105878000259397F9E1258A230D10302595AC3EFF8
:105888009582500974FFF5F0F583F58222790012AC
:105898005A6789828A838BF0EC22AA82AB83A2F7AB
:1058A8003392D1F5826002D2F7ACF02220F71130A2
:1058B800F6138883A88220F509F6A8837583002249
:1058C80080FEF280F5F022E5828512F0A4C582C040
:1058D800F08513F0A4D0F025F0C5838512F0A42537
:1058E80083F58322E512451360467A01E51225E027
:1058F800F512E513334012F513E5829512E5839509
:105908001340030A80E6C3E51313F513E51213F5F4
:1059180012C3E5829512F5F0E58395134005F583EA
:1059280085F082C3E51313F513E51213F512DAE1D6
:01593800224C
:1014C0007800E84400600A79007593F0E4F309D8E5
:1014D000FC7877E8440C600C790D90F000E4F0A300
:0414E000D8FCD9FA61
:02148900E4730A
:10593900B98003EA13B34010EA2401FAE43BFBE41B
:105949003CFC50047C800582BC000EBB000BBA00F5
:1059590008E4F5F0F583F58222A2D1E582138CF0F3
:1059690092F78B838A8222E4F583F58275F080F4BD
:10597900A2D11322E4F583F58275F0C0747F221257
:10598900579330D502B2D1BF0009BC000302597D3B
:10599900025970BC000302595AE583B4FF0BE58232
:1059A900B4FF0302597D02595AE582B4FF03025933
:1059B90070C395835007247F400B02595A248014E1
:1059C9005003025970F582C3ED9AEE9BEF9C40118A
:1059D9001582C3EA33F9EB33FAEC33FBE433FC8089
:1059E90005E4CCCBCAF9C08275F019C3E99DEA9EDA
:1059F900EB9FEC9400D5F002802D400EE99DF9EA69
:105A09009EFAEB9FFBEC9400FCC3B3E833F8E58204
:105A190033F582E58333F583C3E933F9EA33FAEBE6
:105A290033FBEC33FC80C4B3E4F938FAE43582FB88
:105A3900E43583FCD082500405827C80125816021A
:025A49005951B1
:0D148B0075814E125AAAE582600302148694
:105A4B0020F71430F6148883A88220F507E6A88384
:105A5B0075830022E280F7E49322E0226040F82570
:105A6B0082500274FFF582E824F8501ECCCBCAF9A1
:105A7B00E4CC24F85014CBCAF9E4CB24F8500BCA6D
:105A8B00F9E4CA24F8500379002224086010F8C303
:105A9B00EC13FCEB13FBEA13FAE913F9D8F12275BB
:035AAB0082002254
:00000001FF
